{
	"contracts/emp_crud.sol": {
		"Crud": {
			"abi": [
				{
					"inputs": [
						{
							"internalType": "uint256",
							"name": "_id",
							"type": "uint256"
						}
					],
					"name": "cist_zam",
					"outputs": [
						{
							"internalType": "uint256",
							"name": "",
							"type": "uint256"
						},
						{
							"internalType": "string",
							"name": "",
							"type": "string"
						},
						{
							"internalType": "string",
							"name": "",
							"type": "string"
						},
						{
							"internalType": "uint256",
							"name": "",
							"type": "uint256"
						}
					],
					"stateMutability": "view",
					"type": "function"
				},
				{
					"inputs": [],
					"name": "pocet_zam",
					"outputs": [
						{
							"internalType": "uint256",
							"name": "pocet",
							"type": "uint256"
						}
					],
					"stateMutability": "view",
					"type": "function"
				},
				{
					"inputs": [
						{
							"internalType": "uint256",
							"name": "_id",
							"type": "uint256"
						},
						{
							"internalType": "string",
							"name": "jmeno",
							"type": "string"
						},
						{
							"internalType": "string",
							"name": "mail",
							"type": "string"
						},
						{
							"internalType": "uint256",
							"name": "plat",
							"type": "uint256"
						}
					],
					"name": "upravit_zam",
					"outputs": [],
					"stateMutability": "nonpayable",
					"type": "function"
				},
				{
					"inputs": [],
					"name": "vsichni_zam",
					"outputs": [
						{
							"components": [
								{
									"internalType": "uint256",
									"name": "id",
									"type": "uint256"
								},
								{
									"internalType": "string",
									"name": "jmeno",
									"type": "string"
								},
								{
									"internalType": "string",
									"name": "mail",
									"type": "string"
								},
								{
									"internalType": "uint256",
									"name": "plat",
									"type": "uint256"
								}
							],
							"internalType": "struct Crud.zamestnanec[]",
							"name": "",
							"type": "tuple[]"
						}
					],
					"stateMutability": "view",
					"type": "function"
				},
				{
					"inputs": [
						{
							"internalType": "uint256",
							"name": "_id",
							"type": "uint256"
						}
					],
					"name": "vymazat_zam",
					"outputs": [],
					"stateMutability": "nonpayable",
					"type": "function"
				},
				{
					"inputs": [
						{
							"internalType": "string",
							"name": "jmeno",
							"type": "string"
						},
						{
							"internalType": "string",
							"name": "mail",
							"type": "string"
						},
						{
							"internalType": "uint256",
							"name": "plat",
							"type": "uint256"
						}
					],
					"name": "vytvorit_zam",
					"outputs": [],
					"stateMutability": "nonpayable",
					"type": "function"
				}
			],
			"devdoc": {
				"kind": "dev",
				"methods": {},
				"version": 1
			},
			"evm": {
				"assembly": "    /* \"contracts/emp_crud.sol\":167:2384  contract Crud{... */\n  mstore(0x40, 0x80)\n    /* \"contracts/emp_crud.sol\":519:520  1 */\n  0x01\n    /* \"contracts/emp_crud.sol\":505:520  uint nextId = 1 */\n  dup1\n  sstore\n    /* \"contracts/emp_crud.sol\":167:2384  contract Crud{... */\n  callvalue\n  dup1\n  iszero\n  tag_1\n  jumpi\n  0x00\n  dup1\n  revert\ntag_1:\n  pop\n  dataSize(sub_0)\n  dup1\n  dataOffset(sub_0)\n  0x00\n  codecopy\n  0x00\n  return\nstop\n\nsub_0: assembly {\n        /* \"contracts/emp_crud.sol\":167:2384  contract Crud{... */\n      mstore(0x40, 0x80)\n      callvalue\n      dup1\n      iszero\n      tag_1\n      jumpi\n      0x00\n      dup1\n      revert\n    tag_1:\n      pop\n      jumpi(tag_2, lt(calldatasize, 0x04))\n      shr(0xe0, calldataload(0x00))\n      dup1\n      0x26661b3a\n      eq\n      tag_3\n      jumpi\n      dup1\n      0x6ee33136\n      eq\n      tag_4\n      jumpi\n      dup1\n      0x755a8f6b\n      eq\n      tag_5\n      jumpi\n      dup1\n      0x949d9add\n      eq\n      tag_6\n      jumpi\n      dup1\n      0xa57c9c07\n      eq\n      tag_7\n      jumpi\n      dup1\n      0xfd65b57d\n      eq\n      tag_8\n      jumpi\n    tag_2:\n      0x00\n      dup1\n      revert\n        /* \"contracts/emp_crud.sol\":1232:1485  function cist_zam(uint _id) view  public returns(uint, string memory, string memory, uint){... */\n    tag_3:\n      tag_9\n      0x04\n      dup1\n      calldatasize\n      sub\n      dup2\n      add\n      swap1\n      tag_10\n      swap2\n      swap1\n      tag_11\n      jump\t// in\n    tag_10:\n      tag_12\n      jump\t// in\n    tag_9:\n      mload(0x40)\n      tag_13\n      swap5\n      swap4\n      swap3\n      swap2\n      swap1\n      tag_14\n      jump\t// in\n    tag_13:\n      mload(0x40)\n      dup1\n      swap2\n      sub\n      swap1\n      return\n        /* \"contracts/emp_crud.sol\":1567:1834  function upravit_zam(uint _id, string memory jmeno, string memory mail, uint plat) public {... */\n    tag_4:\n      tag_15\n      0x04\n      dup1\n      calldatasize\n      sub\n      dup2\n      add\n      swap1\n      tag_16\n      swap2\n      swap1\n      tag_17\n      jump\t// in\n    tag_16:\n      tag_18\n      jump\t// in\n    tag_15:\n      stop\n        /* \"contracts/emp_crud.sol\":1043:1148  function pocet_zam() view public returns(uint pocet){... */\n    tag_5:\n      tag_19\n      tag_20\n      jump\t// in\n    tag_19:\n      mload(0x40)\n      tag_21\n      swap2\n      swap1\n      tag_22\n      jump\t// in\n    tag_21:\n      mload(0x40)\n      dup1\n      swap2\n      sub\n      swap1\n      return\n        /* \"contracts/emp_crud.sol\":861:971  function vsichni_zam() view public returns(zamestnanec[] memory){... */\n    tag_6:\n      tag_23\n      tag_24\n      jump\t// in\n    tag_23:\n      mload(0x40)\n      tag_25\n      swap2\n      swap1\n      tag_26\n      jump\t// in\n    tag_25:\n      mload(0x40)\n      dup1\n      swap2\n      sub\n      swap1\n      return\n        /* \"contracts/emp_crud.sol\":596:783  function vytvorit_zam(string memory jmeno, string memory mail, uint plat) public {... */\n    tag_7:\n      tag_27\n      0x04\n      dup1\n      calldatasize\n      sub\n      dup2\n      add\n      swap1\n      tag_28\n      swap2\n      swap1\n      tag_29\n      jump\t// in\n    tag_28:\n      tag_30\n      jump\t// in\n    tag_27:\n      stop\n        /* \"contracts/emp_crud.sol\":1904:2023  function vymazat_zam(uint _id)public{... */\n    tag_8:\n      tag_31\n      0x04\n      dup1\n      calldatasize\n      sub\n      dup2\n      add\n      swap1\n      tag_32\n      swap2\n      swap1\n      tag_11\n      jump\t// in\n    tag_32:\n      tag_33\n      jump\t// in\n    tag_31:\n      stop\n        /* \"contracts/emp_crud.sol\":1232:1485  function cist_zam(uint _id) view  public returns(uint, string memory, string memory, uint){... */\n    tag_12:\n        /* \"contracts/emp_crud.sol\":1281:1285  uint */\n      0x00\n        /* \"contracts/emp_crud.sol\":1287:1300  string memory */\n      0x60\n        /* \"contracts/emp_crud.sol\":1302:1315  string memory */\n      dup1\n        /* \"contracts/emp_crud.sol\":1317:1321  uint */\n      0x00\n        /* \"contracts/emp_crud.sol\":1337:1343  uint i */\n      dup1\n        /* \"contracts/emp_crud.sol\":1346:1356  najit(_id) */\n      tag_35\n        /* \"contracts/emp_crud.sol\":1352:1355  _id */\n      dup7\n        /* \"contracts/emp_crud.sol\":1346:1351  najit */\n      tag_36\n        /* \"contracts/emp_crud.sol\":1346:1356  najit(_id) */\n      jump\t// in\n    tag_35:\n        /* \"contracts/emp_crud.sol\":1337:1356  uint i = najit(_id) */\n      swap1\n      pop\n        /* \"contracts/emp_crud.sol\":1387:1398  zamestnanci */\n      0x00\n        /* \"contracts/emp_crud.sol\":1399:1400  i */\n      dup2\n        /* \"contracts/emp_crud.sol\":1387:1401  zamestnanci[i] */\n      dup2\n      sload\n      dup2\n      lt\n      tag_37\n      jumpi\n      tag_38\n      tag_39\n      jump\t// in\n    tag_38:\n    tag_37:\n      swap1\n      0x00\n      mstore\n      keccak256(0x00, 0x20)\n      swap1\n      0x04\n      mul\n      add\n        /* \"contracts/emp_crud.sol\":1387:1404  zamestnanci[i].id */\n      0x00\n      add\n      sload\n        /* \"contracts/emp_crud.sol\":1406:1417  zamestnanci */\n      0x00\n        /* \"contracts/emp_crud.sol\":1418:1419  i */\n      dup3\n        /* \"contracts/emp_crud.sol\":1406:1420  zamestnanci[i] */\n      dup2\n      sload\n      dup2\n      lt\n      tag_41\n      jumpi\n      tag_42\n      tag_39\n      jump\t// in\n    tag_42:\n    tag_41:\n      swap1\n      0x00\n      mstore\n      keccak256(0x00, 0x20)\n      swap1\n      0x04\n      mul\n      add\n        /* \"contracts/emp_crud.sol\":1406:1426  zamestnanci[i].jmeno */\n      0x01\n      add\n        /* \"contracts/emp_crud.sol\":1428:1439  zamestnanci */\n      0x00\n        /* \"contracts/emp_crud.sol\":1440:1441  i */\n      dup4\n        /* \"contracts/emp_crud.sol\":1428:1442  zamestnanci[i] */\n      dup2\n      sload\n      dup2\n      lt\n      tag_44\n      jumpi\n      tag_45\n      tag_39\n      jump\t// in\n    tag_45:\n    tag_44:\n      swap1\n      0x00\n      mstore\n      keccak256(0x00, 0x20)\n      swap1\n      0x04\n      mul\n      add\n        /* \"contracts/emp_crud.sol\":1428:1447  zamestnanci[i].mail */\n      0x02\n      add\n        /* \"contracts/emp_crud.sol\":1449:1460  zamestnanci */\n      0x00\n        /* \"contracts/emp_crud.sol\":1461:1462  i */\n      dup5\n        /* \"contracts/emp_crud.sol\":1449:1463  zamestnanci[i] */\n      dup2\n      sload\n      dup2\n      lt\n      tag_47\n      jumpi\n      tag_48\n      tag_39\n      jump\t// in\n    tag_48:\n    tag_47:\n      swap1\n      0x00\n      mstore\n      keccak256(0x00, 0x20)\n      swap1\n      0x04\n      mul\n      add\n        /* \"contracts/emp_crud.sol\":1449:1468  zamestnanci[i].plat */\n      0x03\n      add\n      sload\n        /* \"contracts/emp_crud.sol\":1380:1469  return(zamestnanci[i].id, zamestnanci[i].jmeno, zamestnanci[i].mail, zamestnanci[i].plat) */\n      dup3\n      dup1\n      sload\n      tag_50\n      swap1\n      tag_51\n      jump\t// in\n    tag_50:\n      dup1\n      0x1f\n      add\n      0x20\n      dup1\n      swap2\n      div\n      mul\n      0x20\n      add\n      mload(0x40)\n      swap1\n      dup2\n      add\n      0x40\n      mstore\n      dup1\n      swap3\n      swap2\n      swap1\n      dup2\n      dup2\n      mstore\n      0x20\n      add\n      dup3\n      dup1\n      sload\n      tag_52\n      swap1\n      tag_51\n      jump\t// in\n    tag_52:\n      dup1\n      iszero\n      tag_53\n      jumpi\n      dup1\n      0x1f\n      lt\n      tag_54\n      jumpi\n      0x0100\n      dup1\n      dup4\n      sload\n      div\n      mul\n      dup4\n      mstore\n      swap2\n      0x20\n      add\n      swap2\n      jump(tag_53)\n    tag_54:\n      dup3\n      add\n      swap2\n      swap1\n      0x00\n      mstore\n      keccak256(0x00, 0x20)\n      swap1\n    tag_55:\n      dup2\n      sload\n      dup2\n      mstore\n      swap1\n      0x01\n      add\n      swap1\n      0x20\n      add\n      dup1\n      dup4\n      gt\n      tag_55\n      jumpi\n      dup3\n      swap1\n      sub\n      0x1f\n      and\n      dup3\n      add\n      swap2\n    tag_53:\n      pop\n      pop\n      pop\n      pop\n      pop\n      swap3\n      pop\n      dup2\n      dup1\n      sload\n      tag_56\n      swap1\n      tag_51\n      jump\t// in\n    tag_56:\n      dup1\n      0x1f\n      add\n      0x20\n      dup1\n      swap2\n      div\n      mul\n      0x20\n      add\n      mload(0x40)\n      swap1\n      dup2\n      add\n      0x40\n      mstore\n      dup1\n      swap3\n      swap2\n      swap1\n      dup2\n      dup2\n      mstore\n      0x20\n      add\n      dup3\n      dup1\n      sload\n      tag_57\n      swap1\n      tag_51\n      jump\t// in\n    tag_57:\n      dup1\n      iszero\n      tag_58\n      jumpi\n      dup1\n      0x1f\n      lt\n      tag_59\n      jumpi\n      0x0100\n      dup1\n      dup4\n      sload\n      div\n      mul\n      dup4\n      mstore\n      swap2\n      0x20\n      add\n      swap2\n      jump(tag_58)\n    tag_59:\n      dup3\n      add\n      swap2\n      swap1\n      0x00\n      mstore\n      keccak256(0x00, 0x20)\n      swap1\n    tag_60:\n      dup2\n      sload\n      dup2\n      mstore\n      swap1\n      0x01\n      add\n      swap1\n      0x20\n      add\n      dup1\n      dup4\n      gt\n      tag_60\n      jumpi\n      dup3\n      swap1\n      sub\n      0x1f\n      and\n      dup3\n      add\n      swap2\n    tag_58:\n      pop\n      pop\n      pop\n      pop\n      pop\n      swap2\n      pop\n      swap5\n      pop\n      swap5\n      pop\n      swap5\n      pop\n      swap5\n      pop\n      pop\n        /* \"contracts/emp_crud.sol\":1232:1485  function cist_zam(uint _id) view  public returns(uint, string memory, string memory, uint){... */\n      swap2\n      swap4\n      pop\n      swap2\n      swap4\n      jump\t// out\n        /* \"contracts/emp_crud.sol\":1567:1834  function upravit_zam(uint _id, string memory jmeno, string memory mail, uint plat) public {... */\n    tag_18:\n        /* \"contracts/emp_crud.sol\":1672:1678  uint i */\n      0x00\n        /* \"contracts/emp_crud.sol\":1681:1691  najit(_id) */\n      tag_62\n        /* \"contracts/emp_crud.sol\":1687:1690  _id */\n      dup6\n        /* \"contracts/emp_crud.sol\":1681:1686  najit */\n      tag_36\n        /* \"contracts/emp_crud.sol\":1681:1691  najit(_id) */\n      jump\t// in\n    tag_62:\n        /* \"contracts/emp_crud.sol\":1672:1691  uint i = najit(_id) */\n      swap1\n      pop\n        /* \"contracts/emp_crud.sol\":1731:1736  jmeno */\n      dup4\n        /* \"contracts/emp_crud.sol\":1708:1719  zamestnanci */\n      0x00\n        /* \"contracts/emp_crud.sol\":1720:1721  i */\n      dup3\n        /* \"contracts/emp_crud.sol\":1708:1722  zamestnanci[i] */\n      dup2\n      sload\n      dup2\n      lt\n      tag_63\n      jumpi\n      tag_64\n      tag_39\n      jump\t// in\n    tag_64:\n    tag_63:\n      swap1\n      0x00\n      mstore\n      keccak256(0x00, 0x20)\n      swap1\n      0x04\n      mul\n      add\n        /* \"contracts/emp_crud.sol\":1708:1728  zamestnanci[i].jmeno */\n      0x01\n      add\n        /* \"contracts/emp_crud.sol\":1708:1736  zamestnanci[i].jmeno = jmeno */\n      swap1\n      dup2\n      tag_66\n      swap2\n      swap1\n      tag_67\n      jump\t// in\n    tag_66:\n      pop\n        /* \"contracts/emp_crud.sol\":1773:1777  mail */\n      dup3\n        /* \"contracts/emp_crud.sol\":1751:1762  zamestnanci */\n      0x00\n        /* \"contracts/emp_crud.sol\":1763:1764  i */\n      dup3\n        /* \"contracts/emp_crud.sol\":1751:1765  zamestnanci[i] */\n      dup2\n      sload\n      dup2\n      lt\n      tag_68\n      jumpi\n      tag_69\n      tag_39\n      jump\t// in\n    tag_69:\n    tag_68:\n      swap1\n      0x00\n      mstore\n      keccak256(0x00, 0x20)\n      swap1\n      0x04\n      mul\n      add\n        /* \"contracts/emp_crud.sol\":1751:1770  zamestnanci[i].mail */\n      0x02\n      add\n        /* \"contracts/emp_crud.sol\":1751:1777  zamestnanci[i].mail = mail */\n      swap1\n      dup2\n      tag_71\n      swap2\n      swap1\n      tag_67\n      jump\t// in\n    tag_71:\n      pop\n        /* \"contracts/emp_crud.sol\":1814:1818  plat */\n      dup2\n        /* \"contracts/emp_crud.sol\":1792:1803  zamestnanci */\n      0x00\n        /* \"contracts/emp_crud.sol\":1804:1805  i */\n      dup3\n        /* \"contracts/emp_crud.sol\":1792:1806  zamestnanci[i] */\n      dup2\n      sload\n      dup2\n      lt\n      tag_72\n      jumpi\n      tag_73\n      tag_39\n      jump\t// in\n    tag_73:\n    tag_72:\n      swap1\n      0x00\n      mstore\n      keccak256(0x00, 0x20)\n      swap1\n      0x04\n      mul\n      add\n        /* \"contracts/emp_crud.sol\":1792:1811  zamestnanci[i].plat */\n      0x03\n      add\n        /* \"contracts/emp_crud.sol\":1792:1818  zamestnanci[i].plat = plat */\n      dup2\n      swap1\n      sstore\n      pop\n        /* \"contracts/emp_crud.sol\":1657:1834  {... */\n      pop\n        /* \"contracts/emp_crud.sol\":1567:1834  function upravit_zam(uint _id, string memory jmeno, string memory mail, uint plat) public {... */\n      pop\n      pop\n      pop\n      pop\n      jump\t// out\n        /* \"contracts/emp_crud.sol\":1043:1148  function pocet_zam() view public returns(uint pocet){... */\n    tag_20:\n        /* \"contracts/emp_crud.sol\":1084:1094  uint pocet */\n      0x00\n        /* \"contracts/emp_crud.sol\":1117:1128  zamestnanci */\n      dup1\n        /* \"contracts/emp_crud.sol\":1117:1135  zamestnanci.length */\n      dup1\n      sload\n      swap1\n      pop\n        /* \"contracts/emp_crud.sol\":1110:1136  return(zamestnanci.length) */\n      swap1\n      pop\n        /* \"contracts/emp_crud.sol\":1043:1148  function pocet_zam() view public returns(uint pocet){... */\n      swap1\n      jump\t// out\n        /* \"contracts/emp_crud.sol\":861:971  function vsichni_zam() view public returns(zamestnanec[] memory){... */\n    tag_24:\n        /* \"contracts/emp_crud.sol\":904:924  zamestnanec[] memory */\n      0x60\n        /* \"contracts/emp_crud.sol\":947:958  zamestnanci */\n      0x00\n        /* \"contracts/emp_crud.sol\":940:959  return(zamestnanci) */\n      dup1\n      sload\n      dup1\n      0x20\n      mul\n      0x20\n      add\n      mload(0x40)\n      swap1\n      dup2\n      add\n      0x40\n      mstore\n      dup1\n      swap3\n      swap2\n      swap1\n      dup2\n      dup2\n      mstore\n      0x20\n      add\n      0x00\n      swap1\n    tag_77:\n      dup3\n      dup3\n      lt\n      iszero\n      tag_78\n      jumpi\n      dup4\n      dup3\n      swap1\n      0x00\n      mstore\n      keccak256(0x00, 0x20)\n      swap1\n      0x04\n      mul\n      add\n      mload(0x40)\n      dup1\n      0x80\n      add\n      0x40\n      mstore\n      swap1\n      dup2\n      0x00\n      dup3\n      add\n      sload\n      dup2\n      mstore\n      0x20\n      add\n      0x01\n      dup3\n      add\n      dup1\n      sload\n      tag_80\n      swap1\n      tag_51\n      jump\t// in\n    tag_80:\n      dup1\n      0x1f\n      add\n      0x20\n      dup1\n      swap2\n      div\n      mul\n      0x20\n      add\n      mload(0x40)\n      swap1\n      dup2\n      add\n      0x40\n      mstore\n      dup1\n      swap3\n      swap2\n      swap1\n      dup2\n      dup2\n      mstore\n      0x20\n      add\n      dup3\n      dup1\n      sload\n      tag_81\n      swap1\n      tag_51\n      jump\t// in\n    tag_81:\n      dup1\n      iszero\n      tag_82\n      jumpi\n      dup1\n      0x1f\n      lt\n      tag_83\n      jumpi\n      0x0100\n      dup1\n      dup4\n      sload\n      div\n      mul\n      dup4\n      mstore\n      swap2\n      0x20\n      add\n      swap2\n      jump(tag_82)\n    tag_83:\n      dup3\n      add\n      swap2\n      swap1\n      0x00\n      mstore\n      keccak256(0x00, 0x20)\n      swap1\n    tag_84:\n      dup2\n      sload\n      dup2\n      mstore\n      swap1\n      0x01\n      add\n      swap1\n      0x20\n      add\n      dup1\n      dup4\n      gt\n      tag_84\n      jumpi\n      dup3\n      swap1\n      sub\n      0x1f\n      and\n      dup3\n      add\n      swap2\n    tag_82:\n      pop\n      pop\n      pop\n      pop\n      pop\n      dup2\n      mstore\n      0x20\n      add\n      0x02\n      dup3\n      add\n      dup1\n      sload\n      tag_85\n      swap1\n      tag_51\n      jump\t// in\n    tag_85:\n      dup1\n      0x1f\n      add\n      0x20\n      dup1\n      swap2\n      div\n      mul\n      0x20\n      add\n      mload(0x40)\n      swap1\n      dup2\n      add\n      0x40\n      mstore\n      dup1\n      swap3\n      swap2\n      swap1\n      dup2\n      dup2\n      mstore\n      0x20\n      add\n      dup3\n      dup1\n      sload\n      tag_86\n      swap1\n      tag_51\n      jump\t// in\n    tag_86:\n      dup1\n      iszero\n      tag_87\n      jumpi\n      dup1\n      0x1f\n      lt\n      tag_88\n      jumpi\n      0x0100\n      dup1\n      dup4\n      sload\n      div\n      mul\n      dup4\n      mstore\n      swap2\n      0x20\n      add\n      swap2\n      jump(tag_87)\n    tag_88:\n      dup3\n      add\n      swap2\n      swap1\n      0x00\n      mstore\n      keccak256(0x00, 0x20)\n      swap1\n    tag_89:\n      dup2\n      sload\n      dup2\n      mstore\n      swap1\n      0x01\n      add\n      swap1\n      0x20\n      add\n      dup1\n      dup4\n      gt\n      tag_89\n      jumpi\n      dup3\n      swap1\n      sub\n      0x1f\n      and\n      dup3\n      add\n      swap2\n    tag_87:\n      pop\n      pop\n      pop\n      pop\n      pop\n      dup2\n      mstore\n      0x20\n      add\n      0x03\n      dup3\n      add\n      sload\n      dup2\n      mstore\n      pop\n      pop\n      dup2\n      mstore\n      0x20\n      add\n      swap1\n      0x01\n      add\n      swap1\n      jump(tag_77)\n    tag_78:\n      pop\n      pop\n      pop\n      pop\n      swap1\n      pop\n        /* \"contracts/emp_crud.sol\":861:971  function vsichni_zam() view public returns(zamestnanec[] memory){... */\n      swap1\n      jump\t// out\n        /* \"contracts/emp_crud.sol\":596:783  function vytvorit_zam(string memory jmeno, string memory mail, uint plat) public {... */\n    tag_30:\n        /* \"contracts/emp_crud.sol\":692:703  zamestnanci */\n      0x00\n        /* \"contracts/emp_crud.sol\":709:747  zamestnanec(nextId, jmeno, mail, plat) */\n      mload(0x40)\n      dup1\n      0x80\n      add\n      0x40\n      mstore\n      dup1\n        /* \"contracts/emp_crud.sol\":721:727  nextId */\n      sload(0x01)\n        /* \"contracts/emp_crud.sol\":709:747  zamestnanec(nextId, jmeno, mail, plat) */\n      dup2\n      mstore\n      0x20\n      add\n        /* \"contracts/emp_crud.sol\":729:734  jmeno */\n      dup6\n        /* \"contracts/emp_crud.sol\":709:747  zamestnanec(nextId, jmeno, mail, plat) */\n      dup2\n      mstore\n      0x20\n      add\n        /* \"contracts/emp_crud.sol\":736:740  mail */\n      dup5\n        /* \"contracts/emp_crud.sol\":709:747  zamestnanec(nextId, jmeno, mail, plat) */\n      dup2\n      mstore\n      0x20\n      add\n        /* \"contracts/emp_crud.sol\":742:746  plat */\n      dup4\n        /* \"contracts/emp_crud.sol\":709:747  zamestnanec(nextId, jmeno, mail, plat) */\n      dup2\n      mstore\n      pop\n        /* \"contracts/emp_crud.sol\":692:748  zamestnanci.push(zamestnanec(nextId, jmeno, mail, plat)) */\n      swap1\n      dup1\n      0x01\n      dup2\n      sload\n      add\n      dup1\n      dup3\n      sstore\n      dup1\n      swap2\n      pop\n      pop\n      0x01\n      swap1\n      sub\n      swap1\n      0x00\n      mstore\n      keccak256(0x00, 0x20)\n      swap1\n      0x04\n      mul\n      add\n      0x00\n      swap1\n      swap2\n      swap1\n      swap2\n      swap1\n      swap2\n      pop\n      0x00\n      dup3\n      add\n      mload\n      dup2\n      0x00\n      add\n      sstore\n      0x20\n      dup3\n      add\n      mload\n      dup2\n      0x01\n      add\n      swap1\n      dup2\n      tag_92\n      swap2\n      swap1\n      tag_67\n      jump\t// in\n    tag_92:\n      pop\n      0x40\n      dup3\n      add\n      mload\n      dup2\n      0x02\n      add\n      swap1\n      dup2\n      tag_93\n      swap2\n      swap1\n      tag_67\n      jump\t// in\n    tag_93:\n      pop\n      0x60\n      dup3\n      add\n      mload\n      dup2\n      0x03\n      add\n      sstore\n      pop\n      pop\n        /* \"contracts/emp_crud.sol\":763:769  nextId */\n      0x01\n      0x00\n        /* \"contracts/emp_crud.sol\":763:771  nextId++ */\n      dup2\n      sload\n      dup1\n      swap3\n      swap2\n      swap1\n      tag_94\n      swap1\n      tag_95\n      jump\t// in\n    tag_94:\n      swap2\n      swap1\n      pop\n      sstore\n      pop\n        /* \"contracts/emp_crud.sol\":596:783  function vytvorit_zam(string memory jmeno, string memory mail, uint plat) public {... */\n      pop\n      pop\n      pop\n      jump\t// out\n        /* \"contracts/emp_crud.sol\":1904:2023  function vymazat_zam(uint _id)public{... */\n    tag_33:\n        /* \"contracts/emp_crud.sol\":1955:1961  uint i */\n      0x00\n        /* \"contracts/emp_crud.sol\":1964:1974  najit(_id) */\n      tag_97\n        /* \"contracts/emp_crud.sol\":1970:1973  _id */\n      dup3\n        /* \"contracts/emp_crud.sol\":1964:1969  najit */\n      tag_36\n        /* \"contracts/emp_crud.sol\":1964:1974  najit(_id) */\n      jump\t// in\n    tag_97:\n        /* \"contracts/emp_crud.sol\":1955:1974  uint i = najit(_id) */\n      swap1\n      pop\n        /* \"contracts/emp_crud.sol\":1997:2008  zamestnanci */\n      0x00\n        /* \"contracts/emp_crud.sol\":2009:2010  i */\n      dup2\n        /* \"contracts/emp_crud.sol\":1997:2011  zamestnanci[i] */\n      dup2\n      sload\n      dup2\n      lt\n      tag_98\n      jumpi\n      tag_99\n      tag_39\n      jump\t// in\n    tag_99:\n    tag_98:\n      swap1\n      0x00\n      mstore\n      keccak256(0x00, 0x20)\n      swap1\n      0x04\n      mul\n      add\n      0x00\n        /* \"contracts/emp_crud.sol\":1990:2011  delete zamestnanci[i] */\n      dup1\n      dup3\n      add\n      0x00\n      swap1\n      sstore\n      0x01\n      dup3\n      add\n      0x00\n      tag_101\n      swap2\n      swap1\n      tag_102\n      jump\t// in\n    tag_101:\n      0x02\n      dup3\n      add\n      0x00\n      tag_103\n      swap2\n      swap1\n      tag_102\n      jump\t// in\n    tag_103:\n      0x03\n      dup3\n      add\n      0x00\n      swap1\n      sstore\n      pop\n      pop\n        /* \"contracts/emp_crud.sol\":1940:2023  {... */\n      pop\n        /* \"contracts/emp_crud.sol\":1904:2023  function vymazat_zam(uint _id)public{... */\n      pop\n      jump\t// out\n        /* \"contracts/emp_crud.sol\":2105:2379  function najit(uint id)view internal returns(uint){... */\n    tag_36:\n        /* \"contracts/emp_crud.sol\":2150:2154  uint */\n      0x00\n        /* \"contracts/emp_crud.sol\":2174:2180  uint i */\n      dup1\n        /* \"contracts/emp_crud.sol\":2181:2182  0 */\n      0x00\n        /* \"contracts/emp_crud.sol\":2174:2182  uint i=0 */\n      swap1\n      pop\n        /* \"contracts/emp_crud.sol\":2170:2320  for(uint i=0; i < zamestnanci.length ;i++){... */\n    tag_105:\n        /* \"contracts/emp_crud.sol\":2188:2199  zamestnanci */\n      0x00\n        /* \"contracts/emp_crud.sol\":2188:2206  zamestnanci.length */\n      dup1\n      sload\n      swap1\n      pop\n        /* \"contracts/emp_crud.sol\":2184:2185  i */\n      dup2\n        /* \"contracts/emp_crud.sol\":2184:2206  i < zamestnanci.length */\n      lt\n        /* \"contracts/emp_crud.sol\":2170:2320  for(uint i=0; i < zamestnanci.length ;i++){... */\n      iszero\n      tag_106\n      jumpi\n        /* \"contracts/emp_crud.sol\":2254:2256  id */\n      dup3\n        /* \"contracts/emp_crud.sol\":2233:2244  zamestnanci */\n      0x00\n        /* \"contracts/emp_crud.sol\":2245:2246  i */\n      dup3\n        /* \"contracts/emp_crud.sol\":2233:2247  zamestnanci[i] */\n      dup2\n      sload\n      dup2\n      lt\n      tag_108\n      jumpi\n      tag_109\n      tag_39\n      jump\t// in\n    tag_109:\n    tag_108:\n      swap1\n      0x00\n      mstore\n      keccak256(0x00, 0x20)\n      swap1\n      0x04\n      mul\n      add\n        /* \"contracts/emp_crud.sol\":2233:2250  zamestnanci[i].id */\n      0x00\n      add\n      sload\n        /* \"contracts/emp_crud.sol\":2233:2256  zamestnanci[i].id == id */\n      sub\n        /* \"contracts/emp_crud.sol\":2230:2304  if(zamestnanci[i].id == id){... */\n      tag_111\n      jumpi\n        /* \"contracts/emp_crud.sol\":2284:2285  i */\n      dup1\n        /* \"contracts/emp_crud.sol\":2277:2285  return i */\n      swap2\n      pop\n      pop\n      jump(tag_104)\n        /* \"contracts/emp_crud.sol\":2230:2304  if(zamestnanci[i].id == id){... */\n    tag_111:\n        /* \"contracts/emp_crud.sol\":2208:2211  i++ */\n      dup1\n      dup1\n      0x01\n      add\n      swap2\n      pop\n      pop\n        /* \"contracts/emp_crud.sol\":2170:2320  for(uint i=0; i < zamestnanci.length ;i++){... */\n      jump(tag_105)\n    tag_106:\n      pop\n        /* \"contracts/emp_crud.sol\":2334:2367  revert('Zamestanenec neexistuje') */\n      mload(0x40)\n      0x08c379a000000000000000000000000000000000000000000000000000000000\n      dup2\n      mstore\n      0x04\n      add\n      tag_112\n      swap1\n      tag_113\n      jump\t// in\n    tag_112:\n      mload(0x40)\n      dup1\n      swap2\n      sub\n      swap1\n      revert\n        /* \"contracts/emp_crud.sol\":2105:2379  function najit(uint id)view internal returns(uint){... */\n    tag_104:\n      swap2\n      swap1\n      pop\n      jump\t// out\n    tag_102:\n      pop\n      dup1\n      sload\n      tag_114\n      swap1\n      tag_51\n      jump\t// in\n    tag_114:\n      0x00\n      dup3\n      sstore\n      dup1\n      0x1f\n      lt\n      tag_116\n      jumpi\n      pop\n      jump(tag_115)\n    tag_116:\n      0x1f\n      add\n      0x20\n      swap1\n      div\n      swap1\n      0x00\n      mstore\n      keccak256(0x00, 0x20)\n      swap1\n      dup2\n      add\n      swap1\n      tag_117\n      swap2\n      swap1\n      tag_118\n      jump\t// in\n    tag_117:\n    tag_115:\n      pop\n      jump\t// out\n    tag_118:\n    tag_119:\n      dup1\n      dup3\n      gt\n      iszero\n      tag_120\n      jumpi\n      0x00\n      dup2\n      0x00\n      swap1\n      sstore\n      pop\n      0x01\n      add\n      jump(tag_119)\n    tag_120:\n      pop\n      swap1\n      jump\t// out\n        /* \"#utility.yul\":7:82   */\n    tag_121:\n        /* \"#utility.yul\":40:46   */\n      0x00\n        /* \"#utility.yul\":73:75   */\n      0x40\n        /* \"#utility.yul\":67:76   */\n      mload\n        /* \"#utility.yul\":57:76   */\n      swap1\n      pop\n        /* \"#utility.yul\":7:82   */\n      swap1\n      jump\t// out\n        /* \"#utility.yul\":88:205   */\n    tag_122:\n        /* \"#utility.yul\":197:198   */\n      0x00\n        /* \"#utility.yul\":194:195   */\n      dup1\n        /* \"#utility.yul\":187:199   */\n      revert\n        /* \"#utility.yul\":211:328   */\n    tag_123:\n        /* \"#utility.yul\":320:321   */\n      0x00\n        /* \"#utility.yul\":317:318   */\n      dup1\n        /* \"#utility.yul\":310:322   */\n      revert\n        /* \"#utility.yul\":334:411   */\n    tag_124:\n        /* \"#utility.yul\":371:378   */\n      0x00\n        /* \"#utility.yul\":400:405   */\n      dup2\n        /* \"#utility.yul\":389:405   */\n      swap1\n      pop\n        /* \"#utility.yul\":334:411   */\n      swap2\n      swap1\n      pop\n      jump\t// out\n        /* \"#utility.yul\":417:539   */\n    tag_125:\n        /* \"#utility.yul\":490:514   */\n      tag_177\n        /* \"#utility.yul\":508:513   */\n      dup2\n        /* \"#utility.yul\":490:514   */\n      tag_124\n      jump\t// in\n    tag_177:\n        /* \"#utility.yul\":483:488   */\n      dup2\n        /* \"#utility.yul\":480:515   */\n      eq\n        /* \"#utility.yul\":470:533   */\n      tag_178\n      jumpi\n        /* \"#utility.yul\":529:530   */\n      0x00\n        /* \"#utility.yul\":526:527   */\n      dup1\n        /* \"#utility.yul\":519:531   */\n      revert\n        /* \"#utility.yul\":470:533   */\n    tag_178:\n        /* \"#utility.yul\":417:539   */\n      pop\n      jump\t// out\n        /* \"#utility.yul\":545:684   */\n    tag_126:\n        /* \"#utility.yul\":591:596   */\n      0x00\n        /* \"#utility.yul\":629:635   */\n      dup2\n        /* \"#utility.yul\":616:636   */\n      calldataload\n        /* \"#utility.yul\":607:636   */\n      swap1\n      pop\n        /* \"#utility.yul\":645:678   */\n      tag_180\n        /* \"#utility.yul\":672:677   */\n      dup2\n        /* \"#utility.yul\":645:678   */\n      tag_125\n      jump\t// in\n    tag_180:\n        /* \"#utility.yul\":545:684   */\n      swap3\n      swap2\n      pop\n      pop\n      jump\t// out\n        /* \"#utility.yul\":690:1019   */\n    tag_11:\n        /* \"#utility.yul\":749:755   */\n      0x00\n        /* \"#utility.yul\":798:800   */\n      0x20\n        /* \"#utility.yul\":786:795   */\n      dup3\n        /* \"#utility.yul\":777:784   */\n      dup5\n        /* \"#utility.yul\":773:796   */\n      sub\n        /* \"#utility.yul\":769:801   */\n      slt\n        /* \"#utility.yul\":766:885   */\n      iszero\n      tag_182\n      jumpi\n        /* \"#utility.yul\":804:883   */\n      tag_183\n      tag_122\n      jump\t// in\n    tag_183:\n        /* \"#utility.yul\":766:885   */\n    tag_182:\n        /* \"#utility.yul\":924:925   */\n      0x00\n        /* \"#utility.yul\":949:1002   */\n      tag_184\n        /* \"#utility.yul\":994:1001   */\n      dup5\n        /* \"#utility.yul\":985:991   */\n      dup3\n        /* \"#utility.yul\":974:983   */\n      dup6\n        /* \"#utility.yul\":970:992   */\n      add\n        /* \"#utility.yul\":949:1002   */\n      tag_126\n      jump\t// in\n    tag_184:\n        /* \"#utility.yul\":939:1002   */\n      swap2\n      pop\n        /* \"#utility.yul\":895:1012   */\n      pop\n        /* \"#utility.yul\":690:1019   */\n      swap3\n      swap2\n      pop\n      pop\n      jump\t// out\n        /* \"#utility.yul\":1025:1143   */\n    tag_127:\n        /* \"#utility.yul\":1112:1136   */\n      tag_186\n        /* \"#utility.yul\":1130:1135   */\n      dup2\n        /* \"#utility.yul\":1112:1136   */\n      tag_124\n      jump\t// in\n    tag_186:\n        /* \"#utility.yul\":1107:1110   */\n      dup3\n        /* \"#utility.yul\":1100:1137   */\n      mstore\n        /* \"#utility.yul\":1025:1143   */\n      pop\n      pop\n      jump\t// out\n        /* \"#utility.yul\":1149:1248   */\n    tag_128:\n        /* \"#utility.yul\":1201:1207   */\n      0x00\n        /* \"#utility.yul\":1235:1240   */\n      dup2\n        /* \"#utility.yul\":1229:1241   */\n      mload\n        /* \"#utility.yul\":1219:1241   */\n      swap1\n      pop\n        /* \"#utility.yul\":1149:1248   */\n      swap2\n      swap1\n      pop\n      jump\t// out\n        /* \"#utility.yul\":1254:1423   */\n    tag_129:\n        /* \"#utility.yul\":1338:1349   */\n      0x00\n        /* \"#utility.yul\":1372:1378   */\n      dup3\n        /* \"#utility.yul\":1367:1370   */\n      dup3\n        /* \"#utility.yul\":1360:1379   */\n      mstore\n        /* \"#utility.yul\":1412:1416   */\n      0x20\n        /* \"#utility.yul\":1407:1410   */\n      dup3\n        /* \"#utility.yul\":1403:1417   */\n      add\n        /* \"#utility.yul\":1388:1417   */\n      swap1\n      pop\n        /* \"#utility.yul\":1254:1423   */\n      swap3\n      swap2\n      pop\n      pop\n      jump\t// out\n        /* \"#utility.yul\":1429:1675   */\n    tag_130:\n        /* \"#utility.yul\":1510:1511   */\n      0x00\n        /* \"#utility.yul\":1520:1633   */\n    tag_190:\n        /* \"#utility.yul\":1534:1540   */\n      dup4\n        /* \"#utility.yul\":1531:1532   */\n      dup2\n        /* \"#utility.yul\":1528:1541   */\n      lt\n        /* \"#utility.yul\":1520:1633   */\n      iszero\n      tag_192\n      jumpi\n        /* \"#utility.yul\":1619:1620   */\n      dup1\n        /* \"#utility.yul\":1614:1617   */\n      dup3\n        /* \"#utility.yul\":1610:1621   */\n      add\n        /* \"#utility.yul\":1604:1622   */\n      mload\n        /* \"#utility.yul\":1600:1601   */\n      dup2\n        /* \"#utility.yul\":1595:1598   */\n      dup5\n        /* \"#utility.yul\":1591:1602   */\n      add\n        /* \"#utility.yul\":1584:1623   */\n      mstore\n        /* \"#utility.yul\":1556:1558   */\n      0x20\n        /* \"#utility.yul\":1553:1554   */\n      dup2\n        /* \"#utility.yul\":1549:1559   */\n      add\n        /* \"#utility.yul\":1544:1559   */\n      swap1\n      pop\n        /* \"#utility.yul\":1520:1633   */\n      jump(tag_190)\n    tag_192:\n        /* \"#utility.yul\":1667:1668   */\n      0x00\n        /* \"#utility.yul\":1658:1664   */\n      dup5\n        /* \"#utility.yul\":1653:1656   */\n      dup5\n        /* \"#utility.yul\":1649:1665   */\n      add\n        /* \"#utility.yul\":1642:1669   */\n      mstore\n        /* \"#utility.yul\":1491:1675   */\n      pop\n        /* \"#utility.yul\":1429:1675   */\n      pop\n      pop\n      pop\n      jump\t// out\n        /* \"#utility.yul\":1681:1783   */\n    tag_131:\n        /* \"#utility.yul\":1722:1728   */\n      0x00\n        /* \"#utility.yul\":1773:1775   */\n      0x1f\n        /* \"#utility.yul\":1769:1776   */\n      not\n        /* \"#utility.yul\":1764:1766   */\n      0x1f\n        /* \"#utility.yul\":1757:1762   */\n      dup4\n        /* \"#utility.yul\":1753:1767   */\n      add\n        /* \"#utility.yul\":1749:1777   */\n      and\n        /* \"#utility.yul\":1739:1777   */\n      swap1\n      pop\n        /* \"#utility.yul\":1681:1783   */\n      swap2\n      swap1\n      pop\n      jump\t// out\n        /* \"#utility.yul\":1789:2166   */\n    tag_132:\n        /* \"#utility.yul\":1877:1880   */\n      0x00\n        /* \"#utility.yul\":1905:1944   */\n      tag_195\n        /* \"#utility.yul\":1938:1943   */\n      dup3\n        /* \"#utility.yul\":1905:1944   */\n      tag_128\n      jump\t// in\n    tag_195:\n        /* \"#utility.yul\":1960:2031   */\n      tag_196\n        /* \"#utility.yul\":2024:2030   */\n      dup2\n        /* \"#utility.yul\":2019:2022   */\n      dup6\n        /* \"#utility.yul\":1960:2031   */\n      tag_129\n      jump\t// in\n    tag_196:\n        /* \"#utility.yul\":1953:2031   */\n      swap4\n      pop\n        /* \"#utility.yul\":2040:2105   */\n      tag_197\n        /* \"#utility.yul\":2098:2104   */\n      dup2\n        /* \"#utility.yul\":2093:2096   */\n      dup6\n        /* \"#utility.yul\":2086:2090   */\n      0x20\n        /* \"#utility.yul\":2079:2084   */\n      dup7\n        /* \"#utility.yul\":2075:2091   */\n      add\n        /* \"#utility.yul\":2040:2105   */\n      tag_130\n      jump\t// in\n    tag_197:\n        /* \"#utility.yul\":2130:2159   */\n      tag_198\n        /* \"#utility.yul\":2152:2158   */\n      dup2\n        /* \"#utility.yul\":2130:2159   */\n      tag_131\n      jump\t// in\n    tag_198:\n        /* \"#utility.yul\":2125:2128   */\n      dup5\n        /* \"#utility.yul\":2121:2160   */\n      add\n        /* \"#utility.yul\":2114:2160   */\n      swap2\n      pop\n        /* \"#utility.yul\":1881:2166   */\n      pop\n        /* \"#utility.yul\":1789:2166   */\n      swap3\n      swap2\n      pop\n      pop\n      jump\t// out\n        /* \"#utility.yul\":2172:2907   */\n    tag_14:\n        /* \"#utility.yul\":2389:2393   */\n      0x00\n        /* \"#utility.yul\":2427:2430   */\n      0x80\n        /* \"#utility.yul\":2416:2425   */\n      dup3\n        /* \"#utility.yul\":2412:2431   */\n      add\n        /* \"#utility.yul\":2404:2431   */\n      swap1\n      pop\n        /* \"#utility.yul\":2441:2512   */\n      tag_200\n        /* \"#utility.yul\":2509:2510   */\n      0x00\n        /* \"#utility.yul\":2498:2507   */\n      dup4\n        /* \"#utility.yul\":2494:2511   */\n      add\n        /* \"#utility.yul\":2485:2491   */\n      dup8\n        /* \"#utility.yul\":2441:2512   */\n      tag_127\n      jump\t// in\n    tag_200:\n        /* \"#utility.yul\":2559:2568   */\n      dup2\n        /* \"#utility.yul\":2553:2557   */\n      dup2\n        /* \"#utility.yul\":2549:2569   */\n      sub\n        /* \"#utility.yul\":2544:2546   */\n      0x20\n        /* \"#utility.yul\":2533:2542   */\n      dup4\n        /* \"#utility.yul\":2529:2547   */\n      add\n        /* \"#utility.yul\":2522:2570   */\n      mstore\n        /* \"#utility.yul\":2587:2665   */\n      tag_201\n        /* \"#utility.yul\":2660:2664   */\n      dup2\n        /* \"#utility.yul\":2651:2657   */\n      dup7\n        /* \"#utility.yul\":2587:2665   */\n      tag_132\n      jump\t// in\n    tag_201:\n        /* \"#utility.yul\":2579:2665   */\n      swap1\n      pop\n        /* \"#utility.yul\":2712:2721   */\n      dup2\n        /* \"#utility.yul\":2706:2710   */\n      dup2\n        /* \"#utility.yul\":2702:2722   */\n      sub\n        /* \"#utility.yul\":2697:2699   */\n      0x40\n        /* \"#utility.yul\":2686:2695   */\n      dup4\n        /* \"#utility.yul\":2682:2700   */\n      add\n        /* \"#utility.yul\":2675:2723   */\n      mstore\n        /* \"#utility.yul\":2740:2818   */\n      tag_202\n        /* \"#utility.yul\":2813:2817   */\n      dup2\n        /* \"#utility.yul\":2804:2810   */\n      dup6\n        /* \"#utility.yul\":2740:2818   */\n      tag_132\n      jump\t// in\n    tag_202:\n        /* \"#utility.yul\":2732:2818   */\n      swap1\n      pop\n        /* \"#utility.yul\":2828:2900   */\n      tag_203\n        /* \"#utility.yul\":2896:2898   */\n      0x60\n        /* \"#utility.yul\":2885:2894   */\n      dup4\n        /* \"#utility.yul\":2881:2899   */\n      add\n        /* \"#utility.yul\":2872:2878   */\n      dup5\n        /* \"#utility.yul\":2828:2900   */\n      tag_127\n      jump\t// in\n    tag_203:\n        /* \"#utility.yul\":2172:2907   */\n      swap6\n      swap5\n      pop\n      pop\n      pop\n      pop\n      pop\n      jump\t// out\n        /* \"#utility.yul\":2913:3030   */\n    tag_133:\n        /* \"#utility.yul\":3022:3023   */\n      0x00\n        /* \"#utility.yul\":3019:3020   */\n      dup1\n        /* \"#utility.yul\":3012:3024   */\n      revert\n        /* \"#utility.yul\":3036:3153   */\n    tag_134:\n        /* \"#utility.yul\":3145:3146   */\n      0x00\n        /* \"#utility.yul\":3142:3143   */\n      dup1\n        /* \"#utility.yul\":3135:3147   */\n      revert\n        /* \"#utility.yul\":3159:3339   */\n    tag_135:\n        /* \"#utility.yul\":3207:3284   */\n      0x4e487b7100000000000000000000000000000000000000000000000000000000\n        /* \"#utility.yul\":3204:3205   */\n      0x00\n        /* \"#utility.yul\":3197:3285   */\n      mstore\n        /* \"#utility.yul\":3304:3308   */\n      0x41\n        /* \"#utility.yul\":3301:3302   */\n      0x04\n        /* \"#utility.yul\":3294:3309   */\n      mstore\n        /* \"#utility.yul\":3328:3332   */\n      0x24\n        /* \"#utility.yul\":3325:3326   */\n      0x00\n        /* \"#utility.yul\":3318:3333   */\n      revert\n        /* \"#utility.yul\":3345:3626   */\n    tag_136:\n        /* \"#utility.yul\":3428:3455   */\n      tag_208\n        /* \"#utility.yul\":3450:3454   */\n      dup3\n        /* \"#utility.yul\":3428:3455   */\n      tag_131\n      jump\t// in\n    tag_208:\n        /* \"#utility.yul\":3420:3426   */\n      dup2\n        /* \"#utility.yul\":3416:3456   */\n      add\n        /* \"#utility.yul\":3558:3564   */\n      dup2\n        /* \"#utility.yul\":3546:3556   */\n      dup2\n        /* \"#utility.yul\":3543:3565   */\n      lt\n        /* \"#utility.yul\":3522:3540   */\n      0xffffffffffffffff\n        /* \"#utility.yul\":3510:3520   */\n      dup3\n        /* \"#utility.yul\":3507:3541   */\n      gt\n        /* \"#utility.yul\":3504:3566   */\n      or\n        /* \"#utility.yul\":3501:3589   */\n      iszero\n      tag_209\n      jumpi\n        /* \"#utility.yul\":3569:3587   */\n      tag_210\n      tag_135\n      jump\t// in\n    tag_210:\n        /* \"#utility.yul\":3501:3589   */\n    tag_209:\n        /* \"#utility.yul\":3609:3619   */\n      dup1\n        /* \"#utility.yul\":3605:3607   */\n      0x40\n        /* \"#utility.yul\":3598:3620   */\n      mstore\n        /* \"#utility.yul\":3388:3626   */\n      pop\n        /* \"#utility.yul\":3345:3626   */\n      pop\n      pop\n      jump\t// out\n        /* \"#utility.yul\":3632:3761   */\n    tag_137:\n        /* \"#utility.yul\":3666:3672   */\n      0x00\n        /* \"#utility.yul\":3693:3713   */\n      tag_212\n      tag_121\n      jump\t// in\n    tag_212:\n        /* \"#utility.yul\":3683:3713   */\n      swap1\n      pop\n        /* \"#utility.yul\":3722:3755   */\n      tag_213\n        /* \"#utility.yul\":3750:3754   */\n      dup3\n        /* \"#utility.yul\":3742:3748   */\n      dup3\n        /* \"#utility.yul\":3722:3755   */\n      tag_136\n      jump\t// in\n    tag_213:\n        /* \"#utility.yul\":3632:3761   */\n      swap2\n      swap1\n      pop\n      jump\t// out\n        /* \"#utility.yul\":3767:4075   */\n    tag_138:\n        /* \"#utility.yul\":3829:3833   */\n      0x00\n        /* \"#utility.yul\":3919:3937   */\n      0xffffffffffffffff\n        /* \"#utility.yul\":3911:3917   */\n      dup3\n        /* \"#utility.yul\":3908:3938   */\n      gt\n        /* \"#utility.yul\":3905:3961   */\n      iszero\n      tag_215\n      jumpi\n        /* \"#utility.yul\":3941:3959   */\n      tag_216\n      tag_135\n      jump\t// in\n    tag_216:\n        /* \"#utility.yul\":3905:3961   */\n    tag_215:\n        /* \"#utility.yul\":3979:4008   */\n      tag_217\n        /* \"#utility.yul\":4001:4007   */\n      dup3\n        /* \"#utility.yul\":3979:4008   */\n      tag_131\n      jump\t// in\n    tag_217:\n        /* \"#utility.yul\":3971:4008   */\n      swap1\n      pop\n        /* \"#utility.yul\":4063:4067   */\n      0x20\n        /* \"#utility.yul\":4057:4061   */\n      dup2\n        /* \"#utility.yul\":4053:4068   */\n      add\n        /* \"#utility.yul\":4045:4068   */\n      swap1\n      pop\n        /* \"#utility.yul\":3767:4075   */\n      swap2\n      swap1\n      pop\n      jump\t// out\n        /* \"#utility.yul\":4081:4227   */\n    tag_139:\n        /* \"#utility.yul\":4178:4184   */\n      dup3\n        /* \"#utility.yul\":4173:4176   */\n      dup2\n        /* \"#utility.yul\":4168:4171   */\n      dup4\n        /* \"#utility.yul\":4155:4185   */\n      calldatacopy\n        /* \"#utility.yul\":4219:4220   */\n      0x00\n        /* \"#utility.yul\":4210:4216   */\n      dup4\n        /* \"#utility.yul\":4205:4208   */\n      dup4\n        /* \"#utility.yul\":4201:4217   */\n      add\n        /* \"#utility.yul\":4194:4221   */\n      mstore\n        /* \"#utility.yul\":4081:4227   */\n      pop\n      pop\n      pop\n      jump\t// out\n        /* \"#utility.yul\":4233:4658   */\n    tag_140:\n        /* \"#utility.yul\":4311:4316   */\n      0x00\n        /* \"#utility.yul\":4336:4402   */\n      tag_220\n        /* \"#utility.yul\":4352:4401   */\n      tag_221\n        /* \"#utility.yul\":4394:4400   */\n      dup5\n        /* \"#utility.yul\":4352:4401   */\n      tag_138\n      jump\t// in\n    tag_221:\n        /* \"#utility.yul\":4336:4402   */\n      tag_137\n      jump\t// in\n    tag_220:\n        /* \"#utility.yul\":4327:4402   */\n      swap1\n      pop\n        /* \"#utility.yul\":4425:4431   */\n      dup3\n        /* \"#utility.yul\":4418:4423   */\n      dup2\n        /* \"#utility.yul\":4411:4432   */\n      mstore\n        /* \"#utility.yul\":4463:4467   */\n      0x20\n        /* \"#utility.yul\":4456:4461   */\n      dup2\n        /* \"#utility.yul\":4452:4468   */\n      add\n        /* \"#utility.yul\":4501:4504   */\n      dup5\n        /* \"#utility.yul\":4492:4498   */\n      dup5\n        /* \"#utility.yul\":4487:4490   */\n      dup5\n        /* \"#utility.yul\":4483:4499   */\n      add\n        /* \"#utility.yul\":4480:4505   */\n      gt\n        /* \"#utility.yul\":4477:4589   */\n      iszero\n      tag_222\n      jumpi\n        /* \"#utility.yul\":4508:4587   */\n      tag_223\n      tag_134\n      jump\t// in\n    tag_223:\n        /* \"#utility.yul\":4477:4589   */\n    tag_222:\n        /* \"#utility.yul\":4598:4652   */\n      tag_224\n        /* \"#utility.yul\":4645:4651   */\n      dup5\n        /* \"#utility.yul\":4640:4643   */\n      dup3\n        /* \"#utility.yul\":4635:4638   */\n      dup6\n        /* \"#utility.yul\":4598:4652   */\n      tag_139\n      jump\t// in\n    tag_224:\n        /* \"#utility.yul\":4317:4658   */\n      pop\n        /* \"#utility.yul\":4233:4658   */\n      swap4\n      swap3\n      pop\n      pop\n      pop\n      jump\t// out\n        /* \"#utility.yul\":4678:5018   */\n    tag_141:\n        /* \"#utility.yul\":4734:4739   */\n      0x00\n        /* \"#utility.yul\":4783:4786   */\n      dup3\n        /* \"#utility.yul\":4776:4780   */\n      0x1f\n        /* \"#utility.yul\":4768:4774   */\n      dup4\n        /* \"#utility.yul\":4764:4781   */\n      add\n        /* \"#utility.yul\":4760:4787   */\n      slt\n        /* \"#utility.yul\":4750:4872   */\n      tag_226\n      jumpi\n        /* \"#utility.yul\":4791:4870   */\n      tag_227\n      tag_133\n      jump\t// in\n    tag_227:\n        /* \"#utility.yul\":4750:4872   */\n    tag_226:\n        /* \"#utility.yul\":4908:4914   */\n      dup2\n        /* \"#utility.yul\":4895:4915   */\n      calldataload\n        /* \"#utility.yul\":4933:5012   */\n      tag_228\n        /* \"#utility.yul\":5008:5011   */\n      dup5\n        /* \"#utility.yul\":5000:5006   */\n      dup3\n        /* \"#utility.yul\":4993:4997   */\n      0x20\n        /* \"#utility.yul\":4985:4991   */\n      dup7\n        /* \"#utility.yul\":4981:4998   */\n      add\n        /* \"#utility.yul\":4933:5012   */\n      tag_140\n      jump\t// in\n    tag_228:\n        /* \"#utility.yul\":4924:5012   */\n      swap2\n      pop\n        /* \"#utility.yul\":4740:5018   */\n      pop\n        /* \"#utility.yul\":4678:5018   */\n      swap3\n      swap2\n      pop\n      pop\n      jump\t// out\n        /* \"#utility.yul\":5024:6149   */\n    tag_17:\n        /* \"#utility.yul\":5130:5136   */\n      0x00\n        /* \"#utility.yul\":5138:5144   */\n      dup1\n        /* \"#utility.yul\":5146:5152   */\n      0x00\n        /* \"#utility.yul\":5154:5160   */\n      dup1\n        /* \"#utility.yul\":5203:5206   */\n      0x80\n        /* \"#utility.yul\":5191:5200   */\n      dup6\n        /* \"#utility.yul\":5182:5189   */\n      dup8\n        /* \"#utility.yul\":5178:5201   */\n      sub\n        /* \"#utility.yul\":5174:5207   */\n      slt\n        /* \"#utility.yul\":5171:5291   */\n      iszero\n      tag_230\n      jumpi\n        /* \"#utility.yul\":5210:5289   */\n      tag_231\n      tag_122\n      jump\t// in\n    tag_231:\n        /* \"#utility.yul\":5171:5291   */\n    tag_230:\n        /* \"#utility.yul\":5330:5331   */\n      0x00\n        /* \"#utility.yul\":5355:5408   */\n      tag_232\n        /* \"#utility.yul\":5400:5407   */\n      dup8\n        /* \"#utility.yul\":5391:5397   */\n      dup3\n        /* \"#utility.yul\":5380:5389   */\n      dup9\n        /* \"#utility.yul\":5376:5398   */\n      add\n        /* \"#utility.yul\":5355:5408   */\n      tag_126\n      jump\t// in\n    tag_232:\n        /* \"#utility.yul\":5345:5408   */\n      swap5\n      pop\n        /* \"#utility.yul\":5301:5418   */\n      pop\n        /* \"#utility.yul\":5485:5487   */\n      0x20\n        /* \"#utility.yul\":5474:5483   */\n      dup6\n        /* \"#utility.yul\":5470:5488   */\n      add\n        /* \"#utility.yul\":5457:5489   */\n      calldataload\n        /* \"#utility.yul\":5516:5534   */\n      0xffffffffffffffff\n        /* \"#utility.yul\":5508:5514   */\n      dup2\n        /* \"#utility.yul\":5505:5535   */\n      gt\n        /* \"#utility.yul\":5502:5619   */\n      iszero\n      tag_233\n      jumpi\n        /* \"#utility.yul\":5538:5617   */\n      tag_234\n      tag_123\n      jump\t// in\n    tag_234:\n        /* \"#utility.yul\":5502:5619   */\n    tag_233:\n        /* \"#utility.yul\":5643:5706   */\n      tag_235\n        /* \"#utility.yul\":5698:5705   */\n      dup8\n        /* \"#utility.yul\":5689:5695   */\n      dup3\n        /* \"#utility.yul\":5678:5687   */\n      dup9\n        /* \"#utility.yul\":5674:5696   */\n      add\n        /* \"#utility.yul\":5643:5706   */\n      tag_141\n      jump\t// in\n    tag_235:\n        /* \"#utility.yul\":5633:5706   */\n      swap4\n      pop\n        /* \"#utility.yul\":5428:5716   */\n      pop\n        /* \"#utility.yul\":5783:5785   */\n      0x40\n        /* \"#utility.yul\":5772:5781   */\n      dup6\n        /* \"#utility.yul\":5768:5786   */\n      add\n        /* \"#utility.yul\":5755:5787   */\n      calldataload\n        /* \"#utility.yul\":5814:5832   */\n      0xffffffffffffffff\n        /* \"#utility.yul\":5806:5812   */\n      dup2\n        /* \"#utility.yul\":5803:5833   */\n      gt\n        /* \"#utility.yul\":5800:5917   */\n      iszero\n      tag_236\n      jumpi\n        /* \"#utility.yul\":5836:5915   */\n      tag_237\n      tag_123\n      jump\t// in\n    tag_237:\n        /* \"#utility.yul\":5800:5917   */\n    tag_236:\n        /* \"#utility.yul\":5941:6004   */\n      tag_238\n        /* \"#utility.yul\":5996:6003   */\n      dup8\n        /* \"#utility.yul\":5987:5993   */\n      dup3\n        /* \"#utility.yul\":5976:5985   */\n      dup9\n        /* \"#utility.yul\":5972:5994   */\n      add\n        /* \"#utility.yul\":5941:6004   */\n      tag_141\n      jump\t// in\n    tag_238:\n        /* \"#utility.yul\":5931:6004   */\n      swap3\n      pop\n        /* \"#utility.yul\":5726:6014   */\n      pop\n        /* \"#utility.yul\":6053:6055   */\n      0x60\n        /* \"#utility.yul\":6079:6132   */\n      tag_239\n        /* \"#utility.yul\":6124:6131   */\n      dup8\n        /* \"#utility.yul\":6115:6121   */\n      dup3\n        /* \"#utility.yul\":6104:6113   */\n      dup9\n        /* \"#utility.yul\":6100:6122   */\n      add\n        /* \"#utility.yul\":6079:6132   */\n      tag_126\n      jump\t// in\n    tag_239:\n        /* \"#utility.yul\":6069:6132   */\n      swap2\n      pop\n        /* \"#utility.yul\":6024:6142   */\n      pop\n        /* \"#utility.yul\":5024:6149   */\n      swap3\n      swap6\n      swap2\n      swap5\n      pop\n      swap3\n      pop\n      jump\t// out\n        /* \"#utility.yul\":6155:6377   */\n    tag_22:\n        /* \"#utility.yul\":6248:6252   */\n      0x00\n        /* \"#utility.yul\":6286:6288   */\n      0x20\n        /* \"#utility.yul\":6275:6284   */\n      dup3\n        /* \"#utility.yul\":6271:6289   */\n      add\n        /* \"#utility.yul\":6263:6289   */\n      swap1\n      pop\n        /* \"#utility.yul\":6299:6370   */\n      tag_241\n        /* \"#utility.yul\":6367:6368   */\n      0x00\n        /* \"#utility.yul\":6356:6365   */\n      dup4\n        /* \"#utility.yul\":6352:6369   */\n      add\n        /* \"#utility.yul\":6343:6349   */\n      dup5\n        /* \"#utility.yul\":6299:6370   */\n      tag_127\n      jump\t// in\n    tag_241:\n        /* \"#utility.yul\":6155:6377   */\n      swap3\n      swap2\n      pop\n      pop\n      jump\t// out\n        /* \"#utility.yul\":6383:6524   */\n    tag_142:\n        /* \"#utility.yul\":6477:6483   */\n      0x00\n        /* \"#utility.yul\":6511:6516   */\n      dup2\n        /* \"#utility.yul\":6505:6517   */\n      mload\n        /* \"#utility.yul\":6495:6517   */\n      swap1\n      pop\n        /* \"#utility.yul\":6383:6524   */\n      swap2\n      swap1\n      pop\n      jump\t// out\n        /* \"#utility.yul\":6530:6741   */\n    tag_143:\n        /* \"#utility.yul\":6656:6667   */\n      0x00\n        /* \"#utility.yul\":6690:6696   */\n      dup3\n        /* \"#utility.yul\":6685:6688   */\n      dup3\n        /* \"#utility.yul\":6678:6697   */\n      mstore\n        /* \"#utility.yul\":6730:6734   */\n      0x20\n        /* \"#utility.yul\":6725:6728   */\n      dup3\n        /* \"#utility.yul\":6721:6735   */\n      add\n        /* \"#utility.yul\":6706:6735   */\n      swap1\n      pop\n        /* \"#utility.yul\":6530:6741   */\n      swap3\n      swap2\n      pop\n      pop\n      jump\t// out\n        /* \"#utility.yul\":6747:6906   */\n    tag_144:\n        /* \"#utility.yul\":6841:6845   */\n      0x00\n        /* \"#utility.yul\":6864:6867   */\n      dup2\n        /* \"#utility.yul\":6856:6867   */\n      swap1\n      pop\n        /* \"#utility.yul\":6894:6898   */\n      0x20\n        /* \"#utility.yul\":6889:6892   */\n      dup3\n        /* \"#utility.yul\":6885:6899   */\n      add\n        /* \"#utility.yul\":6877:6899   */\n      swap1\n      pop\n        /* \"#utility.yul\":6747:6906   */\n      swap2\n      swap1\n      pop\n      jump\t// out\n        /* \"#utility.yul\":6912:7020   */\n    tag_145:\n        /* \"#utility.yul\":6989:7013   */\n      tag_246\n        /* \"#utility.yul\":7007:7012   */\n      dup2\n        /* \"#utility.yul\":6989:7013   */\n      tag_124\n      jump\t// in\n    tag_246:\n        /* \"#utility.yul\":6984:6987   */\n      dup3\n        /* \"#utility.yul\":6977:7014   */\n      mstore\n        /* \"#utility.yul\":6912:7020   */\n      pop\n      pop\n      jump\t// out\n        /* \"#utility.yul\":7026:7185   */\n    tag_146:\n        /* \"#utility.yul\":7100:7111   */\n      0x00\n        /* \"#utility.yul\":7134:7140   */\n      dup3\n        /* \"#utility.yul\":7129:7132   */\n      dup3\n        /* \"#utility.yul\":7122:7141   */\n      mstore\n        /* \"#utility.yul\":7174:7178   */\n      0x20\n        /* \"#utility.yul\":7169:7172   */\n      dup3\n        /* \"#utility.yul\":7165:7179   */\n      add\n        /* \"#utility.yul\":7150:7179   */\n      swap1\n      pop\n        /* \"#utility.yul\":7026:7185   */\n      swap3\n      swap2\n      pop\n      pop\n      jump\t// out\n        /* \"#utility.yul\":7191:7548   */\n    tag_147:\n        /* \"#utility.yul\":7269:7272   */\n      0x00\n        /* \"#utility.yul\":7297:7336   */\n      tag_249\n        /* \"#utility.yul\":7330:7335   */\n      dup3\n        /* \"#utility.yul\":7297:7336   */\n      tag_128\n      jump\t// in\n    tag_249:\n        /* \"#utility.yul\":7352:7413   */\n      tag_250\n        /* \"#utility.yul\":7406:7412   */\n      dup2\n        /* \"#utility.yul\":7401:7404   */\n      dup6\n        /* \"#utility.yul\":7352:7413   */\n      tag_146\n      jump\t// in\n    tag_250:\n        /* \"#utility.yul\":7345:7413   */\n      swap4\n      pop\n        /* \"#utility.yul\":7422:7487   */\n      tag_251\n        /* \"#utility.yul\":7480:7486   */\n      dup2\n        /* \"#utility.yul\":7475:7478   */\n      dup6\n        /* \"#utility.yul\":7468:7472   */\n      0x20\n        /* \"#utility.yul\":7461:7466   */\n      dup7\n        /* \"#utility.yul\":7457:7473   */\n      add\n        /* \"#utility.yul\":7422:7487   */\n      tag_130\n      jump\t// in\n    tag_251:\n        /* \"#utility.yul\":7512:7541   */\n      tag_252\n        /* \"#utility.yul\":7534:7540   */\n      dup2\n        /* \"#utility.yul\":7512:7541   */\n      tag_131\n      jump\t// in\n    tag_252:\n        /* \"#utility.yul\":7507:7510   */\n      dup5\n        /* \"#utility.yul\":7503:7542   */\n      add\n        /* \"#utility.yul\":7496:7542   */\n      swap2\n      pop\n        /* \"#utility.yul\":7273:7548   */\n      pop\n        /* \"#utility.yul\":7191:7548   */\n      swap3\n      swap2\n      pop\n      pop\n      jump\t// out\n        /* \"#utility.yul\":7612:8630   */\n    tag_148:\n        /* \"#utility.yul\":7725:7728   */\n      0x00\n        /* \"#utility.yul\":7761:7765   */\n      0x80\n        /* \"#utility.yul\":7756:7759   */\n      dup4\n        /* \"#utility.yul\":7752:7766   */\n      add\n        /* \"#utility.yul\":7846:7850   */\n      0x00\n        /* \"#utility.yul\":7839:7844   */\n      dup4\n        /* \"#utility.yul\":7835:7851   */\n      add\n        /* \"#utility.yul\":7829:7852   */\n      mload\n        /* \"#utility.yul\":7865:7928   */\n      tag_254\n        /* \"#utility.yul\":7922:7926   */\n      0x00\n        /* \"#utility.yul\":7917:7920   */\n      dup7\n        /* \"#utility.yul\":7913:7927   */\n      add\n        /* \"#utility.yul\":7899:7911   */\n      dup3\n        /* \"#utility.yul\":7865:7928   */\n      tag_145\n      jump\t// in\n    tag_254:\n        /* \"#utility.yul\":7776:7938   */\n      pop\n        /* \"#utility.yul\":8021:8025   */\n      0x20\n        /* \"#utility.yul\":8014:8019   */\n      dup4\n        /* \"#utility.yul\":8010:8026   */\n      add\n        /* \"#utility.yul\":8004:8027   */\n      mload\n        /* \"#utility.yul\":8074:8077   */\n      dup5\n        /* \"#utility.yul\":8068:8072   */\n      dup3\n        /* \"#utility.yul\":8064:8078   */\n      sub\n        /* \"#utility.yul\":8057:8061   */\n      0x20\n        /* \"#utility.yul\":8052:8055   */\n      dup7\n        /* \"#utility.yul\":8048:8062   */\n      add\n        /* \"#utility.yul\":8041:8079   */\n      mstore\n        /* \"#utility.yul\":8100:8173   */\n      tag_255\n        /* \"#utility.yul\":8168:8172   */\n      dup3\n        /* \"#utility.yul\":8154:8166   */\n      dup3\n        /* \"#utility.yul\":8100:8173   */\n      tag_147\n      jump\t// in\n    tag_255:\n        /* \"#utility.yul\":8092:8173   */\n      swap2\n      pop\n        /* \"#utility.yul\":7948:8184   */\n      pop\n        /* \"#utility.yul\":8266:8270   */\n      0x40\n        /* \"#utility.yul\":8259:8264   */\n      dup4\n        /* \"#utility.yul\":8255:8271   */\n      add\n        /* \"#utility.yul\":8249:8272   */\n      mload\n        /* \"#utility.yul\":8319:8322   */\n      dup5\n        /* \"#utility.yul\":8313:8317   */\n      dup3\n        /* \"#utility.yul\":8309:8323   */\n      sub\n        /* \"#utility.yul\":8302:8306   */\n      0x40\n        /* \"#utility.yul\":8297:8300   */\n      dup7\n        /* \"#utility.yul\":8293:8307   */\n      add\n        /* \"#utility.yul\":8286:8324   */\n      mstore\n        /* \"#utility.yul\":8345:8418   */\n      tag_256\n        /* \"#utility.yul\":8413:8417   */\n      dup3\n        /* \"#utility.yul\":8399:8411   */\n      dup3\n        /* \"#utility.yul\":8345:8418   */\n      tag_147\n      jump\t// in\n    tag_256:\n        /* \"#utility.yul\":8337:8418   */\n      swap2\n      pop\n        /* \"#utility.yul\":8194:8429   */\n      pop\n        /* \"#utility.yul\":8511:8515   */\n      0x60\n        /* \"#utility.yul\":8504:8509   */\n      dup4\n        /* \"#utility.yul\":8500:8516   */\n      add\n        /* \"#utility.yul\":8494:8517   */\n      mload\n        /* \"#utility.yul\":8530:8593   */\n      tag_257\n        /* \"#utility.yul\":8587:8591   */\n      0x60\n        /* \"#utility.yul\":8582:8585   */\n      dup7\n        /* \"#utility.yul\":8578:8592   */\n      add\n        /* \"#utility.yul\":8564:8576   */\n      dup3\n        /* \"#utility.yul\":8530:8593   */\n      tag_145\n      jump\t// in\n    tag_257:\n        /* \"#utility.yul\":8439:8603   */\n      pop\n        /* \"#utility.yul\":8620:8624   */\n      dup1\n        /* \"#utility.yul\":8613:8624   */\n      swap2\n      pop\n        /* \"#utility.yul\":7730:8630   */\n      pop\n        /* \"#utility.yul\":7612:8630   */\n      swap3\n      swap2\n      pop\n      pop\n      jump\t// out\n        /* \"#utility.yul\":8636:8900   */\n    tag_149:\n        /* \"#utility.yul\":8759:8769   */\n      0x00\n        /* \"#utility.yul\":8794:8894   */\n      tag_259\n        /* \"#utility.yul\":8890:8893   */\n      dup4\n        /* \"#utility.yul\":8882:8888   */\n      dup4\n        /* \"#utility.yul\":8794:8894   */\n      tag_148\n      jump\t// in\n    tag_259:\n        /* \"#utility.yul\":8780:8894   */\n      swap1\n      pop\n        /* \"#utility.yul\":8636:8900   */\n      swap3\n      swap2\n      pop\n      pop\n      jump\t// out\n        /* \"#utility.yul\":8906:9046   */\n    tag_150:\n        /* \"#utility.yul\":9003:9007   */\n      0x00\n        /* \"#utility.yul\":9035:9039   */\n      0x20\n        /* \"#utility.yul\":9030:9033   */\n      dup3\n        /* \"#utility.yul\":9026:9040   */\n      add\n        /* \"#utility.yul\":9018:9040   */\n      swap1\n      pop\n        /* \"#utility.yul\":8906:9046   */\n      swap2\n      swap1\n      pop\n      jump\t// out\n        /* \"#utility.yul\":9114:10241   */\n    tag_151:\n        /* \"#utility.yul\":9287:9290   */\n      0x00\n        /* \"#utility.yul\":9316:9397   */\n      tag_262\n        /* \"#utility.yul\":9391:9396   */\n      dup3\n        /* \"#utility.yul\":9316:9397   */\n      tag_142\n      jump\t// in\n    tag_262:\n        /* \"#utility.yul\":9413:9526   */\n      tag_263\n        /* \"#utility.yul\":9519:9525   */\n      dup2\n        /* \"#utility.yul\":9514:9517   */\n      dup6\n        /* \"#utility.yul\":9413:9526   */\n      tag_143\n      jump\t// in\n    tag_263:\n        /* \"#utility.yul\":9406:9526   */\n      swap4\n      pop\n        /* \"#utility.yul\":9552:9555   */\n      dup4\n        /* \"#utility.yul\":9597:9601   */\n      0x20\n        /* \"#utility.yul\":9589:9595   */\n      dup3\n        /* \"#utility.yul\":9585:9602   */\n      mul\n        /* \"#utility.yul\":9580:9583   */\n      dup6\n        /* \"#utility.yul\":9576:9603   */\n      add\n        /* \"#utility.yul\":9627:9710   */\n      tag_264\n        /* \"#utility.yul\":9704:9709   */\n      dup6\n        /* \"#utility.yul\":9627:9710   */\n      tag_144\n      jump\t// in\n    tag_264:\n        /* \"#utility.yul\":9733:9740   */\n      dup1\n        /* \"#utility.yul\":9764:9765   */\n      0x00\n        /* \"#utility.yul\":9749:10196   */\n    tag_265:\n        /* \"#utility.yul\":9774:9780   */\n      dup6\n        /* \"#utility.yul\":9771:9772   */\n      dup2\n        /* \"#utility.yul\":9768:9781   */\n      lt\n        /* \"#utility.yul\":9749:10196   */\n      iszero\n      tag_267\n      jumpi\n        /* \"#utility.yul\":9845:9854   */\n      dup5\n        /* \"#utility.yul\":9839:9843   */\n      dup5\n        /* \"#utility.yul\":9835:9855   */\n      sub\n        /* \"#utility.yul\":9830:9833   */\n      dup10\n        /* \"#utility.yul\":9823:9856   */\n      mstore\n        /* \"#utility.yul\":9896:9902   */\n      dup2\n        /* \"#utility.yul\":9890:9903   */\n      mload\n        /* \"#utility.yul\":9924:10042   */\n      tag_268\n        /* \"#utility.yul\":10037:10041   */\n      dup6\n        /* \"#utility.yul\":10022:10035   */\n      dup3\n        /* \"#utility.yul\":9924:10042   */\n      tag_149\n      jump\t// in\n    tag_268:\n        /* \"#utility.yul\":9916:10042   */\n      swap5\n      pop\n        /* \"#utility.yul\":10065:10152   */\n      tag_269\n        /* \"#utility.yul\":10145:10151   */\n      dup4\n        /* \"#utility.yul\":10065:10152   */\n      tag_150\n      jump\t// in\n    tag_269:\n        /* \"#utility.yul\":10055:10152   */\n      swap3\n      pop\n        /* \"#utility.yul\":10181:10185   */\n      0x20\n        /* \"#utility.yul\":10176:10179   */\n      dup11\n        /* \"#utility.yul\":10172:10186   */\n      add\n        /* \"#utility.yul\":10165:10186   */\n      swap10\n      pop\n        /* \"#utility.yul\":9809:10196   */\n      pop\n        /* \"#utility.yul\":9796:9797   */\n      0x01\n        /* \"#utility.yul\":9793:9794   */\n      dup2\n        /* \"#utility.yul\":9789:9798   */\n      add\n        /* \"#utility.yul\":9784:9798   */\n      swap1\n      pop\n        /* \"#utility.yul\":9749:10196   */\n      jump(tag_265)\n    tag_267:\n        /* \"#utility.yul\":9753:9767   */\n      pop\n        /* \"#utility.yul\":10212:10216   */\n      dup3\n        /* \"#utility.yul\":10205:10216   */\n      swap8\n      pop\n        /* \"#utility.yul\":10232:10235   */\n      dup8\n        /* \"#utility.yul\":10225:10235   */\n      swap6\n      pop\n        /* \"#utility.yul\":9292:10241   */\n      pop\n      pop\n      pop\n      pop\n      pop\n        /* \"#utility.yul\":9114:10241   */\n      swap3\n      swap2\n      pop\n      pop\n      jump\t// out\n        /* \"#utility.yul\":10247:10728   */\n    tag_26:\n        /* \"#utility.yul\":10444:10448   */\n      0x00\n        /* \"#utility.yul\":10482:10484   */\n      0x20\n        /* \"#utility.yul\":10471:10480   */\n      dup3\n        /* \"#utility.yul\":10467:10485   */\n      add\n        /* \"#utility.yul\":10459:10485   */\n      swap1\n      pop\n        /* \"#utility.yul\":10531:10540   */\n      dup2\n        /* \"#utility.yul\":10525:10529   */\n      dup2\n        /* \"#utility.yul\":10521:10541   */\n      sub\n        /* \"#utility.yul\":10517:10518   */\n      0x00\n        /* \"#utility.yul\":10506:10515   */\n      dup4\n        /* \"#utility.yul\":10502:10519   */\n      add\n        /* \"#utility.yul\":10495:10542   */\n      mstore\n        /* \"#utility.yul\":10559:10721   */\n      tag_271\n        /* \"#utility.yul\":10716:10720   */\n      dup2\n        /* \"#utility.yul\":10707:10713   */\n      dup5\n        /* \"#utility.yul\":10559:10721   */\n      tag_151\n      jump\t// in\n    tag_271:\n        /* \"#utility.yul\":10551:10721   */\n      swap1\n      pop\n        /* \"#utility.yul\":10247:10728   */\n      swap3\n      swap2\n      pop\n      pop\n      jump\t// out\n        /* \"#utility.yul\":10734:11713   */\n    tag_29:\n        /* \"#utility.yul\":10831:10837   */\n      0x00\n        /* \"#utility.yul\":10839:10845   */\n      dup1\n        /* \"#utility.yul\":10847:10853   */\n      0x00\n        /* \"#utility.yul\":10896:10898   */\n      0x60\n        /* \"#utility.yul\":10884:10893   */\n      dup5\n        /* \"#utility.yul\":10875:10882   */\n      dup7\n        /* \"#utility.yul\":10871:10894   */\n      sub\n        /* \"#utility.yul\":10867:10899   */\n      slt\n        /* \"#utility.yul\":10864:10983   */\n      iszero\n      tag_273\n      jumpi\n        /* \"#utility.yul\":10902:10981   */\n      tag_274\n      tag_122\n      jump\t// in\n    tag_274:\n        /* \"#utility.yul\":10864:10983   */\n    tag_273:\n        /* \"#utility.yul\":11050:11051   */\n      0x00\n        /* \"#utility.yul\":11039:11048   */\n      dup5\n        /* \"#utility.yul\":11035:11052   */\n      add\n        /* \"#utility.yul\":11022:11053   */\n      calldataload\n        /* \"#utility.yul\":11080:11098   */\n      0xffffffffffffffff\n        /* \"#utility.yul\":11072:11078   */\n      dup2\n        /* \"#utility.yul\":11069:11099   */\n      gt\n        /* \"#utility.yul\":11066:11183   */\n      iszero\n      tag_275\n      jumpi\n        /* \"#utility.yul\":11102:11181   */\n      tag_276\n      tag_123\n      jump\t// in\n    tag_276:\n        /* \"#utility.yul\":11066:11183   */\n    tag_275:\n        /* \"#utility.yul\":11207:11270   */\n      tag_277\n        /* \"#utility.yul\":11262:11269   */\n      dup7\n        /* \"#utility.yul\":11253:11259   */\n      dup3\n        /* \"#utility.yul\":11242:11251   */\n      dup8\n        /* \"#utility.yul\":11238:11260   */\n      add\n        /* \"#utility.yul\":11207:11270   */\n      tag_141\n      jump\t// in\n    tag_277:\n        /* \"#utility.yul\":11197:11270   */\n      swap4\n      pop\n        /* \"#utility.yul\":10993:11280   */\n      pop\n        /* \"#utility.yul\":11347:11349   */\n      0x20\n        /* \"#utility.yul\":11336:11345   */\n      dup5\n        /* \"#utility.yul\":11332:11350   */\n      add\n        /* \"#utility.yul\":11319:11351   */\n      calldataload\n        /* \"#utility.yul\":11378:11396   */\n      0xffffffffffffffff\n        /* \"#utility.yul\":11370:11376   */\n      dup2\n        /* \"#utility.yul\":11367:11397   */\n      gt\n        /* \"#utility.yul\":11364:11481   */\n      iszero\n      tag_278\n      jumpi\n        /* \"#utility.yul\":11400:11479   */\n      tag_279\n      tag_123\n      jump\t// in\n    tag_279:\n        /* \"#utility.yul\":11364:11481   */\n    tag_278:\n        /* \"#utility.yul\":11505:11568   */\n      tag_280\n        /* \"#utility.yul\":11560:11567   */\n      dup7\n        /* \"#utility.yul\":11551:11557   */\n      dup3\n        /* \"#utility.yul\":11540:11549   */\n      dup8\n        /* \"#utility.yul\":11536:11558   */\n      add\n        /* \"#utility.yul\":11505:11568   */\n      tag_141\n      jump\t// in\n    tag_280:\n        /* \"#utility.yul\":11495:11568   */\n      swap3\n      pop\n        /* \"#utility.yul\":11290:11578   */\n      pop\n        /* \"#utility.yul\":11617:11619   */\n      0x40\n        /* \"#utility.yul\":11643:11696   */\n      tag_281\n        /* \"#utility.yul\":11688:11695   */\n      dup7\n        /* \"#utility.yul\":11679:11685   */\n      dup3\n        /* \"#utility.yul\":11668:11677   */\n      dup8\n        /* \"#utility.yul\":11664:11686   */\n      add\n        /* \"#utility.yul\":11643:11696   */\n      tag_126\n      jump\t// in\n    tag_281:\n        /* \"#utility.yul\":11633:11696   */\n      swap2\n      pop\n        /* \"#utility.yul\":11588:11706   */\n      pop\n        /* \"#utility.yul\":10734:11713   */\n      swap3\n      pop\n      swap3\n      pop\n      swap3\n      jump\t// out\n        /* \"#utility.yul\":11719:11899   */\n    tag_39:\n        /* \"#utility.yul\":11767:11844   */\n      0x4e487b7100000000000000000000000000000000000000000000000000000000\n        /* \"#utility.yul\":11764:11765   */\n      0x00\n        /* \"#utility.yul\":11757:11845   */\n      mstore\n        /* \"#utility.yul\":11864:11868   */\n      0x32\n        /* \"#utility.yul\":11861:11862   */\n      0x04\n        /* \"#utility.yul\":11854:11869   */\n      mstore\n        /* \"#utility.yul\":11888:11892   */\n      0x24\n        /* \"#utility.yul\":11885:11886   */\n      0x00\n        /* \"#utility.yul\":11878:11893   */\n      revert\n        /* \"#utility.yul\":11905:12085   */\n    tag_152:\n        /* \"#utility.yul\":11953:12030   */\n      0x4e487b7100000000000000000000000000000000000000000000000000000000\n        /* \"#utility.yul\":11950:11951   */\n      0x00\n        /* \"#utility.yul\":11943:12031   */\n      mstore\n        /* \"#utility.yul\":12050:12054   */\n      0x22\n        /* \"#utility.yul\":12047:12048   */\n      0x04\n        /* \"#utility.yul\":12040:12055   */\n      mstore\n        /* \"#utility.yul\":12074:12078   */\n      0x24\n        /* \"#utility.yul\":12071:12072   */\n      0x00\n        /* \"#utility.yul\":12064:12079   */\n      revert\n        /* \"#utility.yul\":12091:12411   */\n    tag_51:\n        /* \"#utility.yul\":12135:12141   */\n      0x00\n        /* \"#utility.yul\":12172:12173   */\n      0x02\n        /* \"#utility.yul\":12166:12170   */\n      dup3\n        /* \"#utility.yul\":12162:12174   */\n      div\n        /* \"#utility.yul\":12152:12174   */\n      swap1\n      pop\n        /* \"#utility.yul\":12219:12220   */\n      0x01\n        /* \"#utility.yul\":12213:12217   */\n      dup3\n        /* \"#utility.yul\":12209:12221   */\n      and\n        /* \"#utility.yul\":12240:12258   */\n      dup1\n        /* \"#utility.yul\":12230:12311   */\n      tag_285\n      jumpi\n        /* \"#utility.yul\":12296:12300   */\n      0x7f\n        /* \"#utility.yul\":12288:12294   */\n      dup3\n        /* \"#utility.yul\":12284:12301   */\n      and\n        /* \"#utility.yul\":12274:12301   */\n      swap2\n      pop\n        /* \"#utility.yul\":12230:12311   */\n    tag_285:\n        /* \"#utility.yul\":12358:12360   */\n      0x20\n        /* \"#utility.yul\":12350:12356   */\n      dup3\n        /* \"#utility.yul\":12347:12361   */\n      lt\n        /* \"#utility.yul\":12327:12345   */\n      dup2\n        /* \"#utility.yul\":12324:12362   */\n      sub\n        /* \"#utility.yul\":12321:12405   */\n      tag_286\n      jumpi\n        /* \"#utility.yul\":12377:12395   */\n      tag_287\n      tag_152\n      jump\t// in\n    tag_287:\n        /* \"#utility.yul\":12321:12405   */\n    tag_286:\n        /* \"#utility.yul\":12142:12411   */\n      pop\n        /* \"#utility.yul\":12091:12411   */\n      swap2\n      swap1\n      pop\n      jump\t// out\n        /* \"#utility.yul\":12417:12558   */\n    tag_153:\n        /* \"#utility.yul\":12466:12470   */\n      0x00\n        /* \"#utility.yul\":12489:12492   */\n      dup2\n        /* \"#utility.yul\":12481:12492   */\n      swap1\n      pop\n        /* \"#utility.yul\":12512:12515   */\n      dup2\n        /* \"#utility.yul\":12509:12510   */\n      0x00\n        /* \"#utility.yul\":12502:12516   */\n      mstore\n        /* \"#utility.yul\":12546:12550   */\n      0x20\n        /* \"#utility.yul\":12543:12544   */\n      0x00\n        /* \"#utility.yul\":12533:12551   */\n      keccak256\n        /* \"#utility.yul\":12525:12551   */\n      swap1\n      pop\n        /* \"#utility.yul\":12417:12558   */\n      swap2\n      swap1\n      pop\n      jump\t// out\n        /* \"#utility.yul\":12564:12657   */\n    tag_154:\n        /* \"#utility.yul\":12601:12607   */\n      0x00\n        /* \"#utility.yul\":12648:12650   */\n      0x20\n        /* \"#utility.yul\":12643:12645   */\n      0x1f\n        /* \"#utility.yul\":12636:12641   */\n      dup4\n        /* \"#utility.yul\":12632:12646   */\n      add\n        /* \"#utility.yul\":12628:12651   */\n      div\n        /* \"#utility.yul\":12618:12651   */\n      swap1\n      pop\n        /* \"#utility.yul\":12564:12657   */\n      swap2\n      swap1\n      pop\n      jump\t// out\n        /* \"#utility.yul\":12663:12770   */\n    tag_155:\n        /* \"#utility.yul\":12707:12715   */\n      0x00\n        /* \"#utility.yul\":12757:12762   */\n      dup3\n        /* \"#utility.yul\":12751:12755   */\n      dup3\n        /* \"#utility.yul\":12747:12763   */\n      shl\n        /* \"#utility.yul\":12726:12763   */\n      swap1\n      pop\n        /* \"#utility.yul\":12663:12770   */\n      swap3\n      swap2\n      pop\n      pop\n      jump\t// out\n        /* \"#utility.yul\":12776:13169   */\n    tag_156:\n        /* \"#utility.yul\":12845:12851   */\n      0x00\n        /* \"#utility.yul\":12895:12896   */\n      0x08\n        /* \"#utility.yul\":12883:12893   */\n      dup4\n        /* \"#utility.yul\":12879:12897   */\n      mul\n        /* \"#utility.yul\":12918:13015   */\n      tag_292\n        /* \"#utility.yul\":12948:13014   */\n      0xffffffffffffffffffffffffffffffffffffffffffffffffffffffffffffffff\n        /* \"#utility.yul\":12937:12946   */\n      dup3\n        /* \"#utility.yul\":12918:13015   */\n      tag_155\n      jump\t// in\n    tag_292:\n        /* \"#utility.yul\":13036:13075   */\n      tag_293\n        /* \"#utility.yul\":13066:13074   */\n      dup7\n        /* \"#utility.yul\":13055:13064   */\n      dup4\n        /* \"#utility.yul\":13036:13075   */\n      tag_155\n      jump\t// in\n    tag_293:\n        /* \"#utility.yul\":13024:13075   */\n      swap6\n      pop\n        /* \"#utility.yul\":13108:13112   */\n      dup1\n        /* \"#utility.yul\":13104:13113   */\n      not\n        /* \"#utility.yul\":13097:13102   */\n      dup5\n        /* \"#utility.yul\":13093:13114   */\n      and\n        /* \"#utility.yul\":13084:13114   */\n      swap4\n      pop\n        /* \"#utility.yul\":13157:13161   */\n      dup1\n        /* \"#utility.yul\":13147:13155   */\n      dup7\n        /* \"#utility.yul\":13143:13162   */\n      and\n        /* \"#utility.yul\":13136:13141   */\n      dup5\n        /* \"#utility.yul\":13133:13163   */\n      or\n        /* \"#utility.yul\":13123:13163   */\n      swap3\n      pop\n        /* \"#utility.yul\":12852:13169   */\n      pop\n      pop\n        /* \"#utility.yul\":12776:13169   */\n      swap4\n      swap3\n      pop\n      pop\n      pop\n      jump\t// out\n        /* \"#utility.yul\":13175:13235   */\n    tag_157:\n        /* \"#utility.yul\":13203:13206   */\n      0x00\n        /* \"#utility.yul\":13224:13229   */\n      dup2\n        /* \"#utility.yul\":13217:13229   */\n      swap1\n      pop\n        /* \"#utility.yul\":13175:13235   */\n      swap2\n      swap1\n      pop\n      jump\t// out\n        /* \"#utility.yul\":13241:13383   */\n    tag_158:\n        /* \"#utility.yul\":13291:13300   */\n      0x00\n        /* \"#utility.yul\":13324:13377   */\n      tag_296\n        /* \"#utility.yul\":13342:13376   */\n      tag_297\n        /* \"#utility.yul\":13351:13375   */\n      tag_298\n        /* \"#utility.yul\":13369:13374   */\n      dup5\n        /* \"#utility.yul\":13351:13375   */\n      tag_124\n      jump\t// in\n    tag_298:\n        /* \"#utility.yul\":13342:13376   */\n      tag_157\n      jump\t// in\n    tag_297:\n        /* \"#utility.yul\":13324:13377   */\n      tag_124\n      jump\t// in\n    tag_296:\n        /* \"#utility.yul\":13311:13377   */\n      swap1\n      pop\n        /* \"#utility.yul\":13241:13383   */\n      swap2\n      swap1\n      pop\n      jump\t// out\n        /* \"#utility.yul\":13389:13464   */\n    tag_159:\n        /* \"#utility.yul\":13432:13435   */\n      0x00\n        /* \"#utility.yul\":13453:13458   */\n      dup2\n        /* \"#utility.yul\":13446:13458   */\n      swap1\n      pop\n        /* \"#utility.yul\":13389:13464   */\n      swap2\n      swap1\n      pop\n      jump\t// out\n        /* \"#utility.yul\":13470:13739   */\n    tag_160:\n        /* \"#utility.yul\":13580:13619   */\n      tag_301\n        /* \"#utility.yul\":13611:13618   */\n      dup4\n        /* \"#utility.yul\":13580:13619   */\n      tag_158\n      jump\t// in\n    tag_301:\n        /* \"#utility.yul\":13641:13732   */\n      tag_302\n        /* \"#utility.yul\":13690:13731   */\n      tag_303\n        /* \"#utility.yul\":13714:13730   */\n      dup3\n        /* \"#utility.yul\":13690:13731   */\n      tag_159\n      jump\t// in\n    tag_303:\n        /* \"#utility.yul\":13682:13688   */\n      dup5\n        /* \"#utility.yul\":13675:13679   */\n      dup5\n        /* \"#utility.yul\":13669:13680   */\n      sload\n        /* \"#utility.yul\":13641:13732   */\n      tag_156\n      jump\t// in\n    tag_302:\n        /* \"#utility.yul\":13635:13639   */\n      dup3\n        /* \"#utility.yul\":13628:13733   */\n      sstore\n        /* \"#utility.yul\":13546:13739   */\n      pop\n        /* \"#utility.yul\":13470:13739   */\n      pop\n      pop\n      pop\n      jump\t// out\n        /* \"#utility.yul\":13745:13818   */\n    tag_161:\n        /* \"#utility.yul\":13790:13793   */\n      0x00\n        /* \"#utility.yul\":13745:13818   */\n      swap1\n      jump\t// out\n        /* \"#utility.yul\":13824:14013   */\n    tag_162:\n        /* \"#utility.yul\":13901:13933   */\n      tag_306\n      tag_161\n      jump\t// in\n    tag_306:\n        /* \"#utility.yul\":13942:14007   */\n      tag_307\n        /* \"#utility.yul\":14000:14006   */\n      dup2\n        /* \"#utility.yul\":13992:13998   */\n      dup5\n        /* \"#utility.yul\":13986:13990   */\n      dup5\n        /* \"#utility.yul\":13942:14007   */\n      tag_160\n      jump\t// in\n    tag_307:\n        /* \"#utility.yul\":13877:14013   */\n      pop\n        /* \"#utility.yul\":13824:14013   */\n      pop\n      pop\n      jump\t// out\n        /* \"#utility.yul\":14019:14205   */\n    tag_163:\n        /* \"#utility.yul\":14079:14199   */\n    tag_309:\n        /* \"#utility.yul\":14096:14099   */\n      dup2\n        /* \"#utility.yul\":14089:14094   */\n      dup2\n        /* \"#utility.yul\":14086:14100   */\n      lt\n        /* \"#utility.yul\":14079:14199   */\n      iszero\n      tag_311\n      jumpi\n        /* \"#utility.yul\":14150:14189   */\n      tag_312\n        /* \"#utility.yul\":14187:14188   */\n      0x00\n        /* \"#utility.yul\":14180:14185   */\n      dup3\n        /* \"#utility.yul\":14150:14189   */\n      tag_162\n      jump\t// in\n    tag_312:\n        /* \"#utility.yul\":14123:14124   */\n      0x01\n        /* \"#utility.yul\":14116:14121   */\n      dup2\n        /* \"#utility.yul\":14112:14125   */\n      add\n        /* \"#utility.yul\":14103:14125   */\n      swap1\n      pop\n        /* \"#utility.yul\":14079:14199   */\n      jump(tag_309)\n    tag_311:\n        /* \"#utility.yul\":14019:14205   */\n      pop\n      pop\n      jump\t// out\n        /* \"#utility.yul\":14211:14754   */\n    tag_164:\n        /* \"#utility.yul\":14312:14314   */\n      0x1f\n        /* \"#utility.yul\":14307:14310   */\n      dup3\n        /* \"#utility.yul\":14304:14315   */\n      gt\n        /* \"#utility.yul\":14301:14747   */\n      iszero\n      tag_314\n      jumpi\n        /* \"#utility.yul\":14346:14384   */\n      tag_315\n        /* \"#utility.yul\":14378:14383   */\n      dup2\n        /* \"#utility.yul\":14346:14384   */\n      tag_153\n      jump\t// in\n    tag_315:\n        /* \"#utility.yul\":14430:14459   */\n      tag_316\n        /* \"#utility.yul\":14448:14458   */\n      dup5\n        /* \"#utility.yul\":14430:14459   */\n      tag_154\n      jump\t// in\n    tag_316:\n        /* \"#utility.yul\":14420:14428   */\n      dup2\n        /* \"#utility.yul\":14416:14460   */\n      add\n        /* \"#utility.yul\":14613:14615   */\n      0x20\n        /* \"#utility.yul\":14601:14611   */\n      dup6\n        /* \"#utility.yul\":14598:14616   */\n      lt\n        /* \"#utility.yul\":14595:14644   */\n      iszero\n      tag_317\n      jumpi\n        /* \"#utility.yul\":14634:14642   */\n      dup2\n        /* \"#utility.yul\":14619:14642   */\n      swap1\n      pop\n        /* \"#utility.yul\":14595:14644   */\n    tag_317:\n        /* \"#utility.yul\":14657:14737   */\n      tag_318\n        /* \"#utility.yul\":14713:14735   */\n      tag_319\n        /* \"#utility.yul\":14731:14734   */\n      dup6\n        /* \"#utility.yul\":14713:14735   */\n      tag_154\n      jump\t// in\n    tag_319:\n        /* \"#utility.yul\":14703:14711   */\n      dup4\n        /* \"#utility.yul\":14699:14736   */\n      add\n        /* \"#utility.yul\":14686:14697   */\n      dup3\n        /* \"#utility.yul\":14657:14737   */\n      tag_163\n      jump\t// in\n    tag_318:\n        /* \"#utility.yul\":14316:14747   */\n      pop\n      pop\n        /* \"#utility.yul\":14301:14747   */\n    tag_314:\n        /* \"#utility.yul\":14211:14754   */\n      pop\n      pop\n      pop\n      jump\t// out\n        /* \"#utility.yul\":14760:14877   */\n    tag_165:\n        /* \"#utility.yul\":14814:14822   */\n      0x00\n        /* \"#utility.yul\":14864:14869   */\n      dup3\n        /* \"#utility.yul\":14858:14862   */\n      dup3\n        /* \"#utility.yul\":14854:14870   */\n      shr\n        /* \"#utility.yul\":14833:14870   */\n      swap1\n      pop\n        /* \"#utility.yul\":14760:14877   */\n      swap3\n      swap2\n      pop\n      pop\n      jump\t// out\n        /* \"#utility.yul\":14883:15052   */\n    tag_166:\n        /* \"#utility.yul\":14927:14933   */\n      0x00\n        /* \"#utility.yul\":14960:15011   */\n      tag_322\n        /* \"#utility.yul\":15008:15009   */\n      0x00\n        /* \"#utility.yul\":15004:15010   */\n      not\n        /* \"#utility.yul\":14996:15001   */\n      dup5\n        /* \"#utility.yul\":14993:14994   */\n      0x08\n        /* \"#utility.yul\":14989:15002   */\n      mul\n        /* \"#utility.yul\":14960:15011   */\n      tag_165\n      jump\t// in\n    tag_322:\n        /* \"#utility.yul\":14956:15012   */\n      not\n        /* \"#utility.yul\":15041:15045   */\n      dup1\n        /* \"#utility.yul\":15035:15039   */\n      dup4\n        /* \"#utility.yul\":15031:15046   */\n      and\n        /* \"#utility.yul\":15021:15046   */\n      swap2\n      pop\n        /* \"#utility.yul\":14934:15052   */\n      pop\n        /* \"#utility.yul\":14883:15052   */\n      swap3\n      swap2\n      pop\n      pop\n      jump\t// out\n        /* \"#utility.yul\":15057:15352   */\n    tag_167:\n        /* \"#utility.yul\":15133:15137   */\n      0x00\n        /* \"#utility.yul\":15279:15308   */\n      tag_324\n        /* \"#utility.yul\":15304:15307   */\n      dup4\n        /* \"#utility.yul\":15298:15302   */\n      dup4\n        /* \"#utility.yul\":15279:15308   */\n      tag_166\n      jump\t// in\n    tag_324:\n        /* \"#utility.yul\":15271:15308   */\n      swap2\n      pop\n        /* \"#utility.yul\":15341:15344   */\n      dup3\n        /* \"#utility.yul\":15338:15339   */\n      0x02\n        /* \"#utility.yul\":15334:15345   */\n      mul\n        /* \"#utility.yul\":15328:15332   */\n      dup3\n        /* \"#utility.yul\":15325:15346   */\n      or\n        /* \"#utility.yul\":15317:15346   */\n      swap1\n      pop\n        /* \"#utility.yul\":15057:15352   */\n      swap3\n      swap2\n      pop\n      pop\n      jump\t// out\n        /* \"#utility.yul\":15357:16752   */\n    tag_67:\n        /* \"#utility.yul\":15474:15511   */\n      tag_326\n        /* \"#utility.yul\":15507:15510   */\n      dup3\n        /* \"#utility.yul\":15474:15511   */\n      tag_128\n      jump\t// in\n    tag_326:\n        /* \"#utility.yul\":15576:15594   */\n      0xffffffffffffffff\n        /* \"#utility.yul\":15568:15574   */\n      dup2\n        /* \"#utility.yul\":15565:15595   */\n      gt\n        /* \"#utility.yul\":15562:15618   */\n      iszero\n      tag_327\n      jumpi\n        /* \"#utility.yul\":15598:15616   */\n      tag_328\n      tag_135\n      jump\t// in\n    tag_328:\n        /* \"#utility.yul\":15562:15618   */\n    tag_327:\n        /* \"#utility.yul\":15642:15680   */\n      tag_329\n        /* \"#utility.yul\":15674:15678   */\n      dup3\n        /* \"#utility.yul\":15668:15679   */\n      sload\n        /* \"#utility.yul\":15642:15680   */\n      tag_51\n      jump\t// in\n    tag_329:\n        /* \"#utility.yul\":15727:15794   */\n      tag_330\n        /* \"#utility.yul\":15787:15793   */\n      dup3\n        /* \"#utility.yul\":15779:15785   */\n      dup3\n        /* \"#utility.yul\":15773:15777   */\n      dup6\n        /* \"#utility.yul\":15727:15794   */\n      tag_164\n      jump\t// in\n    tag_330:\n        /* \"#utility.yul\":15821:15822   */\n      0x00\n        /* \"#utility.yul\":15845:15849   */\n      0x20\n        /* \"#utility.yul\":15832:15849   */\n      swap1\n      pop\n        /* \"#utility.yul\":15877:15879   */\n      0x1f\n        /* \"#utility.yul\":15869:15875   */\n      dup4\n        /* \"#utility.yul\":15866:15880   */\n      gt\n        /* \"#utility.yul\":15894:15895   */\n      0x01\n        /* \"#utility.yul\":15889:16507   */\n      dup2\n      eq\n      tag_332\n      jumpi\n        /* \"#utility.yul\":16551:16552   */\n      0x00\n        /* \"#utility.yul\":16568:16574   */\n      dup5\n        /* \"#utility.yul\":16565:16642   */\n      iszero\n      tag_333\n      jumpi\n        /* \"#utility.yul\":16617:16626   */\n      dup3\n        /* \"#utility.yul\":16612:16615   */\n      dup8\n        /* \"#utility.yul\":16608:16627   */\n      add\n        /* \"#utility.yul\":16602:16628   */\n      mload\n        /* \"#utility.yul\":16593:16628   */\n      swap1\n      pop\n        /* \"#utility.yul\":16565:16642   */\n    tag_333:\n        /* \"#utility.yul\":16668:16735   */\n      tag_334\n        /* \"#utility.yul\":16728:16734   */\n      dup6\n        /* \"#utility.yul\":16721:16726   */\n      dup3\n        /* \"#utility.yul\":16668:16735   */\n      tag_167\n      jump\t// in\n    tag_334:\n        /* \"#utility.yul\":16662:16666   */\n      dup7\n        /* \"#utility.yul\":16655:16736   */\n      sstore\n        /* \"#utility.yul\":16524:16746   */\n      pop\n        /* \"#utility.yul\":15859:16746   */\n      jump(tag_331)\n        /* \"#utility.yul\":15889:16507   */\n    tag_332:\n        /* \"#utility.yul\":15941:15945   */\n      0x1f\n        /* \"#utility.yul\":15937:15946   */\n      not\n        /* \"#utility.yul\":15929:15935   */\n      dup5\n        /* \"#utility.yul\":15925:15947   */\n      and\n        /* \"#utility.yul\":15975:16012   */\n      tag_335\n        /* \"#utility.yul\":16007:16011   */\n      dup7\n        /* \"#utility.yul\":15975:16012   */\n      tag_153\n      jump\t// in\n    tag_335:\n        /* \"#utility.yul\":16034:16035   */\n      0x00\n        /* \"#utility.yul\":16048:16256   */\n    tag_336:\n        /* \"#utility.yul\":16062:16069   */\n      dup3\n        /* \"#utility.yul\":16059:16060   */\n      dup2\n        /* \"#utility.yul\":16056:16070   */\n      lt\n        /* \"#utility.yul\":16048:16256   */\n      iszero\n      tag_338\n      jumpi\n        /* \"#utility.yul\":16141:16150   */\n      dup5\n        /* \"#utility.yul\":16136:16139   */\n      dup10\n        /* \"#utility.yul\":16132:16151   */\n      add\n        /* \"#utility.yul\":16126:16152   */\n      mload\n        /* \"#utility.yul\":16118:16124   */\n      dup3\n        /* \"#utility.yul\":16111:16153   */\n      sstore\n        /* \"#utility.yul\":16192:16193   */\n      0x01\n        /* \"#utility.yul\":16184:16190   */\n      dup3\n        /* \"#utility.yul\":16180:16194   */\n      add\n        /* \"#utility.yul\":16170:16194   */\n      swap2\n      pop\n        /* \"#utility.yul\":16239:16241   */\n      0x20\n        /* \"#utility.yul\":16228:16237   */\n      dup6\n        /* \"#utility.yul\":16224:16242   */\n      add\n        /* \"#utility.yul\":16211:16242   */\n      swap5\n      pop\n        /* \"#utility.yul\":16085:16089   */\n      0x20\n        /* \"#utility.yul\":16082:16083   */\n      dup2\n        /* \"#utility.yul\":16078:16090   */\n      add\n        /* \"#utility.yul\":16073:16090   */\n      swap1\n      pop\n        /* \"#utility.yul\":16048:16256   */\n      jump(tag_336)\n    tag_338:\n        /* \"#utility.yul\":16284:16290   */\n      dup7\n        /* \"#utility.yul\":16275:16282   */\n      dup4\n        /* \"#utility.yul\":16272:16291   */\n      lt\n        /* \"#utility.yul\":16269:16448   */\n      iszero\n      tag_339\n      jumpi\n        /* \"#utility.yul\":16342:16351   */\n      dup5\n        /* \"#utility.yul\":16337:16340   */\n      dup10\n        /* \"#utility.yul\":16333:16352   */\n      add\n        /* \"#utility.yul\":16327:16353   */\n      mload\n        /* \"#utility.yul\":16385:16433   */\n      tag_340\n        /* \"#utility.yul\":16427:16431   */\n      0x1f\n        /* \"#utility.yul\":16419:16425   */\n      dup10\n        /* \"#utility.yul\":16415:16432   */\n      and\n        /* \"#utility.yul\":16404:16413   */\n      dup3\n        /* \"#utility.yul\":16385:16433   */\n      tag_166\n      jump\t// in\n    tag_340:\n        /* \"#utility.yul\":16377:16383   */\n      dup4\n        /* \"#utility.yul\":16370:16434   */\n      sstore\n        /* \"#utility.yul\":16292:16448   */\n      pop\n        /* \"#utility.yul\":16269:16448   */\n    tag_339:\n        /* \"#utility.yul\":16494:16495   */\n      0x01\n        /* \"#utility.yul\":16490:16491   */\n      0x02\n        /* \"#utility.yul\":16482:16488   */\n      dup9\n        /* \"#utility.yul\":16478:16492   */\n      mul\n        /* \"#utility.yul\":16474:16496   */\n      add\n        /* \"#utility.yul\":16468:16472   */\n      dup9\n        /* \"#utility.yul\":16461:16497   */\n      sstore\n        /* \"#utility.yul\":15896:16507   */\n      pop\n      pop\n      pop\n        /* \"#utility.yul\":15859:16746   */\n    tag_331:\n      pop\n        /* \"#utility.yul\":15449:16752   */\n      pop\n      pop\n      pop\n        /* \"#utility.yul\":15357:16752   */\n      pop\n      pop\n      jump\t// out\n        /* \"#utility.yul\":16758:16938   */\n    tag_168:\n        /* \"#utility.yul\":16806:16883   */\n      0x4e487b7100000000000000000000000000000000000000000000000000000000\n        /* \"#utility.yul\":16803:16804   */\n      0x00\n        /* \"#utility.yul\":16796:16884   */\n      mstore\n        /* \"#utility.yul\":16903:16907   */\n      0x11\n        /* \"#utility.yul\":16900:16901   */\n      0x04\n        /* \"#utility.yul\":16893:16908   */\n      mstore\n        /* \"#utility.yul\":16927:16931   */\n      0x24\n        /* \"#utility.yul\":16924:16925   */\n      0x00\n        /* \"#utility.yul\":16917:16932   */\n      revert\n        /* \"#utility.yul\":16944:17177   */\n    tag_95:\n        /* \"#utility.yul\":16983:16986   */\n      0x00\n        /* \"#utility.yul\":17006:17030   */\n      tag_343\n        /* \"#utility.yul\":17024:17029   */\n      dup3\n        /* \"#utility.yul\":17006:17030   */\n      tag_124\n      jump\t// in\n    tag_343:\n        /* \"#utility.yul\":16997:17030   */\n      swap2\n      pop\n        /* \"#utility.yul\":17052:17118   */\n      0xffffffffffffffffffffffffffffffffffffffffffffffffffffffffffffffff\n        /* \"#utility.yul\":17045:17050   */\n      dup3\n        /* \"#utility.yul\":17042:17119   */\n      sub\n        /* \"#utility.yul\":17039:17142   */\n      tag_344\n      jumpi\n        /* \"#utility.yul\":17122:17140   */\n      tag_345\n      tag_168\n      jump\t// in\n    tag_345:\n        /* \"#utility.yul\":17039:17142   */\n    tag_344:\n        /* \"#utility.yul\":17169:17170   */\n      0x01\n        /* \"#utility.yul\":17162:17167   */\n      dup3\n        /* \"#utility.yul\":17158:17171   */\n      add\n        /* \"#utility.yul\":17151:17171   */\n      swap1\n      pop\n        /* \"#utility.yul\":16944:17177   */\n      swap2\n      swap1\n      pop\n      jump\t// out\n        /* \"#utility.yul\":17183:17356   */\n    tag_169:\n        /* \"#utility.yul\":17323:17348   */\n      0x5a616d657374616e656e6563206e656578697374756a65000000000000000000\n        /* \"#utility.yul\":17319:17320   */\n      0x00\n        /* \"#utility.yul\":17311:17317   */\n      dup3\n        /* \"#utility.yul\":17307:17321   */\n      add\n        /* \"#utility.yul\":17300:17349   */\n      mstore\n        /* \"#utility.yul\":17183:17356   */\n      pop\n      jump\t// out\n        /* \"#utility.yul\":17362:17728   */\n    tag_170:\n        /* \"#utility.yul\":17504:17507   */\n      0x00\n        /* \"#utility.yul\":17525:17592   */\n      tag_348\n        /* \"#utility.yul\":17589:17591   */\n      0x17\n        /* \"#utility.yul\":17584:17587   */\n      dup4\n        /* \"#utility.yul\":17525:17592   */\n      tag_129\n      jump\t// in\n    tag_348:\n        /* \"#utility.yul\":17518:17592   */\n      swap2\n      pop\n        /* \"#utility.yul\":17601:17694   */\n      tag_349\n        /* \"#utility.yul\":17690:17693   */\n      dup3\n        /* \"#utility.yul\":17601:17694   */\n      tag_169\n      jump\t// in\n    tag_349:\n        /* \"#utility.yul\":17719:17721   */\n      0x20\n        /* \"#utility.yul\":17714:17717   */\n      dup3\n        /* \"#utility.yul\":17710:17722   */\n      add\n        /* \"#utility.yul\":17703:17722   */\n      swap1\n      pop\n        /* \"#utility.yul\":17362:17728   */\n      swap2\n      swap1\n      pop\n      jump\t// out\n        /* \"#utility.yul\":17734:18153   */\n    tag_113:\n        /* \"#utility.yul\":17900:17904   */\n      0x00\n        /* \"#utility.yul\":17938:17940   */\n      0x20\n        /* \"#utility.yul\":17927:17936   */\n      dup3\n        /* \"#utility.yul\":17923:17941   */\n      add\n        /* \"#utility.yul\":17915:17941   */\n      swap1\n      pop\n        /* \"#utility.yul\":17987:17996   */\n      dup2\n        /* \"#utility.yul\":17981:17985   */\n      dup2\n        /* \"#utility.yul\":17977:17997   */\n      sub\n        /* \"#utility.yul\":17973:17974   */\n      0x00\n        /* \"#utility.yul\":17962:17971   */\n      dup4\n        /* \"#utility.yul\":17958:17975   */\n      add\n        /* \"#utility.yul\":17951:17998   */\n      mstore\n        /* \"#utility.yul\":18015:18146   */\n      tag_351\n        /* \"#utility.yul\":18141:18145   */\n      dup2\n        /* \"#utility.yul\":18015:18146   */\n      tag_170\n      jump\t// in\n    tag_351:\n        /* \"#utility.yul\":18007:18146   */\n      swap1\n      pop\n        /* \"#utility.yul\":17734:18153   */\n      swap2\n      swap1\n      pop\n      jump\t// out\n\n    auxdata: 0xa2646970667358221220d7e2cea85bc42ce2c74a8f22f6b1c3d80b3a6fa67bb5eaa52d6294e5d6a8300c64736f6c63430008160033\n}\n",
				"bytecode": {
					"linkReferences": {},
					"object": "608060405260018055348015610013575f80fd5b50611067806100215f395ff3fe608060405234801561000f575f80fd5b5060043610610060575f3560e01c806326661b3a146100645780636ee3313614610097578063755a8f6b146100b3578063949d9add146100d1578063a57c9c07146100ef578063fd65b57d1461010b575b5f80fd5b61007e60048036038101906100799190610748565b610127565b60405161008e949392919061080c565b60405180910390f35b6100b160048036038101906100ac9190610989565b6102e5565b005b6100bb61037f565b6040516100c89190610a25565b60405180910390f35b6100d961038a565b6040516100e69190610bb7565b60405180910390f35b61010960048036038101906101049190610bd7565b610518565b005b61012560048036038101906101209190610748565b6105be565b005b5f6060805f806101368661061b565b90505f818154811061014b5761014a610c5f565b5b905f5260205f2090600402015f01545f828154811061016d5761016c610c5f565b5b905f5260205f2090600402016001015f838154811061018f5761018e610c5f565b5b905f5260205f2090600402016002015f84815481106101b1576101b0610c5f565b5b905f5260205f209060040201600301548280546101cd90610cb9565b80601f01602080910402602001604051908101604052809291908181526020018280546101f990610cb9565b80156102445780601f1061021b57610100808354040283529160200191610244565b820191905f5260205f20905b81548152906001019060200180831161022757829003601f168201915b5050505050925081805461025790610cb9565b80601f016020809104026020016040519081016040528092919081815260200182805461028390610cb9565b80156102ce5780601f106102a5576101008083540402835291602001916102ce565b820191905f5260205f20905b8154815290600101906020018083116102b157829003601f168201915b505050505091509450945094509450509193509193565b5f6102ef8561061b565b9050835f828154811061030557610304610c5f565b5b905f5260205f20906004020160010190816103209190610e86565b50825f828154811061033557610334610c5f565b5b905f5260205f20906004020160020190816103509190610e86565b50815f828154811061036557610364610c5f565b5b905f5260205f209060040201600301819055505050505050565b5f8080549050905090565b60605f805480602002602001604051908101604052809291908181526020015f905b8282101561050f578382905f5260205f2090600402016040518060800160405290815f82015481526020016001820180546103e690610cb9565b80601f016020809104026020016040519081016040528092919081815260200182805461041290610cb9565b801561045d5780601f106104345761010080835404028352916020019161045d565b820191905f5260205f20905b81548152906001019060200180831161044057829003601f168201915b5050505050815260200160028201805461047690610cb9565b80601f01602080910402602001604051908101604052809291908181526020018280546104a290610cb9565b80156104ed5780601f106104c4576101008083540402835291602001916104ed565b820191905f5260205f20905b8154815290600101906020018083116104d057829003601f168201915b50505050508152602001600382015481525050815260200190600101906103ac565b50505050905090565b5f6040518060800160405280600154815260200185815260200184815260200183815250908060018154018082558091505060019003905f5260205f2090600402015f909190919091505f820151815f0155602082015181600101908161057f9190610e86565b5060408201518160020190816105959190610e86565b5060608201518160030155505060015f8154809291906105b490610f82565b9190505550505050565b5f6105c88261061b565b90505f81815481106105dd576105dc610c5f565b5b905f5260205f2090600402015f8082015f9055600182015f6105ff91906106ac565b600282015f61060e91906106ac565b600382015f905550505050565b5f805f90505b5f8054905081101561066b57825f828154811061064157610640610c5f565b5b905f5260205f2090600402015f01540361065e57809150506106a7565b8080600101915050610621565b506040517f08c379a000000000000000000000000000000000000000000000000000000000815260040161069e90611013565b60405180910390fd5b919050565b5080546106b890610cb9565b5f825580601f106106c957506106e6565b601f0160209004905f5260205f20908101906106e591906106e9565b5b50565b5b80821115610700575f815f9055506001016106ea565b5090565b5f604051905090565b5f80fd5b5f80fd5b5f819050919050565b61072781610715565b8114610731575f80fd5b50565b5f813590506107428161071e565b92915050565b5f6020828403121561075d5761075c61070d565b5b5f61076a84828501610734565b91505092915050565b61077c81610715565b82525050565b5f81519050919050565b5f82825260208201905092915050565b5f5b838110156107b957808201518184015260208101905061079e565b5f8484015250505050565b5f601f19601f8301169050919050565b5f6107de82610782565b6107e8818561078c565b93506107f881856020860161079c565b610801816107c4565b840191505092915050565b5f60808201905061081f5f830187610773565b818103602083015261083181866107d4565b9050818103604083015261084581856107d4565b90506108546060830184610773565b95945050505050565b5f80fd5b5f80fd5b7f4e487b71000000000000000000000000000000000000000000000000000000005f52604160045260245ffd5b61089b826107c4565b810181811067ffffffffffffffff821117156108ba576108b9610865565b5b80604052505050565b5f6108cc610704565b90506108d88282610892565b919050565b5f67ffffffffffffffff8211156108f7576108f6610865565b5b610900826107c4565b9050602081019050919050565b828183375f83830152505050565b5f61092d610928846108dd565b6108c3565b90508281526020810184848401111561094957610948610861565b5b61095484828561090d565b509392505050565b5f82601f8301126109705761096f61085d565b5b813561098084826020860161091b565b91505092915050565b5f805f80608085870312156109a1576109a061070d565b5b5f6109ae87828801610734565b945050602085013567ffffffffffffffff8111156109cf576109ce610711565b5b6109db8782880161095c565b935050604085013567ffffffffffffffff8111156109fc576109fb610711565b5b610a088782880161095c565b9250506060610a1987828801610734565b91505092959194509250565b5f602082019050610a385f830184610773565b92915050565b5f81519050919050565b5f82825260208201905092915050565b5f819050602082019050919050565b610a7081610715565b82525050565b5f82825260208201905092915050565b5f610a9082610782565b610a9a8185610a76565b9350610aaa81856020860161079c565b610ab3816107c4565b840191505092915050565b5f608083015f830151610ad35f860182610a67565b5060208301518482036020860152610aeb8282610a86565b91505060408301518482036040860152610b058282610a86565b9150506060830151610b1a6060860182610a67565b508091505092915050565b5f610b308383610abe565b905092915050565b5f602082019050919050565b5f610b4e82610a3e565b610b588185610a48565b935083602082028501610b6a85610a58565b805f5b85811015610ba55784840389528151610b868582610b25565b9450610b9183610b38565b925060208a01995050600181019050610b6d565b50829750879550505050505092915050565b5f6020820190508181035f830152610bcf8184610b44565b905092915050565b5f805f60608486031215610bee57610bed61070d565b5b5f84013567ffffffffffffffff811115610c0b57610c0a610711565b5b610c178682870161095c565b935050602084013567ffffffffffffffff811115610c3857610c37610711565b5b610c448682870161095c565b9250506040610c5586828701610734565b9150509250925092565b7f4e487b71000000000000000000000000000000000000000000000000000000005f52603260045260245ffd5b7f4e487b71000000000000000000000000000000000000000000000000000000005f52602260045260245ffd5b5f6002820490506001821680610cd057607f821691505b602082108103610ce357610ce2610c8c565b5b50919050565b5f819050815f5260205f209050919050565b5f6020601f8301049050919050565b5f82821b905092915050565b5f60088302610d457fffffffffffffffffffffffffffffffffffffffffffffffffffffffffffffffff82610d0a565b610d4f8683610d0a565b95508019841693508086168417925050509392505050565b5f819050919050565b5f610d8a610d85610d8084610715565b610d67565b610715565b9050919050565b5f819050919050565b610da383610d70565b610db7610daf82610d91565b848454610d16565b825550505050565b5f90565b610dcb610dbf565b610dd6818484610d9a565b505050565b5b81811015610df957610dee5f82610dc3565b600181019050610ddc565b5050565b601f821115610e3e57610e0f81610ce9565b610e1884610cfb565b81016020851015610e27578190505b610e3b610e3385610cfb565b830182610ddb565b50505b505050565b5f82821c905092915050565b5f610e5e5f1984600802610e43565b1980831691505092915050565b5f610e768383610e4f565b9150826002028217905092915050565b610e8f82610782565b67ffffffffffffffff811115610ea857610ea7610865565b5b610eb28254610cb9565b610ebd828285610dfd565b5f60209050601f831160018114610eee575f8415610edc578287015190505b610ee68582610e6b565b865550610f4d565b601f198416610efc86610ce9565b5f5b82811015610f2357848901518255600182019150602085019450602081019050610efe565b86831015610f405784890151610f3c601f891682610e4f565b8355505b6001600288020188555050505b505050505050565b7f4e487b71000000000000000000000000000000000000000000000000000000005f52601160045260245ffd5b5f610f8c82610715565b91507fffffffffffffffffffffffffffffffffffffffffffffffffffffffffffffffff8203610fbe57610fbd610f55565b5b600182019050919050565b7f5a616d657374616e656e6563206e656578697374756a650000000000000000005f82015250565b5f610ffd60178361078c565b915061100882610fc9565b602082019050919050565b5f6020820190508181035f83015261102a81610ff1565b905091905056fea2646970667358221220d7e2cea85bc42ce2c74a8f22f6b1c3d80b3a6fa67bb5eaa52d6294e5d6a8300c64736f6c63430008160033",
					"opcodes": "PUSH1 0x80 PUSH1 0x40 MSTORE PUSH1 0x1 DUP1 SSTORE CALLVALUE DUP1 ISZERO PUSH2 0x13 JUMPI PUSH0 DUP1 REVERT JUMPDEST POP PUSH2 0x1067 DUP1 PUSH2 0x21 PUSH0 CODECOPY PUSH0 RETURN INVALID PUSH1 0x80 PUSH1 0x40 MSTORE CALLVALUE DUP1 ISZERO PUSH2 0xF JUMPI PUSH0 DUP1 REVERT JUMPDEST POP PUSH1 0x4 CALLDATASIZE LT PUSH2 0x60 JUMPI PUSH0 CALLDATALOAD PUSH1 0xE0 SHR DUP1 PUSH4 0x26661B3A EQ PUSH2 0x64 JUMPI DUP1 PUSH4 0x6EE33136 EQ PUSH2 0x97 JUMPI DUP1 PUSH4 0x755A8F6B EQ PUSH2 0xB3 JUMPI DUP1 PUSH4 0x949D9ADD EQ PUSH2 0xD1 JUMPI DUP1 PUSH4 0xA57C9C07 EQ PUSH2 0xEF JUMPI DUP1 PUSH4 0xFD65B57D EQ PUSH2 0x10B JUMPI JUMPDEST PUSH0 DUP1 REVERT JUMPDEST PUSH2 0x7E PUSH1 0x4 DUP1 CALLDATASIZE SUB DUP2 ADD SWAP1 PUSH2 0x79 SWAP2 SWAP1 PUSH2 0x748 JUMP JUMPDEST PUSH2 0x127 JUMP JUMPDEST PUSH1 0x40 MLOAD PUSH2 0x8E SWAP5 SWAP4 SWAP3 SWAP2 SWAP1 PUSH2 0x80C JUMP JUMPDEST PUSH1 0x40 MLOAD DUP1 SWAP2 SUB SWAP1 RETURN JUMPDEST PUSH2 0xB1 PUSH1 0x4 DUP1 CALLDATASIZE SUB DUP2 ADD SWAP1 PUSH2 0xAC SWAP2 SWAP1 PUSH2 0x989 JUMP JUMPDEST PUSH2 0x2E5 JUMP JUMPDEST STOP JUMPDEST PUSH2 0xBB PUSH2 0x37F JUMP JUMPDEST PUSH1 0x40 MLOAD PUSH2 0xC8 SWAP2 SWAP1 PUSH2 0xA25 JUMP JUMPDEST PUSH1 0x40 MLOAD DUP1 SWAP2 SUB SWAP1 RETURN JUMPDEST PUSH2 0xD9 PUSH2 0x38A JUMP JUMPDEST PUSH1 0x40 MLOAD PUSH2 0xE6 SWAP2 SWAP1 PUSH2 0xBB7 JUMP JUMPDEST PUSH1 0x40 MLOAD DUP1 SWAP2 SUB SWAP1 RETURN JUMPDEST PUSH2 0x109 PUSH1 0x4 DUP1 CALLDATASIZE SUB DUP2 ADD SWAP1 PUSH2 0x104 SWAP2 SWAP1 PUSH2 0xBD7 JUMP JUMPDEST PUSH2 0x518 JUMP JUMPDEST STOP JUMPDEST PUSH2 0x125 PUSH1 0x4 DUP1 CALLDATASIZE SUB DUP2 ADD SWAP1 PUSH2 0x120 SWAP2 SWAP1 PUSH2 0x748 JUMP JUMPDEST PUSH2 0x5BE JUMP JUMPDEST STOP JUMPDEST PUSH0 PUSH1 0x60 DUP1 PUSH0 DUP1 PUSH2 0x136 DUP7 PUSH2 0x61B JUMP JUMPDEST SWAP1 POP PUSH0 DUP2 DUP2 SLOAD DUP2 LT PUSH2 0x14B JUMPI PUSH2 0x14A PUSH2 0xC5F JUMP JUMPDEST JUMPDEST SWAP1 PUSH0 MSTORE PUSH1 0x20 PUSH0 KECCAK256 SWAP1 PUSH1 0x4 MUL ADD PUSH0 ADD SLOAD PUSH0 DUP3 DUP2 SLOAD DUP2 LT PUSH2 0x16D JUMPI PUSH2 0x16C PUSH2 0xC5F JUMP JUMPDEST JUMPDEST SWAP1 PUSH0 MSTORE PUSH1 0x20 PUSH0 KECCAK256 SWAP1 PUSH1 0x4 MUL ADD PUSH1 0x1 ADD PUSH0 DUP4 DUP2 SLOAD DUP2 LT PUSH2 0x18F JUMPI PUSH2 0x18E PUSH2 0xC5F JUMP JUMPDEST JUMPDEST SWAP1 PUSH0 MSTORE PUSH1 0x20 PUSH0 KECCAK256 SWAP1 PUSH1 0x4 MUL ADD PUSH1 0x2 ADD PUSH0 DUP5 DUP2 SLOAD DUP2 LT PUSH2 0x1B1 JUMPI PUSH2 0x1B0 PUSH2 0xC5F JUMP JUMPDEST JUMPDEST SWAP1 PUSH0 MSTORE PUSH1 0x20 PUSH0 KECCAK256 SWAP1 PUSH1 0x4 MUL ADD PUSH1 0x3 ADD SLOAD DUP3 DUP1 SLOAD PUSH2 0x1CD SWAP1 PUSH2 0xCB9 JUMP JUMPDEST DUP1 PUSH1 0x1F ADD PUSH1 0x20 DUP1 SWAP2 DIV MUL PUSH1 0x20 ADD PUSH1 0x40 MLOAD SWAP1 DUP2 ADD PUSH1 0x40 MSTORE DUP1 SWAP3 SWAP2 SWAP1 DUP2 DUP2 MSTORE PUSH1 0x20 ADD DUP3 DUP1 SLOAD PUSH2 0x1F9 SWAP1 PUSH2 0xCB9 JUMP JUMPDEST DUP1 ISZERO PUSH2 0x244 JUMPI DUP1 PUSH1 0x1F LT PUSH2 0x21B JUMPI PUSH2 0x100 DUP1 DUP4 SLOAD DIV MUL DUP4 MSTORE SWAP2 PUSH1 0x20 ADD SWAP2 PUSH2 0x244 JUMP JUMPDEST DUP3 ADD SWAP2 SWAP1 PUSH0 MSTORE PUSH1 0x20 PUSH0 KECCAK256 SWAP1 JUMPDEST DUP2 SLOAD DUP2 MSTORE SWAP1 PUSH1 0x1 ADD SWAP1 PUSH1 0x20 ADD DUP1 DUP4 GT PUSH2 0x227 JUMPI DUP3 SWAP1 SUB PUSH1 0x1F AND DUP3 ADD SWAP2 JUMPDEST POP POP POP POP POP SWAP3 POP DUP2 DUP1 SLOAD PUSH2 0x257 SWAP1 PUSH2 0xCB9 JUMP JUMPDEST DUP1 PUSH1 0x1F ADD PUSH1 0x20 DUP1 SWAP2 DIV MUL PUSH1 0x20 ADD PUSH1 0x40 MLOAD SWAP1 DUP2 ADD PUSH1 0x40 MSTORE DUP1 SWAP3 SWAP2 SWAP1 DUP2 DUP2 MSTORE PUSH1 0x20 ADD DUP3 DUP1 SLOAD PUSH2 0x283 SWAP1 PUSH2 0xCB9 JUMP JUMPDEST DUP1 ISZERO PUSH2 0x2CE JUMPI DUP1 PUSH1 0x1F LT PUSH2 0x2A5 JUMPI PUSH2 0x100 DUP1 DUP4 SLOAD DIV MUL DUP4 MSTORE SWAP2 PUSH1 0x20 ADD SWAP2 PUSH2 0x2CE JUMP JUMPDEST DUP3 ADD SWAP2 SWAP1 PUSH0 MSTORE PUSH1 0x20 PUSH0 KECCAK256 SWAP1 JUMPDEST DUP2 SLOAD DUP2 MSTORE SWAP1 PUSH1 0x1 ADD SWAP1 PUSH1 0x20 ADD DUP1 DUP4 GT PUSH2 0x2B1 JUMPI DUP3 SWAP1 SUB PUSH1 0x1F AND DUP3 ADD SWAP2 JUMPDEST POP POP POP POP POP SWAP2 POP SWAP5 POP SWAP5 POP SWAP5 POP SWAP5 POP POP SWAP2 SWAP4 POP SWAP2 SWAP4 JUMP JUMPDEST PUSH0 PUSH2 0x2EF DUP6 PUSH2 0x61B JUMP JUMPDEST SWAP1 POP DUP4 PUSH0 DUP3 DUP2 SLOAD DUP2 LT PUSH2 0x305 JUMPI PUSH2 0x304 PUSH2 0xC5F JUMP JUMPDEST JUMPDEST SWAP1 PUSH0 MSTORE PUSH1 0x20 PUSH0 KECCAK256 SWAP1 PUSH1 0x4 MUL ADD PUSH1 0x1 ADD SWAP1 DUP2 PUSH2 0x320 SWAP2 SWAP1 PUSH2 0xE86 JUMP JUMPDEST POP DUP3 PUSH0 DUP3 DUP2 SLOAD DUP2 LT PUSH2 0x335 JUMPI PUSH2 0x334 PUSH2 0xC5F JUMP JUMPDEST JUMPDEST SWAP1 PUSH0 MSTORE PUSH1 0x20 PUSH0 KECCAK256 SWAP1 PUSH1 0x4 MUL ADD PUSH1 0x2 ADD SWAP1 DUP2 PUSH2 0x350 SWAP2 SWAP1 PUSH2 0xE86 JUMP JUMPDEST POP DUP2 PUSH0 DUP3 DUP2 SLOAD DUP2 LT PUSH2 0x365 JUMPI PUSH2 0x364 PUSH2 0xC5F JUMP JUMPDEST JUMPDEST SWAP1 PUSH0 MSTORE PUSH1 0x20 PUSH0 KECCAK256 SWAP1 PUSH1 0x4 MUL ADD PUSH1 0x3 ADD DUP2 SWAP1 SSTORE POP POP POP POP POP POP JUMP JUMPDEST PUSH0 DUP1 DUP1 SLOAD SWAP1 POP SWAP1 POP SWAP1 JUMP JUMPDEST PUSH1 0x60 PUSH0 DUP1 SLOAD DUP1 PUSH1 0x20 MUL PUSH1 0x20 ADD PUSH1 0x40 MLOAD SWAP1 DUP2 ADD PUSH1 0x40 MSTORE DUP1 SWAP3 SWAP2 SWAP1 DUP2 DUP2 MSTORE PUSH1 0x20 ADD PUSH0 SWAP1 JUMPDEST DUP3 DUP3 LT ISZERO PUSH2 0x50F JUMPI DUP4 DUP3 SWAP1 PUSH0 MSTORE PUSH1 0x20 PUSH0 KECCAK256 SWAP1 PUSH1 0x4 MUL ADD PUSH1 0x40 MLOAD DUP1 PUSH1 0x80 ADD PUSH1 0x40 MSTORE SWAP1 DUP2 PUSH0 DUP3 ADD SLOAD DUP2 MSTORE PUSH1 0x20 ADD PUSH1 0x1 DUP3 ADD DUP1 SLOAD PUSH2 0x3E6 SWAP1 PUSH2 0xCB9 JUMP JUMPDEST DUP1 PUSH1 0x1F ADD PUSH1 0x20 DUP1 SWAP2 DIV MUL PUSH1 0x20 ADD PUSH1 0x40 MLOAD SWAP1 DUP2 ADD PUSH1 0x40 MSTORE DUP1 SWAP3 SWAP2 SWAP1 DUP2 DUP2 MSTORE PUSH1 0x20 ADD DUP3 DUP1 SLOAD PUSH2 0x412 SWAP1 PUSH2 0xCB9 JUMP JUMPDEST DUP1 ISZERO PUSH2 0x45D JUMPI DUP1 PUSH1 0x1F LT PUSH2 0x434 JUMPI PUSH2 0x100 DUP1 DUP4 SLOAD DIV MUL DUP4 MSTORE SWAP2 PUSH1 0x20 ADD SWAP2 PUSH2 0x45D JUMP JUMPDEST DUP3 ADD SWAP2 SWAP1 PUSH0 MSTORE PUSH1 0x20 PUSH0 KECCAK256 SWAP1 JUMPDEST DUP2 SLOAD DUP2 MSTORE SWAP1 PUSH1 0x1 ADD SWAP1 PUSH1 0x20 ADD DUP1 DUP4 GT PUSH2 0x440 JUMPI DUP3 SWAP1 SUB PUSH1 0x1F AND DUP3 ADD SWAP2 JUMPDEST POP POP POP POP POP DUP2 MSTORE PUSH1 0x20 ADD PUSH1 0x2 DUP3 ADD DUP1 SLOAD PUSH2 0x476 SWAP1 PUSH2 0xCB9 JUMP JUMPDEST DUP1 PUSH1 0x1F ADD PUSH1 0x20 DUP1 SWAP2 DIV MUL PUSH1 0x20 ADD PUSH1 0x40 MLOAD SWAP1 DUP2 ADD PUSH1 0x40 MSTORE DUP1 SWAP3 SWAP2 SWAP1 DUP2 DUP2 MSTORE PUSH1 0x20 ADD DUP3 DUP1 SLOAD PUSH2 0x4A2 SWAP1 PUSH2 0xCB9 JUMP JUMPDEST DUP1 ISZERO PUSH2 0x4ED JUMPI DUP1 PUSH1 0x1F LT PUSH2 0x4C4 JUMPI PUSH2 0x100 DUP1 DUP4 SLOAD DIV MUL DUP4 MSTORE SWAP2 PUSH1 0x20 ADD SWAP2 PUSH2 0x4ED JUMP JUMPDEST DUP3 ADD SWAP2 SWAP1 PUSH0 MSTORE PUSH1 0x20 PUSH0 KECCAK256 SWAP1 JUMPDEST DUP2 SLOAD DUP2 MSTORE SWAP1 PUSH1 0x1 ADD SWAP1 PUSH1 0x20 ADD DUP1 DUP4 GT PUSH2 0x4D0 JUMPI DUP3 SWAP1 SUB PUSH1 0x1F AND DUP3 ADD SWAP2 JUMPDEST POP POP POP POP POP DUP2 MSTORE PUSH1 0x20 ADD PUSH1 0x3 DUP3 ADD SLOAD DUP2 MSTORE POP POP DUP2 MSTORE PUSH1 0x20 ADD SWAP1 PUSH1 0x1 ADD SWAP1 PUSH2 0x3AC JUMP JUMPDEST POP POP POP POP SWAP1 POP SWAP1 JUMP JUMPDEST PUSH0 PUSH1 0x40 MLOAD DUP1 PUSH1 0x80 ADD PUSH1 0x40 MSTORE DUP1 PUSH1 0x1 SLOAD DUP2 MSTORE PUSH1 0x20 ADD DUP6 DUP2 MSTORE PUSH1 0x20 ADD DUP5 DUP2 MSTORE PUSH1 0x20 ADD DUP4 DUP2 MSTORE POP SWAP1 DUP1 PUSH1 0x1 DUP2 SLOAD ADD DUP1 DUP3 SSTORE DUP1 SWAP2 POP POP PUSH1 0x1 SWAP1 SUB SWAP1 PUSH0 MSTORE PUSH1 0x20 PUSH0 KECCAK256 SWAP1 PUSH1 0x4 MUL ADD PUSH0 SWAP1 SWAP2 SWAP1 SWAP2 SWAP1 SWAP2 POP PUSH0 DUP3 ADD MLOAD DUP2 PUSH0 ADD SSTORE PUSH1 0x20 DUP3 ADD MLOAD DUP2 PUSH1 0x1 ADD SWAP1 DUP2 PUSH2 0x57F SWAP2 SWAP1 PUSH2 0xE86 JUMP JUMPDEST POP PUSH1 0x40 DUP3 ADD MLOAD DUP2 PUSH1 0x2 ADD SWAP1 DUP2 PUSH2 0x595 SWAP2 SWAP1 PUSH2 0xE86 JUMP JUMPDEST POP PUSH1 0x60 DUP3 ADD MLOAD DUP2 PUSH1 0x3 ADD SSTORE POP POP PUSH1 0x1 PUSH0 DUP2 SLOAD DUP1 SWAP3 SWAP2 SWAP1 PUSH2 0x5B4 SWAP1 PUSH2 0xF82 JUMP JUMPDEST SWAP2 SWAP1 POP SSTORE POP POP POP POP JUMP JUMPDEST PUSH0 PUSH2 0x5C8 DUP3 PUSH2 0x61B JUMP JUMPDEST SWAP1 POP PUSH0 DUP2 DUP2 SLOAD DUP2 LT PUSH2 0x5DD JUMPI PUSH2 0x5DC PUSH2 0xC5F JUMP JUMPDEST JUMPDEST SWAP1 PUSH0 MSTORE PUSH1 0x20 PUSH0 KECCAK256 SWAP1 PUSH1 0x4 MUL ADD PUSH0 DUP1 DUP3 ADD PUSH0 SWAP1 SSTORE PUSH1 0x1 DUP3 ADD PUSH0 PUSH2 0x5FF SWAP2 SWAP1 PUSH2 0x6AC JUMP JUMPDEST PUSH1 0x2 DUP3 ADD PUSH0 PUSH2 0x60E SWAP2 SWAP1 PUSH2 0x6AC JUMP JUMPDEST PUSH1 0x3 DUP3 ADD PUSH0 SWAP1 SSTORE POP POP POP POP JUMP JUMPDEST PUSH0 DUP1 PUSH0 SWAP1 POP JUMPDEST PUSH0 DUP1 SLOAD SWAP1 POP DUP2 LT ISZERO PUSH2 0x66B JUMPI DUP3 PUSH0 DUP3 DUP2 SLOAD DUP2 LT PUSH2 0x641 JUMPI PUSH2 0x640 PUSH2 0xC5F JUMP JUMPDEST JUMPDEST SWAP1 PUSH0 MSTORE PUSH1 0x20 PUSH0 KECCAK256 SWAP1 PUSH1 0x4 MUL ADD PUSH0 ADD SLOAD SUB PUSH2 0x65E JUMPI DUP1 SWAP2 POP POP PUSH2 0x6A7 JUMP JUMPDEST DUP1 DUP1 PUSH1 0x1 ADD SWAP2 POP POP PUSH2 0x621 JUMP JUMPDEST POP PUSH1 0x40 MLOAD PUSH32 0x8C379A000000000000000000000000000000000000000000000000000000000 DUP2 MSTORE PUSH1 0x4 ADD PUSH2 0x69E SWAP1 PUSH2 0x1013 JUMP JUMPDEST PUSH1 0x40 MLOAD DUP1 SWAP2 SUB SWAP1 REVERT JUMPDEST SWAP2 SWAP1 POP JUMP JUMPDEST POP DUP1 SLOAD PUSH2 0x6B8 SWAP1 PUSH2 0xCB9 JUMP JUMPDEST PUSH0 DUP3 SSTORE DUP1 PUSH1 0x1F LT PUSH2 0x6C9 JUMPI POP PUSH2 0x6E6 JUMP JUMPDEST PUSH1 0x1F ADD PUSH1 0x20 SWAP1 DIV SWAP1 PUSH0 MSTORE PUSH1 0x20 PUSH0 KECCAK256 SWAP1 DUP2 ADD SWAP1 PUSH2 0x6E5 SWAP2 SWAP1 PUSH2 0x6E9 JUMP JUMPDEST JUMPDEST POP JUMP JUMPDEST JUMPDEST DUP1 DUP3 GT ISZERO PUSH2 0x700 JUMPI PUSH0 DUP2 PUSH0 SWAP1 SSTORE POP PUSH1 0x1 ADD PUSH2 0x6EA JUMP JUMPDEST POP SWAP1 JUMP JUMPDEST PUSH0 PUSH1 0x40 MLOAD SWAP1 POP SWAP1 JUMP JUMPDEST PUSH0 DUP1 REVERT JUMPDEST PUSH0 DUP1 REVERT JUMPDEST PUSH0 DUP2 SWAP1 POP SWAP2 SWAP1 POP JUMP JUMPDEST PUSH2 0x727 DUP2 PUSH2 0x715 JUMP JUMPDEST DUP2 EQ PUSH2 0x731 JUMPI PUSH0 DUP1 REVERT JUMPDEST POP JUMP JUMPDEST PUSH0 DUP2 CALLDATALOAD SWAP1 POP PUSH2 0x742 DUP2 PUSH2 0x71E JUMP JUMPDEST SWAP3 SWAP2 POP POP JUMP JUMPDEST PUSH0 PUSH1 0x20 DUP3 DUP5 SUB SLT ISZERO PUSH2 0x75D JUMPI PUSH2 0x75C PUSH2 0x70D JUMP JUMPDEST JUMPDEST PUSH0 PUSH2 0x76A DUP5 DUP3 DUP6 ADD PUSH2 0x734 JUMP JUMPDEST SWAP2 POP POP SWAP3 SWAP2 POP POP JUMP JUMPDEST PUSH2 0x77C DUP2 PUSH2 0x715 JUMP JUMPDEST DUP3 MSTORE POP POP JUMP JUMPDEST PUSH0 DUP2 MLOAD SWAP1 POP SWAP2 SWAP1 POP JUMP JUMPDEST PUSH0 DUP3 DUP3 MSTORE PUSH1 0x20 DUP3 ADD SWAP1 POP SWAP3 SWAP2 POP POP JUMP JUMPDEST PUSH0 JUMPDEST DUP4 DUP2 LT ISZERO PUSH2 0x7B9 JUMPI DUP1 DUP3 ADD MLOAD DUP2 DUP5 ADD MSTORE PUSH1 0x20 DUP2 ADD SWAP1 POP PUSH2 0x79E JUMP JUMPDEST PUSH0 DUP5 DUP5 ADD MSTORE POP POP POP POP JUMP JUMPDEST PUSH0 PUSH1 0x1F NOT PUSH1 0x1F DUP4 ADD AND SWAP1 POP SWAP2 SWAP1 POP JUMP JUMPDEST PUSH0 PUSH2 0x7DE DUP3 PUSH2 0x782 JUMP JUMPDEST PUSH2 0x7E8 DUP2 DUP6 PUSH2 0x78C JUMP JUMPDEST SWAP4 POP PUSH2 0x7F8 DUP2 DUP6 PUSH1 0x20 DUP7 ADD PUSH2 0x79C JUMP JUMPDEST PUSH2 0x801 DUP2 PUSH2 0x7C4 JUMP JUMPDEST DUP5 ADD SWAP2 POP POP SWAP3 SWAP2 POP POP JUMP JUMPDEST PUSH0 PUSH1 0x80 DUP3 ADD SWAP1 POP PUSH2 0x81F PUSH0 DUP4 ADD DUP8 PUSH2 0x773 JUMP JUMPDEST DUP2 DUP2 SUB PUSH1 0x20 DUP4 ADD MSTORE PUSH2 0x831 DUP2 DUP7 PUSH2 0x7D4 JUMP JUMPDEST SWAP1 POP DUP2 DUP2 SUB PUSH1 0x40 DUP4 ADD MSTORE PUSH2 0x845 DUP2 DUP6 PUSH2 0x7D4 JUMP JUMPDEST SWAP1 POP PUSH2 0x854 PUSH1 0x60 DUP4 ADD DUP5 PUSH2 0x773 JUMP JUMPDEST SWAP6 SWAP5 POP POP POP POP POP JUMP JUMPDEST PUSH0 DUP1 REVERT JUMPDEST PUSH0 DUP1 REVERT JUMPDEST PUSH32 0x4E487B7100000000000000000000000000000000000000000000000000000000 PUSH0 MSTORE PUSH1 0x41 PUSH1 0x4 MSTORE PUSH1 0x24 PUSH0 REVERT JUMPDEST PUSH2 0x89B DUP3 PUSH2 0x7C4 JUMP JUMPDEST DUP2 ADD DUP2 DUP2 LT PUSH8 0xFFFFFFFFFFFFFFFF DUP3 GT OR ISZERO PUSH2 0x8BA JUMPI PUSH2 0x8B9 PUSH2 0x865 JUMP JUMPDEST JUMPDEST DUP1 PUSH1 0x40 MSTORE POP POP POP JUMP JUMPDEST PUSH0 PUSH2 0x8CC PUSH2 0x704 JUMP JUMPDEST SWAP1 POP PUSH2 0x8D8 DUP3 DUP3 PUSH2 0x892 JUMP JUMPDEST SWAP2 SWAP1 POP JUMP JUMPDEST PUSH0 PUSH8 0xFFFFFFFFFFFFFFFF DUP3 GT ISZERO PUSH2 0x8F7 JUMPI PUSH2 0x8F6 PUSH2 0x865 JUMP JUMPDEST JUMPDEST PUSH2 0x900 DUP3 PUSH2 0x7C4 JUMP JUMPDEST SWAP1 POP PUSH1 0x20 DUP2 ADD SWAP1 POP SWAP2 SWAP1 POP JUMP JUMPDEST DUP3 DUP2 DUP4 CALLDATACOPY PUSH0 DUP4 DUP4 ADD MSTORE POP POP POP JUMP JUMPDEST PUSH0 PUSH2 0x92D PUSH2 0x928 DUP5 PUSH2 0x8DD JUMP JUMPDEST PUSH2 0x8C3 JUMP JUMPDEST SWAP1 POP DUP3 DUP2 MSTORE PUSH1 0x20 DUP2 ADD DUP5 DUP5 DUP5 ADD GT ISZERO PUSH2 0x949 JUMPI PUSH2 0x948 PUSH2 0x861 JUMP JUMPDEST JUMPDEST PUSH2 0x954 DUP5 DUP3 DUP6 PUSH2 0x90D JUMP JUMPDEST POP SWAP4 SWAP3 POP POP POP JUMP JUMPDEST PUSH0 DUP3 PUSH1 0x1F DUP4 ADD SLT PUSH2 0x970 JUMPI PUSH2 0x96F PUSH2 0x85D JUMP JUMPDEST JUMPDEST DUP2 CALLDATALOAD PUSH2 0x980 DUP5 DUP3 PUSH1 0x20 DUP7 ADD PUSH2 0x91B JUMP JUMPDEST SWAP2 POP POP SWAP3 SWAP2 POP POP JUMP JUMPDEST PUSH0 DUP1 PUSH0 DUP1 PUSH1 0x80 DUP6 DUP8 SUB SLT ISZERO PUSH2 0x9A1 JUMPI PUSH2 0x9A0 PUSH2 0x70D JUMP JUMPDEST JUMPDEST PUSH0 PUSH2 0x9AE DUP8 DUP3 DUP9 ADD PUSH2 0x734 JUMP JUMPDEST SWAP5 POP POP PUSH1 0x20 DUP6 ADD CALLDATALOAD PUSH8 0xFFFFFFFFFFFFFFFF DUP2 GT ISZERO PUSH2 0x9CF JUMPI PUSH2 0x9CE PUSH2 0x711 JUMP JUMPDEST JUMPDEST PUSH2 0x9DB DUP8 DUP3 DUP9 ADD PUSH2 0x95C JUMP JUMPDEST SWAP4 POP POP PUSH1 0x40 DUP6 ADD CALLDATALOAD PUSH8 0xFFFFFFFFFFFFFFFF DUP2 GT ISZERO PUSH2 0x9FC JUMPI PUSH2 0x9FB PUSH2 0x711 JUMP JUMPDEST JUMPDEST PUSH2 0xA08 DUP8 DUP3 DUP9 ADD PUSH2 0x95C JUMP JUMPDEST SWAP3 POP POP PUSH1 0x60 PUSH2 0xA19 DUP8 DUP3 DUP9 ADD PUSH2 0x734 JUMP JUMPDEST SWAP2 POP POP SWAP3 SWAP6 SWAP2 SWAP5 POP SWAP3 POP JUMP JUMPDEST PUSH0 PUSH1 0x20 DUP3 ADD SWAP1 POP PUSH2 0xA38 PUSH0 DUP4 ADD DUP5 PUSH2 0x773 JUMP JUMPDEST SWAP3 SWAP2 POP POP JUMP JUMPDEST PUSH0 DUP2 MLOAD SWAP1 POP SWAP2 SWAP1 POP JUMP JUMPDEST PUSH0 DUP3 DUP3 MSTORE PUSH1 0x20 DUP3 ADD SWAP1 POP SWAP3 SWAP2 POP POP JUMP JUMPDEST PUSH0 DUP2 SWAP1 POP PUSH1 0x20 DUP3 ADD SWAP1 POP SWAP2 SWAP1 POP JUMP JUMPDEST PUSH2 0xA70 DUP2 PUSH2 0x715 JUMP JUMPDEST DUP3 MSTORE POP POP JUMP JUMPDEST PUSH0 DUP3 DUP3 MSTORE PUSH1 0x20 DUP3 ADD SWAP1 POP SWAP3 SWAP2 POP POP JUMP JUMPDEST PUSH0 PUSH2 0xA90 DUP3 PUSH2 0x782 JUMP JUMPDEST PUSH2 0xA9A DUP2 DUP6 PUSH2 0xA76 JUMP JUMPDEST SWAP4 POP PUSH2 0xAAA DUP2 DUP6 PUSH1 0x20 DUP7 ADD PUSH2 0x79C JUMP JUMPDEST PUSH2 0xAB3 DUP2 PUSH2 0x7C4 JUMP JUMPDEST DUP5 ADD SWAP2 POP POP SWAP3 SWAP2 POP POP JUMP JUMPDEST PUSH0 PUSH1 0x80 DUP4 ADD PUSH0 DUP4 ADD MLOAD PUSH2 0xAD3 PUSH0 DUP7 ADD DUP3 PUSH2 0xA67 JUMP JUMPDEST POP PUSH1 0x20 DUP4 ADD MLOAD DUP5 DUP3 SUB PUSH1 0x20 DUP7 ADD MSTORE PUSH2 0xAEB DUP3 DUP3 PUSH2 0xA86 JUMP JUMPDEST SWAP2 POP POP PUSH1 0x40 DUP4 ADD MLOAD DUP5 DUP3 SUB PUSH1 0x40 DUP7 ADD MSTORE PUSH2 0xB05 DUP3 DUP3 PUSH2 0xA86 JUMP JUMPDEST SWAP2 POP POP PUSH1 0x60 DUP4 ADD MLOAD PUSH2 0xB1A PUSH1 0x60 DUP7 ADD DUP3 PUSH2 0xA67 JUMP JUMPDEST POP DUP1 SWAP2 POP POP SWAP3 SWAP2 POP POP JUMP JUMPDEST PUSH0 PUSH2 0xB30 DUP4 DUP4 PUSH2 0xABE JUMP JUMPDEST SWAP1 POP SWAP3 SWAP2 POP POP JUMP JUMPDEST PUSH0 PUSH1 0x20 DUP3 ADD SWAP1 POP SWAP2 SWAP1 POP JUMP JUMPDEST PUSH0 PUSH2 0xB4E DUP3 PUSH2 0xA3E JUMP JUMPDEST PUSH2 0xB58 DUP2 DUP6 PUSH2 0xA48 JUMP JUMPDEST SWAP4 POP DUP4 PUSH1 0x20 DUP3 MUL DUP6 ADD PUSH2 0xB6A DUP6 PUSH2 0xA58 JUMP JUMPDEST DUP1 PUSH0 JUMPDEST DUP6 DUP2 LT ISZERO PUSH2 0xBA5 JUMPI DUP5 DUP5 SUB DUP10 MSTORE DUP2 MLOAD PUSH2 0xB86 DUP6 DUP3 PUSH2 0xB25 JUMP JUMPDEST SWAP5 POP PUSH2 0xB91 DUP4 PUSH2 0xB38 JUMP JUMPDEST SWAP3 POP PUSH1 0x20 DUP11 ADD SWAP10 POP POP PUSH1 0x1 DUP2 ADD SWAP1 POP PUSH2 0xB6D JUMP JUMPDEST POP DUP3 SWAP8 POP DUP8 SWAP6 POP POP POP POP POP POP SWAP3 SWAP2 POP POP JUMP JUMPDEST PUSH0 PUSH1 0x20 DUP3 ADD SWAP1 POP DUP2 DUP2 SUB PUSH0 DUP4 ADD MSTORE PUSH2 0xBCF DUP2 DUP5 PUSH2 0xB44 JUMP JUMPDEST SWAP1 POP SWAP3 SWAP2 POP POP JUMP JUMPDEST PUSH0 DUP1 PUSH0 PUSH1 0x60 DUP5 DUP7 SUB SLT ISZERO PUSH2 0xBEE JUMPI PUSH2 0xBED PUSH2 0x70D JUMP JUMPDEST JUMPDEST PUSH0 DUP5 ADD CALLDATALOAD PUSH8 0xFFFFFFFFFFFFFFFF DUP2 GT ISZERO PUSH2 0xC0B JUMPI PUSH2 0xC0A PUSH2 0x711 JUMP JUMPDEST JUMPDEST PUSH2 0xC17 DUP7 DUP3 DUP8 ADD PUSH2 0x95C JUMP JUMPDEST SWAP4 POP POP PUSH1 0x20 DUP5 ADD CALLDATALOAD PUSH8 0xFFFFFFFFFFFFFFFF DUP2 GT ISZERO PUSH2 0xC38 JUMPI PUSH2 0xC37 PUSH2 0x711 JUMP JUMPDEST JUMPDEST PUSH2 0xC44 DUP7 DUP3 DUP8 ADD PUSH2 0x95C JUMP JUMPDEST SWAP3 POP POP PUSH1 0x40 PUSH2 0xC55 DUP7 DUP3 DUP8 ADD PUSH2 0x734 JUMP JUMPDEST SWAP2 POP POP SWAP3 POP SWAP3 POP SWAP3 JUMP JUMPDEST PUSH32 0x4E487B7100000000000000000000000000000000000000000000000000000000 PUSH0 MSTORE PUSH1 0x32 PUSH1 0x4 MSTORE PUSH1 0x24 PUSH0 REVERT JUMPDEST PUSH32 0x4E487B7100000000000000000000000000000000000000000000000000000000 PUSH0 MSTORE PUSH1 0x22 PUSH1 0x4 MSTORE PUSH1 0x24 PUSH0 REVERT JUMPDEST PUSH0 PUSH1 0x2 DUP3 DIV SWAP1 POP PUSH1 0x1 DUP3 AND DUP1 PUSH2 0xCD0 JUMPI PUSH1 0x7F DUP3 AND SWAP2 POP JUMPDEST PUSH1 0x20 DUP3 LT DUP2 SUB PUSH2 0xCE3 JUMPI PUSH2 0xCE2 PUSH2 0xC8C JUMP JUMPDEST JUMPDEST POP SWAP2 SWAP1 POP JUMP JUMPDEST PUSH0 DUP2 SWAP1 POP DUP2 PUSH0 MSTORE PUSH1 0x20 PUSH0 KECCAK256 SWAP1 POP SWAP2 SWAP1 POP JUMP JUMPDEST PUSH0 PUSH1 0x20 PUSH1 0x1F DUP4 ADD DIV SWAP1 POP SWAP2 SWAP1 POP JUMP JUMPDEST PUSH0 DUP3 DUP3 SHL SWAP1 POP SWAP3 SWAP2 POP POP JUMP JUMPDEST PUSH0 PUSH1 0x8 DUP4 MUL PUSH2 0xD45 PUSH32 0xFFFFFFFFFFFFFFFFFFFFFFFFFFFFFFFFFFFFFFFFFFFFFFFFFFFFFFFFFFFFFFFF DUP3 PUSH2 0xD0A JUMP JUMPDEST PUSH2 0xD4F DUP7 DUP4 PUSH2 0xD0A JUMP JUMPDEST SWAP6 POP DUP1 NOT DUP5 AND SWAP4 POP DUP1 DUP7 AND DUP5 OR SWAP3 POP POP POP SWAP4 SWAP3 POP POP POP JUMP JUMPDEST PUSH0 DUP2 SWAP1 POP SWAP2 SWAP1 POP JUMP JUMPDEST PUSH0 PUSH2 0xD8A PUSH2 0xD85 PUSH2 0xD80 DUP5 PUSH2 0x715 JUMP JUMPDEST PUSH2 0xD67 JUMP JUMPDEST PUSH2 0x715 JUMP JUMPDEST SWAP1 POP SWAP2 SWAP1 POP JUMP JUMPDEST PUSH0 DUP2 SWAP1 POP SWAP2 SWAP1 POP JUMP JUMPDEST PUSH2 0xDA3 DUP4 PUSH2 0xD70 JUMP JUMPDEST PUSH2 0xDB7 PUSH2 0xDAF DUP3 PUSH2 0xD91 JUMP JUMPDEST DUP5 DUP5 SLOAD PUSH2 0xD16 JUMP JUMPDEST DUP3 SSTORE POP POP POP POP JUMP JUMPDEST PUSH0 SWAP1 JUMP JUMPDEST PUSH2 0xDCB PUSH2 0xDBF JUMP JUMPDEST PUSH2 0xDD6 DUP2 DUP5 DUP5 PUSH2 0xD9A JUMP JUMPDEST POP POP POP JUMP JUMPDEST JUMPDEST DUP2 DUP2 LT ISZERO PUSH2 0xDF9 JUMPI PUSH2 0xDEE PUSH0 DUP3 PUSH2 0xDC3 JUMP JUMPDEST PUSH1 0x1 DUP2 ADD SWAP1 POP PUSH2 0xDDC JUMP JUMPDEST POP POP JUMP JUMPDEST PUSH1 0x1F DUP3 GT ISZERO PUSH2 0xE3E JUMPI PUSH2 0xE0F DUP2 PUSH2 0xCE9 JUMP JUMPDEST PUSH2 0xE18 DUP5 PUSH2 0xCFB JUMP JUMPDEST DUP2 ADD PUSH1 0x20 DUP6 LT ISZERO PUSH2 0xE27 JUMPI DUP2 SWAP1 POP JUMPDEST PUSH2 0xE3B PUSH2 0xE33 DUP6 PUSH2 0xCFB JUMP JUMPDEST DUP4 ADD DUP3 PUSH2 0xDDB JUMP JUMPDEST POP POP JUMPDEST POP POP POP JUMP JUMPDEST PUSH0 DUP3 DUP3 SHR SWAP1 POP SWAP3 SWAP2 POP POP JUMP JUMPDEST PUSH0 PUSH2 0xE5E PUSH0 NOT DUP5 PUSH1 0x8 MUL PUSH2 0xE43 JUMP JUMPDEST NOT DUP1 DUP4 AND SWAP2 POP POP SWAP3 SWAP2 POP POP JUMP JUMPDEST PUSH0 PUSH2 0xE76 DUP4 DUP4 PUSH2 0xE4F JUMP JUMPDEST SWAP2 POP DUP3 PUSH1 0x2 MUL DUP3 OR SWAP1 POP SWAP3 SWAP2 POP POP JUMP JUMPDEST PUSH2 0xE8F DUP3 PUSH2 0x782 JUMP JUMPDEST PUSH8 0xFFFFFFFFFFFFFFFF DUP2 GT ISZERO PUSH2 0xEA8 JUMPI PUSH2 0xEA7 PUSH2 0x865 JUMP JUMPDEST JUMPDEST PUSH2 0xEB2 DUP3 SLOAD PUSH2 0xCB9 JUMP JUMPDEST PUSH2 0xEBD DUP3 DUP3 DUP6 PUSH2 0xDFD JUMP JUMPDEST PUSH0 PUSH1 0x20 SWAP1 POP PUSH1 0x1F DUP4 GT PUSH1 0x1 DUP2 EQ PUSH2 0xEEE JUMPI PUSH0 DUP5 ISZERO PUSH2 0xEDC JUMPI DUP3 DUP8 ADD MLOAD SWAP1 POP JUMPDEST PUSH2 0xEE6 DUP6 DUP3 PUSH2 0xE6B JUMP JUMPDEST DUP7 SSTORE POP PUSH2 0xF4D JUMP JUMPDEST PUSH1 0x1F NOT DUP5 AND PUSH2 0xEFC DUP7 PUSH2 0xCE9 JUMP JUMPDEST PUSH0 JUMPDEST DUP3 DUP2 LT ISZERO PUSH2 0xF23 JUMPI DUP5 DUP10 ADD MLOAD DUP3 SSTORE PUSH1 0x1 DUP3 ADD SWAP2 POP PUSH1 0x20 DUP6 ADD SWAP5 POP PUSH1 0x20 DUP2 ADD SWAP1 POP PUSH2 0xEFE JUMP JUMPDEST DUP7 DUP4 LT ISZERO PUSH2 0xF40 JUMPI DUP5 DUP10 ADD MLOAD PUSH2 0xF3C PUSH1 0x1F DUP10 AND DUP3 PUSH2 0xE4F JUMP JUMPDEST DUP4 SSTORE POP JUMPDEST PUSH1 0x1 PUSH1 0x2 DUP9 MUL ADD DUP9 SSTORE POP POP POP JUMPDEST POP POP POP POP POP POP JUMP JUMPDEST PUSH32 0x4E487B7100000000000000000000000000000000000000000000000000000000 PUSH0 MSTORE PUSH1 0x11 PUSH1 0x4 MSTORE PUSH1 0x24 PUSH0 REVERT JUMPDEST PUSH0 PUSH2 0xF8C DUP3 PUSH2 0x715 JUMP JUMPDEST SWAP2 POP PUSH32 0xFFFFFFFFFFFFFFFFFFFFFFFFFFFFFFFFFFFFFFFFFFFFFFFFFFFFFFFFFFFFFFFF DUP3 SUB PUSH2 0xFBE JUMPI PUSH2 0xFBD PUSH2 0xF55 JUMP JUMPDEST JUMPDEST PUSH1 0x1 DUP3 ADD SWAP1 POP SWAP2 SWAP1 POP JUMP JUMPDEST PUSH32 0x5A616D657374616E656E6563206E656578697374756A65000000000000000000 PUSH0 DUP3 ADD MSTORE POP JUMP JUMPDEST PUSH0 PUSH2 0xFFD PUSH1 0x17 DUP4 PUSH2 0x78C JUMP JUMPDEST SWAP2 POP PUSH2 0x1008 DUP3 PUSH2 0xFC9 JUMP JUMPDEST PUSH1 0x20 DUP3 ADD SWAP1 POP SWAP2 SWAP1 POP JUMP JUMPDEST PUSH0 PUSH1 0x20 DUP3 ADD SWAP1 POP DUP2 DUP2 SUB PUSH0 DUP4 ADD MSTORE PUSH2 0x102A DUP2 PUSH2 0xFF1 JUMP JUMPDEST SWAP1 POP SWAP2 SWAP1 POP JUMP INVALID LOG2 PUSH5 0x6970667358 0x22 SLT KECCAK256 0xD7 0xE2 0xCE 0xA8 JUMPDEST 0xC4 0x2C 0xE2 0xC7 0x4A DUP16 0x22 0xF6 0xB1 0xC3 0xD8 SIGNEXTEND GASPRICE PUSH16 0xA67BB5EAA52D6294E5D6A8300C64736F PUSH13 0x63430008160033000000000000 "
				},
				"gasEstimates": {
					"creation": {
						"codeDepositCost": "839800",
						"executionCost": "22981",
						"totalCost": "862781"
					},
					"external": {
						"cist_zam(uint256)": "infinite",
						"pocet_zam()": "2462",
						"upravit_zam(uint256,string,string,uint256)": "infinite",
						"vsichni_zam()": "infinite",
						"vymazat_zam(uint256)": "infinite",
						"vytvorit_zam(string,string,uint256)": "infinite"
					},
					"internal": {
						"najit(uint256)": "infinite"
					}
				},
				"methodIdentifiers": {
					"cist_zam(uint256)": "26661b3a",
					"pocet_zam()": "755a8f6b",
					"upravit_zam(uint256,string,string,uint256)": "6ee33136",
					"vsichni_zam()": "949d9add",
					"vymazat_zam(uint256)": "fd65b57d",
					"vytvorit_zam(string,string,uint256)": "a57c9c07"
				}
			},
			"storageLayout": {
				"storage": [
					{
						"astId": 14,
						"contract": "contracts/emp_crud.sol:Crud",
						"label": "zamestnanci",
						"offset": 0,
						"slot": "0",
						"type": "t_array(t_struct(zamestnanec)10_storage)dyn_storage"
					},
					{
						"astId": 17,
						"contract": "contracts/emp_crud.sol:Crud",
						"label": "nextId",
						"offset": 0,
						"slot": "1",
						"type": "t_uint256"
					}
				],
				"types": {
					"t_array(t_struct(zamestnanec)10_storage)dyn_storage": {
						"base": "t_struct(zamestnanec)10_storage",
						"encoding": "dynamic_array",
						"label": "struct Crud.zamestnanec[]",
						"numberOfBytes": "32"
					},
					"t_string_storage": {
						"encoding": "bytes",
						"label": "string",
						"numberOfBytes": "32"
					},
					"t_struct(zamestnanec)10_storage": {
						"encoding": "inplace",
						"label": "struct Crud.zamestnanec",
						"members": [
							{
								"astId": 3,
								"contract": "contracts/emp_crud.sol:Crud",
								"label": "id",
								"offset": 0,
								"slot": "0",
								"type": "t_uint256"
							},
							{
								"astId": 5,
								"contract": "contracts/emp_crud.sol:Crud",
								"label": "jmeno",
								"offset": 0,
								"slot": "1",
								"type": "t_string_storage"
							},
							{
								"astId": 7,
								"contract": "contracts/emp_crud.sol:Crud",
								"label": "mail",
								"offset": 0,
								"slot": "2",
								"type": "t_string_storage"
							},
							{
								"astId": 9,
								"contract": "contracts/emp_crud.sol:Crud",
								"label": "plat",
								"offset": 0,
								"slot": "3",
								"type": "t_uint256"
							}
						],
						"numberOfBytes": "128"
					},
					"t_uint256": {
						"encoding": "inplace",
						"label": "uint256",
						"numberOfBytes": "32"
					}
				}
			},
			"userdoc": {
				"kind": "user",
				"methods": {},
				"version": 1
			}
		}
	}
}