{
	"contracts/emp_crud.sol": {
		"Crud": {
			"abi": [
				{
					"inputs": [],
					"stateMutability": "nonpayable",
					"type": "constructor"
				},
				{
					"inputs": [
						{
							"internalType": "uint256",
							"name": "pozadovano",
							"type": "uint256"
						},
						{
							"internalType": "uint256",
							"name": "dostupne",
							"type": "uint256"
						}
					],
					"name": "NedostatekProstredku",
					"type": "error"
				},
				{
					"anonymous": false,
					"inputs": [
						{
							"indexed": false,
							"internalType": "address",
							"name": "from",
							"type": "address"
						},
						{
							"indexed": false,
							"internalType": "address",
							"name": "to",
							"type": "address"
						},
						{
							"indexed": false,
							"internalType": "uint256",
							"name": "amount",
							"type": "uint256"
						}
					],
					"name": "Sent",
					"type": "event"
				},
				{
					"inputs": [
						{
							"internalType": "address",
							"name": "",
							"type": "address"
						}
					],
					"name": "balances",
					"outputs": [
						{
							"internalType": "uint256",
							"name": "",
							"type": "uint256"
						}
					],
					"stateMutability": "view",
					"type": "function"
				},
				{
					"inputs": [
						{
							"internalType": "uint256",
							"name": "_id",
							"type": "uint256"
						}
					],
					"name": "cist_zam",
					"outputs": [
						{
							"internalType": "uint256",
							"name": "",
							"type": "uint256"
						},
						{
							"internalType": "string",
							"name": "",
							"type": "string"
						},
						{
							"internalType": "string",
							"name": "",
							"type": "string"
						},
						{
							"internalType": "uint256",
							"name": "",
							"type": "uint256"
						},
						{
							"internalType": "address",
							"name": "",
							"type": "address"
						}
					],
					"stateMutability": "view",
					"type": "function"
				},
				{
					"inputs": [],
					"name": "minter",
					"outputs": [
						{
							"internalType": "address",
							"name": "",
							"type": "address"
						}
					],
					"stateMutability": "view",
					"type": "function"
				},
				{
					"inputs": [
						{
							"internalType": "uint256",
							"name": "_id",
							"type": "uint256"
						}
					],
					"name": "platba_vyplaty",
					"outputs": [],
					"stateMutability": "nonpayable",
					"type": "function"
				},
				{
					"inputs": [],
					"name": "pocet_zam",
					"outputs": [
						{
							"internalType": "uint256",
							"name": "pocet",
							"type": "uint256"
						}
					],
					"stateMutability": "view",
					"type": "function"
				},
				{
					"inputs": [
						{
							"internalType": "uint256",
							"name": "_id",
							"type": "uint256"
						},
						{
							"internalType": "string",
							"name": "jmeno",
							"type": "string"
						},
						{
							"internalType": "string",
							"name": "mail",
							"type": "string"
						},
						{
							"internalType": "uint256",
							"name": "plat",
							"type": "uint256"
						},
						{
							"internalType": "address",
							"name": "eth_adresa",
							"type": "address"
						}
					],
					"name": "upravit_zam",
					"outputs": [],
					"stateMutability": "nonpayable",
					"type": "function"
				},
				{
					"inputs": [],
					"name": "vsichni_zam",
					"outputs": [
						{
							"components": [
								{
									"internalType": "uint256",
									"name": "id",
									"type": "uint256"
								},
								{
									"internalType": "string",
									"name": "jmeno",
									"type": "string"
								},
								{
									"internalType": "string",
									"name": "mail",
									"type": "string"
								},
								{
									"internalType": "uint256",
									"name": "plat",
									"type": "uint256"
								},
								{
									"internalType": "address",
									"name": "eth_adresa",
									"type": "address"
								}
							],
							"internalType": "struct Crud.zamestnanec[]",
							"name": "",
							"type": "tuple[]"
						}
					],
					"stateMutability": "view",
					"type": "function"
				},
				{
					"inputs": [
						{
							"internalType": "uint256",
							"name": "_id",
							"type": "uint256"
						}
					],
					"name": "vymazat_zam",
					"outputs": [],
					"stateMutability": "nonpayable",
					"type": "function"
				},
				{
					"inputs": [
						{
							"internalType": "string",
							"name": "jmeno",
							"type": "string"
						},
						{
							"internalType": "string",
							"name": "mail",
							"type": "string"
						},
						{
							"internalType": "uint256",
							"name": "plat",
							"type": "uint256"
						},
						{
							"internalType": "address",
							"name": "eth_adresa",
							"type": "address"
						}
					],
					"name": "vytvorit_zam",
					"outputs": [],
					"stateMutability": "nonpayable",
					"type": "function"
				},
				{
					"inputs": [
						{
							"internalType": "address",
							"name": "receiver",
							"type": "address"
						},
						{
							"internalType": "uint256",
							"name": "amount",
							"type": "uint256"
						}
					],
					"name": "ziskat_coiny",
					"outputs": [],
					"stateMutability": "nonpayable",
					"type": "function"
				}
			],
			"devdoc": {
				"kind": "dev",
				"methods": {},
				"version": 1
			},
			"evm": {
				"assembly": "    /* \"contracts/emp_crud.sol\":271:4234  contract Crud{... */\n  mstore(0x40, 0x80)\n    /* \"contracts/emp_crud.sol\":1171:1172  1 */\n  0x01\n    /* \"contracts/emp_crud.sol\":1157:1172  uint nextId = 1 */\n  0x03\n  sstore\n    /* \"contracts/emp_crud.sol\":741:797  constructor() {... */\n  callvalue\n  dup1\n  iszero\n  tag_1\n  jumpi\n  0x00\n  dup1\n  revert\ntag_1:\n  pop\n    /* \"contracts/emp_crud.sol\":775:785  msg.sender */\n  caller\n    /* \"contracts/emp_crud.sol\":766:772  minter */\n  0x00\n  dup1\n    /* \"contracts/emp_crud.sol\":766:785  minter = msg.sender */\n  0x0100\n  exp\n  dup2\n  sload\n  dup2\n  0xffffffffffffffffffffffffffffffffffffffff\n  mul\n  not\n  and\n  swap1\n  dup4\n  0xffffffffffffffffffffffffffffffffffffffff\n  and\n  mul\n  or\n  swap1\n  sstore\n  pop\n    /* \"contracts/emp_crud.sol\":271:4234  contract Crud{... */\n  dataSize(sub_0)\n  dup1\n  dataOffset(sub_0)\n  0x00\n  codecopy\n  0x00\n  return\nstop\n\nsub_0: assembly {\n        /* \"contracts/emp_crud.sol\":271:4234  contract Crud{... */\n      mstore(0x40, 0x80)\n      callvalue\n      dup1\n      iszero\n      tag_1\n      jumpi\n      0x00\n      dup1\n      revert\n    tag_1:\n      pop\n      jumpi(tag_2, lt(calldatasize, 0x04))\n      shr(0xe0, calldataload(0x00))\n      dup1\n      0x32a42c0e\n      gt\n      tag_13\n      jumpi\n      dup1\n      0x32a42c0e\n      eq\n      tag_8\n      jumpi\n      dup1\n      0x755a8f6b\n      eq\n      tag_9\n      jumpi\n      dup1\n      0x949d9add\n      eq\n      tag_10\n      jumpi\n      dup1\n      0xad6edbfc\n      eq\n      tag_11\n      jumpi\n      dup1\n      0xfd65b57d\n      eq\n      tag_12\n      jumpi\n      jump(tag_2)\n    tag_13:\n      dup1\n      0x07546172\n      eq\n      tag_3\n      jumpi\n      dup1\n      0x22be3c13\n      eq\n      tag_4\n      jumpi\n      dup1\n      0x26661b3a\n      eq\n      tag_5\n      jumpi\n      dup1\n      0x27e235e3\n      eq\n      tag_6\n      jumpi\n      dup1\n      0x2ebc3fbd\n      eq\n      tag_7\n      jumpi\n    tag_2:\n      0x00\n      dup1\n      revert\n        /* \"contracts/emp_crud.sol\":393:414  address public minter */\n    tag_3:\n      tag_14\n      tag_15\n      jump\t// in\n    tag_14:\n      mload(0x40)\n      tag_16\n      swap2\n      swap1\n      tag_17\n      jump\t// in\n    tag_16:\n      mload(0x40)\n      dup1\n      swap2\n      sub\n      swap1\n      return\n        /* \"contracts/emp_crud.sol\":3685:4227  function platba_vyplaty(uint _id) public {... */\n    tag_4:\n      tag_18\n      0x04\n      dup1\n      calldatasize\n      sub\n      dup2\n      add\n      swap1\n      tag_19\n      swap2\n      swap1\n      tag_20\n      jump\t// in\n    tag_19:\n      tag_21\n      jump\t// in\n    tag_18:\n      stop\n        /* \"contracts/emp_crud.sol\":1917:2203  function cist_zam(uint _id) view  public returns(uint, string memory, string memory, uint, address){... */\n    tag_5:\n      tag_22\n      0x04\n      dup1\n      calldatasize\n      sub\n      dup2\n      add\n      swap1\n      tag_23\n      swap2\n      swap1\n      tag_20\n      jump\t// in\n    tag_23:\n      tag_24\n      jump\t// in\n    tag_22:\n      mload(0x40)\n      tag_25\n      swap6\n      swap5\n      swap4\n      swap3\n      swap2\n      swap1\n      tag_26\n      jump\t// in\n    tag_25:\n      mload(0x40)\n      dup1\n      swap2\n      sub\n      swap1\n      return\n        /* \"contracts/emp_crud.sol\":425:465  mapping(address => uint) public balances */\n    tag_6:\n      tag_27\n      0x04\n      dup1\n      calldatasize\n      sub\n      dup2\n      add\n      swap1\n      tag_28\n      swap2\n      swap1\n      tag_29\n      jump\t// in\n    tag_28:\n      tag_30\n      jump\t// in\n    tag_27:\n      mload(0x40)\n      tag_31\n      swap2\n      swap1\n      tag_32\n      jump\t// in\n    tag_31:\n      mload(0x40)\n      dup1\n      swap2\n      sub\n      swap1\n      return\n        /* \"contracts/emp_crud.sol\":1248:1468  function vytvorit_zam(string memory jmeno, string memory mail, uint plat,  address eth_adresa) public {... */\n    tag_7:\n      tag_33\n      0x04\n      dup1\n      calldatasize\n      sub\n      dup2\n      add\n      swap1\n      tag_34\n      swap2\n      swap1\n      tag_35\n      jump\t// in\n    tag_34:\n      tag_36\n      jump\t// in\n    tag_33:\n      stop\n        /* \"contracts/emp_crud.sol\":2285:2621  function upravit_zam(uint _id, string memory jmeno, string memory mail, uint plat, address eth_adresa) public {... */\n    tag_8:\n      tag_37\n      0x04\n      dup1\n      calldatasize\n      sub\n      dup2\n      add\n      swap1\n      tag_38\n      swap2\n      swap1\n      tag_39\n      jump\t// in\n    tag_38:\n      tag_40\n      jump\t// in\n    tag_37:\n      stop\n        /* \"contracts/emp_crud.sol\":1728:1833  function pocet_zam() view public returns(uint pocet){... */\n    tag_9:\n      tag_41\n      tag_42\n      jump\t// in\n    tag_41:\n      mload(0x40)\n      tag_43\n      swap2\n      swap1\n      tag_32\n      jump\t// in\n    tag_43:\n      mload(0x40)\n      dup1\n      swap2\n      sub\n      swap1\n      return\n        /* \"contracts/emp_crud.sol\":1546:1656  function vsichni_zam() view public returns(zamestnanec[] memory){... */\n    tag_10:\n      tag_44\n      tag_45\n      jump\t// in\n    tag_44:\n      mload(0x40)\n      tag_46\n      swap2\n      swap1\n      tag_47\n      jump\t// in\n    tag_46:\n      mload(0x40)\n      dup1\n      swap2\n      sub\n      swap1\n      return\n        /* \"contracts/emp_crud.sol\":3283:3442  function ziskat_coiny(address receiver, uint amount) public {... */\n    tag_11:\n      tag_48\n      0x04\n      dup1\n      calldatasize\n      sub\n      dup2\n      add\n      swap1\n      tag_49\n      swap2\n      swap1\n      tag_50\n      jump\t// in\n    tag_49:\n      tag_51\n      jump\t// in\n    tag_48:\n      stop\n        /* \"contracts/emp_crud.sol\":2691:2810  function vymazat_zam(uint _id)public{... */\n    tag_12:\n      tag_52\n      0x04\n      dup1\n      calldatasize\n      sub\n      dup2\n      add\n      swap1\n      tag_53\n      swap2\n      swap1\n      tag_20\n      jump\t// in\n    tag_53:\n      tag_54\n      jump\t// in\n    tag_52:\n      stop\n        /* \"contracts/emp_crud.sol\":393:414  address public minter */\n    tag_15:\n      0x00\n      dup1\n      sload\n      swap1\n      0x0100\n      exp\n      swap1\n      div\n      0xffffffffffffffffffffffffffffffffffffffff\n      and\n      dup2\n      jump\t// out\n        /* \"contracts/emp_crud.sol\":3685:4227  function platba_vyplaty(uint _id) public {... */\n    tag_21:\n        /* \"contracts/emp_crud.sol\":3741:3747  uint i */\n      0x00\n        /* \"contracts/emp_crud.sol\":3750:3760  najit(_id) */\n      tag_56\n        /* \"contracts/emp_crud.sol\":3756:3759  _id */\n      dup3\n        /* \"contracts/emp_crud.sol\":3750:3755  najit */\n      tag_57\n        /* \"contracts/emp_crud.sol\":3750:3760  najit(_id) */\n      jump\t// in\n    tag_56:\n        /* \"contracts/emp_crud.sol\":3741:3760  uint i = najit(_id) */\n      swap1\n      pop\n        /* \"contracts/emp_crud.sol\":3804:3812  balances */\n      0x01\n        /* \"contracts/emp_crud.sol\":3804:3824  balances[msg.sender] */\n      0x00\n        /* \"contracts/emp_crud.sol\":3813:3823  msg.sender */\n      caller\n        /* \"contracts/emp_crud.sol\":3804:3824  balances[msg.sender] */\n      0xffffffffffffffffffffffffffffffffffffffff\n      and\n      0xffffffffffffffffffffffffffffffffffffffff\n      and\n      dup2\n      mstore\n      0x20\n      add\n      swap1\n      dup2\n      mstore\n      0x20\n      add\n      0x00\n      keccak256\n      sload\n        /* \"contracts/emp_crud.sol\":3782:3793  zamestnanci */\n      0x02\n        /* \"contracts/emp_crud.sol\":3794:3795  i */\n      dup3\n        /* \"contracts/emp_crud.sol\":3782:3796  zamestnanci[i] */\n      dup2\n      sload\n      dup2\n      lt\n      tag_58\n      jumpi\n      tag_59\n      tag_60\n      jump\t// in\n    tag_59:\n    tag_58:\n      swap1\n      0x00\n      mstore\n      keccak256(0x00, 0x20)\n      swap1\n      0x05\n      mul\n      add\n        /* \"contracts/emp_crud.sol\":3782:3801  zamestnanci[i].plat */\n      0x03\n      add\n      sload\n        /* \"contracts/emp_crud.sol\":3782:3824  zamestnanci[i].plat > balances[msg.sender] */\n      gt\n        /* \"contracts/emp_crud.sol\":3778:3998  if (zamestnanci[i].plat > balances[msg.sender])... */\n      iszero\n      tag_62\n      jumpi\n        /* \"contracts/emp_crud.sol\":3906:3917  zamestnanci */\n      0x02\n        /* \"contracts/emp_crud.sol\":3918:3919  i */\n      dup2\n        /* \"contracts/emp_crud.sol\":3906:3920  zamestnanci[i] */\n      dup2\n      sload\n      dup2\n      lt\n      tag_63\n      jumpi\n      tag_64\n      tag_60\n      jump\t// in\n    tag_64:\n    tag_63:\n      swap1\n      0x00\n      mstore\n      keccak256(0x00, 0x20)\n      swap1\n      0x05\n      mul\n      add\n        /* \"contracts/emp_crud.sol\":3906:3925  zamestnanci[i].plat */\n      0x03\n      add\n      sload\n        /* \"contracts/emp_crud.sol\":3958:3966  balances */\n      0x01\n        /* \"contracts/emp_crud.sol\":3958:3978  balances[msg.sender] */\n      0x00\n        /* \"contracts/emp_crud.sol\":3967:3977  msg.sender */\n      caller\n        /* \"contracts/emp_crud.sol\":3958:3978  balances[msg.sender] */\n      0xffffffffffffffffffffffffffffffffffffffff\n      and\n      0xffffffffffffffffffffffffffffffffffffffff\n      and\n      dup2\n      mstore\n      0x20\n      add\n      swap1\n      dup2\n      mstore\n      0x20\n      add\n      0x00\n      keccak256\n      sload\n        /* \"contracts/emp_crud.sol\":3850:3998  NedostatekProstredku({... */\n      mload(0x40)\n      0xc1ef90d200000000000000000000000000000000000000000000000000000000\n      dup2\n      mstore\n      0x04\n      add\n      tag_66\n      swap3\n      swap2\n      swap1\n      tag_67\n      jump\t// in\n    tag_66:\n      mload(0x40)\n      dup1\n      swap2\n      sub\n      swap1\n      revert\n        /* \"contracts/emp_crud.sol\":3778:3998  if (zamestnanci[i].plat > balances[msg.sender])... */\n    tag_62:\n        /* \"contracts/emp_crud.sol\":4039:4050  zamestnanci */\n      0x02\n        /* \"contracts/emp_crud.sol\":4051:4052  i */\n      dup2\n        /* \"contracts/emp_crud.sol\":4039:4053  zamestnanci[i] */\n      dup2\n      sload\n      dup2\n      lt\n      tag_68\n      jumpi\n      tag_69\n      tag_60\n      jump\t// in\n    tag_69:\n    tag_68:\n      swap1\n      0x00\n      mstore\n      keccak256(0x00, 0x20)\n      swap1\n      0x05\n      mul\n      add\n        /* \"contracts/emp_crud.sol\":4039:4058  zamestnanci[i].plat */\n      0x03\n      add\n      sload\n        /* \"contracts/emp_crud.sol\":4015:4023  balances */\n      0x01\n        /* \"contracts/emp_crud.sol\":4015:4035  balances[msg.sender] */\n      0x00\n        /* \"contracts/emp_crud.sol\":4024:4034  msg.sender */\n      caller\n        /* \"contracts/emp_crud.sol\":4015:4035  balances[msg.sender] */\n      0xffffffffffffffffffffffffffffffffffffffff\n      and\n      0xffffffffffffffffffffffffffffffffffffffff\n      and\n      dup2\n      mstore\n      0x20\n      add\n      swap1\n      dup2\n      mstore\n      0x20\n      add\n      0x00\n      keccak256\n      0x00\n        /* \"contracts/emp_crud.sol\":4015:4058  balances[msg.sender] -= zamestnanci[i].plat */\n      dup3\n      dup3\n      sload\n      tag_71\n      swap2\n      swap1\n      tag_72\n      jump\t// in\n    tag_71:\n      swap3\n      pop\n      pop\n      dup2\n      swap1\n      sstore\n      pop\n        /* \"contracts/emp_crud.sol\":4112:4123  zamestnanci */\n      0x02\n        /* \"contracts/emp_crud.sol\":4124:4125  i */\n      dup2\n        /* \"contracts/emp_crud.sol\":4112:4126  zamestnanci[i] */\n      dup2\n      sload\n      dup2\n      lt\n      tag_73\n      jumpi\n      tag_74\n      tag_60\n      jump\t// in\n    tag_74:\n    tag_73:\n      swap1\n      0x00\n      mstore\n      keccak256(0x00, 0x20)\n      swap1\n      0x05\n      mul\n      add\n        /* \"contracts/emp_crud.sol\":4112:4131  zamestnanci[i].plat */\n      0x03\n      add\n      sload\n        /* \"contracts/emp_crud.sol\":4073:4081  balances */\n      0x01\n        /* \"contracts/emp_crud.sol\":4073:4108  balances[zamestnanci[i].eth_adresa] */\n      0x00\n        /* \"contracts/emp_crud.sol\":4082:4093  zamestnanci */\n      0x02\n        /* \"contracts/emp_crud.sol\":4094:4095  i */\n      dup5\n        /* \"contracts/emp_crud.sol\":4082:4096  zamestnanci[i] */\n      dup2\n      sload\n      dup2\n      lt\n      tag_76\n      jumpi\n      tag_77\n      tag_60\n      jump\t// in\n    tag_77:\n    tag_76:\n      swap1\n      0x00\n      mstore\n      keccak256(0x00, 0x20)\n      swap1\n      0x05\n      mul\n      add\n        /* \"contracts/emp_crud.sol\":4082:4107  zamestnanci[i].eth_adresa */\n      0x04\n      add\n      0x00\n      swap1\n      sload\n      swap1\n      0x0100\n      exp\n      swap1\n      div\n      0xffffffffffffffffffffffffffffffffffffffff\n      and\n        /* \"contracts/emp_crud.sol\":4073:4108  balances[zamestnanci[i].eth_adresa] */\n      0xffffffffffffffffffffffffffffffffffffffff\n      and\n      0xffffffffffffffffffffffffffffffffffffffff\n      and\n      dup2\n      mstore\n      0x20\n      add\n      swap1\n      dup2\n      mstore\n      0x20\n      add\n      0x00\n      keccak256\n      0x00\n        /* \"contracts/emp_crud.sol\":4073:4131  balances[zamestnanci[i].eth_adresa] += zamestnanci[i].plat */\n      dup3\n      dup3\n      sload\n      tag_79\n      swap2\n      swap1\n      tag_80\n      jump\t// in\n    tag_79:\n      swap3\n      pop\n      pop\n      dup2\n      swap1\n      sstore\n      pop\n        /* \"contracts/emp_crud.sol\":4151:4215  Sent(msg.sender, zamestnanci[i].eth_adresa, zamestnanci[i].plat) */\n      0x3990db2d31862302a685e8086b5755072a6e2b5b780af1ee81ece35ee3cd3345\n        /* \"contracts/emp_crud.sol\":4156:4166  msg.sender */\n      caller\n        /* \"contracts/emp_crud.sol\":4168:4179  zamestnanci */\n      0x02\n        /* \"contracts/emp_crud.sol\":4180:4181  i */\n      dup4\n        /* \"contracts/emp_crud.sol\":4168:4182  zamestnanci[i] */\n      dup2\n      sload\n      dup2\n      lt\n      tag_81\n      jumpi\n      tag_82\n      tag_60\n      jump\t// in\n    tag_82:\n    tag_81:\n      swap1\n      0x00\n      mstore\n      keccak256(0x00, 0x20)\n      swap1\n      0x05\n      mul\n      add\n        /* \"contracts/emp_crud.sol\":4168:4193  zamestnanci[i].eth_adresa */\n      0x04\n      add\n      0x00\n      swap1\n      sload\n      swap1\n      0x0100\n      exp\n      swap1\n      div\n      0xffffffffffffffffffffffffffffffffffffffff\n      and\n        /* \"contracts/emp_crud.sol\":4195:4206  zamestnanci */\n      0x02\n        /* \"contracts/emp_crud.sol\":4207:4208  i */\n      dup5\n        /* \"contracts/emp_crud.sol\":4195:4209  zamestnanci[i] */\n      dup2\n      sload\n      dup2\n      lt\n      tag_84\n      jumpi\n      tag_85\n      tag_60\n      jump\t// in\n    tag_85:\n    tag_84:\n      swap1\n      0x00\n      mstore\n      keccak256(0x00, 0x20)\n      swap1\n      0x05\n      mul\n      add\n        /* \"contracts/emp_crud.sol\":4195:4214  zamestnanci[i].plat */\n      0x03\n      add\n      sload\n        /* \"contracts/emp_crud.sol\":4151:4215  Sent(msg.sender, zamestnanci[i].eth_adresa, zamestnanci[i].plat) */\n      mload(0x40)\n      tag_87\n      swap4\n      swap3\n      swap2\n      swap1\n      tag_88\n      jump\t// in\n    tag_87:\n      mload(0x40)\n      dup1\n      swap2\n      sub\n      swap1\n      log1\n        /* \"contracts/emp_crud.sol\":3726:4227  {... */\n      pop\n        /* \"contracts/emp_crud.sol\":3685:4227  function platba_vyplaty(uint _id) public {... */\n      pop\n      jump\t// out\n        /* \"contracts/emp_crud.sol\":1917:2203  function cist_zam(uint _id) view  public returns(uint, string memory, string memory, uint, address){... */\n    tag_24:\n        /* \"contracts/emp_crud.sol\":1966:1970  uint */\n      0x00\n        /* \"contracts/emp_crud.sol\":1972:1985  string memory */\n      0x60\n        /* \"contracts/emp_crud.sol\":1987:2000  string memory */\n      dup1\n        /* \"contracts/emp_crud.sol\":2002:2006  uint */\n      0x00\n        /* \"contracts/emp_crud.sol\":2008:2015  address */\n      dup1\n        /* \"contracts/emp_crud.sol\":2031:2037  uint i */\n      0x00\n        /* \"contracts/emp_crud.sol\":2040:2050  najit(_id) */\n      tag_90\n        /* \"contracts/emp_crud.sol\":2046:2049  _id */\n      dup8\n        /* \"contracts/emp_crud.sol\":2040:2045  najit */\n      tag_57\n        /* \"contracts/emp_crud.sol\":2040:2050  najit(_id) */\n      jump\t// in\n    tag_90:\n        /* \"contracts/emp_crud.sol\":2031:2050  uint i = najit(_id) */\n      swap1\n      pop\n        /* \"contracts/emp_crud.sol\":2081:2092  zamestnanci */\n      0x02\n        /* \"contracts/emp_crud.sol\":2093:2094  i */\n      dup2\n        /* \"contracts/emp_crud.sol\":2081:2095  zamestnanci[i] */\n      dup2\n      sload\n      dup2\n      lt\n      tag_91\n      jumpi\n      tag_92\n      tag_60\n      jump\t// in\n    tag_92:\n    tag_91:\n      swap1\n      0x00\n      mstore\n      keccak256(0x00, 0x20)\n      swap1\n      0x05\n      mul\n      add\n        /* \"contracts/emp_crud.sol\":2081:2098  zamestnanci[i].id */\n      0x00\n      add\n      sload\n        /* \"contracts/emp_crud.sol\":2100:2111  zamestnanci */\n      0x02\n        /* \"contracts/emp_crud.sol\":2112:2113  i */\n      dup3\n        /* \"contracts/emp_crud.sol\":2100:2114  zamestnanci[i] */\n      dup2\n      sload\n      dup2\n      lt\n      tag_94\n      jumpi\n      tag_95\n      tag_60\n      jump\t// in\n    tag_95:\n    tag_94:\n      swap1\n      0x00\n      mstore\n      keccak256(0x00, 0x20)\n      swap1\n      0x05\n      mul\n      add\n        /* \"contracts/emp_crud.sol\":2100:2120  zamestnanci[i].jmeno */\n      0x01\n      add\n        /* \"contracts/emp_crud.sol\":2122:2133  zamestnanci */\n      0x02\n        /* \"contracts/emp_crud.sol\":2134:2135  i */\n      dup4\n        /* \"contracts/emp_crud.sol\":2122:2136  zamestnanci[i] */\n      dup2\n      sload\n      dup2\n      lt\n      tag_97\n      jumpi\n      tag_98\n      tag_60\n      jump\t// in\n    tag_98:\n    tag_97:\n      swap1\n      0x00\n      mstore\n      keccak256(0x00, 0x20)\n      swap1\n      0x05\n      mul\n      add\n        /* \"contracts/emp_crud.sol\":2122:2141  zamestnanci[i].mail */\n      0x02\n      add\n        /* \"contracts/emp_crud.sol\":2143:2154  zamestnanci */\n      0x02\n        /* \"contracts/emp_crud.sol\":2155:2156  i */\n      dup5\n        /* \"contracts/emp_crud.sol\":2143:2157  zamestnanci[i] */\n      dup2\n      sload\n      dup2\n      lt\n      tag_100\n      jumpi\n      tag_101\n      tag_60\n      jump\t// in\n    tag_101:\n    tag_100:\n      swap1\n      0x00\n      mstore\n      keccak256(0x00, 0x20)\n      swap1\n      0x05\n      mul\n      add\n        /* \"contracts/emp_crud.sol\":2143:2162  zamestnanci[i].plat */\n      0x03\n      add\n      sload\n        /* \"contracts/emp_crud.sol\":2165:2176  zamestnanci */\n      0x02\n        /* \"contracts/emp_crud.sol\":2177:2178  i */\n      dup6\n        /* \"contracts/emp_crud.sol\":2165:2179  zamestnanci[i] */\n      dup2\n      sload\n      dup2\n      lt\n      tag_103\n      jumpi\n      tag_104\n      tag_60\n      jump\t// in\n    tag_104:\n    tag_103:\n      swap1\n      0x00\n      mstore\n      keccak256(0x00, 0x20)\n      swap1\n      0x05\n      mul\n      add\n        /* \"contracts/emp_crud.sol\":2165:2190  zamestnanci[i].eth_adresa */\n      0x04\n      add\n      0x00\n      swap1\n      sload\n      swap1\n      0x0100\n      exp\n      swap1\n      div\n      0xffffffffffffffffffffffffffffffffffffffff\n      and\n        /* \"contracts/emp_crud.sol\":2074:2191  return(zamestnanci[i].id, zamestnanci[i].jmeno, zamestnanci[i].mail, zamestnanci[i].plat,  zamestnanci[i].eth_adresa) */\n      dup4\n      dup1\n      sload\n      tag_106\n      swap1\n      tag_107\n      jump\t// in\n    tag_106:\n      dup1\n      0x1f\n      add\n      0x20\n      dup1\n      swap2\n      div\n      mul\n      0x20\n      add\n      mload(0x40)\n      swap1\n      dup2\n      add\n      0x40\n      mstore\n      dup1\n      swap3\n      swap2\n      swap1\n      dup2\n      dup2\n      mstore\n      0x20\n      add\n      dup3\n      dup1\n      sload\n      tag_108\n      swap1\n      tag_107\n      jump\t// in\n    tag_108:\n      dup1\n      iszero\n      tag_109\n      jumpi\n      dup1\n      0x1f\n      lt\n      tag_110\n      jumpi\n      0x0100\n      dup1\n      dup4\n      sload\n      div\n      mul\n      dup4\n      mstore\n      swap2\n      0x20\n      add\n      swap2\n      jump(tag_109)\n    tag_110:\n      dup3\n      add\n      swap2\n      swap1\n      0x00\n      mstore\n      keccak256(0x00, 0x20)\n      swap1\n    tag_111:\n      dup2\n      sload\n      dup2\n      mstore\n      swap1\n      0x01\n      add\n      swap1\n      0x20\n      add\n      dup1\n      dup4\n      gt\n      tag_111\n      jumpi\n      dup3\n      swap1\n      sub\n      0x1f\n      and\n      dup3\n      add\n      swap2\n    tag_109:\n      pop\n      pop\n      pop\n      pop\n      pop\n      swap4\n      pop\n      dup3\n      dup1\n      sload\n      tag_112\n      swap1\n      tag_107\n      jump\t// in\n    tag_112:\n      dup1\n      0x1f\n      add\n      0x20\n      dup1\n      swap2\n      div\n      mul\n      0x20\n      add\n      mload(0x40)\n      swap1\n      dup2\n      add\n      0x40\n      mstore\n      dup1\n      swap3\n      swap2\n      swap1\n      dup2\n      dup2\n      mstore\n      0x20\n      add\n      dup3\n      dup1\n      sload\n      tag_113\n      swap1\n      tag_107\n      jump\t// in\n    tag_113:\n      dup1\n      iszero\n      tag_114\n      jumpi\n      dup1\n      0x1f\n      lt\n      tag_115\n      jumpi\n      0x0100\n      dup1\n      dup4\n      sload\n      div\n      mul\n      dup4\n      mstore\n      swap2\n      0x20\n      add\n      swap2\n      jump(tag_114)\n    tag_115:\n      dup3\n      add\n      swap2\n      swap1\n      0x00\n      mstore\n      keccak256(0x00, 0x20)\n      swap1\n    tag_116:\n      dup2\n      sload\n      dup2\n      mstore\n      swap1\n      0x01\n      add\n      swap1\n      0x20\n      add\n      dup1\n      dup4\n      gt\n      tag_116\n      jumpi\n      dup3\n      swap1\n      sub\n      0x1f\n      and\n      dup3\n      add\n      swap2\n    tag_114:\n      pop\n      pop\n      pop\n      pop\n      pop\n      swap3\n      pop\n      swap6\n      pop\n      swap6\n      pop\n      swap6\n      pop\n      swap6\n      pop\n      swap6\n      pop\n      pop\n        /* \"contracts/emp_crud.sol\":1917:2203  function cist_zam(uint _id) view  public returns(uint, string memory, string memory, uint, address){... */\n      swap2\n      swap4\n      swap6\n      swap1\n      swap3\n      swap5\n      pop\n      jump\t// out\n        /* \"contracts/emp_crud.sol\":425:465  mapping(address => uint) public balances */\n    tag_30:\n      mstore(0x20, 0x01)\n      dup1\n      0x00\n      mstore\n      keccak256(0x00, 0x40)\n      0x00\n      swap2\n      pop\n      swap1\n      pop\n      sload\n      dup2\n      jump\t// out\n        /* \"contracts/emp_crud.sol\":1248:1468  function vytvorit_zam(string memory jmeno, string memory mail, uint plat,  address eth_adresa) public {... */\n    tag_36:\n        /* \"contracts/emp_crud.sol\":1365:1376  zamestnanci */\n      0x02\n        /* \"contracts/emp_crud.sol\":1382:1432  zamestnanec(nextId, jmeno, mail, plat, eth_adresa) */\n      mload(0x40)\n      dup1\n      0xa0\n      add\n      0x40\n      mstore\n      dup1\n        /* \"contracts/emp_crud.sol\":1394:1400  nextId */\n      sload(0x03)\n        /* \"contracts/emp_crud.sol\":1382:1432  zamestnanec(nextId, jmeno, mail, plat, eth_adresa) */\n      dup2\n      mstore\n      0x20\n      add\n        /* \"contracts/emp_crud.sol\":1402:1407  jmeno */\n      dup7\n        /* \"contracts/emp_crud.sol\":1382:1432  zamestnanec(nextId, jmeno, mail, plat, eth_adresa) */\n      dup2\n      mstore\n      0x20\n      add\n        /* \"contracts/emp_crud.sol\":1409:1413  mail */\n      dup6\n        /* \"contracts/emp_crud.sol\":1382:1432  zamestnanec(nextId, jmeno, mail, plat, eth_adresa) */\n      dup2\n      mstore\n      0x20\n      add\n        /* \"contracts/emp_crud.sol\":1415:1419  plat */\n      dup5\n        /* \"contracts/emp_crud.sol\":1382:1432  zamestnanec(nextId, jmeno, mail, plat, eth_adresa) */\n      dup2\n      mstore\n      0x20\n      add\n        /* \"contracts/emp_crud.sol\":1421:1431  eth_adresa */\n      dup4\n        /* \"contracts/emp_crud.sol\":1382:1432  zamestnanec(nextId, jmeno, mail, plat, eth_adresa) */\n      0xffffffffffffffffffffffffffffffffffffffff\n      and\n      dup2\n      mstore\n      pop\n        /* \"contracts/emp_crud.sol\":1365:1433  zamestnanci.push(zamestnanec(nextId, jmeno, mail, plat, eth_adresa)) */\n      swap1\n      dup1\n      0x01\n      dup2\n      sload\n      add\n      dup1\n      dup3\n      sstore\n      dup1\n      swap2\n      pop\n      pop\n      0x01\n      swap1\n      sub\n      swap1\n      0x00\n      mstore\n      keccak256(0x00, 0x20)\n      swap1\n      0x05\n      mul\n      add\n      0x00\n      swap1\n      swap2\n      swap1\n      swap2\n      swap1\n      swap2\n      pop\n      0x00\n      dup3\n      add\n      mload\n      dup2\n      0x00\n      add\n      sstore\n      0x20\n      dup3\n      add\n      mload\n      dup2\n      0x01\n      add\n      swap1\n      dup2\n      tag_119\n      swap2\n      swap1\n      tag_120\n      jump\t// in\n    tag_119:\n      pop\n      0x40\n      dup3\n      add\n      mload\n      dup2\n      0x02\n      add\n      swap1\n      dup2\n      tag_121\n      swap2\n      swap1\n      tag_120\n      jump\t// in\n    tag_121:\n      pop\n      0x60\n      dup3\n      add\n      mload\n      dup2\n      0x03\n      add\n      sstore\n      0x80\n      dup3\n      add\n      mload\n      dup2\n      0x04\n      add\n      exp(0x0100, 0x00)\n      dup2\n      sload\n      dup2\n      0xffffffffffffffffffffffffffffffffffffffff\n      mul\n      not\n      and\n      swap1\n      dup4\n      0xffffffffffffffffffffffffffffffffffffffff\n      and\n      mul\n      or\n      swap1\n      sstore\n      pop\n      pop\n      pop\n        /* \"contracts/emp_crud.sol\":1448:1454  nextId */\n      0x03\n      0x00\n        /* \"contracts/emp_crud.sol\":1448:1456  nextId++ */\n      dup2\n      sload\n      dup1\n      swap3\n      swap2\n      swap1\n      tag_122\n      swap1\n      tag_123\n      jump\t// in\n    tag_122:\n      swap2\n      swap1\n      pop\n      sstore\n      pop\n        /* \"contracts/emp_crud.sol\":1248:1468  function vytvorit_zam(string memory jmeno, string memory mail, uint plat,  address eth_adresa) public {... */\n      pop\n      pop\n      pop\n      pop\n      jump\t// out\n        /* \"contracts/emp_crud.sol\":2285:2621  function upravit_zam(uint _id, string memory jmeno, string memory mail, uint plat, address eth_adresa) public {... */\n    tag_40:\n        /* \"contracts/emp_crud.sol\":2410:2416  uint i */\n      0x00\n        /* \"contracts/emp_crud.sol\":2419:2429  najit(_id) */\n      tag_125\n        /* \"contracts/emp_crud.sol\":2425:2428  _id */\n      dup7\n        /* \"contracts/emp_crud.sol\":2419:2424  najit */\n      tag_57\n        /* \"contracts/emp_crud.sol\":2419:2429  najit(_id) */\n      jump\t// in\n    tag_125:\n        /* \"contracts/emp_crud.sol\":2410:2429  uint i = najit(_id) */\n      swap1\n      pop\n        /* \"contracts/emp_crud.sol\":2469:2474  jmeno */\n      dup5\n        /* \"contracts/emp_crud.sol\":2446:2457  zamestnanci */\n      0x02\n        /* \"contracts/emp_crud.sol\":2458:2459  i */\n      dup3\n        /* \"contracts/emp_crud.sol\":2446:2460  zamestnanci[i] */\n      dup2\n      sload\n      dup2\n      lt\n      tag_126\n      jumpi\n      tag_127\n      tag_60\n      jump\t// in\n    tag_127:\n    tag_126:\n      swap1\n      0x00\n      mstore\n      keccak256(0x00, 0x20)\n      swap1\n      0x05\n      mul\n      add\n        /* \"contracts/emp_crud.sol\":2446:2466  zamestnanci[i].jmeno */\n      0x01\n      add\n        /* \"contracts/emp_crud.sol\":2446:2474  zamestnanci[i].jmeno = jmeno */\n      swap1\n      dup2\n      tag_129\n      swap2\n      swap1\n      tag_120\n      jump\t// in\n    tag_129:\n      pop\n        /* \"contracts/emp_crud.sol\":2511:2515  mail */\n      dup4\n        /* \"contracts/emp_crud.sol\":2489:2500  zamestnanci */\n      0x02\n        /* \"contracts/emp_crud.sol\":2501:2502  i */\n      dup3\n        /* \"contracts/emp_crud.sol\":2489:2503  zamestnanci[i] */\n      dup2\n      sload\n      dup2\n      lt\n      tag_130\n      jumpi\n      tag_131\n      tag_60\n      jump\t// in\n    tag_131:\n    tag_130:\n      swap1\n      0x00\n      mstore\n      keccak256(0x00, 0x20)\n      swap1\n      0x05\n      mul\n      add\n        /* \"contracts/emp_crud.sol\":2489:2508  zamestnanci[i].mail */\n      0x02\n      add\n        /* \"contracts/emp_crud.sol\":2489:2515  zamestnanci[i].mail = mail */\n      swap1\n      dup2\n      tag_133\n      swap2\n      swap1\n      tag_120\n      jump\t// in\n    tag_133:\n      pop\n        /* \"contracts/emp_crud.sol\":2552:2556  plat */\n      dup3\n        /* \"contracts/emp_crud.sol\":2530:2541  zamestnanci */\n      0x02\n        /* \"contracts/emp_crud.sol\":2542:2543  i */\n      dup3\n        /* \"contracts/emp_crud.sol\":2530:2544  zamestnanci[i] */\n      dup2\n      sload\n      dup2\n      lt\n      tag_134\n      jumpi\n      tag_135\n      tag_60\n      jump\t// in\n    tag_135:\n    tag_134:\n      swap1\n      0x00\n      mstore\n      keccak256(0x00, 0x20)\n      swap1\n      0x05\n      mul\n      add\n        /* \"contracts/emp_crud.sol\":2530:2549  zamestnanci[i].plat */\n      0x03\n      add\n        /* \"contracts/emp_crud.sol\":2530:2556  zamestnanci[i].plat = plat */\n      dup2\n      swap1\n      sstore\n      pop\n        /* \"contracts/emp_crud.sol\":2599:2609  eth_adresa */\n      dup2\n        /* \"contracts/emp_crud.sol\":2571:2582  zamestnanci */\n      0x02\n        /* \"contracts/emp_crud.sol\":2583:2584  i */\n      dup3\n        /* \"contracts/emp_crud.sol\":2571:2585  zamestnanci[i] */\n      dup2\n      sload\n      dup2\n      lt\n      tag_137\n      jumpi\n      tag_138\n      tag_60\n      jump\t// in\n    tag_138:\n    tag_137:\n      swap1\n      0x00\n      mstore\n      keccak256(0x00, 0x20)\n      swap1\n      0x05\n      mul\n      add\n        /* \"contracts/emp_crud.sol\":2571:2596  zamestnanci[i].eth_adresa */\n      0x04\n      add\n      0x00\n        /* \"contracts/emp_crud.sol\":2571:2609  zamestnanci[i].eth_adresa = eth_adresa */\n      0x0100\n      exp\n      dup2\n      sload\n      dup2\n      0xffffffffffffffffffffffffffffffffffffffff\n      mul\n      not\n      and\n      swap1\n      dup4\n      0xffffffffffffffffffffffffffffffffffffffff\n      and\n      mul\n      or\n      swap1\n      sstore\n      pop\n        /* \"contracts/emp_crud.sol\":2395:2621  {... */\n      pop\n        /* \"contracts/emp_crud.sol\":2285:2621  function upravit_zam(uint _id, string memory jmeno, string memory mail, uint plat, address eth_adresa) public {... */\n      pop\n      pop\n      pop\n      pop\n      pop\n      jump\t// out\n        /* \"contracts/emp_crud.sol\":1728:1833  function pocet_zam() view public returns(uint pocet){... */\n    tag_42:\n        /* \"contracts/emp_crud.sol\":1769:1779  uint pocet */\n      0x00\n        /* \"contracts/emp_crud.sol\":1802:1813  zamestnanci */\n      0x02\n        /* \"contracts/emp_crud.sol\":1802:1820  zamestnanci.length */\n      dup1\n      sload\n      swap1\n      pop\n        /* \"contracts/emp_crud.sol\":1795:1821  return(zamestnanci.length) */\n      swap1\n      pop\n        /* \"contracts/emp_crud.sol\":1728:1833  function pocet_zam() view public returns(uint pocet){... */\n      swap1\n      jump\t// out\n        /* \"contracts/emp_crud.sol\":1546:1656  function vsichni_zam() view public returns(zamestnanec[] memory){... */\n    tag_45:\n        /* \"contracts/emp_crud.sol\":1589:1609  zamestnanec[] memory */\n      0x60\n        /* \"contracts/emp_crud.sol\":1632:1643  zamestnanci */\n      0x02\n        /* \"contracts/emp_crud.sol\":1625:1644  return(zamestnanci) */\n      dup1\n      sload\n      dup1\n      0x20\n      mul\n      0x20\n      add\n      mload(0x40)\n      swap1\n      dup2\n      add\n      0x40\n      mstore\n      dup1\n      swap3\n      swap2\n      swap1\n      dup2\n      dup2\n      mstore\n      0x20\n      add\n      0x00\n      swap1\n    tag_142:\n      dup3\n      dup3\n      lt\n      iszero\n      tag_143\n      jumpi\n      dup4\n      dup3\n      swap1\n      0x00\n      mstore\n      keccak256(0x00, 0x20)\n      swap1\n      0x05\n      mul\n      add\n      mload(0x40)\n      dup1\n      0xa0\n      add\n      0x40\n      mstore\n      swap1\n      dup2\n      0x00\n      dup3\n      add\n      sload\n      dup2\n      mstore\n      0x20\n      add\n      0x01\n      dup3\n      add\n      dup1\n      sload\n      tag_145\n      swap1\n      tag_107\n      jump\t// in\n    tag_145:\n      dup1\n      0x1f\n      add\n      0x20\n      dup1\n      swap2\n      div\n      mul\n      0x20\n      add\n      mload(0x40)\n      swap1\n      dup2\n      add\n      0x40\n      mstore\n      dup1\n      swap3\n      swap2\n      swap1\n      dup2\n      dup2\n      mstore\n      0x20\n      add\n      dup3\n      dup1\n      sload\n      tag_146\n      swap1\n      tag_107\n      jump\t// in\n    tag_146:\n      dup1\n      iszero\n      tag_147\n      jumpi\n      dup1\n      0x1f\n      lt\n      tag_148\n      jumpi\n      0x0100\n      dup1\n      dup4\n      sload\n      div\n      mul\n      dup4\n      mstore\n      swap2\n      0x20\n      add\n      swap2\n      jump(tag_147)\n    tag_148:\n      dup3\n      add\n      swap2\n      swap1\n      0x00\n      mstore\n      keccak256(0x00, 0x20)\n      swap1\n    tag_149:\n      dup2\n      sload\n      dup2\n      mstore\n      swap1\n      0x01\n      add\n      swap1\n      0x20\n      add\n      dup1\n      dup4\n      gt\n      tag_149\n      jumpi\n      dup3\n      swap1\n      sub\n      0x1f\n      and\n      dup3\n      add\n      swap2\n    tag_147:\n      pop\n      pop\n      pop\n      pop\n      pop\n      dup2\n      mstore\n      0x20\n      add\n      0x02\n      dup3\n      add\n      dup1\n      sload\n      tag_150\n      swap1\n      tag_107\n      jump\t// in\n    tag_150:\n      dup1\n      0x1f\n      add\n      0x20\n      dup1\n      swap2\n      div\n      mul\n      0x20\n      add\n      mload(0x40)\n      swap1\n      dup2\n      add\n      0x40\n      mstore\n      dup1\n      swap3\n      swap2\n      swap1\n      dup2\n      dup2\n      mstore\n      0x20\n      add\n      dup3\n      dup1\n      sload\n      tag_151\n      swap1\n      tag_107\n      jump\t// in\n    tag_151:\n      dup1\n      iszero\n      tag_152\n      jumpi\n      dup1\n      0x1f\n      lt\n      tag_153\n      jumpi\n      0x0100\n      dup1\n      dup4\n      sload\n      div\n      mul\n      dup4\n      mstore\n      swap2\n      0x20\n      add\n      swap2\n      jump(tag_152)\n    tag_153:\n      dup3\n      add\n      swap2\n      swap1\n      0x00\n      mstore\n      keccak256(0x00, 0x20)\n      swap1\n    tag_154:\n      dup2\n      sload\n      dup2\n      mstore\n      swap1\n      0x01\n      add\n      swap1\n      0x20\n      add\n      dup1\n      dup4\n      gt\n      tag_154\n      jumpi\n      dup3\n      swap1\n      sub\n      0x1f\n      and\n      dup3\n      add\n      swap2\n    tag_152:\n      pop\n      pop\n      pop\n      pop\n      pop\n      dup2\n      mstore\n      0x20\n      add\n      0x03\n      dup3\n      add\n      sload\n      dup2\n      mstore\n      0x20\n      add\n      0x04\n      dup3\n      add\n      0x00\n      swap1\n      sload\n      swap1\n      0x0100\n      exp\n      swap1\n      div\n      0xffffffffffffffffffffffffffffffffffffffff\n      and\n      0xffffffffffffffffffffffffffffffffffffffff\n      and\n      0xffffffffffffffffffffffffffffffffffffffff\n      and\n      dup2\n      mstore\n      pop\n      pop\n      dup2\n      mstore\n      0x20\n      add\n      swap1\n      0x01\n      add\n      swap1\n      jump(tag_142)\n    tag_143:\n      pop\n      pop\n      pop\n      pop\n      swap1\n      pop\n        /* \"contracts/emp_crud.sol\":1546:1656  function vsichni_zam() view public returns(zamestnanec[] memory){... */\n      swap1\n      jump\t// out\n        /* \"contracts/emp_crud.sol\":3283:3442  function ziskat_coiny(address receiver, uint amount) public {... */\n    tag_51:\n        /* \"contracts/emp_crud.sol\":3380:3386  minter */\n      0x00\n      dup1\n      sload\n      swap1\n      0x0100\n      exp\n      swap1\n      div\n      0xffffffffffffffffffffffffffffffffffffffff\n      and\n        /* \"contracts/emp_crud.sol\":3366:3386  msg.sender == minter */\n      0xffffffffffffffffffffffffffffffffffffffff\n      and\n        /* \"contracts/emp_crud.sol\":3366:3376  msg.sender */\n      caller\n        /* \"contracts/emp_crud.sol\":3366:3386  msg.sender == minter */\n      0xffffffffffffffffffffffffffffffffffffffff\n      and\n      eq\n        /* \"contracts/emp_crud.sol\":3358:3387  require(msg.sender == minter) */\n      tag_156\n      jumpi\n      0x00\n      dup1\n      revert\n    tag_156:\n        /* \"contracts/emp_crud.sol\":3424:3430  amount */\n      dup1\n        /* \"contracts/emp_crud.sol\":3402:3410  balances */\n      0x01\n        /* \"contracts/emp_crud.sol\":3402:3420  balances[receiver] */\n      0x00\n        /* \"contracts/emp_crud.sol\":3411:3419  receiver */\n      dup5\n        /* \"contracts/emp_crud.sol\":3402:3420  balances[receiver] */\n      0xffffffffffffffffffffffffffffffffffffffff\n      and\n      0xffffffffffffffffffffffffffffffffffffffff\n      and\n      dup2\n      mstore\n      0x20\n      add\n      swap1\n      dup2\n      mstore\n      0x20\n      add\n      0x00\n      keccak256\n      0x00\n        /* \"contracts/emp_crud.sol\":3402:3430  balances[receiver] += amount */\n      dup3\n      dup3\n      sload\n      tag_157\n      swap2\n      swap1\n      tag_80\n      jump\t// in\n    tag_157:\n      swap3\n      pop\n      pop\n      dup2\n      swap1\n      sstore\n      pop\n        /* \"contracts/emp_crud.sol\":3283:3442  function ziskat_coiny(address receiver, uint amount) public {... */\n      pop\n      pop\n      jump\t// out\n        /* \"contracts/emp_crud.sol\":2691:2810  function vymazat_zam(uint _id)public{... */\n    tag_54:\n        /* \"contracts/emp_crud.sol\":2742:2748  uint i */\n      0x00\n        /* \"contracts/emp_crud.sol\":2751:2761  najit(_id) */\n      tag_159\n        /* \"contracts/emp_crud.sol\":2757:2760  _id */\n      dup3\n        /* \"contracts/emp_crud.sol\":2751:2756  najit */\n      tag_57\n        /* \"contracts/emp_crud.sol\":2751:2761  najit(_id) */\n      jump\t// in\n    tag_159:\n        /* \"contracts/emp_crud.sol\":2742:2761  uint i = najit(_id) */\n      swap1\n      pop\n        /* \"contracts/emp_crud.sol\":2784:2795  zamestnanci */\n      0x02\n        /* \"contracts/emp_crud.sol\":2796:2797  i */\n      dup2\n        /* \"contracts/emp_crud.sol\":2784:2798  zamestnanci[i] */\n      dup2\n      sload\n      dup2\n      lt\n      tag_160\n      jumpi\n      tag_161\n      tag_60\n      jump\t// in\n    tag_161:\n    tag_160:\n      swap1\n      0x00\n      mstore\n      keccak256(0x00, 0x20)\n      swap1\n      0x05\n      mul\n      add\n      0x00\n        /* \"contracts/emp_crud.sol\":2777:2798  delete zamestnanci[i] */\n      dup1\n      dup3\n      add\n      0x00\n      swap1\n      sstore\n      0x01\n      dup3\n      add\n      0x00\n      tag_163\n      swap2\n      swap1\n      tag_164\n      jump\t// in\n    tag_163:\n      0x02\n      dup3\n      add\n      0x00\n      tag_165\n      swap2\n      swap1\n      tag_164\n      jump\t// in\n    tag_165:\n      0x03\n      dup3\n      add\n      0x00\n      swap1\n      sstore\n      0x04\n      dup3\n      add\n      exp(0x0100, 0x00)\n      dup2\n      sload\n      swap1\n      0xffffffffffffffffffffffffffffffffffffffff\n      mul\n      not\n      and\n      swap1\n      sstore\n      pop\n      pop\n        /* \"contracts/emp_crud.sol\":2727:2810  {... */\n      pop\n        /* \"contracts/emp_crud.sol\":2691:2810  function vymazat_zam(uint _id)public{... */\n      pop\n      jump\t// out\n        /* \"contracts/emp_crud.sol\":2892:3166  function najit(uint id)view internal returns(uint){... */\n    tag_57:\n        /* \"contracts/emp_crud.sol\":2937:2941  uint */\n      0x00\n        /* \"contracts/emp_crud.sol\":2961:2967  uint i */\n      dup1\n        /* \"contracts/emp_crud.sol\":2968:2969  0 */\n      0x00\n        /* \"contracts/emp_crud.sol\":2961:2969  uint i=0 */\n      swap1\n      pop\n        /* \"contracts/emp_crud.sol\":2957:3107  for(uint i=0; i < zamestnanci.length ;i++){... */\n    tag_167:\n        /* \"contracts/emp_crud.sol\":2975:2986  zamestnanci */\n      0x02\n        /* \"contracts/emp_crud.sol\":2975:2993  zamestnanci.length */\n      dup1\n      sload\n      swap1\n      pop\n        /* \"contracts/emp_crud.sol\":2971:2972  i */\n      dup2\n        /* \"contracts/emp_crud.sol\":2971:2993  i < zamestnanci.length */\n      lt\n        /* \"contracts/emp_crud.sol\":2957:3107  for(uint i=0; i < zamestnanci.length ;i++){... */\n      iszero\n      tag_168\n      jumpi\n        /* \"contracts/emp_crud.sol\":3041:3043  id */\n      dup3\n        /* \"contracts/emp_crud.sol\":3020:3031  zamestnanci */\n      0x02\n        /* \"contracts/emp_crud.sol\":3032:3033  i */\n      dup3\n        /* \"contracts/emp_crud.sol\":3020:3034  zamestnanci[i] */\n      dup2\n      sload\n      dup2\n      lt\n      tag_170\n      jumpi\n      tag_171\n      tag_60\n      jump\t// in\n    tag_171:\n    tag_170:\n      swap1\n      0x00\n      mstore\n      keccak256(0x00, 0x20)\n      swap1\n      0x05\n      mul\n      add\n        /* \"contracts/emp_crud.sol\":3020:3037  zamestnanci[i].id */\n      0x00\n      add\n      sload\n        /* \"contracts/emp_crud.sol\":3020:3043  zamestnanci[i].id == id */\n      sub\n        /* \"contracts/emp_crud.sol\":3017:3091  if(zamestnanci[i].id == id){... */\n      tag_173\n      jumpi\n        /* \"contracts/emp_crud.sol\":3071:3072  i */\n      dup1\n        /* \"contracts/emp_crud.sol\":3064:3072  return i */\n      swap2\n      pop\n      pop\n      jump(tag_166)\n        /* \"contracts/emp_crud.sol\":3017:3091  if(zamestnanci[i].id == id){... */\n    tag_173:\n        /* \"contracts/emp_crud.sol\":2995:2998  i++ */\n      dup1\n      dup1\n      0x01\n      add\n      swap2\n      pop\n      pop\n        /* \"contracts/emp_crud.sol\":2957:3107  for(uint i=0; i < zamestnanci.length ;i++){... */\n      jump(tag_167)\n    tag_168:\n      pop\n        /* \"contracts/emp_crud.sol\":3121:3154  revert('Zamestanenec neexistuje') */\n      mload(0x40)\n      0x08c379a000000000000000000000000000000000000000000000000000000000\n      dup2\n      mstore\n      0x04\n      add\n      tag_174\n      swap1\n      tag_175\n      jump\t// in\n    tag_174:\n      mload(0x40)\n      dup1\n      swap2\n      sub\n      swap1\n      revert\n        /* \"contracts/emp_crud.sol\":2892:3166  function najit(uint id)view internal returns(uint){... */\n    tag_166:\n      swap2\n      swap1\n      pop\n      jump\t// out\n    tag_164:\n      pop\n      dup1\n      sload\n      tag_176\n      swap1\n      tag_107\n      jump\t// in\n    tag_176:\n      0x00\n      dup3\n      sstore\n      dup1\n      0x1f\n      lt\n      tag_178\n      jumpi\n      pop\n      jump(tag_177)\n    tag_178:\n      0x1f\n      add\n      0x20\n      swap1\n      div\n      swap1\n      0x00\n      mstore\n      keccak256(0x00, 0x20)\n      swap1\n      dup2\n      add\n      swap1\n      tag_179\n      swap2\n      swap1\n      tag_180\n      jump\t// in\n    tag_179:\n    tag_177:\n      pop\n      jump\t// out\n    tag_180:\n    tag_181:\n      dup1\n      dup3\n      gt\n      iszero\n      tag_182\n      jumpi\n      0x00\n      dup2\n      0x00\n      swap1\n      sstore\n      pop\n      0x01\n      add\n      jump(tag_181)\n    tag_182:\n      pop\n      swap1\n      jump\t// out\n        /* \"#utility.yul\":7:133   */\n    tag_183:\n        /* \"#utility.yul\":44:51   */\n      0x00\n        /* \"#utility.yul\":84:126   */\n      0xffffffffffffffffffffffffffffffffffffffff\n        /* \"#utility.yul\":77:82   */\n      dup3\n        /* \"#utility.yul\":73:127   */\n      and\n        /* \"#utility.yul\":62:127   */\n      swap1\n      pop\n        /* \"#utility.yul\":7:133   */\n      swap2\n      swap1\n      pop\n      jump\t// out\n        /* \"#utility.yul\":139:235   */\n    tag_184:\n        /* \"#utility.yul\":176:183   */\n      0x00\n        /* \"#utility.yul\":205:229   */\n      tag_242\n        /* \"#utility.yul\":223:228   */\n      dup3\n        /* \"#utility.yul\":205:229   */\n      tag_183\n      jump\t// in\n    tag_242:\n        /* \"#utility.yul\":194:229   */\n      swap1\n      pop\n        /* \"#utility.yul\":139:235   */\n      swap2\n      swap1\n      pop\n      jump\t// out\n        /* \"#utility.yul\":241:359   */\n    tag_185:\n        /* \"#utility.yul\":328:352   */\n      tag_244\n        /* \"#utility.yul\":346:351   */\n      dup2\n        /* \"#utility.yul\":328:352   */\n      tag_184\n      jump\t// in\n    tag_244:\n        /* \"#utility.yul\":323:326   */\n      dup3\n        /* \"#utility.yul\":316:353   */\n      mstore\n        /* \"#utility.yul\":241:359   */\n      pop\n      pop\n      jump\t// out\n        /* \"#utility.yul\":365:587   */\n    tag_17:\n        /* \"#utility.yul\":458:462   */\n      0x00\n        /* \"#utility.yul\":496:498   */\n      0x20\n        /* \"#utility.yul\":485:494   */\n      dup3\n        /* \"#utility.yul\":481:499   */\n      add\n        /* \"#utility.yul\":473:499   */\n      swap1\n      pop\n        /* \"#utility.yul\":509:580   */\n      tag_246\n        /* \"#utility.yul\":577:578   */\n      0x00\n        /* \"#utility.yul\":566:575   */\n      dup4\n        /* \"#utility.yul\":562:579   */\n      add\n        /* \"#utility.yul\":553:559   */\n      dup5\n        /* \"#utility.yul\":509:580   */\n      tag_185\n      jump\t// in\n    tag_246:\n        /* \"#utility.yul\":365:587   */\n      swap3\n      swap2\n      pop\n      pop\n      jump\t// out\n        /* \"#utility.yul\":593:668   */\n    tag_186:\n        /* \"#utility.yul\":626:632   */\n      0x00\n        /* \"#utility.yul\":659:661   */\n      0x40\n        /* \"#utility.yul\":653:662   */\n      mload\n        /* \"#utility.yul\":643:662   */\n      swap1\n      pop\n        /* \"#utility.yul\":593:668   */\n      swap1\n      jump\t// out\n        /* \"#utility.yul\":674:791   */\n    tag_187:\n        /* \"#utility.yul\":783:784   */\n      0x00\n        /* \"#utility.yul\":780:781   */\n      dup1\n        /* \"#utility.yul\":773:785   */\n      revert\n        /* \"#utility.yul\":797:914   */\n    tag_188:\n        /* \"#utility.yul\":906:907   */\n      0x00\n        /* \"#utility.yul\":903:904   */\n      dup1\n        /* \"#utility.yul\":896:908   */\n      revert\n        /* \"#utility.yul\":920:997   */\n    tag_189:\n        /* \"#utility.yul\":957:964   */\n      0x00\n        /* \"#utility.yul\":986:991   */\n      dup2\n        /* \"#utility.yul\":975:991   */\n      swap1\n      pop\n        /* \"#utility.yul\":920:997   */\n      swap2\n      swap1\n      pop\n      jump\t// out\n        /* \"#utility.yul\":1003:1125   */\n    tag_190:\n        /* \"#utility.yul\":1076:1100   */\n      tag_252\n        /* \"#utility.yul\":1094:1099   */\n      dup2\n        /* \"#utility.yul\":1076:1100   */\n      tag_189\n      jump\t// in\n    tag_252:\n        /* \"#utility.yul\":1069:1074   */\n      dup2\n        /* \"#utility.yul\":1066:1101   */\n      eq\n        /* \"#utility.yul\":1056:1119   */\n      tag_253\n      jumpi\n        /* \"#utility.yul\":1115:1116   */\n      0x00\n        /* \"#utility.yul\":1112:1113   */\n      dup1\n        /* \"#utility.yul\":1105:1117   */\n      revert\n        /* \"#utility.yul\":1056:1119   */\n    tag_253:\n        /* \"#utility.yul\":1003:1125   */\n      pop\n      jump\t// out\n        /* \"#utility.yul\":1131:1270   */\n    tag_191:\n        /* \"#utility.yul\":1177:1182   */\n      0x00\n        /* \"#utility.yul\":1215:1221   */\n      dup2\n        /* \"#utility.yul\":1202:1222   */\n      calldataload\n        /* \"#utility.yul\":1193:1222   */\n      swap1\n      pop\n        /* \"#utility.yul\":1231:1264   */\n      tag_255\n        /* \"#utility.yul\":1258:1263   */\n      dup2\n        /* \"#utility.yul\":1231:1264   */\n      tag_190\n      jump\t// in\n    tag_255:\n        /* \"#utility.yul\":1131:1270   */\n      swap3\n      swap2\n      pop\n      pop\n      jump\t// out\n        /* \"#utility.yul\":1276:1605   */\n    tag_20:\n        /* \"#utility.yul\":1335:1341   */\n      0x00\n        /* \"#utility.yul\":1384:1386   */\n      0x20\n        /* \"#utility.yul\":1372:1381   */\n      dup3\n        /* \"#utility.yul\":1363:1370   */\n      dup5\n        /* \"#utility.yul\":1359:1382   */\n      sub\n        /* \"#utility.yul\":1355:1387   */\n      slt\n        /* \"#utility.yul\":1352:1471   */\n      iszero\n      tag_257\n      jumpi\n        /* \"#utility.yul\":1390:1469   */\n      tag_258\n      tag_187\n      jump\t// in\n    tag_258:\n        /* \"#utility.yul\":1352:1471   */\n    tag_257:\n        /* \"#utility.yul\":1510:1511   */\n      0x00\n        /* \"#utility.yul\":1535:1588   */\n      tag_259\n        /* \"#utility.yul\":1580:1587   */\n      dup5\n        /* \"#utility.yul\":1571:1577   */\n      dup3\n        /* \"#utility.yul\":1560:1569   */\n      dup6\n        /* \"#utility.yul\":1556:1578   */\n      add\n        /* \"#utility.yul\":1535:1588   */\n      tag_191\n      jump\t// in\n    tag_259:\n        /* \"#utility.yul\":1525:1588   */\n      swap2\n      pop\n        /* \"#utility.yul\":1481:1598   */\n      pop\n        /* \"#utility.yul\":1276:1605   */\n      swap3\n      swap2\n      pop\n      pop\n      jump\t// out\n        /* \"#utility.yul\":1611:1729   */\n    tag_192:\n        /* \"#utility.yul\":1698:1722   */\n      tag_261\n        /* \"#utility.yul\":1716:1721   */\n      dup2\n        /* \"#utility.yul\":1698:1722   */\n      tag_189\n      jump\t// in\n    tag_261:\n        /* \"#utility.yul\":1693:1696   */\n      dup3\n        /* \"#utility.yul\":1686:1723   */\n      mstore\n        /* \"#utility.yul\":1611:1729   */\n      pop\n      pop\n      jump\t// out\n        /* \"#utility.yul\":1735:1834   */\n    tag_193:\n        /* \"#utility.yul\":1787:1793   */\n      0x00\n        /* \"#utility.yul\":1821:1826   */\n      dup2\n        /* \"#utility.yul\":1815:1827   */\n      mload\n        /* \"#utility.yul\":1805:1827   */\n      swap1\n      pop\n        /* \"#utility.yul\":1735:1834   */\n      swap2\n      swap1\n      pop\n      jump\t// out\n        /* \"#utility.yul\":1840:2009   */\n    tag_194:\n        /* \"#utility.yul\":1924:1935   */\n      0x00\n        /* \"#utility.yul\":1958:1964   */\n      dup3\n        /* \"#utility.yul\":1953:1956   */\n      dup3\n        /* \"#utility.yul\":1946:1965   */\n      mstore\n        /* \"#utility.yul\":1998:2002   */\n      0x20\n        /* \"#utility.yul\":1993:1996   */\n      dup3\n        /* \"#utility.yul\":1989:2003   */\n      add\n        /* \"#utility.yul\":1974:2003   */\n      swap1\n      pop\n        /* \"#utility.yul\":1840:2009   */\n      swap3\n      swap2\n      pop\n      pop\n      jump\t// out\n        /* \"#utility.yul\":2015:2261   */\n    tag_195:\n        /* \"#utility.yul\":2096:2097   */\n      0x00\n        /* \"#utility.yul\":2106:2219   */\n    tag_265:\n        /* \"#utility.yul\":2120:2126   */\n      dup4\n        /* \"#utility.yul\":2117:2118   */\n      dup2\n        /* \"#utility.yul\":2114:2127   */\n      lt\n        /* \"#utility.yul\":2106:2219   */\n      iszero\n      tag_267\n      jumpi\n        /* \"#utility.yul\":2205:2206   */\n      dup1\n        /* \"#utility.yul\":2200:2203   */\n      dup3\n        /* \"#utility.yul\":2196:2207   */\n      add\n        /* \"#utility.yul\":2190:2208   */\n      mload\n        /* \"#utility.yul\":2186:2187   */\n      dup2\n        /* \"#utility.yul\":2181:2184   */\n      dup5\n        /* \"#utility.yul\":2177:2188   */\n      add\n        /* \"#utility.yul\":2170:2209   */\n      mstore\n        /* \"#utility.yul\":2142:2144   */\n      0x20\n        /* \"#utility.yul\":2139:2140   */\n      dup2\n        /* \"#utility.yul\":2135:2145   */\n      add\n        /* \"#utility.yul\":2130:2145   */\n      swap1\n      pop\n        /* \"#utility.yul\":2106:2219   */\n      jump(tag_265)\n    tag_267:\n        /* \"#utility.yul\":2253:2254   */\n      0x00\n        /* \"#utility.yul\":2244:2250   */\n      dup5\n        /* \"#utility.yul\":2239:2242   */\n      dup5\n        /* \"#utility.yul\":2235:2251   */\n      add\n        /* \"#utility.yul\":2228:2255   */\n      mstore\n        /* \"#utility.yul\":2077:2261   */\n      pop\n        /* \"#utility.yul\":2015:2261   */\n      pop\n      pop\n      pop\n      jump\t// out\n        /* \"#utility.yul\":2267:2369   */\n    tag_196:\n        /* \"#utility.yul\":2308:2314   */\n      0x00\n        /* \"#utility.yul\":2359:2361   */\n      0x1f\n        /* \"#utility.yul\":2355:2362   */\n      not\n        /* \"#utility.yul\":2350:2352   */\n      0x1f\n        /* \"#utility.yul\":2343:2348   */\n      dup4\n        /* \"#utility.yul\":2339:2353   */\n      add\n        /* \"#utility.yul\":2335:2363   */\n      and\n        /* \"#utility.yul\":2325:2363   */\n      swap1\n      pop\n        /* \"#utility.yul\":2267:2369   */\n      swap2\n      swap1\n      pop\n      jump\t// out\n        /* \"#utility.yul\":2375:2752   */\n    tag_197:\n        /* \"#utility.yul\":2463:2466   */\n      0x00\n        /* \"#utility.yul\":2491:2530   */\n      tag_270\n        /* \"#utility.yul\":2524:2529   */\n      dup3\n        /* \"#utility.yul\":2491:2530   */\n      tag_193\n      jump\t// in\n    tag_270:\n        /* \"#utility.yul\":2546:2617   */\n      tag_271\n        /* \"#utility.yul\":2610:2616   */\n      dup2\n        /* \"#utility.yul\":2605:2608   */\n      dup6\n        /* \"#utility.yul\":2546:2617   */\n      tag_194\n      jump\t// in\n    tag_271:\n        /* \"#utility.yul\":2539:2617   */\n      swap4\n      pop\n        /* \"#utility.yul\":2626:2691   */\n      tag_272\n        /* \"#utility.yul\":2684:2690   */\n      dup2\n        /* \"#utility.yul\":2679:2682   */\n      dup6\n        /* \"#utility.yul\":2672:2676   */\n      0x20\n        /* \"#utility.yul\":2665:2670   */\n      dup7\n        /* \"#utility.yul\":2661:2677   */\n      add\n        /* \"#utility.yul\":2626:2691   */\n      tag_195\n      jump\t// in\n    tag_272:\n        /* \"#utility.yul\":2716:2745   */\n      tag_273\n        /* \"#utility.yul\":2738:2744   */\n      dup2\n        /* \"#utility.yul\":2716:2745   */\n      tag_196\n      jump\t// in\n    tag_273:\n        /* \"#utility.yul\":2711:2714   */\n      dup5\n        /* \"#utility.yul\":2707:2746   */\n      add\n        /* \"#utility.yul\":2700:2746   */\n      swap2\n      pop\n        /* \"#utility.yul\":2467:2752   */\n      pop\n        /* \"#utility.yul\":2375:2752   */\n      swap3\n      swap2\n      pop\n      pop\n      jump\t// out\n        /* \"#utility.yul\":2758:3604   */\n    tag_26:\n        /* \"#utility.yul\":3003:3007   */\n      0x00\n        /* \"#utility.yul\":3041:3044   */\n      0xa0\n        /* \"#utility.yul\":3030:3039   */\n      dup3\n        /* \"#utility.yul\":3026:3045   */\n      add\n        /* \"#utility.yul\":3018:3045   */\n      swap1\n      pop\n        /* \"#utility.yul\":3055:3126   */\n      tag_275\n        /* \"#utility.yul\":3123:3124   */\n      0x00\n        /* \"#utility.yul\":3112:3121   */\n      dup4\n        /* \"#utility.yul\":3108:3125   */\n      add\n        /* \"#utility.yul\":3099:3105   */\n      dup9\n        /* \"#utility.yul\":3055:3126   */\n      tag_192\n      jump\t// in\n    tag_275:\n        /* \"#utility.yul\":3173:3182   */\n      dup2\n        /* \"#utility.yul\":3167:3171   */\n      dup2\n        /* \"#utility.yul\":3163:3183   */\n      sub\n        /* \"#utility.yul\":3158:3160   */\n      0x20\n        /* \"#utility.yul\":3147:3156   */\n      dup4\n        /* \"#utility.yul\":3143:3161   */\n      add\n        /* \"#utility.yul\":3136:3184   */\n      mstore\n        /* \"#utility.yul\":3201:3279   */\n      tag_276\n        /* \"#utility.yul\":3274:3278   */\n      dup2\n        /* \"#utility.yul\":3265:3271   */\n      dup8\n        /* \"#utility.yul\":3201:3279   */\n      tag_197\n      jump\t// in\n    tag_276:\n        /* \"#utility.yul\":3193:3279   */\n      swap1\n      pop\n        /* \"#utility.yul\":3326:3335   */\n      dup2\n        /* \"#utility.yul\":3320:3324   */\n      dup2\n        /* \"#utility.yul\":3316:3336   */\n      sub\n        /* \"#utility.yul\":3311:3313   */\n      0x40\n        /* \"#utility.yul\":3300:3309   */\n      dup4\n        /* \"#utility.yul\":3296:3314   */\n      add\n        /* \"#utility.yul\":3289:3337   */\n      mstore\n        /* \"#utility.yul\":3354:3432   */\n      tag_277\n        /* \"#utility.yul\":3427:3431   */\n      dup2\n        /* \"#utility.yul\":3418:3424   */\n      dup7\n        /* \"#utility.yul\":3354:3432   */\n      tag_197\n      jump\t// in\n    tag_277:\n        /* \"#utility.yul\":3346:3432   */\n      swap1\n      pop\n        /* \"#utility.yul\":3442:3514   */\n      tag_278\n        /* \"#utility.yul\":3510:3512   */\n      0x60\n        /* \"#utility.yul\":3499:3508   */\n      dup4\n        /* \"#utility.yul\":3495:3513   */\n      add\n        /* \"#utility.yul\":3486:3492   */\n      dup6\n        /* \"#utility.yul\":3442:3514   */\n      tag_192\n      jump\t// in\n    tag_278:\n        /* \"#utility.yul\":3524:3597   */\n      tag_279\n        /* \"#utility.yul\":3592:3595   */\n      0x80\n        /* \"#utility.yul\":3581:3590   */\n      dup4\n        /* \"#utility.yul\":3577:3596   */\n      add\n        /* \"#utility.yul\":3568:3574   */\n      dup5\n        /* \"#utility.yul\":3524:3597   */\n      tag_185\n      jump\t// in\n    tag_279:\n        /* \"#utility.yul\":2758:3604   */\n      swap7\n      swap6\n      pop\n      pop\n      pop\n      pop\n      pop\n      pop\n      jump\t// out\n        /* \"#utility.yul\":3610:3732   */\n    tag_198:\n        /* \"#utility.yul\":3683:3707   */\n      tag_281\n        /* \"#utility.yul\":3701:3706   */\n      dup2\n        /* \"#utility.yul\":3683:3707   */\n      tag_184\n      jump\t// in\n    tag_281:\n        /* \"#utility.yul\":3676:3681   */\n      dup2\n        /* \"#utility.yul\":3673:3708   */\n      eq\n        /* \"#utility.yul\":3663:3726   */\n      tag_282\n      jumpi\n        /* \"#utility.yul\":3722:3723   */\n      0x00\n        /* \"#utility.yul\":3719:3720   */\n      dup1\n        /* \"#utility.yul\":3712:3724   */\n      revert\n        /* \"#utility.yul\":3663:3726   */\n    tag_282:\n        /* \"#utility.yul\":3610:3732   */\n      pop\n      jump\t// out\n        /* \"#utility.yul\":3738:3877   */\n    tag_199:\n        /* \"#utility.yul\":3784:3789   */\n      0x00\n        /* \"#utility.yul\":3822:3828   */\n      dup2\n        /* \"#utility.yul\":3809:3829   */\n      calldataload\n        /* \"#utility.yul\":3800:3829   */\n      swap1\n      pop\n        /* \"#utility.yul\":3838:3871   */\n      tag_284\n        /* \"#utility.yul\":3865:3870   */\n      dup2\n        /* \"#utility.yul\":3838:3871   */\n      tag_198\n      jump\t// in\n    tag_284:\n        /* \"#utility.yul\":3738:3877   */\n      swap3\n      swap2\n      pop\n      pop\n      jump\t// out\n        /* \"#utility.yul\":3883:4212   */\n    tag_29:\n        /* \"#utility.yul\":3942:3948   */\n      0x00\n        /* \"#utility.yul\":3991:3993   */\n      0x20\n        /* \"#utility.yul\":3979:3988   */\n      dup3\n        /* \"#utility.yul\":3970:3977   */\n      dup5\n        /* \"#utility.yul\":3966:3989   */\n      sub\n        /* \"#utility.yul\":3962:3994   */\n      slt\n        /* \"#utility.yul\":3959:4078   */\n      iszero\n      tag_286\n      jumpi\n        /* \"#utility.yul\":3997:4076   */\n      tag_287\n      tag_187\n      jump\t// in\n    tag_287:\n        /* \"#utility.yul\":3959:4078   */\n    tag_286:\n        /* \"#utility.yul\":4117:4118   */\n      0x00\n        /* \"#utility.yul\":4142:4195   */\n      tag_288\n        /* \"#utility.yul\":4187:4194   */\n      dup5\n        /* \"#utility.yul\":4178:4184   */\n      dup3\n        /* \"#utility.yul\":4167:4176   */\n      dup6\n        /* \"#utility.yul\":4163:4185   */\n      add\n        /* \"#utility.yul\":4142:4195   */\n      tag_199\n      jump\t// in\n    tag_288:\n        /* \"#utility.yul\":4132:4195   */\n      swap2\n      pop\n        /* \"#utility.yul\":4088:4205   */\n      pop\n        /* \"#utility.yul\":3883:4212   */\n      swap3\n      swap2\n      pop\n      pop\n      jump\t// out\n        /* \"#utility.yul\":4218:4440   */\n    tag_32:\n        /* \"#utility.yul\":4311:4315   */\n      0x00\n        /* \"#utility.yul\":4349:4351   */\n      0x20\n        /* \"#utility.yul\":4338:4347   */\n      dup3\n        /* \"#utility.yul\":4334:4352   */\n      add\n        /* \"#utility.yul\":4326:4352   */\n      swap1\n      pop\n        /* \"#utility.yul\":4362:4433   */\n      tag_290\n        /* \"#utility.yul\":4430:4431   */\n      0x00\n        /* \"#utility.yul\":4419:4428   */\n      dup4\n        /* \"#utility.yul\":4415:4432   */\n      add\n        /* \"#utility.yul\":4406:4412   */\n      dup5\n        /* \"#utility.yul\":4362:4433   */\n      tag_192\n      jump\t// in\n    tag_290:\n        /* \"#utility.yul\":4218:4440   */\n      swap3\n      swap2\n      pop\n      pop\n      jump\t// out\n        /* \"#utility.yul\":4446:4563   */\n    tag_200:\n        /* \"#utility.yul\":4555:4556   */\n      0x00\n        /* \"#utility.yul\":4552:4553   */\n      dup1\n        /* \"#utility.yul\":4545:4557   */\n      revert\n        /* \"#utility.yul\":4569:4686   */\n    tag_201:\n        /* \"#utility.yul\":4678:4679   */\n      0x00\n        /* \"#utility.yul\":4675:4676   */\n      dup1\n        /* \"#utility.yul\":4668:4680   */\n      revert\n        /* \"#utility.yul\":4692:4872   */\n    tag_202:\n        /* \"#utility.yul\":4740:4817   */\n      0x4e487b7100000000000000000000000000000000000000000000000000000000\n        /* \"#utility.yul\":4737:4738   */\n      0x00\n        /* \"#utility.yul\":4730:4818   */\n      mstore\n        /* \"#utility.yul\":4837:4841   */\n      0x41\n        /* \"#utility.yul\":4834:4835   */\n      0x04\n        /* \"#utility.yul\":4827:4842   */\n      mstore\n        /* \"#utility.yul\":4861:4865   */\n      0x24\n        /* \"#utility.yul\":4858:4859   */\n      0x00\n        /* \"#utility.yul\":4851:4866   */\n      revert\n        /* \"#utility.yul\":4878:5159   */\n    tag_203:\n        /* \"#utility.yul\":4961:4988   */\n      tag_295\n        /* \"#utility.yul\":4983:4987   */\n      dup3\n        /* \"#utility.yul\":4961:4988   */\n      tag_196\n      jump\t// in\n    tag_295:\n        /* \"#utility.yul\":4953:4959   */\n      dup2\n        /* \"#utility.yul\":4949:4989   */\n      add\n        /* \"#utility.yul\":5091:5097   */\n      dup2\n        /* \"#utility.yul\":5079:5089   */\n      dup2\n        /* \"#utility.yul\":5076:5098   */\n      lt\n        /* \"#utility.yul\":5055:5073   */\n      0xffffffffffffffff\n        /* \"#utility.yul\":5043:5053   */\n      dup3\n        /* \"#utility.yul\":5040:5074   */\n      gt\n        /* \"#utility.yul\":5037:5099   */\n      or\n        /* \"#utility.yul\":5034:5122   */\n      iszero\n      tag_296\n      jumpi\n        /* \"#utility.yul\":5102:5120   */\n      tag_297\n      tag_202\n      jump\t// in\n    tag_297:\n        /* \"#utility.yul\":5034:5122   */\n    tag_296:\n        /* \"#utility.yul\":5142:5152   */\n      dup1\n        /* \"#utility.yul\":5138:5140   */\n      0x40\n        /* \"#utility.yul\":5131:5153   */\n      mstore\n        /* \"#utility.yul\":4921:5159   */\n      pop\n        /* \"#utility.yul\":4878:5159   */\n      pop\n      pop\n      jump\t// out\n        /* \"#utility.yul\":5165:5294   */\n    tag_204:\n        /* \"#utility.yul\":5199:5205   */\n      0x00\n        /* \"#utility.yul\":5226:5246   */\n      tag_299\n      tag_186\n      jump\t// in\n    tag_299:\n        /* \"#utility.yul\":5216:5246   */\n      swap1\n      pop\n        /* \"#utility.yul\":5255:5288   */\n      tag_300\n        /* \"#utility.yul\":5283:5287   */\n      dup3\n        /* \"#utility.yul\":5275:5281   */\n      dup3\n        /* \"#utility.yul\":5255:5288   */\n      tag_203\n      jump\t// in\n    tag_300:\n        /* \"#utility.yul\":5165:5294   */\n      swap2\n      swap1\n      pop\n      jump\t// out\n        /* \"#utility.yul\":5300:5608   */\n    tag_205:\n        /* \"#utility.yul\":5362:5366   */\n      0x00\n        /* \"#utility.yul\":5452:5470   */\n      0xffffffffffffffff\n        /* \"#utility.yul\":5444:5450   */\n      dup3\n        /* \"#utility.yul\":5441:5471   */\n      gt\n        /* \"#utility.yul\":5438:5494   */\n      iszero\n      tag_302\n      jumpi\n        /* \"#utility.yul\":5474:5492   */\n      tag_303\n      tag_202\n      jump\t// in\n    tag_303:\n        /* \"#utility.yul\":5438:5494   */\n    tag_302:\n        /* \"#utility.yul\":5512:5541   */\n      tag_304\n        /* \"#utility.yul\":5534:5540   */\n      dup3\n        /* \"#utility.yul\":5512:5541   */\n      tag_196\n      jump\t// in\n    tag_304:\n        /* \"#utility.yul\":5504:5541   */\n      swap1\n      pop\n        /* \"#utility.yul\":5596:5600   */\n      0x20\n        /* \"#utility.yul\":5590:5594   */\n      dup2\n        /* \"#utility.yul\":5586:5601   */\n      add\n        /* \"#utility.yul\":5578:5601   */\n      swap1\n      pop\n        /* \"#utility.yul\":5300:5608   */\n      swap2\n      swap1\n      pop\n      jump\t// out\n        /* \"#utility.yul\":5614:5760   */\n    tag_206:\n        /* \"#utility.yul\":5711:5717   */\n      dup3\n        /* \"#utility.yul\":5706:5709   */\n      dup2\n        /* \"#utility.yul\":5701:5704   */\n      dup4\n        /* \"#utility.yul\":5688:5718   */\n      calldatacopy\n        /* \"#utility.yul\":5752:5753   */\n      0x00\n        /* \"#utility.yul\":5743:5749   */\n      dup4\n        /* \"#utility.yul\":5738:5741   */\n      dup4\n        /* \"#utility.yul\":5734:5750   */\n      add\n        /* \"#utility.yul\":5727:5754   */\n      mstore\n        /* \"#utility.yul\":5614:5760   */\n      pop\n      pop\n      pop\n      jump\t// out\n        /* \"#utility.yul\":5766:6191   */\n    tag_207:\n        /* \"#utility.yul\":5844:5849   */\n      0x00\n        /* \"#utility.yul\":5869:5935   */\n      tag_307\n        /* \"#utility.yul\":5885:5934   */\n      tag_308\n        /* \"#utility.yul\":5927:5933   */\n      dup5\n        /* \"#utility.yul\":5885:5934   */\n      tag_205\n      jump\t// in\n    tag_308:\n        /* \"#utility.yul\":5869:5935   */\n      tag_204\n      jump\t// in\n    tag_307:\n        /* \"#utility.yul\":5860:5935   */\n      swap1\n      pop\n        /* \"#utility.yul\":5958:5964   */\n      dup3\n        /* \"#utility.yul\":5951:5956   */\n      dup2\n        /* \"#utility.yul\":5944:5965   */\n      mstore\n        /* \"#utility.yul\":5996:6000   */\n      0x20\n        /* \"#utility.yul\":5989:5994   */\n      dup2\n        /* \"#utility.yul\":5985:6001   */\n      add\n        /* \"#utility.yul\":6034:6037   */\n      dup5\n        /* \"#utility.yul\":6025:6031   */\n      dup5\n        /* \"#utility.yul\":6020:6023   */\n      dup5\n        /* \"#utility.yul\":6016:6032   */\n      add\n        /* \"#utility.yul\":6013:6038   */\n      gt\n        /* \"#utility.yul\":6010:6122   */\n      iszero\n      tag_309\n      jumpi\n        /* \"#utility.yul\":6041:6120   */\n      tag_310\n      tag_201\n      jump\t// in\n    tag_310:\n        /* \"#utility.yul\":6010:6122   */\n    tag_309:\n        /* \"#utility.yul\":6131:6185   */\n      tag_311\n        /* \"#utility.yul\":6178:6184   */\n      dup5\n        /* \"#utility.yul\":6173:6176   */\n      dup3\n        /* \"#utility.yul\":6168:6171   */\n      dup6\n        /* \"#utility.yul\":6131:6185   */\n      tag_206\n      jump\t// in\n    tag_311:\n        /* \"#utility.yul\":5850:6191   */\n      pop\n        /* \"#utility.yul\":5766:6191   */\n      swap4\n      swap3\n      pop\n      pop\n      pop\n      jump\t// out\n        /* \"#utility.yul\":6211:6551   */\n    tag_208:\n        /* \"#utility.yul\":6267:6272   */\n      0x00\n        /* \"#utility.yul\":6316:6319   */\n      dup3\n        /* \"#utility.yul\":6309:6313   */\n      0x1f\n        /* \"#utility.yul\":6301:6307   */\n      dup4\n        /* \"#utility.yul\":6297:6314   */\n      add\n        /* \"#utility.yul\":6293:6320   */\n      slt\n        /* \"#utility.yul\":6283:6405   */\n      tag_313\n      jumpi\n        /* \"#utility.yul\":6324:6403   */\n      tag_314\n      tag_200\n      jump\t// in\n    tag_314:\n        /* \"#utility.yul\":6283:6405   */\n    tag_313:\n        /* \"#utility.yul\":6441:6447   */\n      dup2\n        /* \"#utility.yul\":6428:6448   */\n      calldataload\n        /* \"#utility.yul\":6466:6545   */\n      tag_315\n        /* \"#utility.yul\":6541:6544   */\n      dup5\n        /* \"#utility.yul\":6533:6539   */\n      dup3\n        /* \"#utility.yul\":6526:6530   */\n      0x20\n        /* \"#utility.yul\":6518:6524   */\n      dup7\n        /* \"#utility.yul\":6514:6531   */\n      add\n        /* \"#utility.yul\":6466:6545   */\n      tag_207\n      jump\t// in\n    tag_315:\n        /* \"#utility.yul\":6457:6545   */\n      swap2\n      pop\n        /* \"#utility.yul\":6273:6551   */\n      pop\n        /* \"#utility.yul\":6211:6551   */\n      swap3\n      swap2\n      pop\n      pop\n      jump\t// out\n        /* \"#utility.yul\":6557:7682   */\n    tag_35:\n        /* \"#utility.yul\":6663:6669   */\n      0x00\n        /* \"#utility.yul\":6671:6677   */\n      dup1\n        /* \"#utility.yul\":6679:6685   */\n      0x00\n        /* \"#utility.yul\":6687:6693   */\n      dup1\n        /* \"#utility.yul\":6736:6739   */\n      0x80\n        /* \"#utility.yul\":6724:6733   */\n      dup6\n        /* \"#utility.yul\":6715:6722   */\n      dup8\n        /* \"#utility.yul\":6711:6734   */\n      sub\n        /* \"#utility.yul\":6707:6740   */\n      slt\n        /* \"#utility.yul\":6704:6824   */\n      iszero\n      tag_317\n      jumpi\n        /* \"#utility.yul\":6743:6822   */\n      tag_318\n      tag_187\n      jump\t// in\n    tag_318:\n        /* \"#utility.yul\":6704:6824   */\n    tag_317:\n        /* \"#utility.yul\":6891:6892   */\n      0x00\n        /* \"#utility.yul\":6880:6889   */\n      dup6\n        /* \"#utility.yul\":6876:6893   */\n      add\n        /* \"#utility.yul\":6863:6894   */\n      calldataload\n        /* \"#utility.yul\":6921:6939   */\n      0xffffffffffffffff\n        /* \"#utility.yul\":6913:6919   */\n      dup2\n        /* \"#utility.yul\":6910:6940   */\n      gt\n        /* \"#utility.yul\":6907:7024   */\n      iszero\n      tag_319\n      jumpi\n        /* \"#utility.yul\":6943:7022   */\n      tag_320\n      tag_188\n      jump\t// in\n    tag_320:\n        /* \"#utility.yul\":6907:7024   */\n    tag_319:\n        /* \"#utility.yul\":7048:7111   */\n      tag_321\n        /* \"#utility.yul\":7103:7110   */\n      dup8\n        /* \"#utility.yul\":7094:7100   */\n      dup3\n        /* \"#utility.yul\":7083:7092   */\n      dup9\n        /* \"#utility.yul\":7079:7101   */\n      add\n        /* \"#utility.yul\":7048:7111   */\n      tag_208\n      jump\t// in\n    tag_321:\n        /* \"#utility.yul\":7038:7111   */\n      swap5\n      pop\n        /* \"#utility.yul\":6834:7121   */\n      pop\n        /* \"#utility.yul\":7188:7190   */\n      0x20\n        /* \"#utility.yul\":7177:7186   */\n      dup6\n        /* \"#utility.yul\":7173:7191   */\n      add\n        /* \"#utility.yul\":7160:7192   */\n      calldataload\n        /* \"#utility.yul\":7219:7237   */\n      0xffffffffffffffff\n        /* \"#utility.yul\":7211:7217   */\n      dup2\n        /* \"#utility.yul\":7208:7238   */\n      gt\n        /* \"#utility.yul\":7205:7322   */\n      iszero\n      tag_322\n      jumpi\n        /* \"#utility.yul\":7241:7320   */\n      tag_323\n      tag_188\n      jump\t// in\n    tag_323:\n        /* \"#utility.yul\":7205:7322   */\n    tag_322:\n        /* \"#utility.yul\":7346:7409   */\n      tag_324\n        /* \"#utility.yul\":7401:7408   */\n      dup8\n        /* \"#utility.yul\":7392:7398   */\n      dup3\n        /* \"#utility.yul\":7381:7390   */\n      dup9\n        /* \"#utility.yul\":7377:7399   */\n      add\n        /* \"#utility.yul\":7346:7409   */\n      tag_208\n      jump\t// in\n    tag_324:\n        /* \"#utility.yul\":7336:7409   */\n      swap4\n      pop\n        /* \"#utility.yul\":7131:7419   */\n      pop\n        /* \"#utility.yul\":7458:7460   */\n      0x40\n        /* \"#utility.yul\":7484:7537   */\n      tag_325\n        /* \"#utility.yul\":7529:7536   */\n      dup8\n        /* \"#utility.yul\":7520:7526   */\n      dup3\n        /* \"#utility.yul\":7509:7518   */\n      dup9\n        /* \"#utility.yul\":7505:7527   */\n      add\n        /* \"#utility.yul\":7484:7537   */\n      tag_191\n      jump\t// in\n    tag_325:\n        /* \"#utility.yul\":7474:7537   */\n      swap3\n      pop\n        /* \"#utility.yul\":7429:7547   */\n      pop\n        /* \"#utility.yul\":7586:7588   */\n      0x60\n        /* \"#utility.yul\":7612:7665   */\n      tag_326\n        /* \"#utility.yul\":7657:7664   */\n      dup8\n        /* \"#utility.yul\":7648:7654   */\n      dup3\n        /* \"#utility.yul\":7637:7646   */\n      dup9\n        /* \"#utility.yul\":7633:7655   */\n      add\n        /* \"#utility.yul\":7612:7665   */\n      tag_199\n      jump\t// in\n    tag_326:\n        /* \"#utility.yul\":7602:7665   */\n      swap2\n      pop\n        /* \"#utility.yul\":7557:7675   */\n      pop\n        /* \"#utility.yul\":6557:7682   */\n      swap3\n      swap6\n      swap2\n      swap5\n      pop\n      swap3\n      pop\n      jump\t// out\n        /* \"#utility.yul\":7688:8959   */\n    tag_39:\n        /* \"#utility.yul\":7803:7809   */\n      0x00\n        /* \"#utility.yul\":7811:7817   */\n      dup1\n        /* \"#utility.yul\":7819:7825   */\n      0x00\n        /* \"#utility.yul\":7827:7833   */\n      dup1\n        /* \"#utility.yul\":7835:7841   */\n      0x00\n        /* \"#utility.yul\":7884:7887   */\n      0xa0\n        /* \"#utility.yul\":7872:7881   */\n      dup7\n        /* \"#utility.yul\":7863:7870   */\n      dup9\n        /* \"#utility.yul\":7859:7882   */\n      sub\n        /* \"#utility.yul\":7855:7888   */\n      slt\n        /* \"#utility.yul\":7852:7972   */\n      iszero\n      tag_328\n      jumpi\n        /* \"#utility.yul\":7891:7970   */\n      tag_329\n      tag_187\n      jump\t// in\n    tag_329:\n        /* \"#utility.yul\":7852:7972   */\n    tag_328:\n        /* \"#utility.yul\":8011:8012   */\n      0x00\n        /* \"#utility.yul\":8036:8089   */\n      tag_330\n        /* \"#utility.yul\":8081:8088   */\n      dup9\n        /* \"#utility.yul\":8072:8078   */\n      dup3\n        /* \"#utility.yul\":8061:8070   */\n      dup10\n        /* \"#utility.yul\":8057:8079   */\n      add\n        /* \"#utility.yul\":8036:8089   */\n      tag_191\n      jump\t// in\n    tag_330:\n        /* \"#utility.yul\":8026:8089   */\n      swap6\n      pop\n        /* \"#utility.yul\":7982:8099   */\n      pop\n        /* \"#utility.yul\":8166:8168   */\n      0x20\n        /* \"#utility.yul\":8155:8164   */\n      dup7\n        /* \"#utility.yul\":8151:8169   */\n      add\n        /* \"#utility.yul\":8138:8170   */\n      calldataload\n        /* \"#utility.yul\":8197:8215   */\n      0xffffffffffffffff\n        /* \"#utility.yul\":8189:8195   */\n      dup2\n        /* \"#utility.yul\":8186:8216   */\n      gt\n        /* \"#utility.yul\":8183:8300   */\n      iszero\n      tag_331\n      jumpi\n        /* \"#utility.yul\":8219:8298   */\n      tag_332\n      tag_188\n      jump\t// in\n    tag_332:\n        /* \"#utility.yul\":8183:8300   */\n    tag_331:\n        /* \"#utility.yul\":8324:8387   */\n      tag_333\n        /* \"#utility.yul\":8379:8386   */\n      dup9\n        /* \"#utility.yul\":8370:8376   */\n      dup3\n        /* \"#utility.yul\":8359:8368   */\n      dup10\n        /* \"#utility.yul\":8355:8377   */\n      add\n        /* \"#utility.yul\":8324:8387   */\n      tag_208\n      jump\t// in\n    tag_333:\n        /* \"#utility.yul\":8314:8387   */\n      swap5\n      pop\n        /* \"#utility.yul\":8109:8397   */\n      pop\n        /* \"#utility.yul\":8464:8466   */\n      0x40\n        /* \"#utility.yul\":8453:8462   */\n      dup7\n        /* \"#utility.yul\":8449:8467   */\n      add\n        /* \"#utility.yul\":8436:8468   */\n      calldataload\n        /* \"#utility.yul\":8495:8513   */\n      0xffffffffffffffff\n        /* \"#utility.yul\":8487:8493   */\n      dup2\n        /* \"#utility.yul\":8484:8514   */\n      gt\n        /* \"#utility.yul\":8481:8598   */\n      iszero\n      tag_334\n      jumpi\n        /* \"#utility.yul\":8517:8596   */\n      tag_335\n      tag_188\n      jump\t// in\n    tag_335:\n        /* \"#utility.yul\":8481:8598   */\n    tag_334:\n        /* \"#utility.yul\":8622:8685   */\n      tag_336\n        /* \"#utility.yul\":8677:8684   */\n      dup9\n        /* \"#utility.yul\":8668:8674   */\n      dup3\n        /* \"#utility.yul\":8657:8666   */\n      dup10\n        /* \"#utility.yul\":8653:8675   */\n      add\n        /* \"#utility.yul\":8622:8685   */\n      tag_208\n      jump\t// in\n    tag_336:\n        /* \"#utility.yul\":8612:8685   */\n      swap4\n      pop\n        /* \"#utility.yul\":8407:8695   */\n      pop\n        /* \"#utility.yul\":8734:8736   */\n      0x60\n        /* \"#utility.yul\":8760:8813   */\n      tag_337\n        /* \"#utility.yul\":8805:8812   */\n      dup9\n        /* \"#utility.yul\":8796:8802   */\n      dup3\n        /* \"#utility.yul\":8785:8794   */\n      dup10\n        /* \"#utility.yul\":8781:8803   */\n      add\n        /* \"#utility.yul\":8760:8813   */\n      tag_191\n      jump\t// in\n    tag_337:\n        /* \"#utility.yul\":8750:8813   */\n      swap3\n      pop\n        /* \"#utility.yul\":8705:8823   */\n      pop\n        /* \"#utility.yul\":8862:8865   */\n      0x80\n        /* \"#utility.yul\":8889:8942   */\n      tag_338\n        /* \"#utility.yul\":8934:8941   */\n      dup9\n        /* \"#utility.yul\":8925:8931   */\n      dup3\n        /* \"#utility.yul\":8914:8923   */\n      dup10\n        /* \"#utility.yul\":8910:8932   */\n      add\n        /* \"#utility.yul\":8889:8942   */\n      tag_199\n      jump\t// in\n    tag_338:\n        /* \"#utility.yul\":8879:8942   */\n      swap2\n      pop\n        /* \"#utility.yul\":8833:8952   */\n      pop\n        /* \"#utility.yul\":7688:8959   */\n      swap3\n      swap6\n      pop\n      swap3\n      swap6\n      swap1\n      swap4\n      pop\n      jump\t// out\n        /* \"#utility.yul\":8965:9106   */\n    tag_209:\n        /* \"#utility.yul\":9059:9065   */\n      0x00\n        /* \"#utility.yul\":9093:9098   */\n      dup2\n        /* \"#utility.yul\":9087:9099   */\n      mload\n        /* \"#utility.yul\":9077:9099   */\n      swap1\n      pop\n        /* \"#utility.yul\":8965:9106   */\n      swap2\n      swap1\n      pop\n      jump\t// out\n        /* \"#utility.yul\":9112:9323   */\n    tag_210:\n        /* \"#utility.yul\":9238:9249   */\n      0x00\n        /* \"#utility.yul\":9272:9278   */\n      dup3\n        /* \"#utility.yul\":9267:9270   */\n      dup3\n        /* \"#utility.yul\":9260:9279   */\n      mstore\n        /* \"#utility.yul\":9312:9316   */\n      0x20\n        /* \"#utility.yul\":9307:9310   */\n      dup3\n        /* \"#utility.yul\":9303:9317   */\n      add\n        /* \"#utility.yul\":9288:9317   */\n      swap1\n      pop\n        /* \"#utility.yul\":9112:9323   */\n      swap3\n      swap2\n      pop\n      pop\n      jump\t// out\n        /* \"#utility.yul\":9329:9488   */\n    tag_211:\n        /* \"#utility.yul\":9423:9427   */\n      0x00\n        /* \"#utility.yul\":9446:9449   */\n      dup2\n        /* \"#utility.yul\":9438:9449   */\n      swap1\n      pop\n        /* \"#utility.yul\":9476:9480   */\n      0x20\n        /* \"#utility.yul\":9471:9474   */\n      dup3\n        /* \"#utility.yul\":9467:9481   */\n      add\n        /* \"#utility.yul\":9459:9481   */\n      swap1\n      pop\n        /* \"#utility.yul\":9329:9488   */\n      swap2\n      swap1\n      pop\n      jump\t// out\n        /* \"#utility.yul\":9494:9602   */\n    tag_212:\n        /* \"#utility.yul\":9571:9595   */\n      tag_343\n        /* \"#utility.yul\":9589:9594   */\n      dup2\n        /* \"#utility.yul\":9571:9595   */\n      tag_189\n      jump\t// in\n    tag_343:\n        /* \"#utility.yul\":9566:9569   */\n      dup3\n        /* \"#utility.yul\":9559:9596   */\n      mstore\n        /* \"#utility.yul\":9494:9602   */\n      pop\n      pop\n      jump\t// out\n        /* \"#utility.yul\":9608:9767   */\n    tag_213:\n        /* \"#utility.yul\":9682:9693   */\n      0x00\n        /* \"#utility.yul\":9716:9722   */\n      dup3\n        /* \"#utility.yul\":9711:9714   */\n      dup3\n        /* \"#utility.yul\":9704:9723   */\n      mstore\n        /* \"#utility.yul\":9756:9760   */\n      0x20\n        /* \"#utility.yul\":9751:9754   */\n      dup3\n        /* \"#utility.yul\":9747:9761   */\n      add\n        /* \"#utility.yul\":9732:9761   */\n      swap1\n      pop\n        /* \"#utility.yul\":9608:9767   */\n      swap3\n      swap2\n      pop\n      pop\n      jump\t// out\n        /* \"#utility.yul\":9773:10130   */\n    tag_214:\n        /* \"#utility.yul\":9851:9854   */\n      0x00\n        /* \"#utility.yul\":9879:9918   */\n      tag_346\n        /* \"#utility.yul\":9912:9917   */\n      dup3\n        /* \"#utility.yul\":9879:9918   */\n      tag_193\n      jump\t// in\n    tag_346:\n        /* \"#utility.yul\":9934:9995   */\n      tag_347\n        /* \"#utility.yul\":9988:9994   */\n      dup2\n        /* \"#utility.yul\":9983:9986   */\n      dup6\n        /* \"#utility.yul\":9934:9995   */\n      tag_213\n      jump\t// in\n    tag_347:\n        /* \"#utility.yul\":9927:9995   */\n      swap4\n      pop\n        /* \"#utility.yul\":10004:10069   */\n      tag_348\n        /* \"#utility.yul\":10062:10068   */\n      dup2\n        /* \"#utility.yul\":10057:10060   */\n      dup6\n        /* \"#utility.yul\":10050:10054   */\n      0x20\n        /* \"#utility.yul\":10043:10048   */\n      dup7\n        /* \"#utility.yul\":10039:10055   */\n      add\n        /* \"#utility.yul\":10004:10069   */\n      tag_195\n      jump\t// in\n    tag_348:\n        /* \"#utility.yul\":10094:10123   */\n      tag_349\n        /* \"#utility.yul\":10116:10122   */\n      dup2\n        /* \"#utility.yul\":10094:10123   */\n      tag_196\n      jump\t// in\n    tag_349:\n        /* \"#utility.yul\":10089:10092   */\n      dup5\n        /* \"#utility.yul\":10085:10124   */\n      add\n        /* \"#utility.yul\":10078:10124   */\n      swap2\n      pop\n        /* \"#utility.yul\":9855:10130   */\n      pop\n        /* \"#utility.yul\":9773:10130   */\n      swap3\n      swap2\n      pop\n      pop\n      jump\t// out\n        /* \"#utility.yul\":10136:10244   */\n    tag_215:\n        /* \"#utility.yul\":10213:10237   */\n      tag_351\n        /* \"#utility.yul\":10231:10236   */\n      dup2\n        /* \"#utility.yul\":10213:10237   */\n      tag_184\n      jump\t// in\n    tag_351:\n        /* \"#utility.yul\":10208:10211   */\n      dup3\n        /* \"#utility.yul\":10201:10238   */\n      mstore\n        /* \"#utility.yul\":10136:10244   */\n      pop\n      pop\n      jump\t// out\n        /* \"#utility.yul\":10308:11506   */\n    tag_216:\n        /* \"#utility.yul\":10421:10424   */\n      0x00\n        /* \"#utility.yul\":10457:10461   */\n      0xa0\n        /* \"#utility.yul\":10452:10455   */\n      dup4\n        /* \"#utility.yul\":10448:10462   */\n      add\n        /* \"#utility.yul\":10542:10546   */\n      0x00\n        /* \"#utility.yul\":10535:10540   */\n      dup4\n        /* \"#utility.yul\":10531:10547   */\n      add\n        /* \"#utility.yul\":10525:10548   */\n      mload\n        /* \"#utility.yul\":10561:10624   */\n      tag_353\n        /* \"#utility.yul\":10618:10622   */\n      0x00\n        /* \"#utility.yul\":10613:10616   */\n      dup7\n        /* \"#utility.yul\":10609:10623   */\n      add\n        /* \"#utility.yul\":10595:10607   */\n      dup3\n        /* \"#utility.yul\":10561:10624   */\n      tag_212\n      jump\t// in\n    tag_353:\n        /* \"#utility.yul\":10472:10634   */\n      pop\n        /* \"#utility.yul\":10717:10721   */\n      0x20\n        /* \"#utility.yul\":10710:10715   */\n      dup4\n        /* \"#utility.yul\":10706:10722   */\n      add\n        /* \"#utility.yul\":10700:10723   */\n      mload\n        /* \"#utility.yul\":10770:10773   */\n      dup5\n        /* \"#utility.yul\":10764:10768   */\n      dup3\n        /* \"#utility.yul\":10760:10774   */\n      sub\n        /* \"#utility.yul\":10753:10757   */\n      0x20\n        /* \"#utility.yul\":10748:10751   */\n      dup7\n        /* \"#utility.yul\":10744:10758   */\n      add\n        /* \"#utility.yul\":10737:10775   */\n      mstore\n        /* \"#utility.yul\":10796:10869   */\n      tag_354\n        /* \"#utility.yul\":10864:10868   */\n      dup3\n        /* \"#utility.yul\":10850:10862   */\n      dup3\n        /* \"#utility.yul\":10796:10869   */\n      tag_214\n      jump\t// in\n    tag_354:\n        /* \"#utility.yul\":10788:10869   */\n      swap2\n      pop\n        /* \"#utility.yul\":10644:10880   */\n      pop\n        /* \"#utility.yul\":10962:10966   */\n      0x40\n        /* \"#utility.yul\":10955:10960   */\n      dup4\n        /* \"#utility.yul\":10951:10967   */\n      add\n        /* \"#utility.yul\":10945:10968   */\n      mload\n        /* \"#utility.yul\":11015:11018   */\n      dup5\n        /* \"#utility.yul\":11009:11013   */\n      dup3\n        /* \"#utility.yul\":11005:11019   */\n      sub\n        /* \"#utility.yul\":10998:11002   */\n      0x40\n        /* \"#utility.yul\":10993:10996   */\n      dup7\n        /* \"#utility.yul\":10989:11003   */\n      add\n        /* \"#utility.yul\":10982:11020   */\n      mstore\n        /* \"#utility.yul\":11041:11114   */\n      tag_355\n        /* \"#utility.yul\":11109:11113   */\n      dup3\n        /* \"#utility.yul\":11095:11107   */\n      dup3\n        /* \"#utility.yul\":11041:11114   */\n      tag_214\n      jump\t// in\n    tag_355:\n        /* \"#utility.yul\":11033:11114   */\n      swap2\n      pop\n        /* \"#utility.yul\":10890:11125   */\n      pop\n        /* \"#utility.yul\":11207:11211   */\n      0x60\n        /* \"#utility.yul\":11200:11205   */\n      dup4\n        /* \"#utility.yul\":11196:11212   */\n      add\n        /* \"#utility.yul\":11190:11213   */\n      mload\n        /* \"#utility.yul\":11226:11289   */\n      tag_356\n        /* \"#utility.yul\":11283:11287   */\n      0x60\n        /* \"#utility.yul\":11278:11281   */\n      dup7\n        /* \"#utility.yul\":11274:11288   */\n      add\n        /* \"#utility.yul\":11260:11272   */\n      dup3\n        /* \"#utility.yul\":11226:11289   */\n      tag_212\n      jump\t// in\n    tag_356:\n        /* \"#utility.yul\":11135:11299   */\n      pop\n        /* \"#utility.yul\":11387:11391   */\n      0x80\n        /* \"#utility.yul\":11380:11385   */\n      dup4\n        /* \"#utility.yul\":11376:11392   */\n      add\n        /* \"#utility.yul\":11370:11393   */\n      mload\n        /* \"#utility.yul\":11406:11469   */\n      tag_357\n        /* \"#utility.yul\":11463:11467   */\n      0x80\n        /* \"#utility.yul\":11458:11461   */\n      dup7\n        /* \"#utility.yul\":11454:11468   */\n      add\n        /* \"#utility.yul\":11440:11452   */\n      dup3\n        /* \"#utility.yul\":11406:11469   */\n      tag_215\n      jump\t// in\n    tag_357:\n        /* \"#utility.yul\":11309:11479   */\n      pop\n        /* \"#utility.yul\":11496:11500   */\n      dup1\n        /* \"#utility.yul\":11489:11500   */\n      swap2\n      pop\n        /* \"#utility.yul\":10426:11506   */\n      pop\n        /* \"#utility.yul\":10308:11506   */\n      swap3\n      swap2\n      pop\n      pop\n      jump\t// out\n        /* \"#utility.yul\":11512:11776   */\n    tag_217:\n        /* \"#utility.yul\":11635:11645   */\n      0x00\n        /* \"#utility.yul\":11670:11770   */\n      tag_359\n        /* \"#utility.yul\":11766:11769   */\n      dup4\n        /* \"#utility.yul\":11758:11764   */\n      dup4\n        /* \"#utility.yul\":11670:11770   */\n      tag_216\n      jump\t// in\n    tag_359:\n        /* \"#utility.yul\":11656:11770   */\n      swap1\n      pop\n        /* \"#utility.yul\":11512:11776   */\n      swap3\n      swap2\n      pop\n      pop\n      jump\t// out\n        /* \"#utility.yul\":11782:11922   */\n    tag_218:\n        /* \"#utility.yul\":11879:11883   */\n      0x00\n        /* \"#utility.yul\":11911:11915   */\n      0x20\n        /* \"#utility.yul\":11906:11909   */\n      dup3\n        /* \"#utility.yul\":11902:11916   */\n      add\n        /* \"#utility.yul\":11894:11916   */\n      swap1\n      pop\n        /* \"#utility.yul\":11782:11922   */\n      swap2\n      swap1\n      pop\n      jump\t// out\n        /* \"#utility.yul\":11990:13117   */\n    tag_219:\n        /* \"#utility.yul\":12163:12166   */\n      0x00\n        /* \"#utility.yul\":12192:12273   */\n      tag_362\n        /* \"#utility.yul\":12267:12272   */\n      dup3\n        /* \"#utility.yul\":12192:12273   */\n      tag_209\n      jump\t// in\n    tag_362:\n        /* \"#utility.yul\":12289:12402   */\n      tag_363\n        /* \"#utility.yul\":12395:12401   */\n      dup2\n        /* \"#utility.yul\":12390:12393   */\n      dup6\n        /* \"#utility.yul\":12289:12402   */\n      tag_210\n      jump\t// in\n    tag_363:\n        /* \"#utility.yul\":12282:12402   */\n      swap4\n      pop\n        /* \"#utility.yul\":12428:12431   */\n      dup4\n        /* \"#utility.yul\":12473:12477   */\n      0x20\n        /* \"#utility.yul\":12465:12471   */\n      dup3\n        /* \"#utility.yul\":12461:12478   */\n      mul\n        /* \"#utility.yul\":12456:12459   */\n      dup6\n        /* \"#utility.yul\":12452:12479   */\n      add\n        /* \"#utility.yul\":12503:12586   */\n      tag_364\n        /* \"#utility.yul\":12580:12585   */\n      dup6\n        /* \"#utility.yul\":12503:12586   */\n      tag_211\n      jump\t// in\n    tag_364:\n        /* \"#utility.yul\":12609:12616   */\n      dup1\n        /* \"#utility.yul\":12640:12641   */\n      0x00\n        /* \"#utility.yul\":12625:13072   */\n    tag_365:\n        /* \"#utility.yul\":12650:12656   */\n      dup6\n        /* \"#utility.yul\":12647:12648   */\n      dup2\n        /* \"#utility.yul\":12644:12657   */\n      lt\n        /* \"#utility.yul\":12625:13072   */\n      iszero\n      tag_367\n      jumpi\n        /* \"#utility.yul\":12721:12730   */\n      dup5\n        /* \"#utility.yul\":12715:12719   */\n      dup5\n        /* \"#utility.yul\":12711:12731   */\n      sub\n        /* \"#utility.yul\":12706:12709   */\n      dup10\n        /* \"#utility.yul\":12699:12732   */\n      mstore\n        /* \"#utility.yul\":12772:12778   */\n      dup2\n        /* \"#utility.yul\":12766:12779   */\n      mload\n        /* \"#utility.yul\":12800:12918   */\n      tag_368\n        /* \"#utility.yul\":12913:12917   */\n      dup6\n        /* \"#utility.yul\":12898:12911   */\n      dup3\n        /* \"#utility.yul\":12800:12918   */\n      tag_217\n      jump\t// in\n    tag_368:\n        /* \"#utility.yul\":12792:12918   */\n      swap5\n      pop\n        /* \"#utility.yul\":12941:13028   */\n      tag_369\n        /* \"#utility.yul\":13021:13027   */\n      dup4\n        /* \"#utility.yul\":12941:13028   */\n      tag_218\n      jump\t// in\n    tag_369:\n        /* \"#utility.yul\":12931:13028   */\n      swap3\n      pop\n        /* \"#utility.yul\":13057:13061   */\n      0x20\n        /* \"#utility.yul\":13052:13055   */\n      dup11\n        /* \"#utility.yul\":13048:13062   */\n      add\n        /* \"#utility.yul\":13041:13062   */\n      swap10\n      pop\n        /* \"#utility.yul\":12685:13072   */\n      pop\n        /* \"#utility.yul\":12672:12673   */\n      0x01\n        /* \"#utility.yul\":12669:12670   */\n      dup2\n        /* \"#utility.yul\":12665:12674   */\n      add\n        /* \"#utility.yul\":12660:12674   */\n      swap1\n      pop\n        /* \"#utility.yul\":12625:13072   */\n      jump(tag_365)\n    tag_367:\n        /* \"#utility.yul\":12629:12643   */\n      pop\n        /* \"#utility.yul\":13088:13092   */\n      dup3\n        /* \"#utility.yul\":13081:13092   */\n      swap8\n      pop\n        /* \"#utility.yul\":13108:13111   */\n      dup8\n        /* \"#utility.yul\":13101:13111   */\n      swap6\n      pop\n        /* \"#utility.yul\":12168:13117   */\n      pop\n      pop\n      pop\n      pop\n      pop\n        /* \"#utility.yul\":11990:13117   */\n      swap3\n      swap2\n      pop\n      pop\n      jump\t// out\n        /* \"#utility.yul\":13123:13604   */\n    tag_47:\n        /* \"#utility.yul\":13320:13324   */\n      0x00\n        /* \"#utility.yul\":13358:13360   */\n      0x20\n        /* \"#utility.yul\":13347:13356   */\n      dup3\n        /* \"#utility.yul\":13343:13361   */\n      add\n        /* \"#utility.yul\":13335:13361   */\n      swap1\n      pop\n        /* \"#utility.yul\":13407:13416   */\n      dup2\n        /* \"#utility.yul\":13401:13405   */\n      dup2\n        /* \"#utility.yul\":13397:13417   */\n      sub\n        /* \"#utility.yul\":13393:13394   */\n      0x00\n        /* \"#utility.yul\":13382:13391   */\n      dup4\n        /* \"#utility.yul\":13378:13395   */\n      add\n        /* \"#utility.yul\":13371:13418   */\n      mstore\n        /* \"#utility.yul\":13435:13597   */\n      tag_371\n        /* \"#utility.yul\":13592:13596   */\n      dup2\n        /* \"#utility.yul\":13583:13589   */\n      dup5\n        /* \"#utility.yul\":13435:13597   */\n      tag_219\n      jump\t// in\n    tag_371:\n        /* \"#utility.yul\":13427:13597   */\n      swap1\n      pop\n        /* \"#utility.yul\":13123:13604   */\n      swap3\n      swap2\n      pop\n      pop\n      jump\t// out\n        /* \"#utility.yul\":13610:14084   */\n    tag_50:\n        /* \"#utility.yul\":13678:13684   */\n      0x00\n        /* \"#utility.yul\":13686:13692   */\n      dup1\n        /* \"#utility.yul\":13735:13737   */\n      0x40\n        /* \"#utility.yul\":13723:13732   */\n      dup4\n        /* \"#utility.yul\":13714:13721   */\n      dup6\n        /* \"#utility.yul\":13710:13733   */\n      sub\n        /* \"#utility.yul\":13706:13738   */\n      slt\n        /* \"#utility.yul\":13703:13822   */\n      iszero\n      tag_373\n      jumpi\n        /* \"#utility.yul\":13741:13820   */\n      tag_374\n      tag_187\n      jump\t// in\n    tag_374:\n        /* \"#utility.yul\":13703:13822   */\n    tag_373:\n        /* \"#utility.yul\":13861:13862   */\n      0x00\n        /* \"#utility.yul\":13886:13939   */\n      tag_375\n        /* \"#utility.yul\":13931:13938   */\n      dup6\n        /* \"#utility.yul\":13922:13928   */\n      dup3\n        /* \"#utility.yul\":13911:13920   */\n      dup7\n        /* \"#utility.yul\":13907:13929   */\n      add\n        /* \"#utility.yul\":13886:13939   */\n      tag_199\n      jump\t// in\n    tag_375:\n        /* \"#utility.yul\":13876:13939   */\n      swap3\n      pop\n        /* \"#utility.yul\":13832:13949   */\n      pop\n        /* \"#utility.yul\":13988:13990   */\n      0x20\n        /* \"#utility.yul\":14014:14067   */\n      tag_376\n        /* \"#utility.yul\":14059:14066   */\n      dup6\n        /* \"#utility.yul\":14050:14056   */\n      dup3\n        /* \"#utility.yul\":14039:14048   */\n      dup7\n        /* \"#utility.yul\":14035:14057   */\n      add\n        /* \"#utility.yul\":14014:14067   */\n      tag_191\n      jump\t// in\n    tag_376:\n        /* \"#utility.yul\":14004:14067   */\n      swap2\n      pop\n        /* \"#utility.yul\":13959:14077   */\n      pop\n        /* \"#utility.yul\":13610:14084   */\n      swap3\n      pop\n      swap3\n      swap1\n      pop\n      jump\t// out\n        /* \"#utility.yul\":14090:14270   */\n    tag_60:\n        /* \"#utility.yul\":14138:14215   */\n      0x4e487b7100000000000000000000000000000000000000000000000000000000\n        /* \"#utility.yul\":14135:14136   */\n      0x00\n        /* \"#utility.yul\":14128:14216   */\n      mstore\n        /* \"#utility.yul\":14235:14239   */\n      0x32\n        /* \"#utility.yul\":14232:14233   */\n      0x04\n        /* \"#utility.yul\":14225:14240   */\n      mstore\n        /* \"#utility.yul\":14259:14263   */\n      0x24\n        /* \"#utility.yul\":14256:14257   */\n      0x00\n        /* \"#utility.yul\":14249:14264   */\n      revert\n        /* \"#utility.yul\":14276:14608   */\n    tag_67:\n        /* \"#utility.yul\":14397:14401   */\n      0x00\n        /* \"#utility.yul\":14435:14437   */\n      0x40\n        /* \"#utility.yul\":14424:14433   */\n      dup3\n        /* \"#utility.yul\":14420:14438   */\n      add\n        /* \"#utility.yul\":14412:14438   */\n      swap1\n      pop\n        /* \"#utility.yul\":14448:14519   */\n      tag_379\n        /* \"#utility.yul\":14516:14517   */\n      0x00\n        /* \"#utility.yul\":14505:14514   */\n      dup4\n        /* \"#utility.yul\":14501:14518   */\n      add\n        /* \"#utility.yul\":14492:14498   */\n      dup6\n        /* \"#utility.yul\":14448:14519   */\n      tag_192\n      jump\t// in\n    tag_379:\n        /* \"#utility.yul\":14529:14601   */\n      tag_380\n        /* \"#utility.yul\":14597:14599   */\n      0x20\n        /* \"#utility.yul\":14586:14595   */\n      dup4\n        /* \"#utility.yul\":14582:14600   */\n      add\n        /* \"#utility.yul\":14573:14579   */\n      dup5\n        /* \"#utility.yul\":14529:14601   */\n      tag_192\n      jump\t// in\n    tag_380:\n        /* \"#utility.yul\":14276:14608   */\n      swap4\n      swap3\n      pop\n      pop\n      pop\n      jump\t// out\n        /* \"#utility.yul\":14614:14794   */\n    tag_220:\n        /* \"#utility.yul\":14662:14739   */\n      0x4e487b7100000000000000000000000000000000000000000000000000000000\n        /* \"#utility.yul\":14659:14660   */\n      0x00\n        /* \"#utility.yul\":14652:14740   */\n      mstore\n        /* \"#utility.yul\":14759:14763   */\n      0x11\n        /* \"#utility.yul\":14756:14757   */\n      0x04\n        /* \"#utility.yul\":14749:14764   */\n      mstore\n        /* \"#utility.yul\":14783:14787   */\n      0x24\n        /* \"#utility.yul\":14780:14781   */\n      0x00\n        /* \"#utility.yul\":14773:14788   */\n      revert\n        /* \"#utility.yul\":14800:14994   */\n    tag_72:\n        /* \"#utility.yul\":14840:14844   */\n      0x00\n        /* \"#utility.yul\":14860:14880   */\n      tag_383\n        /* \"#utility.yul\":14878:14879   */\n      dup3\n        /* \"#utility.yul\":14860:14880   */\n      tag_189\n      jump\t// in\n    tag_383:\n        /* \"#utility.yul\":14855:14880   */\n      swap2\n      pop\n        /* \"#utility.yul\":14894:14914   */\n      tag_384\n        /* \"#utility.yul\":14912:14913   */\n      dup4\n        /* \"#utility.yul\":14894:14914   */\n      tag_189\n      jump\t// in\n    tag_384:\n        /* \"#utility.yul\":14889:14914   */\n      swap3\n      pop\n        /* \"#utility.yul\":14938:14939   */\n      dup3\n        /* \"#utility.yul\":14935:14936   */\n      dup3\n        /* \"#utility.yul\":14931:14940   */\n      sub\n        /* \"#utility.yul\":14923:14940   */\n      swap1\n      pop\n        /* \"#utility.yul\":14962:14963   */\n      dup2\n        /* \"#utility.yul\":14956:14960   */\n      dup2\n        /* \"#utility.yul\":14953:14964   */\n      gt\n        /* \"#utility.yul\":14950:14987   */\n      iszero\n      tag_385\n      jumpi\n        /* \"#utility.yul\":14967:14985   */\n      tag_386\n      tag_220\n      jump\t// in\n    tag_386:\n        /* \"#utility.yul\":14950:14987   */\n    tag_385:\n        /* \"#utility.yul\":14800:14994   */\n      swap3\n      swap2\n      pop\n      pop\n      jump\t// out\n        /* \"#utility.yul\":15000:15191   */\n    tag_80:\n        /* \"#utility.yul\":15040:15043   */\n      0x00\n        /* \"#utility.yul\":15059:15079   */\n      tag_388\n        /* \"#utility.yul\":15077:15078   */\n      dup3\n        /* \"#utility.yul\":15059:15079   */\n      tag_189\n      jump\t// in\n    tag_388:\n        /* \"#utility.yul\":15054:15079   */\n      swap2\n      pop\n        /* \"#utility.yul\":15093:15113   */\n      tag_389\n        /* \"#utility.yul\":15111:15112   */\n      dup4\n        /* \"#utility.yul\":15093:15113   */\n      tag_189\n      jump\t// in\n    tag_389:\n        /* \"#utility.yul\":15088:15113   */\n      swap3\n      pop\n        /* \"#utility.yul\":15136:15137   */\n      dup3\n        /* \"#utility.yul\":15133:15134   */\n      dup3\n        /* \"#utility.yul\":15129:15138   */\n      add\n        /* \"#utility.yul\":15122:15138   */\n      swap1\n      pop\n        /* \"#utility.yul\":15157:15160   */\n      dup1\n        /* \"#utility.yul\":15154:15155   */\n      dup3\n        /* \"#utility.yul\":15151:15161   */\n      gt\n        /* \"#utility.yul\":15148:15184   */\n      iszero\n      tag_390\n      jumpi\n        /* \"#utility.yul\":15164:15182   */\n      tag_391\n      tag_220\n      jump\t// in\n    tag_391:\n        /* \"#utility.yul\":15148:15184   */\n    tag_390:\n        /* \"#utility.yul\":15000:15191   */\n      swap3\n      swap2\n      pop\n      pop\n      jump\t// out\n        /* \"#utility.yul\":15197:15639   */\n    tag_88:\n        /* \"#utility.yul\":15346:15350   */\n      0x00\n        /* \"#utility.yul\":15384:15386   */\n      0x60\n        /* \"#utility.yul\":15373:15382   */\n      dup3\n        /* \"#utility.yul\":15369:15387   */\n      add\n        /* \"#utility.yul\":15361:15387   */\n      swap1\n      pop\n        /* \"#utility.yul\":15397:15468   */\n      tag_393\n        /* \"#utility.yul\":15465:15466   */\n      0x00\n        /* \"#utility.yul\":15454:15463   */\n      dup4\n        /* \"#utility.yul\":15450:15467   */\n      add\n        /* \"#utility.yul\":15441:15447   */\n      dup7\n        /* \"#utility.yul\":15397:15468   */\n      tag_185\n      jump\t// in\n    tag_393:\n        /* \"#utility.yul\":15478:15550   */\n      tag_394\n        /* \"#utility.yul\":15546:15548   */\n      0x20\n        /* \"#utility.yul\":15535:15544   */\n      dup4\n        /* \"#utility.yul\":15531:15549   */\n      add\n        /* \"#utility.yul\":15522:15528   */\n      dup6\n        /* \"#utility.yul\":15478:15550   */\n      tag_185\n      jump\t// in\n    tag_394:\n        /* \"#utility.yul\":15560:15632   */\n      tag_395\n        /* \"#utility.yul\":15628:15630   */\n      0x40\n        /* \"#utility.yul\":15617:15626   */\n      dup4\n        /* \"#utility.yul\":15613:15631   */\n      add\n        /* \"#utility.yul\":15604:15610   */\n      dup5\n        /* \"#utility.yul\":15560:15632   */\n      tag_192\n      jump\t// in\n    tag_395:\n        /* \"#utility.yul\":15197:15639   */\n      swap5\n      swap4\n      pop\n      pop\n      pop\n      pop\n      jump\t// out\n        /* \"#utility.yul\":15645:15825   */\n    tag_221:\n        /* \"#utility.yul\":15693:15770   */\n      0x4e487b7100000000000000000000000000000000000000000000000000000000\n        /* \"#utility.yul\":15690:15691   */\n      0x00\n        /* \"#utility.yul\":15683:15771   */\n      mstore\n        /* \"#utility.yul\":15790:15794   */\n      0x22\n        /* \"#utility.yul\":15787:15788   */\n      0x04\n        /* \"#utility.yul\":15780:15795   */\n      mstore\n        /* \"#utility.yul\":15814:15818   */\n      0x24\n        /* \"#utility.yul\":15811:15812   */\n      0x00\n        /* \"#utility.yul\":15804:15819   */\n      revert\n        /* \"#utility.yul\":15831:16151   */\n    tag_107:\n        /* \"#utility.yul\":15875:15881   */\n      0x00\n        /* \"#utility.yul\":15912:15913   */\n      0x02\n        /* \"#utility.yul\":15906:15910   */\n      dup3\n        /* \"#utility.yul\":15902:15914   */\n      div\n        /* \"#utility.yul\":15892:15914   */\n      swap1\n      pop\n        /* \"#utility.yul\":15959:15960   */\n      0x01\n        /* \"#utility.yul\":15953:15957   */\n      dup3\n        /* \"#utility.yul\":15949:15961   */\n      and\n        /* \"#utility.yul\":15980:15998   */\n      dup1\n        /* \"#utility.yul\":15970:16051   */\n      tag_398\n      jumpi\n        /* \"#utility.yul\":16036:16040   */\n      0x7f\n        /* \"#utility.yul\":16028:16034   */\n      dup3\n        /* \"#utility.yul\":16024:16041   */\n      and\n        /* \"#utility.yul\":16014:16041   */\n      swap2\n      pop\n        /* \"#utility.yul\":15970:16051   */\n    tag_398:\n        /* \"#utility.yul\":16098:16100   */\n      0x20\n        /* \"#utility.yul\":16090:16096   */\n      dup3\n        /* \"#utility.yul\":16087:16101   */\n      lt\n        /* \"#utility.yul\":16067:16085   */\n      dup2\n        /* \"#utility.yul\":16064:16102   */\n      sub\n        /* \"#utility.yul\":16061:16145   */\n      tag_399\n      jumpi\n        /* \"#utility.yul\":16117:16135   */\n      tag_400\n      tag_221\n      jump\t// in\n    tag_400:\n        /* \"#utility.yul\":16061:16145   */\n    tag_399:\n        /* \"#utility.yul\":15882:16151   */\n      pop\n        /* \"#utility.yul\":15831:16151   */\n      swap2\n      swap1\n      pop\n      jump\t// out\n        /* \"#utility.yul\":16157:16298   */\n    tag_222:\n        /* \"#utility.yul\":16206:16210   */\n      0x00\n        /* \"#utility.yul\":16229:16232   */\n      dup2\n        /* \"#utility.yul\":16221:16232   */\n      swap1\n      pop\n        /* \"#utility.yul\":16252:16255   */\n      dup2\n        /* \"#utility.yul\":16249:16250   */\n      0x00\n        /* \"#utility.yul\":16242:16256   */\n      mstore\n        /* \"#utility.yul\":16286:16290   */\n      0x20\n        /* \"#utility.yul\":16283:16284   */\n      0x00\n        /* \"#utility.yul\":16273:16291   */\n      keccak256\n        /* \"#utility.yul\":16265:16291   */\n      swap1\n      pop\n        /* \"#utility.yul\":16157:16298   */\n      swap2\n      swap1\n      pop\n      jump\t// out\n        /* \"#utility.yul\":16304:16397   */\n    tag_223:\n        /* \"#utility.yul\":16341:16347   */\n      0x00\n        /* \"#utility.yul\":16388:16390   */\n      0x20\n        /* \"#utility.yul\":16383:16385   */\n      0x1f\n        /* \"#utility.yul\":16376:16381   */\n      dup4\n        /* \"#utility.yul\":16372:16386   */\n      add\n        /* \"#utility.yul\":16368:16391   */\n      div\n        /* \"#utility.yul\":16358:16391   */\n      swap1\n      pop\n        /* \"#utility.yul\":16304:16397   */\n      swap2\n      swap1\n      pop\n      jump\t// out\n        /* \"#utility.yul\":16403:16510   */\n    tag_224:\n        /* \"#utility.yul\":16447:16455   */\n      0x00\n        /* \"#utility.yul\":16497:16502   */\n      dup3\n        /* \"#utility.yul\":16491:16495   */\n      dup3\n        /* \"#utility.yul\":16487:16503   */\n      shl\n        /* \"#utility.yul\":16466:16503   */\n      swap1\n      pop\n        /* \"#utility.yul\":16403:16510   */\n      swap3\n      swap2\n      pop\n      pop\n      jump\t// out\n        /* \"#utility.yul\":16516:16909   */\n    tag_225:\n        /* \"#utility.yul\":16585:16591   */\n      0x00\n        /* \"#utility.yul\":16635:16636   */\n      0x08\n        /* \"#utility.yul\":16623:16633   */\n      dup4\n        /* \"#utility.yul\":16619:16637   */\n      mul\n        /* \"#utility.yul\":16658:16755   */\n      tag_405\n        /* \"#utility.yul\":16688:16754   */\n      0xffffffffffffffffffffffffffffffffffffffffffffffffffffffffffffffff\n        /* \"#utility.yul\":16677:16686   */\n      dup3\n        /* \"#utility.yul\":16658:16755   */\n      tag_224\n      jump\t// in\n    tag_405:\n        /* \"#utility.yul\":16776:16815   */\n      tag_406\n        /* \"#utility.yul\":16806:16814   */\n      dup7\n        /* \"#utility.yul\":16795:16804   */\n      dup4\n        /* \"#utility.yul\":16776:16815   */\n      tag_224\n      jump\t// in\n    tag_406:\n        /* \"#utility.yul\":16764:16815   */\n      swap6\n      pop\n        /* \"#utility.yul\":16848:16852   */\n      dup1\n        /* \"#utility.yul\":16844:16853   */\n      not\n        /* \"#utility.yul\":16837:16842   */\n      dup5\n        /* \"#utility.yul\":16833:16854   */\n      and\n        /* \"#utility.yul\":16824:16854   */\n      swap4\n      pop\n        /* \"#utility.yul\":16897:16901   */\n      dup1\n        /* \"#utility.yul\":16887:16895   */\n      dup7\n        /* \"#utility.yul\":16883:16902   */\n      and\n        /* \"#utility.yul\":16876:16881   */\n      dup5\n        /* \"#utility.yul\":16873:16903   */\n      or\n        /* \"#utility.yul\":16863:16903   */\n      swap3\n      pop\n        /* \"#utility.yul\":16592:16909   */\n      pop\n      pop\n        /* \"#utility.yul\":16516:16909   */\n      swap4\n      swap3\n      pop\n      pop\n      pop\n      jump\t// out\n        /* \"#utility.yul\":16915:16975   */\n    tag_226:\n        /* \"#utility.yul\":16943:16946   */\n      0x00\n        /* \"#utility.yul\":16964:16969   */\n      dup2\n        /* \"#utility.yul\":16957:16969   */\n      swap1\n      pop\n        /* \"#utility.yul\":16915:16975   */\n      swap2\n      swap1\n      pop\n      jump\t// out\n        /* \"#utility.yul\":16981:17123   */\n    tag_227:\n        /* \"#utility.yul\":17031:17040   */\n      0x00\n        /* \"#utility.yul\":17064:17117   */\n      tag_409\n        /* \"#utility.yul\":17082:17116   */\n      tag_410\n        /* \"#utility.yul\":17091:17115   */\n      tag_411\n        /* \"#utility.yul\":17109:17114   */\n      dup5\n        /* \"#utility.yul\":17091:17115   */\n      tag_189\n      jump\t// in\n    tag_411:\n        /* \"#utility.yul\":17082:17116   */\n      tag_226\n      jump\t// in\n    tag_410:\n        /* \"#utility.yul\":17064:17117   */\n      tag_189\n      jump\t// in\n    tag_409:\n        /* \"#utility.yul\":17051:17117   */\n      swap1\n      pop\n        /* \"#utility.yul\":16981:17123   */\n      swap2\n      swap1\n      pop\n      jump\t// out\n        /* \"#utility.yul\":17129:17204   */\n    tag_228:\n        /* \"#utility.yul\":17172:17175   */\n      0x00\n        /* \"#utility.yul\":17193:17198   */\n      dup2\n        /* \"#utility.yul\":17186:17198   */\n      swap1\n      pop\n        /* \"#utility.yul\":17129:17204   */\n      swap2\n      swap1\n      pop\n      jump\t// out\n        /* \"#utility.yul\":17210:17479   */\n    tag_229:\n        /* \"#utility.yul\":17320:17359   */\n      tag_414\n        /* \"#utility.yul\":17351:17358   */\n      dup4\n        /* \"#utility.yul\":17320:17359   */\n      tag_227\n      jump\t// in\n    tag_414:\n        /* \"#utility.yul\":17381:17472   */\n      tag_415\n        /* \"#utility.yul\":17430:17471   */\n      tag_416\n        /* \"#utility.yul\":17454:17470   */\n      dup3\n        /* \"#utility.yul\":17430:17471   */\n      tag_228\n      jump\t// in\n    tag_416:\n        /* \"#utility.yul\":17422:17428   */\n      dup5\n        /* \"#utility.yul\":17415:17419   */\n      dup5\n        /* \"#utility.yul\":17409:17420   */\n      sload\n        /* \"#utility.yul\":17381:17472   */\n      tag_225\n      jump\t// in\n    tag_415:\n        /* \"#utility.yul\":17375:17379   */\n      dup3\n        /* \"#utility.yul\":17368:17473   */\n      sstore\n        /* \"#utility.yul\":17286:17479   */\n      pop\n        /* \"#utility.yul\":17210:17479   */\n      pop\n      pop\n      pop\n      jump\t// out\n        /* \"#utility.yul\":17485:17558   */\n    tag_230:\n        /* \"#utility.yul\":17530:17533   */\n      0x00\n        /* \"#utility.yul\":17485:17558   */\n      swap1\n      jump\t// out\n        /* \"#utility.yul\":17564:17753   */\n    tag_231:\n        /* \"#utility.yul\":17641:17673   */\n      tag_419\n      tag_230\n      jump\t// in\n    tag_419:\n        /* \"#utility.yul\":17682:17747   */\n      tag_420\n        /* \"#utility.yul\":17740:17746   */\n      dup2\n        /* \"#utility.yul\":17732:17738   */\n      dup5\n        /* \"#utility.yul\":17726:17730   */\n      dup5\n        /* \"#utility.yul\":17682:17747   */\n      tag_229\n      jump\t// in\n    tag_420:\n        /* \"#utility.yul\":17617:17753   */\n      pop\n        /* \"#utility.yul\":17564:17753   */\n      pop\n      pop\n      jump\t// out\n        /* \"#utility.yul\":17759:17945   */\n    tag_232:\n        /* \"#utility.yul\":17819:17939   */\n    tag_422:\n        /* \"#utility.yul\":17836:17839   */\n      dup2\n        /* \"#utility.yul\":17829:17834   */\n      dup2\n        /* \"#utility.yul\":17826:17840   */\n      lt\n        /* \"#utility.yul\":17819:17939   */\n      iszero\n      tag_424\n      jumpi\n        /* \"#utility.yul\":17890:17929   */\n      tag_425\n        /* \"#utility.yul\":17927:17928   */\n      0x00\n        /* \"#utility.yul\":17920:17925   */\n      dup3\n        /* \"#utility.yul\":17890:17929   */\n      tag_231\n      jump\t// in\n    tag_425:\n        /* \"#utility.yul\":17863:17864   */\n      0x01\n        /* \"#utility.yul\":17856:17861   */\n      dup2\n        /* \"#utility.yul\":17852:17865   */\n      add\n        /* \"#utility.yul\":17843:17865   */\n      swap1\n      pop\n        /* \"#utility.yul\":17819:17939   */\n      jump(tag_422)\n    tag_424:\n        /* \"#utility.yul\":17759:17945   */\n      pop\n      pop\n      jump\t// out\n        /* \"#utility.yul\":17951:18494   */\n    tag_233:\n        /* \"#utility.yul\":18052:18054   */\n      0x1f\n        /* \"#utility.yul\":18047:18050   */\n      dup3\n        /* \"#utility.yul\":18044:18055   */\n      gt\n        /* \"#utility.yul\":18041:18487   */\n      iszero\n      tag_427\n      jumpi\n        /* \"#utility.yul\":18086:18124   */\n      tag_428\n        /* \"#utility.yul\":18118:18123   */\n      dup2\n        /* \"#utility.yul\":18086:18124   */\n      tag_222\n      jump\t// in\n    tag_428:\n        /* \"#utility.yul\":18170:18199   */\n      tag_429\n        /* \"#utility.yul\":18188:18198   */\n      dup5\n        /* \"#utility.yul\":18170:18199   */\n      tag_223\n      jump\t// in\n    tag_429:\n        /* \"#utility.yul\":18160:18168   */\n      dup2\n        /* \"#utility.yul\":18156:18200   */\n      add\n        /* \"#utility.yul\":18353:18355   */\n      0x20\n        /* \"#utility.yul\":18341:18351   */\n      dup6\n        /* \"#utility.yul\":18338:18356   */\n      lt\n        /* \"#utility.yul\":18335:18384   */\n      iszero\n      tag_430\n      jumpi\n        /* \"#utility.yul\":18374:18382   */\n      dup2\n        /* \"#utility.yul\":18359:18382   */\n      swap1\n      pop\n        /* \"#utility.yul\":18335:18384   */\n    tag_430:\n        /* \"#utility.yul\":18397:18477   */\n      tag_431\n        /* \"#utility.yul\":18453:18475   */\n      tag_432\n        /* \"#utility.yul\":18471:18474   */\n      dup6\n        /* \"#utility.yul\":18453:18475   */\n      tag_223\n      jump\t// in\n    tag_432:\n        /* \"#utility.yul\":18443:18451   */\n      dup4\n        /* \"#utility.yul\":18439:18476   */\n      add\n        /* \"#utility.yul\":18426:18437   */\n      dup3\n        /* \"#utility.yul\":18397:18477   */\n      tag_232\n      jump\t// in\n    tag_431:\n        /* \"#utility.yul\":18056:18487   */\n      pop\n      pop\n        /* \"#utility.yul\":18041:18487   */\n    tag_427:\n        /* \"#utility.yul\":17951:18494   */\n      pop\n      pop\n      pop\n      jump\t// out\n        /* \"#utility.yul\":18500:18617   */\n    tag_234:\n        /* \"#utility.yul\":18554:18562   */\n      0x00\n        /* \"#utility.yul\":18604:18609   */\n      dup3\n        /* \"#utility.yul\":18598:18602   */\n      dup3\n        /* \"#utility.yul\":18594:18610   */\n      shr\n        /* \"#utility.yul\":18573:18610   */\n      swap1\n      pop\n        /* \"#utility.yul\":18500:18617   */\n      swap3\n      swap2\n      pop\n      pop\n      jump\t// out\n        /* \"#utility.yul\":18623:18792   */\n    tag_235:\n        /* \"#utility.yul\":18667:18673   */\n      0x00\n        /* \"#utility.yul\":18700:18751   */\n      tag_435\n        /* \"#utility.yul\":18748:18749   */\n      0x00\n        /* \"#utility.yul\":18744:18750   */\n      not\n        /* \"#utility.yul\":18736:18741   */\n      dup5\n        /* \"#utility.yul\":18733:18734   */\n      0x08\n        /* \"#utility.yul\":18729:18742   */\n      mul\n        /* \"#utility.yul\":18700:18751   */\n      tag_234\n      jump\t// in\n    tag_435:\n        /* \"#utility.yul\":18696:18752   */\n      not\n        /* \"#utility.yul\":18781:18785   */\n      dup1\n        /* \"#utility.yul\":18775:18779   */\n      dup4\n        /* \"#utility.yul\":18771:18786   */\n      and\n        /* \"#utility.yul\":18761:18786   */\n      swap2\n      pop\n        /* \"#utility.yul\":18674:18792   */\n      pop\n        /* \"#utility.yul\":18623:18792   */\n      swap3\n      swap2\n      pop\n      pop\n      jump\t// out\n        /* \"#utility.yul\":18797:19092   */\n    tag_236:\n        /* \"#utility.yul\":18873:18877   */\n      0x00\n        /* \"#utility.yul\":19019:19048   */\n      tag_437\n        /* \"#utility.yul\":19044:19047   */\n      dup4\n        /* \"#utility.yul\":19038:19042   */\n      dup4\n        /* \"#utility.yul\":19019:19048   */\n      tag_235\n      jump\t// in\n    tag_437:\n        /* \"#utility.yul\":19011:19048   */\n      swap2\n      pop\n        /* \"#utility.yul\":19081:19084   */\n      dup3\n        /* \"#utility.yul\":19078:19079   */\n      0x02\n        /* \"#utility.yul\":19074:19085   */\n      mul\n        /* \"#utility.yul\":19068:19072   */\n      dup3\n        /* \"#utility.yul\":19065:19086   */\n      or\n        /* \"#utility.yul\":19057:19086   */\n      swap1\n      pop\n        /* \"#utility.yul\":18797:19092   */\n      swap3\n      swap2\n      pop\n      pop\n      jump\t// out\n        /* \"#utility.yul\":19097:20492   */\n    tag_120:\n        /* \"#utility.yul\":19214:19251   */\n      tag_439\n        /* \"#utility.yul\":19247:19250   */\n      dup3\n        /* \"#utility.yul\":19214:19251   */\n      tag_193\n      jump\t// in\n    tag_439:\n        /* \"#utility.yul\":19316:19334   */\n      0xffffffffffffffff\n        /* \"#utility.yul\":19308:19314   */\n      dup2\n        /* \"#utility.yul\":19305:19335   */\n      gt\n        /* \"#utility.yul\":19302:19358   */\n      iszero\n      tag_440\n      jumpi\n        /* \"#utility.yul\":19338:19356   */\n      tag_441\n      tag_202\n      jump\t// in\n    tag_441:\n        /* \"#utility.yul\":19302:19358   */\n    tag_440:\n        /* \"#utility.yul\":19382:19420   */\n      tag_442\n        /* \"#utility.yul\":19414:19418   */\n      dup3\n        /* \"#utility.yul\":19408:19419   */\n      sload\n        /* \"#utility.yul\":19382:19420   */\n      tag_107\n      jump\t// in\n    tag_442:\n        /* \"#utility.yul\":19467:19534   */\n      tag_443\n        /* \"#utility.yul\":19527:19533   */\n      dup3\n        /* \"#utility.yul\":19519:19525   */\n      dup3\n        /* \"#utility.yul\":19513:19517   */\n      dup6\n        /* \"#utility.yul\":19467:19534   */\n      tag_233\n      jump\t// in\n    tag_443:\n        /* \"#utility.yul\":19561:19562   */\n      0x00\n        /* \"#utility.yul\":19585:19589   */\n      0x20\n        /* \"#utility.yul\":19572:19589   */\n      swap1\n      pop\n        /* \"#utility.yul\":19617:19619   */\n      0x1f\n        /* \"#utility.yul\":19609:19615   */\n      dup4\n        /* \"#utility.yul\":19606:19620   */\n      gt\n        /* \"#utility.yul\":19634:19635   */\n      0x01\n        /* \"#utility.yul\":19629:20247   */\n      dup2\n      eq\n      tag_445\n      jumpi\n        /* \"#utility.yul\":20291:20292   */\n      0x00\n        /* \"#utility.yul\":20308:20314   */\n      dup5\n        /* \"#utility.yul\":20305:20382   */\n      iszero\n      tag_446\n      jumpi\n        /* \"#utility.yul\":20357:20366   */\n      dup3\n        /* \"#utility.yul\":20352:20355   */\n      dup8\n        /* \"#utility.yul\":20348:20367   */\n      add\n        /* \"#utility.yul\":20342:20368   */\n      mload\n        /* \"#utility.yul\":20333:20368   */\n      swap1\n      pop\n        /* \"#utility.yul\":20305:20382   */\n    tag_446:\n        /* \"#utility.yul\":20408:20475   */\n      tag_447\n        /* \"#utility.yul\":20468:20474   */\n      dup6\n        /* \"#utility.yul\":20461:20466   */\n      dup3\n        /* \"#utility.yul\":20408:20475   */\n      tag_236\n      jump\t// in\n    tag_447:\n        /* \"#utility.yul\":20402:20406   */\n      dup7\n        /* \"#utility.yul\":20395:20476   */\n      sstore\n        /* \"#utility.yul\":20264:20486   */\n      pop\n        /* \"#utility.yul\":19599:20486   */\n      jump(tag_444)\n        /* \"#utility.yul\":19629:20247   */\n    tag_445:\n        /* \"#utility.yul\":19681:19685   */\n      0x1f\n        /* \"#utility.yul\":19677:19686   */\n      not\n        /* \"#utility.yul\":19669:19675   */\n      dup5\n        /* \"#utility.yul\":19665:19687   */\n      and\n        /* \"#utility.yul\":19715:19752   */\n      tag_448\n        /* \"#utility.yul\":19747:19751   */\n      dup7\n        /* \"#utility.yul\":19715:19752   */\n      tag_222\n      jump\t// in\n    tag_448:\n        /* \"#utility.yul\":19774:19775   */\n      0x00\n        /* \"#utility.yul\":19788:19996   */\n    tag_449:\n        /* \"#utility.yul\":19802:19809   */\n      dup3\n        /* \"#utility.yul\":19799:19800   */\n      dup2\n        /* \"#utility.yul\":19796:19810   */\n      lt\n        /* \"#utility.yul\":19788:19996   */\n      iszero\n      tag_451\n      jumpi\n        /* \"#utility.yul\":19881:19890   */\n      dup5\n        /* \"#utility.yul\":19876:19879   */\n      dup10\n        /* \"#utility.yul\":19872:19891   */\n      add\n        /* \"#utility.yul\":19866:19892   */\n      mload\n        /* \"#utility.yul\":19858:19864   */\n      dup3\n        /* \"#utility.yul\":19851:19893   */\n      sstore\n        /* \"#utility.yul\":19932:19933   */\n      0x01\n        /* \"#utility.yul\":19924:19930   */\n      dup3\n        /* \"#utility.yul\":19920:19934   */\n      add\n        /* \"#utility.yul\":19910:19934   */\n      swap2\n      pop\n        /* \"#utility.yul\":19979:19981   */\n      0x20\n        /* \"#utility.yul\":19968:19977   */\n      dup6\n        /* \"#utility.yul\":19964:19982   */\n      add\n        /* \"#utility.yul\":19951:19982   */\n      swap5\n      pop\n        /* \"#utility.yul\":19825:19829   */\n      0x20\n        /* \"#utility.yul\":19822:19823   */\n      dup2\n        /* \"#utility.yul\":19818:19830   */\n      add\n        /* \"#utility.yul\":19813:19830   */\n      swap1\n      pop\n        /* \"#utility.yul\":19788:19996   */\n      jump(tag_449)\n    tag_451:\n        /* \"#utility.yul\":20024:20030   */\n      dup7\n        /* \"#utility.yul\":20015:20022   */\n      dup4\n        /* \"#utility.yul\":20012:20031   */\n      lt\n        /* \"#utility.yul\":20009:20188   */\n      iszero\n      tag_452\n      jumpi\n        /* \"#utility.yul\":20082:20091   */\n      dup5\n        /* \"#utility.yul\":20077:20080   */\n      dup10\n        /* \"#utility.yul\":20073:20092   */\n      add\n        /* \"#utility.yul\":20067:20093   */\n      mload\n        /* \"#utility.yul\":20125:20173   */\n      tag_453\n        /* \"#utility.yul\":20167:20171   */\n      0x1f\n        /* \"#utility.yul\":20159:20165   */\n      dup10\n        /* \"#utility.yul\":20155:20172   */\n      and\n        /* \"#utility.yul\":20144:20153   */\n      dup3\n        /* \"#utility.yul\":20125:20173   */\n      tag_235\n      jump\t// in\n    tag_453:\n        /* \"#utility.yul\":20117:20123   */\n      dup4\n        /* \"#utility.yul\":20110:20174   */\n      sstore\n        /* \"#utility.yul\":20032:20188   */\n      pop\n        /* \"#utility.yul\":20009:20188   */\n    tag_452:\n        /* \"#utility.yul\":20234:20235   */\n      0x01\n        /* \"#utility.yul\":20230:20231   */\n      0x02\n        /* \"#utility.yul\":20222:20228   */\n      dup9\n        /* \"#utility.yul\":20218:20232   */\n      mul\n        /* \"#utility.yul\":20214:20236   */\n      add\n        /* \"#utility.yul\":20208:20212   */\n      dup9\n        /* \"#utility.yul\":20201:20237   */\n      sstore\n        /* \"#utility.yul\":19636:20247   */\n      pop\n      pop\n      pop\n        /* \"#utility.yul\":19599:20486   */\n    tag_444:\n      pop\n        /* \"#utility.yul\":19189:20492   */\n      pop\n      pop\n      pop\n        /* \"#utility.yul\":19097:20492   */\n      pop\n      pop\n      jump\t// out\n        /* \"#utility.yul\":20498:20731   */\n    tag_123:\n        /* \"#utility.yul\":20537:20540   */\n      0x00\n        /* \"#utility.yul\":20560:20584   */\n      tag_455\n        /* \"#utility.yul\":20578:20583   */\n      dup3\n        /* \"#utility.yul\":20560:20584   */\n      tag_189\n      jump\t// in\n    tag_455:\n        /* \"#utility.yul\":20551:20584   */\n      swap2\n      pop\n        /* \"#utility.yul\":20606:20672   */\n      0xffffffffffffffffffffffffffffffffffffffffffffffffffffffffffffffff\n        /* \"#utility.yul\":20599:20604   */\n      dup3\n        /* \"#utility.yul\":20596:20673   */\n      sub\n        /* \"#utility.yul\":20593:20696   */\n      tag_456\n      jumpi\n        /* \"#utility.yul\":20676:20694   */\n      tag_457\n      tag_220\n      jump\t// in\n    tag_457:\n        /* \"#utility.yul\":20593:20696   */\n    tag_456:\n        /* \"#utility.yul\":20723:20724   */\n      0x01\n        /* \"#utility.yul\":20716:20721   */\n      dup3\n        /* \"#utility.yul\":20712:20725   */\n      add\n        /* \"#utility.yul\":20705:20725   */\n      swap1\n      pop\n        /* \"#utility.yul\":20498:20731   */\n      swap2\n      swap1\n      pop\n      jump\t// out\n        /* \"#utility.yul\":20737:20910   */\n    tag_237:\n        /* \"#utility.yul\":20877:20902   */\n      0x5a616d657374616e656e6563206e656578697374756a65000000000000000000\n        /* \"#utility.yul\":20873:20874   */\n      0x00\n        /* \"#utility.yul\":20865:20871   */\n      dup3\n        /* \"#utility.yul\":20861:20875   */\n      add\n        /* \"#utility.yul\":20854:20903   */\n      mstore\n        /* \"#utility.yul\":20737:20910   */\n      pop\n      jump\t// out\n        /* \"#utility.yul\":20916:21282   */\n    tag_238:\n        /* \"#utility.yul\":21058:21061   */\n      0x00\n        /* \"#utility.yul\":21079:21146   */\n      tag_460\n        /* \"#utility.yul\":21143:21145   */\n      0x17\n        /* \"#utility.yul\":21138:21141   */\n      dup4\n        /* \"#utility.yul\":21079:21146   */\n      tag_194\n      jump\t// in\n    tag_460:\n        /* \"#utility.yul\":21072:21146   */\n      swap2\n      pop\n        /* \"#utility.yul\":21155:21248   */\n      tag_461\n        /* \"#utility.yul\":21244:21247   */\n      dup3\n        /* \"#utility.yul\":21155:21248   */\n      tag_237\n      jump\t// in\n    tag_461:\n        /* \"#utility.yul\":21273:21275   */\n      0x20\n        /* \"#utility.yul\":21268:21271   */\n      dup3\n        /* \"#utility.yul\":21264:21276   */\n      add\n        /* \"#utility.yul\":21257:21276   */\n      swap1\n      pop\n        /* \"#utility.yul\":20916:21282   */\n      swap2\n      swap1\n      pop\n      jump\t// out\n        /* \"#utility.yul\":21288:21707   */\n    tag_175:\n        /* \"#utility.yul\":21454:21458   */\n      0x00\n        /* \"#utility.yul\":21492:21494   */\n      0x20\n        /* \"#utility.yul\":21481:21490   */\n      dup3\n        /* \"#utility.yul\":21477:21495   */\n      add\n        /* \"#utility.yul\":21469:21495   */\n      swap1\n      pop\n        /* \"#utility.yul\":21541:21550   */\n      dup2\n        /* \"#utility.yul\":21535:21539   */\n      dup2\n        /* \"#utility.yul\":21531:21551   */\n      sub\n        /* \"#utility.yul\":21527:21528   */\n      0x00\n        /* \"#utility.yul\":21516:21525   */\n      dup4\n        /* \"#utility.yul\":21512:21529   */\n      add\n        /* \"#utility.yul\":21505:21552   */\n      mstore\n        /* \"#utility.yul\":21569:21700   */\n      tag_463\n        /* \"#utility.yul\":21695:21699   */\n      dup2\n        /* \"#utility.yul\":21569:21700   */\n      tag_238\n      jump\t// in\n    tag_463:\n        /* \"#utility.yul\":21561:21700   */\n      swap1\n      pop\n        /* \"#utility.yul\":21288:21707   */\n      swap2\n      swap1\n      pop\n      jump\t// out\n\n    auxdata: 0xa2646970667358221220f92d29885a25fe6301a9284c89e9521341e6fdef1a2c93cfef81377ce1b393c364736f6c63430008160033\n}\n",
				"bytecode": {
					"linkReferences": {},
					"object": "60806040526001600355348015610014575f80fd5b50335f806101000a81548173ffffffffffffffffffffffffffffffffffffffff021916908373ffffffffffffffffffffffffffffffffffffffff16021790555061188d806100615f395ff3fe608060405234801561000f575f80fd5b506004361061009c575f3560e01c806332a42c0e1161006457806332a42c0e1461015a578063755a8f6b14610176578063949d9add14610194578063ad6edbfc146101b2578063fd65b57d146101ce5761009c565b806307546172146100a057806322be3c13146100be57806326661b3a146100da57806327e235e31461010e5780632ebc3fbd1461013e575b5f80fd5b6100a86101ea565b6040516100b59190610d65565b60405180910390f35b6100d860048036038101906100d39190610dc2565b61020d565b005b6100f460048036038101906100ef9190610dc2565b6104f2565b604051610105959493929190610e86565b60405180910390f35b61012860048036038101906101239190610f0f565b6106fc565b6040516101359190610f3a565b60405180910390f35b6101586004803603810190610153919061107f565b610711565b005b610174600480360381019061016f919061111b565b61081b565b005b61017e61091a565b60405161018b9190610f3a565b60405180910390f35b61019c610926565b6040516101a99190611365565b60405180910390f35b6101cc60048036038101906101c79190611385565b610b0a565b005b6101e860048036038101906101e39190610dc2565b610bb7565b005b5f8054906101000a900473ffffffffffffffffffffffffffffffffffffffff1681565b5f61021782610c3b565b905060015f3373ffffffffffffffffffffffffffffffffffffffff1673ffffffffffffffffffffffffffffffffffffffff1681526020019081526020015f20546002828154811061026b5761026a6113c3565b5b905f5260205f2090600502016003015411156103205760028181548110610295576102946113c3565b5b905f5260205f2090600502016003015460015f3373ffffffffffffffffffffffffffffffffffffffff1673ffffffffffffffffffffffffffffffffffffffff1681526020019081526020015f20546040517fc1ef90d20000000000000000000000000000000000000000000000000000000081526004016103179291906113f0565b60405180910390fd5b60028181548110610334576103336113c3565b5b905f5260205f2090600502016003015460015f3373ffffffffffffffffffffffffffffffffffffffff1673ffffffffffffffffffffffffffffffffffffffff1681526020019081526020015f205f82825461038f9190611444565b92505081905550600281815481106103aa576103a96113c3565b5b905f5260205f2090600502016003015460015f600284815481106103d1576103d06113c3565b5b905f5260205f2090600502016004015f9054906101000a900473ffffffffffffffffffffffffffffffffffffffff1673ffffffffffffffffffffffffffffffffffffffff1673ffffffffffffffffffffffffffffffffffffffff1681526020019081526020015f205f8282546104479190611477565b925050819055507f3990db2d31862302a685e8086b5755072a6e2b5b780af1ee81ece35ee3cd33453360028381548110610484576104836113c3565b5b905f5260205f2090600502016004015f9054906101000a900473ffffffffffffffffffffffffffffffffffffffff16600284815481106104c7576104c66113c3565b5b905f5260205f209060050201600301546040516104e6939291906114aa565b60405180910390a15050565b5f6060805f805f61050287610c3b565b905060028181548110610518576105176113c3565b5b905f5260205f2090600502015f01546002828154811061053b5761053a6113c3565b5b905f5260205f2090600502016001016002838154811061055e5761055d6113c3565b5b905f5260205f20906005020160020160028481548110610581576105806113c3565b5b905f5260205f20906005020160030154600285815481106105a5576105a46113c3565b5b905f5260205f2090600502016004015f9054906101000a900473ffffffffffffffffffffffffffffffffffffffff168380546105e09061150c565b80601f016020809104026020016040519081016040528092919081815260200182805461060c9061150c565b80156106575780601f1061062e57610100808354040283529160200191610657565b820191905f5260205f20905b81548152906001019060200180831161063a57829003601f168201915b5050505050935082805461066a9061150c565b80601f01602080910402602001604051908101604052809291908181526020018280546106969061150c565b80156106e15780601f106106b8576101008083540402835291602001916106e1565b820191905f5260205f20905b8154815290600101906020018083116106c457829003601f168201915b50505050509250955095509550955095505091939590929450565b6001602052805f5260405f205f915090505481565b60026040518060a0016040528060035481526020018681526020018581526020018481526020018373ffffffffffffffffffffffffffffffffffffffff16815250908060018154018082558091505060019003905f5260205f2090600502015f909190919091505f820151815f0155602082015181600101908161079591906116d9565b5060408201518160020190816107ab91906116d9565b50606082015181600301556080820151816004015f6101000a81548173ffffffffffffffffffffffffffffffffffffffff021916908373ffffffffffffffffffffffffffffffffffffffff160217905550505060035f815480929190610810906117a8565b919050555050505050565b5f61082586610c3b565b9050846002828154811061083c5761083b6113c3565b5b905f5260205f209060050201600101908161085791906116d9565b50836002828154811061086d5761086c6113c3565b5b905f5260205f209060050201600201908161088891906116d9565b50826002828154811061089e5761089d6113c3565b5b905f5260205f2090600502016003018190555081600282815481106108c6576108c56113c3565b5b905f5260205f2090600502016004015f6101000a81548173ffffffffffffffffffffffffffffffffffffffff021916908373ffffffffffffffffffffffffffffffffffffffff160217905550505050505050565b5f600280549050905090565b60606002805480602002602001604051908101604052809291908181526020015f905b82821015610b01578382905f5260205f2090600502016040518060a00160405290815f82015481526020016001820180546109839061150c565b80601f01602080910402602001604051908101604052809291908181526020018280546109af9061150c565b80156109fa5780601f106109d1576101008083540402835291602001916109fa565b820191905f5260205f20905b8154815290600101906020018083116109dd57829003601f168201915b50505050508152602001600282018054610a139061150c565b80601f0160208091040260200160405190810160405280929190818152602001828054610a3f9061150c565b8015610a8a5780601f10610a6157610100808354040283529160200191610a8a565b820191905f5260205f20905b815481529060010190602001808311610a6d57829003601f168201915b5050505050815260200160038201548152602001600482015f9054906101000a900473ffffffffffffffffffffffffffffffffffffffff1673ffffffffffffffffffffffffffffffffffffffff1673ffffffffffffffffffffffffffffffffffffffff168152505081526020019060010190610949565b50505050905090565b5f8054906101000a900473ffffffffffffffffffffffffffffffffffffffff1673ffffffffffffffffffffffffffffffffffffffff163373ffffffffffffffffffffffffffffffffffffffff1614610b60575f80fd5b8060015f8473ffffffffffffffffffffffffffffffffffffffff1673ffffffffffffffffffffffffffffffffffffffff1681526020019081526020015f205f828254610bac9190611477565b925050819055505050565b5f610bc182610c3b565b905060028181548110610bd757610bd66113c3565b5b905f5260205f2090600502015f8082015f9055600182015f610bf99190610cce565b600282015f610c089190610cce565b600382015f9055600482015f6101000a81549073ffffffffffffffffffffffffffffffffffffffff021916905550505050565b5f805f90505b600280549050811015610c8d578260028281548110610c6357610c626113c3565b5b905f5260205f2090600502015f015403610c805780915050610cc9565b8080600101915050610c41565b506040517f08c379a0000000000000000000000000000000000000000000000000000000008152600401610cc090611839565b60405180910390fd5b919050565b508054610cda9061150c565b5f825580601f10610ceb5750610d08565b601f0160209004905f5260205f2090810190610d079190610d0b565b5b50565b5b80821115610d22575f815f905550600101610d0c565b5090565b5f73ffffffffffffffffffffffffffffffffffffffff82169050919050565b5f610d4f82610d26565b9050919050565b610d5f81610d45565b82525050565b5f602082019050610d785f830184610d56565b92915050565b5f604051905090565b5f80fd5b5f80fd5b5f819050919050565b610da181610d8f565b8114610dab575f80fd5b50565b5f81359050610dbc81610d98565b92915050565b5f60208284031215610dd757610dd6610d87565b5b5f610de484828501610dae565b91505092915050565b610df681610d8f565b82525050565b5f81519050919050565b5f82825260208201905092915050565b5f5b83811015610e33578082015181840152602081019050610e18565b5f8484015250505050565b5f601f19601f8301169050919050565b5f610e5882610dfc565b610e628185610e06565b9350610e72818560208601610e16565b610e7b81610e3e565b840191505092915050565b5f60a082019050610e995f830188610ded565b8181036020830152610eab8187610e4e565b90508181036040830152610ebf8186610e4e565b9050610ece6060830185610ded565b610edb6080830184610d56565b9695505050505050565b610eee81610d45565b8114610ef8575f80fd5b50565b5f81359050610f0981610ee5565b92915050565b5f60208284031215610f2457610f23610d87565b5b5f610f3184828501610efb565b91505092915050565b5f602082019050610f4d5f830184610ded565b92915050565b5f80fd5b5f80fd5b7f4e487b71000000000000000000000000000000000000000000000000000000005f52604160045260245ffd5b610f9182610e3e565b810181811067ffffffffffffffff82111715610fb057610faf610f5b565b5b80604052505050565b5f610fc2610d7e565b9050610fce8282610f88565b919050565b5f67ffffffffffffffff821115610fed57610fec610f5b565b5b610ff682610e3e565b9050602081019050919050565b828183375f83830152505050565b5f61102361101e84610fd3565b610fb9565b90508281526020810184848401111561103f5761103e610f57565b5b61104a848285611003565b509392505050565b5f82601f83011261106657611065610f53565b5b8135611076848260208601611011565b91505092915050565b5f805f806080858703121561109757611096610d87565b5b5f85013567ffffffffffffffff8111156110b4576110b3610d8b565b5b6110c087828801611052565b945050602085013567ffffffffffffffff8111156110e1576110e0610d8b565b5b6110ed87828801611052565b93505060406110fe87828801610dae565b925050606061110f87828801610efb565b91505092959194509250565b5f805f805f60a0868803121561113457611133610d87565b5b5f61114188828901610dae565b955050602086013567ffffffffffffffff81111561116257611161610d8b565b5b61116e88828901611052565b945050604086013567ffffffffffffffff81111561118f5761118e610d8b565b5b61119b88828901611052565b93505060606111ac88828901610dae565b92505060806111bd88828901610efb565b9150509295509295909350565b5f81519050919050565b5f82825260208201905092915050565b5f819050602082019050919050565b6111fc81610d8f565b82525050565b5f82825260208201905092915050565b5f61121c82610dfc565b6112268185611202565b9350611236818560208601610e16565b61123f81610e3e565b840191505092915050565b61125381610d45565b82525050565b5f60a083015f83015161126e5f8601826111f3565b50602083015184820360208601526112868282611212565b915050604083015184820360408601526112a08282611212565b91505060608301516112b560608601826111f3565b5060808301516112c8608086018261124a565b508091505092915050565b5f6112de8383611259565b905092915050565b5f602082019050919050565b5f6112fc826111ca565b61130681856111d4565b935083602082028501611318856111e4565b805f5b85811015611353578484038952815161133485826112d3565b945061133f836112e6565b925060208a0199505060018101905061131b565b50829750879550505050505092915050565b5f6020820190508181035f83015261137d81846112f2565b905092915050565b5f806040838503121561139b5761139a610d87565b5b5f6113a885828601610efb565b92505060206113b985828601610dae565b9150509250929050565b7f4e487b71000000000000000000000000000000000000000000000000000000005f52603260045260245ffd5b5f6040820190506114035f830185610ded565b6114106020830184610ded565b9392505050565b7f4e487b71000000000000000000000000000000000000000000000000000000005f52601160045260245ffd5b5f61144e82610d8f565b915061145983610d8f565b925082820390508181111561147157611470611417565b5b92915050565b5f61148182610d8f565b915061148c83610d8f565b92508282019050808211156114a4576114a3611417565b5b92915050565b5f6060820190506114bd5f830186610d56565b6114ca6020830185610d56565b6114d76040830184610ded565b949350505050565b7f4e487b71000000000000000000000000000000000000000000000000000000005f52602260045260245ffd5b5f600282049050600182168061152357607f821691505b602082108103611536576115356114df565b5b50919050565b5f819050815f5260205f209050919050565b5f6020601f8301049050919050565b5f82821b905092915050565b5f600883026115987fffffffffffffffffffffffffffffffffffffffffffffffffffffffffffffffff8261155d565b6115a2868361155d565b95508019841693508086168417925050509392505050565b5f819050919050565b5f6115dd6115d86115d384610d8f565b6115ba565b610d8f565b9050919050565b5f819050919050565b6115f6836115c3565b61160a611602826115e4565b848454611569565b825550505050565b5f90565b61161e611612565b6116298184846115ed565b505050565b5b8181101561164c576116415f82611616565b60018101905061162f565b5050565b601f821115611691576116628161153c565b61166b8461154e565b8101602085101561167a578190505b61168e6116868561154e565b83018261162e565b50505b505050565b5f82821c905092915050565b5f6116b15f1984600802611696565b1980831691505092915050565b5f6116c983836116a2565b9150826002028217905092915050565b6116e282610dfc565b67ffffffffffffffff8111156116fb576116fa610f5b565b5b611705825461150c565b611710828285611650565b5f60209050601f831160018114611741575f841561172f578287015190505b61173985826116be565b8655506117a0565b601f19841661174f8661153c565b5f5b8281101561177657848901518255600182019150602085019450602081019050611751565b86831015611793578489015161178f601f8916826116a2565b8355505b6001600288020188555050505b505050505050565b5f6117b282610d8f565b91507fffffffffffffffffffffffffffffffffffffffffffffffffffffffffffffffff82036117e4576117e3611417565b5b600182019050919050565b7f5a616d657374616e656e6563206e656578697374756a650000000000000000005f82015250565b5f611823601783610e06565b915061182e826117ef565b602082019050919050565b5f6020820190508181035f83015261185081611817565b905091905056fea2646970667358221220f92d29885a25fe6301a9284c89e9521341e6fdef1a2c93cfef81377ce1b393c364736f6c63430008160033",
					"opcodes": "PUSH1 0x80 PUSH1 0x40 MSTORE PUSH1 0x1 PUSH1 0x3 SSTORE CALLVALUE DUP1 ISZERO PUSH2 0x14 JUMPI PUSH0 DUP1 REVERT JUMPDEST POP CALLER PUSH0 DUP1 PUSH2 0x100 EXP DUP2 SLOAD DUP2 PUSH20 0xFFFFFFFFFFFFFFFFFFFFFFFFFFFFFFFFFFFFFFFF MUL NOT AND SWAP1 DUP4 PUSH20 0xFFFFFFFFFFFFFFFFFFFFFFFFFFFFFFFFFFFFFFFF AND MUL OR SWAP1 SSTORE POP PUSH2 0x188D DUP1 PUSH2 0x61 PUSH0 CODECOPY PUSH0 RETURN INVALID PUSH1 0x80 PUSH1 0x40 MSTORE CALLVALUE DUP1 ISZERO PUSH2 0xF JUMPI PUSH0 DUP1 REVERT JUMPDEST POP PUSH1 0x4 CALLDATASIZE LT PUSH2 0x9C JUMPI PUSH0 CALLDATALOAD PUSH1 0xE0 SHR DUP1 PUSH4 0x32A42C0E GT PUSH2 0x64 JUMPI DUP1 PUSH4 0x32A42C0E EQ PUSH2 0x15A JUMPI DUP1 PUSH4 0x755A8F6B EQ PUSH2 0x176 JUMPI DUP1 PUSH4 0x949D9ADD EQ PUSH2 0x194 JUMPI DUP1 PUSH4 0xAD6EDBFC EQ PUSH2 0x1B2 JUMPI DUP1 PUSH4 0xFD65B57D EQ PUSH2 0x1CE JUMPI PUSH2 0x9C JUMP JUMPDEST DUP1 PUSH4 0x7546172 EQ PUSH2 0xA0 JUMPI DUP1 PUSH4 0x22BE3C13 EQ PUSH2 0xBE JUMPI DUP1 PUSH4 0x26661B3A EQ PUSH2 0xDA JUMPI DUP1 PUSH4 0x27E235E3 EQ PUSH2 0x10E JUMPI DUP1 PUSH4 0x2EBC3FBD EQ PUSH2 0x13E JUMPI JUMPDEST PUSH0 DUP1 REVERT JUMPDEST PUSH2 0xA8 PUSH2 0x1EA JUMP JUMPDEST PUSH1 0x40 MLOAD PUSH2 0xB5 SWAP2 SWAP1 PUSH2 0xD65 JUMP JUMPDEST PUSH1 0x40 MLOAD DUP1 SWAP2 SUB SWAP1 RETURN JUMPDEST PUSH2 0xD8 PUSH1 0x4 DUP1 CALLDATASIZE SUB DUP2 ADD SWAP1 PUSH2 0xD3 SWAP2 SWAP1 PUSH2 0xDC2 JUMP JUMPDEST PUSH2 0x20D JUMP JUMPDEST STOP JUMPDEST PUSH2 0xF4 PUSH1 0x4 DUP1 CALLDATASIZE SUB DUP2 ADD SWAP1 PUSH2 0xEF SWAP2 SWAP1 PUSH2 0xDC2 JUMP JUMPDEST PUSH2 0x4F2 JUMP JUMPDEST PUSH1 0x40 MLOAD PUSH2 0x105 SWAP6 SWAP5 SWAP4 SWAP3 SWAP2 SWAP1 PUSH2 0xE86 JUMP JUMPDEST PUSH1 0x40 MLOAD DUP1 SWAP2 SUB SWAP1 RETURN JUMPDEST PUSH2 0x128 PUSH1 0x4 DUP1 CALLDATASIZE SUB DUP2 ADD SWAP1 PUSH2 0x123 SWAP2 SWAP1 PUSH2 0xF0F JUMP JUMPDEST PUSH2 0x6FC JUMP JUMPDEST PUSH1 0x40 MLOAD PUSH2 0x135 SWAP2 SWAP1 PUSH2 0xF3A JUMP JUMPDEST PUSH1 0x40 MLOAD DUP1 SWAP2 SUB SWAP1 RETURN JUMPDEST PUSH2 0x158 PUSH1 0x4 DUP1 CALLDATASIZE SUB DUP2 ADD SWAP1 PUSH2 0x153 SWAP2 SWAP1 PUSH2 0x107F JUMP JUMPDEST PUSH2 0x711 JUMP JUMPDEST STOP JUMPDEST PUSH2 0x174 PUSH1 0x4 DUP1 CALLDATASIZE SUB DUP2 ADD SWAP1 PUSH2 0x16F SWAP2 SWAP1 PUSH2 0x111B JUMP JUMPDEST PUSH2 0x81B JUMP JUMPDEST STOP JUMPDEST PUSH2 0x17E PUSH2 0x91A JUMP JUMPDEST PUSH1 0x40 MLOAD PUSH2 0x18B SWAP2 SWAP1 PUSH2 0xF3A JUMP JUMPDEST PUSH1 0x40 MLOAD DUP1 SWAP2 SUB SWAP1 RETURN JUMPDEST PUSH2 0x19C PUSH2 0x926 JUMP JUMPDEST PUSH1 0x40 MLOAD PUSH2 0x1A9 SWAP2 SWAP1 PUSH2 0x1365 JUMP JUMPDEST PUSH1 0x40 MLOAD DUP1 SWAP2 SUB SWAP1 RETURN JUMPDEST PUSH2 0x1CC PUSH1 0x4 DUP1 CALLDATASIZE SUB DUP2 ADD SWAP1 PUSH2 0x1C7 SWAP2 SWAP1 PUSH2 0x1385 JUMP JUMPDEST PUSH2 0xB0A JUMP JUMPDEST STOP JUMPDEST PUSH2 0x1E8 PUSH1 0x4 DUP1 CALLDATASIZE SUB DUP2 ADD SWAP1 PUSH2 0x1E3 SWAP2 SWAP1 PUSH2 0xDC2 JUMP JUMPDEST PUSH2 0xBB7 JUMP JUMPDEST STOP JUMPDEST PUSH0 DUP1 SLOAD SWAP1 PUSH2 0x100 EXP SWAP1 DIV PUSH20 0xFFFFFFFFFFFFFFFFFFFFFFFFFFFFFFFFFFFFFFFF AND DUP2 JUMP JUMPDEST PUSH0 PUSH2 0x217 DUP3 PUSH2 0xC3B JUMP JUMPDEST SWAP1 POP PUSH1 0x1 PUSH0 CALLER PUSH20 0xFFFFFFFFFFFFFFFFFFFFFFFFFFFFFFFFFFFFFFFF AND PUSH20 0xFFFFFFFFFFFFFFFFFFFFFFFFFFFFFFFFFFFFFFFF AND DUP2 MSTORE PUSH1 0x20 ADD SWAP1 DUP2 MSTORE PUSH1 0x20 ADD PUSH0 KECCAK256 SLOAD PUSH1 0x2 DUP3 DUP2 SLOAD DUP2 LT PUSH2 0x26B JUMPI PUSH2 0x26A PUSH2 0x13C3 JUMP JUMPDEST JUMPDEST SWAP1 PUSH0 MSTORE PUSH1 0x20 PUSH0 KECCAK256 SWAP1 PUSH1 0x5 MUL ADD PUSH1 0x3 ADD SLOAD GT ISZERO PUSH2 0x320 JUMPI PUSH1 0x2 DUP2 DUP2 SLOAD DUP2 LT PUSH2 0x295 JUMPI PUSH2 0x294 PUSH2 0x13C3 JUMP JUMPDEST JUMPDEST SWAP1 PUSH0 MSTORE PUSH1 0x20 PUSH0 KECCAK256 SWAP1 PUSH1 0x5 MUL ADD PUSH1 0x3 ADD SLOAD PUSH1 0x1 PUSH0 CALLER PUSH20 0xFFFFFFFFFFFFFFFFFFFFFFFFFFFFFFFFFFFFFFFF AND PUSH20 0xFFFFFFFFFFFFFFFFFFFFFFFFFFFFFFFFFFFFFFFF AND DUP2 MSTORE PUSH1 0x20 ADD SWAP1 DUP2 MSTORE PUSH1 0x20 ADD PUSH0 KECCAK256 SLOAD PUSH1 0x40 MLOAD PUSH32 0xC1EF90D200000000000000000000000000000000000000000000000000000000 DUP2 MSTORE PUSH1 0x4 ADD PUSH2 0x317 SWAP3 SWAP2 SWAP1 PUSH2 0x13F0 JUMP JUMPDEST PUSH1 0x40 MLOAD DUP1 SWAP2 SUB SWAP1 REVERT JUMPDEST PUSH1 0x2 DUP2 DUP2 SLOAD DUP2 LT PUSH2 0x334 JUMPI PUSH2 0x333 PUSH2 0x13C3 JUMP JUMPDEST JUMPDEST SWAP1 PUSH0 MSTORE PUSH1 0x20 PUSH0 KECCAK256 SWAP1 PUSH1 0x5 MUL ADD PUSH1 0x3 ADD SLOAD PUSH1 0x1 PUSH0 CALLER PUSH20 0xFFFFFFFFFFFFFFFFFFFFFFFFFFFFFFFFFFFFFFFF AND PUSH20 0xFFFFFFFFFFFFFFFFFFFFFFFFFFFFFFFFFFFFFFFF AND DUP2 MSTORE PUSH1 0x20 ADD SWAP1 DUP2 MSTORE PUSH1 0x20 ADD PUSH0 KECCAK256 PUSH0 DUP3 DUP3 SLOAD PUSH2 0x38F SWAP2 SWAP1 PUSH2 0x1444 JUMP JUMPDEST SWAP3 POP POP DUP2 SWAP1 SSTORE POP PUSH1 0x2 DUP2 DUP2 SLOAD DUP2 LT PUSH2 0x3AA JUMPI PUSH2 0x3A9 PUSH2 0x13C3 JUMP JUMPDEST JUMPDEST SWAP1 PUSH0 MSTORE PUSH1 0x20 PUSH0 KECCAK256 SWAP1 PUSH1 0x5 MUL ADD PUSH1 0x3 ADD SLOAD PUSH1 0x1 PUSH0 PUSH1 0x2 DUP5 DUP2 SLOAD DUP2 LT PUSH2 0x3D1 JUMPI PUSH2 0x3D0 PUSH2 0x13C3 JUMP JUMPDEST JUMPDEST SWAP1 PUSH0 MSTORE PUSH1 0x20 PUSH0 KECCAK256 SWAP1 PUSH1 0x5 MUL ADD PUSH1 0x4 ADD PUSH0 SWAP1 SLOAD SWAP1 PUSH2 0x100 EXP SWAP1 DIV PUSH20 0xFFFFFFFFFFFFFFFFFFFFFFFFFFFFFFFFFFFFFFFF AND PUSH20 0xFFFFFFFFFFFFFFFFFFFFFFFFFFFFFFFFFFFFFFFF AND PUSH20 0xFFFFFFFFFFFFFFFFFFFFFFFFFFFFFFFFFFFFFFFF AND DUP2 MSTORE PUSH1 0x20 ADD SWAP1 DUP2 MSTORE PUSH1 0x20 ADD PUSH0 KECCAK256 PUSH0 DUP3 DUP3 SLOAD PUSH2 0x447 SWAP2 SWAP1 PUSH2 0x1477 JUMP JUMPDEST SWAP3 POP POP DUP2 SWAP1 SSTORE POP PUSH32 0x3990DB2D31862302A685E8086B5755072A6E2B5B780AF1EE81ECE35EE3CD3345 CALLER PUSH1 0x2 DUP4 DUP2 SLOAD DUP2 LT PUSH2 0x484 JUMPI PUSH2 0x483 PUSH2 0x13C3 JUMP JUMPDEST JUMPDEST SWAP1 PUSH0 MSTORE PUSH1 0x20 PUSH0 KECCAK256 SWAP1 PUSH1 0x5 MUL ADD PUSH1 0x4 ADD PUSH0 SWAP1 SLOAD SWAP1 PUSH2 0x100 EXP SWAP1 DIV PUSH20 0xFFFFFFFFFFFFFFFFFFFFFFFFFFFFFFFFFFFFFFFF AND PUSH1 0x2 DUP5 DUP2 SLOAD DUP2 LT PUSH2 0x4C7 JUMPI PUSH2 0x4C6 PUSH2 0x13C3 JUMP JUMPDEST JUMPDEST SWAP1 PUSH0 MSTORE PUSH1 0x20 PUSH0 KECCAK256 SWAP1 PUSH1 0x5 MUL ADD PUSH1 0x3 ADD SLOAD PUSH1 0x40 MLOAD PUSH2 0x4E6 SWAP4 SWAP3 SWAP2 SWAP1 PUSH2 0x14AA JUMP JUMPDEST PUSH1 0x40 MLOAD DUP1 SWAP2 SUB SWAP1 LOG1 POP POP JUMP JUMPDEST PUSH0 PUSH1 0x60 DUP1 PUSH0 DUP1 PUSH0 PUSH2 0x502 DUP8 PUSH2 0xC3B JUMP JUMPDEST SWAP1 POP PUSH1 0x2 DUP2 DUP2 SLOAD DUP2 LT PUSH2 0x518 JUMPI PUSH2 0x517 PUSH2 0x13C3 JUMP JUMPDEST JUMPDEST SWAP1 PUSH0 MSTORE PUSH1 0x20 PUSH0 KECCAK256 SWAP1 PUSH1 0x5 MUL ADD PUSH0 ADD SLOAD PUSH1 0x2 DUP3 DUP2 SLOAD DUP2 LT PUSH2 0x53B JUMPI PUSH2 0x53A PUSH2 0x13C3 JUMP JUMPDEST JUMPDEST SWAP1 PUSH0 MSTORE PUSH1 0x20 PUSH0 KECCAK256 SWAP1 PUSH1 0x5 MUL ADD PUSH1 0x1 ADD PUSH1 0x2 DUP4 DUP2 SLOAD DUP2 LT PUSH2 0x55E JUMPI PUSH2 0x55D PUSH2 0x13C3 JUMP JUMPDEST JUMPDEST SWAP1 PUSH0 MSTORE PUSH1 0x20 PUSH0 KECCAK256 SWAP1 PUSH1 0x5 MUL ADD PUSH1 0x2 ADD PUSH1 0x2 DUP5 DUP2 SLOAD DUP2 LT PUSH2 0x581 JUMPI PUSH2 0x580 PUSH2 0x13C3 JUMP JUMPDEST JUMPDEST SWAP1 PUSH0 MSTORE PUSH1 0x20 PUSH0 KECCAK256 SWAP1 PUSH1 0x5 MUL ADD PUSH1 0x3 ADD SLOAD PUSH1 0x2 DUP6 DUP2 SLOAD DUP2 LT PUSH2 0x5A5 JUMPI PUSH2 0x5A4 PUSH2 0x13C3 JUMP JUMPDEST JUMPDEST SWAP1 PUSH0 MSTORE PUSH1 0x20 PUSH0 KECCAK256 SWAP1 PUSH1 0x5 MUL ADD PUSH1 0x4 ADD PUSH0 SWAP1 SLOAD SWAP1 PUSH2 0x100 EXP SWAP1 DIV PUSH20 0xFFFFFFFFFFFFFFFFFFFFFFFFFFFFFFFFFFFFFFFF AND DUP4 DUP1 SLOAD PUSH2 0x5E0 SWAP1 PUSH2 0x150C JUMP JUMPDEST DUP1 PUSH1 0x1F ADD PUSH1 0x20 DUP1 SWAP2 DIV MUL PUSH1 0x20 ADD PUSH1 0x40 MLOAD SWAP1 DUP2 ADD PUSH1 0x40 MSTORE DUP1 SWAP3 SWAP2 SWAP1 DUP2 DUP2 MSTORE PUSH1 0x20 ADD DUP3 DUP1 SLOAD PUSH2 0x60C SWAP1 PUSH2 0x150C JUMP JUMPDEST DUP1 ISZERO PUSH2 0x657 JUMPI DUP1 PUSH1 0x1F LT PUSH2 0x62E JUMPI PUSH2 0x100 DUP1 DUP4 SLOAD DIV MUL DUP4 MSTORE SWAP2 PUSH1 0x20 ADD SWAP2 PUSH2 0x657 JUMP JUMPDEST DUP3 ADD SWAP2 SWAP1 PUSH0 MSTORE PUSH1 0x20 PUSH0 KECCAK256 SWAP1 JUMPDEST DUP2 SLOAD DUP2 MSTORE SWAP1 PUSH1 0x1 ADD SWAP1 PUSH1 0x20 ADD DUP1 DUP4 GT PUSH2 0x63A JUMPI DUP3 SWAP1 SUB PUSH1 0x1F AND DUP3 ADD SWAP2 JUMPDEST POP POP POP POP POP SWAP4 POP DUP3 DUP1 SLOAD PUSH2 0x66A SWAP1 PUSH2 0x150C JUMP JUMPDEST DUP1 PUSH1 0x1F ADD PUSH1 0x20 DUP1 SWAP2 DIV MUL PUSH1 0x20 ADD PUSH1 0x40 MLOAD SWAP1 DUP2 ADD PUSH1 0x40 MSTORE DUP1 SWAP3 SWAP2 SWAP1 DUP2 DUP2 MSTORE PUSH1 0x20 ADD DUP3 DUP1 SLOAD PUSH2 0x696 SWAP1 PUSH2 0x150C JUMP JUMPDEST DUP1 ISZERO PUSH2 0x6E1 JUMPI DUP1 PUSH1 0x1F LT PUSH2 0x6B8 JUMPI PUSH2 0x100 DUP1 DUP4 SLOAD DIV MUL DUP4 MSTORE SWAP2 PUSH1 0x20 ADD SWAP2 PUSH2 0x6E1 JUMP JUMPDEST DUP3 ADD SWAP2 SWAP1 PUSH0 MSTORE PUSH1 0x20 PUSH0 KECCAK256 SWAP1 JUMPDEST DUP2 SLOAD DUP2 MSTORE SWAP1 PUSH1 0x1 ADD SWAP1 PUSH1 0x20 ADD DUP1 DUP4 GT PUSH2 0x6C4 JUMPI DUP3 SWAP1 SUB PUSH1 0x1F AND DUP3 ADD SWAP2 JUMPDEST POP POP POP POP POP SWAP3 POP SWAP6 POP SWAP6 POP SWAP6 POP SWAP6 POP SWAP6 POP POP SWAP2 SWAP4 SWAP6 SWAP1 SWAP3 SWAP5 POP JUMP JUMPDEST PUSH1 0x1 PUSH1 0x20 MSTORE DUP1 PUSH0 MSTORE PUSH1 0x40 PUSH0 KECCAK256 PUSH0 SWAP2 POP SWAP1 POP SLOAD DUP2 JUMP JUMPDEST PUSH1 0x2 PUSH1 0x40 MLOAD DUP1 PUSH1 0xA0 ADD PUSH1 0x40 MSTORE DUP1 PUSH1 0x3 SLOAD DUP2 MSTORE PUSH1 0x20 ADD DUP7 DUP2 MSTORE PUSH1 0x20 ADD DUP6 DUP2 MSTORE PUSH1 0x20 ADD DUP5 DUP2 MSTORE PUSH1 0x20 ADD DUP4 PUSH20 0xFFFFFFFFFFFFFFFFFFFFFFFFFFFFFFFFFFFFFFFF AND DUP2 MSTORE POP SWAP1 DUP1 PUSH1 0x1 DUP2 SLOAD ADD DUP1 DUP3 SSTORE DUP1 SWAP2 POP POP PUSH1 0x1 SWAP1 SUB SWAP1 PUSH0 MSTORE PUSH1 0x20 PUSH0 KECCAK256 SWAP1 PUSH1 0x5 MUL ADD PUSH0 SWAP1 SWAP2 SWAP1 SWAP2 SWAP1 SWAP2 POP PUSH0 DUP3 ADD MLOAD DUP2 PUSH0 ADD SSTORE PUSH1 0x20 DUP3 ADD MLOAD DUP2 PUSH1 0x1 ADD SWAP1 DUP2 PUSH2 0x795 SWAP2 SWAP1 PUSH2 0x16D9 JUMP JUMPDEST POP PUSH1 0x40 DUP3 ADD MLOAD DUP2 PUSH1 0x2 ADD SWAP1 DUP2 PUSH2 0x7AB SWAP2 SWAP1 PUSH2 0x16D9 JUMP JUMPDEST POP PUSH1 0x60 DUP3 ADD MLOAD DUP2 PUSH1 0x3 ADD SSTORE PUSH1 0x80 DUP3 ADD MLOAD DUP2 PUSH1 0x4 ADD PUSH0 PUSH2 0x100 EXP DUP2 SLOAD DUP2 PUSH20 0xFFFFFFFFFFFFFFFFFFFFFFFFFFFFFFFFFFFFFFFF MUL NOT AND SWAP1 DUP4 PUSH20 0xFFFFFFFFFFFFFFFFFFFFFFFFFFFFFFFFFFFFFFFF AND MUL OR SWAP1 SSTORE POP POP POP PUSH1 0x3 PUSH0 DUP2 SLOAD DUP1 SWAP3 SWAP2 SWAP1 PUSH2 0x810 SWAP1 PUSH2 0x17A8 JUMP JUMPDEST SWAP2 SWAP1 POP SSTORE POP POP POP POP POP JUMP JUMPDEST PUSH0 PUSH2 0x825 DUP7 PUSH2 0xC3B JUMP JUMPDEST SWAP1 POP DUP5 PUSH1 0x2 DUP3 DUP2 SLOAD DUP2 LT PUSH2 0x83C JUMPI PUSH2 0x83B PUSH2 0x13C3 JUMP JUMPDEST JUMPDEST SWAP1 PUSH0 MSTORE PUSH1 0x20 PUSH0 KECCAK256 SWAP1 PUSH1 0x5 MUL ADD PUSH1 0x1 ADD SWAP1 DUP2 PUSH2 0x857 SWAP2 SWAP1 PUSH2 0x16D9 JUMP JUMPDEST POP DUP4 PUSH1 0x2 DUP3 DUP2 SLOAD DUP2 LT PUSH2 0x86D JUMPI PUSH2 0x86C PUSH2 0x13C3 JUMP JUMPDEST JUMPDEST SWAP1 PUSH0 MSTORE PUSH1 0x20 PUSH0 KECCAK256 SWAP1 PUSH1 0x5 MUL ADD PUSH1 0x2 ADD SWAP1 DUP2 PUSH2 0x888 SWAP2 SWAP1 PUSH2 0x16D9 JUMP JUMPDEST POP DUP3 PUSH1 0x2 DUP3 DUP2 SLOAD DUP2 LT PUSH2 0x89E JUMPI PUSH2 0x89D PUSH2 0x13C3 JUMP JUMPDEST JUMPDEST SWAP1 PUSH0 MSTORE PUSH1 0x20 PUSH0 KECCAK256 SWAP1 PUSH1 0x5 MUL ADD PUSH1 0x3 ADD DUP2 SWAP1 SSTORE POP DUP2 PUSH1 0x2 DUP3 DUP2 SLOAD DUP2 LT PUSH2 0x8C6 JUMPI PUSH2 0x8C5 PUSH2 0x13C3 JUMP JUMPDEST JUMPDEST SWAP1 PUSH0 MSTORE PUSH1 0x20 PUSH0 KECCAK256 SWAP1 PUSH1 0x5 MUL ADD PUSH1 0x4 ADD PUSH0 PUSH2 0x100 EXP DUP2 SLOAD DUP2 PUSH20 0xFFFFFFFFFFFFFFFFFFFFFFFFFFFFFFFFFFFFFFFF MUL NOT AND SWAP1 DUP4 PUSH20 0xFFFFFFFFFFFFFFFFFFFFFFFFFFFFFFFFFFFFFFFF AND MUL OR SWAP1 SSTORE POP POP POP POP POP POP POP JUMP JUMPDEST PUSH0 PUSH1 0x2 DUP1 SLOAD SWAP1 POP SWAP1 POP SWAP1 JUMP JUMPDEST PUSH1 0x60 PUSH1 0x2 DUP1 SLOAD DUP1 PUSH1 0x20 MUL PUSH1 0x20 ADD PUSH1 0x40 MLOAD SWAP1 DUP2 ADD PUSH1 0x40 MSTORE DUP1 SWAP3 SWAP2 SWAP1 DUP2 DUP2 MSTORE PUSH1 0x20 ADD PUSH0 SWAP1 JUMPDEST DUP3 DUP3 LT ISZERO PUSH2 0xB01 JUMPI DUP4 DUP3 SWAP1 PUSH0 MSTORE PUSH1 0x20 PUSH0 KECCAK256 SWAP1 PUSH1 0x5 MUL ADD PUSH1 0x40 MLOAD DUP1 PUSH1 0xA0 ADD PUSH1 0x40 MSTORE SWAP1 DUP2 PUSH0 DUP3 ADD SLOAD DUP2 MSTORE PUSH1 0x20 ADD PUSH1 0x1 DUP3 ADD DUP1 SLOAD PUSH2 0x983 SWAP1 PUSH2 0x150C JUMP JUMPDEST DUP1 PUSH1 0x1F ADD PUSH1 0x20 DUP1 SWAP2 DIV MUL PUSH1 0x20 ADD PUSH1 0x40 MLOAD SWAP1 DUP2 ADD PUSH1 0x40 MSTORE DUP1 SWAP3 SWAP2 SWAP1 DUP2 DUP2 MSTORE PUSH1 0x20 ADD DUP3 DUP1 SLOAD PUSH2 0x9AF SWAP1 PUSH2 0x150C JUMP JUMPDEST DUP1 ISZERO PUSH2 0x9FA JUMPI DUP1 PUSH1 0x1F LT PUSH2 0x9D1 JUMPI PUSH2 0x100 DUP1 DUP4 SLOAD DIV MUL DUP4 MSTORE SWAP2 PUSH1 0x20 ADD SWAP2 PUSH2 0x9FA JUMP JUMPDEST DUP3 ADD SWAP2 SWAP1 PUSH0 MSTORE PUSH1 0x20 PUSH0 KECCAK256 SWAP1 JUMPDEST DUP2 SLOAD DUP2 MSTORE SWAP1 PUSH1 0x1 ADD SWAP1 PUSH1 0x20 ADD DUP1 DUP4 GT PUSH2 0x9DD JUMPI DUP3 SWAP1 SUB PUSH1 0x1F AND DUP3 ADD SWAP2 JUMPDEST POP POP POP POP POP DUP2 MSTORE PUSH1 0x20 ADD PUSH1 0x2 DUP3 ADD DUP1 SLOAD PUSH2 0xA13 SWAP1 PUSH2 0x150C JUMP JUMPDEST DUP1 PUSH1 0x1F ADD PUSH1 0x20 DUP1 SWAP2 DIV MUL PUSH1 0x20 ADD PUSH1 0x40 MLOAD SWAP1 DUP2 ADD PUSH1 0x40 MSTORE DUP1 SWAP3 SWAP2 SWAP1 DUP2 DUP2 MSTORE PUSH1 0x20 ADD DUP3 DUP1 SLOAD PUSH2 0xA3F SWAP1 PUSH2 0x150C JUMP JUMPDEST DUP1 ISZERO PUSH2 0xA8A JUMPI DUP1 PUSH1 0x1F LT PUSH2 0xA61 JUMPI PUSH2 0x100 DUP1 DUP4 SLOAD DIV MUL DUP4 MSTORE SWAP2 PUSH1 0x20 ADD SWAP2 PUSH2 0xA8A JUMP JUMPDEST DUP3 ADD SWAP2 SWAP1 PUSH0 MSTORE PUSH1 0x20 PUSH0 KECCAK256 SWAP1 JUMPDEST DUP2 SLOAD DUP2 MSTORE SWAP1 PUSH1 0x1 ADD SWAP1 PUSH1 0x20 ADD DUP1 DUP4 GT PUSH2 0xA6D JUMPI DUP3 SWAP1 SUB PUSH1 0x1F AND DUP3 ADD SWAP2 JUMPDEST POP POP POP POP POP DUP2 MSTORE PUSH1 0x20 ADD PUSH1 0x3 DUP3 ADD SLOAD DUP2 MSTORE PUSH1 0x20 ADD PUSH1 0x4 DUP3 ADD PUSH0 SWAP1 SLOAD SWAP1 PUSH2 0x100 EXP SWAP1 DIV PUSH20 0xFFFFFFFFFFFFFFFFFFFFFFFFFFFFFFFFFFFFFFFF AND PUSH20 0xFFFFFFFFFFFFFFFFFFFFFFFFFFFFFFFFFFFFFFFF AND PUSH20 0xFFFFFFFFFFFFFFFFFFFFFFFFFFFFFFFFFFFFFFFF AND DUP2 MSTORE POP POP DUP2 MSTORE PUSH1 0x20 ADD SWAP1 PUSH1 0x1 ADD SWAP1 PUSH2 0x949 JUMP JUMPDEST POP POP POP POP SWAP1 POP SWAP1 JUMP JUMPDEST PUSH0 DUP1 SLOAD SWAP1 PUSH2 0x100 EXP SWAP1 DIV PUSH20 0xFFFFFFFFFFFFFFFFFFFFFFFFFFFFFFFFFFFFFFFF AND PUSH20 0xFFFFFFFFFFFFFFFFFFFFFFFFFFFFFFFFFFFFFFFF AND CALLER PUSH20 0xFFFFFFFFFFFFFFFFFFFFFFFFFFFFFFFFFFFFFFFF AND EQ PUSH2 0xB60 JUMPI PUSH0 DUP1 REVERT JUMPDEST DUP1 PUSH1 0x1 PUSH0 DUP5 PUSH20 0xFFFFFFFFFFFFFFFFFFFFFFFFFFFFFFFFFFFFFFFF AND PUSH20 0xFFFFFFFFFFFFFFFFFFFFFFFFFFFFFFFFFFFFFFFF AND DUP2 MSTORE PUSH1 0x20 ADD SWAP1 DUP2 MSTORE PUSH1 0x20 ADD PUSH0 KECCAK256 PUSH0 DUP3 DUP3 SLOAD PUSH2 0xBAC SWAP2 SWAP1 PUSH2 0x1477 JUMP JUMPDEST SWAP3 POP POP DUP2 SWAP1 SSTORE POP POP POP JUMP JUMPDEST PUSH0 PUSH2 0xBC1 DUP3 PUSH2 0xC3B JUMP JUMPDEST SWAP1 POP PUSH1 0x2 DUP2 DUP2 SLOAD DUP2 LT PUSH2 0xBD7 JUMPI PUSH2 0xBD6 PUSH2 0x13C3 JUMP JUMPDEST JUMPDEST SWAP1 PUSH0 MSTORE PUSH1 0x20 PUSH0 KECCAK256 SWAP1 PUSH1 0x5 MUL ADD PUSH0 DUP1 DUP3 ADD PUSH0 SWAP1 SSTORE PUSH1 0x1 DUP3 ADD PUSH0 PUSH2 0xBF9 SWAP2 SWAP1 PUSH2 0xCCE JUMP JUMPDEST PUSH1 0x2 DUP3 ADD PUSH0 PUSH2 0xC08 SWAP2 SWAP1 PUSH2 0xCCE JUMP JUMPDEST PUSH1 0x3 DUP3 ADD PUSH0 SWAP1 SSTORE PUSH1 0x4 DUP3 ADD PUSH0 PUSH2 0x100 EXP DUP2 SLOAD SWAP1 PUSH20 0xFFFFFFFFFFFFFFFFFFFFFFFFFFFFFFFFFFFFFFFF MUL NOT AND SWAP1 SSTORE POP POP POP POP JUMP JUMPDEST PUSH0 DUP1 PUSH0 SWAP1 POP JUMPDEST PUSH1 0x2 DUP1 SLOAD SWAP1 POP DUP2 LT ISZERO PUSH2 0xC8D JUMPI DUP3 PUSH1 0x2 DUP3 DUP2 SLOAD DUP2 LT PUSH2 0xC63 JUMPI PUSH2 0xC62 PUSH2 0x13C3 JUMP JUMPDEST JUMPDEST SWAP1 PUSH0 MSTORE PUSH1 0x20 PUSH0 KECCAK256 SWAP1 PUSH1 0x5 MUL ADD PUSH0 ADD SLOAD SUB PUSH2 0xC80 JUMPI DUP1 SWAP2 POP POP PUSH2 0xCC9 JUMP JUMPDEST DUP1 DUP1 PUSH1 0x1 ADD SWAP2 POP POP PUSH2 0xC41 JUMP JUMPDEST POP PUSH1 0x40 MLOAD PUSH32 0x8C379A000000000000000000000000000000000000000000000000000000000 DUP2 MSTORE PUSH1 0x4 ADD PUSH2 0xCC0 SWAP1 PUSH2 0x1839 JUMP JUMPDEST PUSH1 0x40 MLOAD DUP1 SWAP2 SUB SWAP1 REVERT JUMPDEST SWAP2 SWAP1 POP JUMP JUMPDEST POP DUP1 SLOAD PUSH2 0xCDA SWAP1 PUSH2 0x150C JUMP JUMPDEST PUSH0 DUP3 SSTORE DUP1 PUSH1 0x1F LT PUSH2 0xCEB JUMPI POP PUSH2 0xD08 JUMP JUMPDEST PUSH1 0x1F ADD PUSH1 0x20 SWAP1 DIV SWAP1 PUSH0 MSTORE PUSH1 0x20 PUSH0 KECCAK256 SWAP1 DUP2 ADD SWAP1 PUSH2 0xD07 SWAP2 SWAP1 PUSH2 0xD0B JUMP JUMPDEST JUMPDEST POP JUMP JUMPDEST JUMPDEST DUP1 DUP3 GT ISZERO PUSH2 0xD22 JUMPI PUSH0 DUP2 PUSH0 SWAP1 SSTORE POP PUSH1 0x1 ADD PUSH2 0xD0C JUMP JUMPDEST POP SWAP1 JUMP JUMPDEST PUSH0 PUSH20 0xFFFFFFFFFFFFFFFFFFFFFFFFFFFFFFFFFFFFFFFF DUP3 AND SWAP1 POP SWAP2 SWAP1 POP JUMP JUMPDEST PUSH0 PUSH2 0xD4F DUP3 PUSH2 0xD26 JUMP JUMPDEST SWAP1 POP SWAP2 SWAP1 POP JUMP JUMPDEST PUSH2 0xD5F DUP2 PUSH2 0xD45 JUMP JUMPDEST DUP3 MSTORE POP POP JUMP JUMPDEST PUSH0 PUSH1 0x20 DUP3 ADD SWAP1 POP PUSH2 0xD78 PUSH0 DUP4 ADD DUP5 PUSH2 0xD56 JUMP JUMPDEST SWAP3 SWAP2 POP POP JUMP JUMPDEST PUSH0 PUSH1 0x40 MLOAD SWAP1 POP SWAP1 JUMP JUMPDEST PUSH0 DUP1 REVERT JUMPDEST PUSH0 DUP1 REVERT JUMPDEST PUSH0 DUP2 SWAP1 POP SWAP2 SWAP1 POP JUMP JUMPDEST PUSH2 0xDA1 DUP2 PUSH2 0xD8F JUMP JUMPDEST DUP2 EQ PUSH2 0xDAB JUMPI PUSH0 DUP1 REVERT JUMPDEST POP JUMP JUMPDEST PUSH0 DUP2 CALLDATALOAD SWAP1 POP PUSH2 0xDBC DUP2 PUSH2 0xD98 JUMP JUMPDEST SWAP3 SWAP2 POP POP JUMP JUMPDEST PUSH0 PUSH1 0x20 DUP3 DUP5 SUB SLT ISZERO PUSH2 0xDD7 JUMPI PUSH2 0xDD6 PUSH2 0xD87 JUMP JUMPDEST JUMPDEST PUSH0 PUSH2 0xDE4 DUP5 DUP3 DUP6 ADD PUSH2 0xDAE JUMP JUMPDEST SWAP2 POP POP SWAP3 SWAP2 POP POP JUMP JUMPDEST PUSH2 0xDF6 DUP2 PUSH2 0xD8F JUMP JUMPDEST DUP3 MSTORE POP POP JUMP JUMPDEST PUSH0 DUP2 MLOAD SWAP1 POP SWAP2 SWAP1 POP JUMP JUMPDEST PUSH0 DUP3 DUP3 MSTORE PUSH1 0x20 DUP3 ADD SWAP1 POP SWAP3 SWAP2 POP POP JUMP JUMPDEST PUSH0 JUMPDEST DUP4 DUP2 LT ISZERO PUSH2 0xE33 JUMPI DUP1 DUP3 ADD MLOAD DUP2 DUP5 ADD MSTORE PUSH1 0x20 DUP2 ADD SWAP1 POP PUSH2 0xE18 JUMP JUMPDEST PUSH0 DUP5 DUP5 ADD MSTORE POP POP POP POP JUMP JUMPDEST PUSH0 PUSH1 0x1F NOT PUSH1 0x1F DUP4 ADD AND SWAP1 POP SWAP2 SWAP1 POP JUMP JUMPDEST PUSH0 PUSH2 0xE58 DUP3 PUSH2 0xDFC JUMP JUMPDEST PUSH2 0xE62 DUP2 DUP6 PUSH2 0xE06 JUMP JUMPDEST SWAP4 POP PUSH2 0xE72 DUP2 DUP6 PUSH1 0x20 DUP7 ADD PUSH2 0xE16 JUMP JUMPDEST PUSH2 0xE7B DUP2 PUSH2 0xE3E JUMP JUMPDEST DUP5 ADD SWAP2 POP POP SWAP3 SWAP2 POP POP JUMP JUMPDEST PUSH0 PUSH1 0xA0 DUP3 ADD SWAP1 POP PUSH2 0xE99 PUSH0 DUP4 ADD DUP9 PUSH2 0xDED JUMP JUMPDEST DUP2 DUP2 SUB PUSH1 0x20 DUP4 ADD MSTORE PUSH2 0xEAB DUP2 DUP8 PUSH2 0xE4E JUMP JUMPDEST SWAP1 POP DUP2 DUP2 SUB PUSH1 0x40 DUP4 ADD MSTORE PUSH2 0xEBF DUP2 DUP7 PUSH2 0xE4E JUMP JUMPDEST SWAP1 POP PUSH2 0xECE PUSH1 0x60 DUP4 ADD DUP6 PUSH2 0xDED JUMP JUMPDEST PUSH2 0xEDB PUSH1 0x80 DUP4 ADD DUP5 PUSH2 0xD56 JUMP JUMPDEST SWAP7 SWAP6 POP POP POP POP POP POP JUMP JUMPDEST PUSH2 0xEEE DUP2 PUSH2 0xD45 JUMP JUMPDEST DUP2 EQ PUSH2 0xEF8 JUMPI PUSH0 DUP1 REVERT JUMPDEST POP JUMP JUMPDEST PUSH0 DUP2 CALLDATALOAD SWAP1 POP PUSH2 0xF09 DUP2 PUSH2 0xEE5 JUMP JUMPDEST SWAP3 SWAP2 POP POP JUMP JUMPDEST PUSH0 PUSH1 0x20 DUP3 DUP5 SUB SLT ISZERO PUSH2 0xF24 JUMPI PUSH2 0xF23 PUSH2 0xD87 JUMP JUMPDEST JUMPDEST PUSH0 PUSH2 0xF31 DUP5 DUP3 DUP6 ADD PUSH2 0xEFB JUMP JUMPDEST SWAP2 POP POP SWAP3 SWAP2 POP POP JUMP JUMPDEST PUSH0 PUSH1 0x20 DUP3 ADD SWAP1 POP PUSH2 0xF4D PUSH0 DUP4 ADD DUP5 PUSH2 0xDED JUMP JUMPDEST SWAP3 SWAP2 POP POP JUMP JUMPDEST PUSH0 DUP1 REVERT JUMPDEST PUSH0 DUP1 REVERT JUMPDEST PUSH32 0x4E487B7100000000000000000000000000000000000000000000000000000000 PUSH0 MSTORE PUSH1 0x41 PUSH1 0x4 MSTORE PUSH1 0x24 PUSH0 REVERT JUMPDEST PUSH2 0xF91 DUP3 PUSH2 0xE3E JUMP JUMPDEST DUP2 ADD DUP2 DUP2 LT PUSH8 0xFFFFFFFFFFFFFFFF DUP3 GT OR ISZERO PUSH2 0xFB0 JUMPI PUSH2 0xFAF PUSH2 0xF5B JUMP JUMPDEST JUMPDEST DUP1 PUSH1 0x40 MSTORE POP POP POP JUMP JUMPDEST PUSH0 PUSH2 0xFC2 PUSH2 0xD7E JUMP JUMPDEST SWAP1 POP PUSH2 0xFCE DUP3 DUP3 PUSH2 0xF88 JUMP JUMPDEST SWAP2 SWAP1 POP JUMP JUMPDEST PUSH0 PUSH8 0xFFFFFFFFFFFFFFFF DUP3 GT ISZERO PUSH2 0xFED JUMPI PUSH2 0xFEC PUSH2 0xF5B JUMP JUMPDEST JUMPDEST PUSH2 0xFF6 DUP3 PUSH2 0xE3E JUMP JUMPDEST SWAP1 POP PUSH1 0x20 DUP2 ADD SWAP1 POP SWAP2 SWAP1 POP JUMP JUMPDEST DUP3 DUP2 DUP4 CALLDATACOPY PUSH0 DUP4 DUP4 ADD MSTORE POP POP POP JUMP JUMPDEST PUSH0 PUSH2 0x1023 PUSH2 0x101E DUP5 PUSH2 0xFD3 JUMP JUMPDEST PUSH2 0xFB9 JUMP JUMPDEST SWAP1 POP DUP3 DUP2 MSTORE PUSH1 0x20 DUP2 ADD DUP5 DUP5 DUP5 ADD GT ISZERO PUSH2 0x103F JUMPI PUSH2 0x103E PUSH2 0xF57 JUMP JUMPDEST JUMPDEST PUSH2 0x104A DUP5 DUP3 DUP6 PUSH2 0x1003 JUMP JUMPDEST POP SWAP4 SWAP3 POP POP POP JUMP JUMPDEST PUSH0 DUP3 PUSH1 0x1F DUP4 ADD SLT PUSH2 0x1066 JUMPI PUSH2 0x1065 PUSH2 0xF53 JUMP JUMPDEST JUMPDEST DUP2 CALLDATALOAD PUSH2 0x1076 DUP5 DUP3 PUSH1 0x20 DUP7 ADD PUSH2 0x1011 JUMP JUMPDEST SWAP2 POP POP SWAP3 SWAP2 POP POP JUMP JUMPDEST PUSH0 DUP1 PUSH0 DUP1 PUSH1 0x80 DUP6 DUP8 SUB SLT ISZERO PUSH2 0x1097 JUMPI PUSH2 0x1096 PUSH2 0xD87 JUMP JUMPDEST JUMPDEST PUSH0 DUP6 ADD CALLDATALOAD PUSH8 0xFFFFFFFFFFFFFFFF DUP2 GT ISZERO PUSH2 0x10B4 JUMPI PUSH2 0x10B3 PUSH2 0xD8B JUMP JUMPDEST JUMPDEST PUSH2 0x10C0 DUP8 DUP3 DUP9 ADD PUSH2 0x1052 JUMP JUMPDEST SWAP5 POP POP PUSH1 0x20 DUP6 ADD CALLDATALOAD PUSH8 0xFFFFFFFFFFFFFFFF DUP2 GT ISZERO PUSH2 0x10E1 JUMPI PUSH2 0x10E0 PUSH2 0xD8B JUMP JUMPDEST JUMPDEST PUSH2 0x10ED DUP8 DUP3 DUP9 ADD PUSH2 0x1052 JUMP JUMPDEST SWAP4 POP POP PUSH1 0x40 PUSH2 0x10FE DUP8 DUP3 DUP9 ADD PUSH2 0xDAE JUMP JUMPDEST SWAP3 POP POP PUSH1 0x60 PUSH2 0x110F DUP8 DUP3 DUP9 ADD PUSH2 0xEFB JUMP JUMPDEST SWAP2 POP POP SWAP3 SWAP6 SWAP2 SWAP5 POP SWAP3 POP JUMP JUMPDEST PUSH0 DUP1 PUSH0 DUP1 PUSH0 PUSH1 0xA0 DUP7 DUP9 SUB SLT ISZERO PUSH2 0x1134 JUMPI PUSH2 0x1133 PUSH2 0xD87 JUMP JUMPDEST JUMPDEST PUSH0 PUSH2 0x1141 DUP9 DUP3 DUP10 ADD PUSH2 0xDAE JUMP JUMPDEST SWAP6 POP POP PUSH1 0x20 DUP7 ADD CALLDATALOAD PUSH8 0xFFFFFFFFFFFFFFFF DUP2 GT ISZERO PUSH2 0x1162 JUMPI PUSH2 0x1161 PUSH2 0xD8B JUMP JUMPDEST JUMPDEST PUSH2 0x116E DUP9 DUP3 DUP10 ADD PUSH2 0x1052 JUMP JUMPDEST SWAP5 POP POP PUSH1 0x40 DUP7 ADD CALLDATALOAD PUSH8 0xFFFFFFFFFFFFFFFF DUP2 GT ISZERO PUSH2 0x118F JUMPI PUSH2 0x118E PUSH2 0xD8B JUMP JUMPDEST JUMPDEST PUSH2 0x119B DUP9 DUP3 DUP10 ADD PUSH2 0x1052 JUMP JUMPDEST SWAP4 POP POP PUSH1 0x60 PUSH2 0x11AC DUP9 DUP3 DUP10 ADD PUSH2 0xDAE JUMP JUMPDEST SWAP3 POP POP PUSH1 0x80 PUSH2 0x11BD DUP9 DUP3 DUP10 ADD PUSH2 0xEFB JUMP JUMPDEST SWAP2 POP POP SWAP3 SWAP6 POP SWAP3 SWAP6 SWAP1 SWAP4 POP JUMP JUMPDEST PUSH0 DUP2 MLOAD SWAP1 POP SWAP2 SWAP1 POP JUMP JUMPDEST PUSH0 DUP3 DUP3 MSTORE PUSH1 0x20 DUP3 ADD SWAP1 POP SWAP3 SWAP2 POP POP JUMP JUMPDEST PUSH0 DUP2 SWAP1 POP PUSH1 0x20 DUP3 ADD SWAP1 POP SWAP2 SWAP1 POP JUMP JUMPDEST PUSH2 0x11FC DUP2 PUSH2 0xD8F JUMP JUMPDEST DUP3 MSTORE POP POP JUMP JUMPDEST PUSH0 DUP3 DUP3 MSTORE PUSH1 0x20 DUP3 ADD SWAP1 POP SWAP3 SWAP2 POP POP JUMP JUMPDEST PUSH0 PUSH2 0x121C DUP3 PUSH2 0xDFC JUMP JUMPDEST PUSH2 0x1226 DUP2 DUP6 PUSH2 0x1202 JUMP JUMPDEST SWAP4 POP PUSH2 0x1236 DUP2 DUP6 PUSH1 0x20 DUP7 ADD PUSH2 0xE16 JUMP JUMPDEST PUSH2 0x123F DUP2 PUSH2 0xE3E JUMP JUMPDEST DUP5 ADD SWAP2 POP POP SWAP3 SWAP2 POP POP JUMP JUMPDEST PUSH2 0x1253 DUP2 PUSH2 0xD45 JUMP JUMPDEST DUP3 MSTORE POP POP JUMP JUMPDEST PUSH0 PUSH1 0xA0 DUP4 ADD PUSH0 DUP4 ADD MLOAD PUSH2 0x126E PUSH0 DUP7 ADD DUP3 PUSH2 0x11F3 JUMP JUMPDEST POP PUSH1 0x20 DUP4 ADD MLOAD DUP5 DUP3 SUB PUSH1 0x20 DUP7 ADD MSTORE PUSH2 0x1286 DUP3 DUP3 PUSH2 0x1212 JUMP JUMPDEST SWAP2 POP POP PUSH1 0x40 DUP4 ADD MLOAD DUP5 DUP3 SUB PUSH1 0x40 DUP7 ADD MSTORE PUSH2 0x12A0 DUP3 DUP3 PUSH2 0x1212 JUMP JUMPDEST SWAP2 POP POP PUSH1 0x60 DUP4 ADD MLOAD PUSH2 0x12B5 PUSH1 0x60 DUP7 ADD DUP3 PUSH2 0x11F3 JUMP JUMPDEST POP PUSH1 0x80 DUP4 ADD MLOAD PUSH2 0x12C8 PUSH1 0x80 DUP7 ADD DUP3 PUSH2 0x124A JUMP JUMPDEST POP DUP1 SWAP2 POP POP SWAP3 SWAP2 POP POP JUMP JUMPDEST PUSH0 PUSH2 0x12DE DUP4 DUP4 PUSH2 0x1259 JUMP JUMPDEST SWAP1 POP SWAP3 SWAP2 POP POP JUMP JUMPDEST PUSH0 PUSH1 0x20 DUP3 ADD SWAP1 POP SWAP2 SWAP1 POP JUMP JUMPDEST PUSH0 PUSH2 0x12FC DUP3 PUSH2 0x11CA JUMP JUMPDEST PUSH2 0x1306 DUP2 DUP6 PUSH2 0x11D4 JUMP JUMPDEST SWAP4 POP DUP4 PUSH1 0x20 DUP3 MUL DUP6 ADD PUSH2 0x1318 DUP6 PUSH2 0x11E4 JUMP JUMPDEST DUP1 PUSH0 JUMPDEST DUP6 DUP2 LT ISZERO PUSH2 0x1353 JUMPI DUP5 DUP5 SUB DUP10 MSTORE DUP2 MLOAD PUSH2 0x1334 DUP6 DUP3 PUSH2 0x12D3 JUMP JUMPDEST SWAP5 POP PUSH2 0x133F DUP4 PUSH2 0x12E6 JUMP JUMPDEST SWAP3 POP PUSH1 0x20 DUP11 ADD SWAP10 POP POP PUSH1 0x1 DUP2 ADD SWAP1 POP PUSH2 0x131B JUMP JUMPDEST POP DUP3 SWAP8 POP DUP8 SWAP6 POP POP POP POP POP POP SWAP3 SWAP2 POP POP JUMP JUMPDEST PUSH0 PUSH1 0x20 DUP3 ADD SWAP1 POP DUP2 DUP2 SUB PUSH0 DUP4 ADD MSTORE PUSH2 0x137D DUP2 DUP5 PUSH2 0x12F2 JUMP JUMPDEST SWAP1 POP SWAP3 SWAP2 POP POP JUMP JUMPDEST PUSH0 DUP1 PUSH1 0x40 DUP4 DUP6 SUB SLT ISZERO PUSH2 0x139B JUMPI PUSH2 0x139A PUSH2 0xD87 JUMP JUMPDEST JUMPDEST PUSH0 PUSH2 0x13A8 DUP6 DUP3 DUP7 ADD PUSH2 0xEFB JUMP JUMPDEST SWAP3 POP POP PUSH1 0x20 PUSH2 0x13B9 DUP6 DUP3 DUP7 ADD PUSH2 0xDAE JUMP JUMPDEST SWAP2 POP POP SWAP3 POP SWAP3 SWAP1 POP JUMP JUMPDEST PUSH32 0x4E487B7100000000000000000000000000000000000000000000000000000000 PUSH0 MSTORE PUSH1 0x32 PUSH1 0x4 MSTORE PUSH1 0x24 PUSH0 REVERT JUMPDEST PUSH0 PUSH1 0x40 DUP3 ADD SWAP1 POP PUSH2 0x1403 PUSH0 DUP4 ADD DUP6 PUSH2 0xDED JUMP JUMPDEST PUSH2 0x1410 PUSH1 0x20 DUP4 ADD DUP5 PUSH2 0xDED JUMP JUMPDEST SWAP4 SWAP3 POP POP POP JUMP JUMPDEST PUSH32 0x4E487B7100000000000000000000000000000000000000000000000000000000 PUSH0 MSTORE PUSH1 0x11 PUSH1 0x4 MSTORE PUSH1 0x24 PUSH0 REVERT JUMPDEST PUSH0 PUSH2 0x144E DUP3 PUSH2 0xD8F JUMP JUMPDEST SWAP2 POP PUSH2 0x1459 DUP4 PUSH2 0xD8F JUMP JUMPDEST SWAP3 POP DUP3 DUP3 SUB SWAP1 POP DUP2 DUP2 GT ISZERO PUSH2 0x1471 JUMPI PUSH2 0x1470 PUSH2 0x1417 JUMP JUMPDEST JUMPDEST SWAP3 SWAP2 POP POP JUMP JUMPDEST PUSH0 PUSH2 0x1481 DUP3 PUSH2 0xD8F JUMP JUMPDEST SWAP2 POP PUSH2 0x148C DUP4 PUSH2 0xD8F JUMP JUMPDEST SWAP3 POP DUP3 DUP3 ADD SWAP1 POP DUP1 DUP3 GT ISZERO PUSH2 0x14A4 JUMPI PUSH2 0x14A3 PUSH2 0x1417 JUMP JUMPDEST JUMPDEST SWAP3 SWAP2 POP POP JUMP JUMPDEST PUSH0 PUSH1 0x60 DUP3 ADD SWAP1 POP PUSH2 0x14BD PUSH0 DUP4 ADD DUP7 PUSH2 0xD56 JUMP JUMPDEST PUSH2 0x14CA PUSH1 0x20 DUP4 ADD DUP6 PUSH2 0xD56 JUMP JUMPDEST PUSH2 0x14D7 PUSH1 0x40 DUP4 ADD DUP5 PUSH2 0xDED JUMP JUMPDEST SWAP5 SWAP4 POP POP POP POP JUMP JUMPDEST PUSH32 0x4E487B7100000000000000000000000000000000000000000000000000000000 PUSH0 MSTORE PUSH1 0x22 PUSH1 0x4 MSTORE PUSH1 0x24 PUSH0 REVERT JUMPDEST PUSH0 PUSH1 0x2 DUP3 DIV SWAP1 POP PUSH1 0x1 DUP3 AND DUP1 PUSH2 0x1523 JUMPI PUSH1 0x7F DUP3 AND SWAP2 POP JUMPDEST PUSH1 0x20 DUP3 LT DUP2 SUB PUSH2 0x1536 JUMPI PUSH2 0x1535 PUSH2 0x14DF JUMP JUMPDEST JUMPDEST POP SWAP2 SWAP1 POP JUMP JUMPDEST PUSH0 DUP2 SWAP1 POP DUP2 PUSH0 MSTORE PUSH1 0x20 PUSH0 KECCAK256 SWAP1 POP SWAP2 SWAP1 POP JUMP JUMPDEST PUSH0 PUSH1 0x20 PUSH1 0x1F DUP4 ADD DIV SWAP1 POP SWAP2 SWAP1 POP JUMP JUMPDEST PUSH0 DUP3 DUP3 SHL SWAP1 POP SWAP3 SWAP2 POP POP JUMP JUMPDEST PUSH0 PUSH1 0x8 DUP4 MUL PUSH2 0x1598 PUSH32 0xFFFFFFFFFFFFFFFFFFFFFFFFFFFFFFFFFFFFFFFFFFFFFFFFFFFFFFFFFFFFFFFF DUP3 PUSH2 0x155D JUMP JUMPDEST PUSH2 0x15A2 DUP7 DUP4 PUSH2 0x155D JUMP JUMPDEST SWAP6 POP DUP1 NOT DUP5 AND SWAP4 POP DUP1 DUP7 AND DUP5 OR SWAP3 POP POP POP SWAP4 SWAP3 POP POP POP JUMP JUMPDEST PUSH0 DUP2 SWAP1 POP SWAP2 SWAP1 POP JUMP JUMPDEST PUSH0 PUSH2 0x15DD PUSH2 0x15D8 PUSH2 0x15D3 DUP5 PUSH2 0xD8F JUMP JUMPDEST PUSH2 0x15BA JUMP JUMPDEST PUSH2 0xD8F JUMP JUMPDEST SWAP1 POP SWAP2 SWAP1 POP JUMP JUMPDEST PUSH0 DUP2 SWAP1 POP SWAP2 SWAP1 POP JUMP JUMPDEST PUSH2 0x15F6 DUP4 PUSH2 0x15C3 JUMP JUMPDEST PUSH2 0x160A PUSH2 0x1602 DUP3 PUSH2 0x15E4 JUMP JUMPDEST DUP5 DUP5 SLOAD PUSH2 0x1569 JUMP JUMPDEST DUP3 SSTORE POP POP POP POP JUMP JUMPDEST PUSH0 SWAP1 JUMP JUMPDEST PUSH2 0x161E PUSH2 0x1612 JUMP JUMPDEST PUSH2 0x1629 DUP2 DUP5 DUP5 PUSH2 0x15ED JUMP JUMPDEST POP POP POP JUMP JUMPDEST JUMPDEST DUP2 DUP2 LT ISZERO PUSH2 0x164C JUMPI PUSH2 0x1641 PUSH0 DUP3 PUSH2 0x1616 JUMP JUMPDEST PUSH1 0x1 DUP2 ADD SWAP1 POP PUSH2 0x162F JUMP JUMPDEST POP POP JUMP JUMPDEST PUSH1 0x1F DUP3 GT ISZERO PUSH2 0x1691 JUMPI PUSH2 0x1662 DUP2 PUSH2 0x153C JUMP JUMPDEST PUSH2 0x166B DUP5 PUSH2 0x154E JUMP JUMPDEST DUP2 ADD PUSH1 0x20 DUP6 LT ISZERO PUSH2 0x167A JUMPI DUP2 SWAP1 POP JUMPDEST PUSH2 0x168E PUSH2 0x1686 DUP6 PUSH2 0x154E JUMP JUMPDEST DUP4 ADD DUP3 PUSH2 0x162E JUMP JUMPDEST POP POP JUMPDEST POP POP POP JUMP JUMPDEST PUSH0 DUP3 DUP3 SHR SWAP1 POP SWAP3 SWAP2 POP POP JUMP JUMPDEST PUSH0 PUSH2 0x16B1 PUSH0 NOT DUP5 PUSH1 0x8 MUL PUSH2 0x1696 JUMP JUMPDEST NOT DUP1 DUP4 AND SWAP2 POP POP SWAP3 SWAP2 POP POP JUMP JUMPDEST PUSH0 PUSH2 0x16C9 DUP4 DUP4 PUSH2 0x16A2 JUMP JUMPDEST SWAP2 POP DUP3 PUSH1 0x2 MUL DUP3 OR SWAP1 POP SWAP3 SWAP2 POP POP JUMP JUMPDEST PUSH2 0x16E2 DUP3 PUSH2 0xDFC JUMP JUMPDEST PUSH8 0xFFFFFFFFFFFFFFFF DUP2 GT ISZERO PUSH2 0x16FB JUMPI PUSH2 0x16FA PUSH2 0xF5B JUMP JUMPDEST JUMPDEST PUSH2 0x1705 DUP3 SLOAD PUSH2 0x150C JUMP JUMPDEST PUSH2 0x1710 DUP3 DUP3 DUP6 PUSH2 0x1650 JUMP JUMPDEST PUSH0 PUSH1 0x20 SWAP1 POP PUSH1 0x1F DUP4 GT PUSH1 0x1 DUP2 EQ PUSH2 0x1741 JUMPI PUSH0 DUP5 ISZERO PUSH2 0x172F JUMPI DUP3 DUP8 ADD MLOAD SWAP1 POP JUMPDEST PUSH2 0x1739 DUP6 DUP3 PUSH2 0x16BE JUMP JUMPDEST DUP7 SSTORE POP PUSH2 0x17A0 JUMP JUMPDEST PUSH1 0x1F NOT DUP5 AND PUSH2 0x174F DUP7 PUSH2 0x153C JUMP JUMPDEST PUSH0 JUMPDEST DUP3 DUP2 LT ISZERO PUSH2 0x1776 JUMPI DUP5 DUP10 ADD MLOAD DUP3 SSTORE PUSH1 0x1 DUP3 ADD SWAP2 POP PUSH1 0x20 DUP6 ADD SWAP5 POP PUSH1 0x20 DUP2 ADD SWAP1 POP PUSH2 0x1751 JUMP JUMPDEST DUP7 DUP4 LT ISZERO PUSH2 0x1793 JUMPI DUP5 DUP10 ADD MLOAD PUSH2 0x178F PUSH1 0x1F DUP10 AND DUP3 PUSH2 0x16A2 JUMP JUMPDEST DUP4 SSTORE POP JUMPDEST PUSH1 0x1 PUSH1 0x2 DUP9 MUL ADD DUP9 SSTORE POP POP POP JUMPDEST POP POP POP POP POP POP JUMP JUMPDEST PUSH0 PUSH2 0x17B2 DUP3 PUSH2 0xD8F JUMP JUMPDEST SWAP2 POP PUSH32 0xFFFFFFFFFFFFFFFFFFFFFFFFFFFFFFFFFFFFFFFFFFFFFFFFFFFFFFFFFFFFFFFF DUP3 SUB PUSH2 0x17E4 JUMPI PUSH2 0x17E3 PUSH2 0x1417 JUMP JUMPDEST JUMPDEST PUSH1 0x1 DUP3 ADD SWAP1 POP SWAP2 SWAP1 POP JUMP JUMPDEST PUSH32 0x5A616D657374616E656E6563206E656578697374756A65000000000000000000 PUSH0 DUP3 ADD MSTORE POP JUMP JUMPDEST PUSH0 PUSH2 0x1823 PUSH1 0x17 DUP4 PUSH2 0xE06 JUMP JUMPDEST SWAP2 POP PUSH2 0x182E DUP3 PUSH2 0x17EF JUMP JUMPDEST PUSH1 0x20 DUP3 ADD SWAP1 POP SWAP2 SWAP1 POP JUMP JUMPDEST PUSH0 PUSH1 0x20 DUP3 ADD SWAP1 POP DUP2 DUP2 SUB PUSH0 DUP4 ADD MSTORE PUSH2 0x1850 DUP2 PUSH2 0x1817 JUMP JUMPDEST SWAP1 POP SWAP2 SWAP1 POP JUMP INVALID LOG2 PUSH5 0x6970667358 0x22 SLT KECCAK256 0xF9 0x2D 0x29 DUP9 GAS 0x25 INVALID PUSH4 0x1A9284C DUP10 0xE9 MSTORE SGT COINBASE 0xE6 REVERT 0xEF BYTE 0x2C SWAP4 0xCF 0xEF DUP2 CALLDATACOPY PUSH29 0xE1B393C364736F6C634300081600330000000000000000000000000000 "
				},
				"gasEstimates": {
					"creation": {
						"codeDepositCost": "1257000",
						"executionCost": "47677",
						"totalCost": "1304677"
					},
					"external": {
						"balances(address)": "2869",
						"cist_zam(uint256)": "infinite",
						"minter()": "2506",
						"platba_vyplaty(uint256)": "infinite",
						"pocet_zam()": "2462",
						"upravit_zam(uint256,string,string,uint256,address)": "infinite",
						"vsichni_zam()": "infinite",
						"vymazat_zam(uint256)": "infinite",
						"vytvorit_zam(string,string,uint256,address)": "infinite",
						"ziskat_coiny(address,uint256)": "infinite"
					},
					"internal": {
						"najit(uint256)": "infinite"
					}
				},
				"methodIdentifiers": {
					"balances(address)": "27e235e3",
					"cist_zam(uint256)": "26661b3a",
					"minter()": "07546172",
					"platba_vyplaty(uint256)": "22be3c13",
					"pocet_zam()": "755a8f6b",
					"upravit_zam(uint256,string,string,uint256,address)": "32a42c0e",
					"vsichni_zam()": "949d9add",
					"vymazat_zam(uint256)": "fd65b57d",
					"vytvorit_zam(string,string,uint256,address)": "2ebc3fbd",
					"ziskat_coiny(address,uint256)": "ad6edbfc"
				}
			},
			"storageLayout": {
				"storage": [
					{
						"astId": 3,
						"contract": "contracts/emp_crud.sol:Crud",
						"label": "minter",
						"offset": 0,
						"slot": "0",
						"type": "t_address"
					},
					{
						"astId": 7,
						"contract": "contracts/emp_crud.sol:Crud",
						"label": "balances",
						"offset": 0,
						"slot": "1",
						"type": "t_mapping(t_address,t_uint256)"
					},
					{
						"astId": 39,
						"contract": "contracts/emp_crud.sol:Crud",
						"label": "zamestnanci",
						"offset": 0,
						"slot": "2",
						"type": "t_array(t_struct(zamestnanec)35_storage)dyn_storage"
					},
					{
						"astId": 42,
						"contract": "contracts/emp_crud.sol:Crud",
						"label": "nextId",
						"offset": 0,
						"slot": "3",
						"type": "t_uint256"
					}
				],
				"types": {
					"t_address": {
						"encoding": "inplace",
						"label": "address",
						"numberOfBytes": "20"
					},
					"t_array(t_struct(zamestnanec)35_storage)dyn_storage": {
						"base": "t_struct(zamestnanec)35_storage",
						"encoding": "dynamic_array",
						"label": "struct Crud.zamestnanec[]",
						"numberOfBytes": "32"
					},
					"t_mapping(t_address,t_uint256)": {
						"encoding": "mapping",
						"key": "t_address",
						"label": "mapping(address => uint256)",
						"numberOfBytes": "32",
						"value": "t_uint256"
					},
					"t_string_storage": {
						"encoding": "bytes",
						"label": "string",
						"numberOfBytes": "32"
					},
					"t_struct(zamestnanec)35_storage": {
						"encoding": "inplace",
						"label": "struct Crud.zamestnanec",
						"members": [
							{
								"astId": 26,
								"contract": "contracts/emp_crud.sol:Crud",
								"label": "id",
								"offset": 0,
								"slot": "0",
								"type": "t_uint256"
							},
							{
								"astId": 28,
								"contract": "contracts/emp_crud.sol:Crud",
								"label": "jmeno",
								"offset": 0,
								"slot": "1",
								"type": "t_string_storage"
							},
							{
								"astId": 30,
								"contract": "contracts/emp_crud.sol:Crud",
								"label": "mail",
								"offset": 0,
								"slot": "2",
								"type": "t_string_storage"
							},
							{
								"astId": 32,
								"contract": "contracts/emp_crud.sol:Crud",
								"label": "plat",
								"offset": 0,
								"slot": "3",
								"type": "t_uint256"
							},
							{
								"astId": 34,
								"contract": "contracts/emp_crud.sol:Crud",
								"label": "eth_adresa",
								"offset": 0,
								"slot": "4",
								"type": "t_address"
							}
						],
						"numberOfBytes": "160"
					},
					"t_uint256": {
						"encoding": "inplace",
						"label": "uint256",
						"numberOfBytes": "32"
					}
				}
			},
			"userdoc": {
				"kind": "user",
				"methods": {},
				"version": 1
			}
		}
	}
}